{
	"bai02/StorageFactory.sol": {
		"StorageFactory": {
			"abi": [
				{
					"inputs": [],
					"name": "createSimpleStorage",
					"outputs": [],
					"stateMutability": "nonpayable",
					"type": "function"
				},
				{
					"inputs": [
						{
							"internalType": "uint256",
							"name": "index",
							"type": "uint256"
						}
					],
					"name": "sfGetNumber",
					"outputs": [
						{
							"internalType": "uint256",
							"name": "",
							"type": "uint256"
						}
					],
					"stateMutability": "view",
					"type": "function"
				},
				{
					"inputs": [
						{
							"internalType": "uint256",
							"name": "index",
							"type": "uint256"
						},
						{
							"internalType": "uint256",
							"name": "newNumber",
							"type": "uint256"
						}
					],
					"name": "sfStore",
					"outputs": [],
					"stateMutability": "nonpayable",
					"type": "function"
				},
				{
					"inputs": [
						{
							"internalType": "uint256",
							"name": "",
							"type": "uint256"
						}
					],
					"name": "simpleStorageContracts",
					"outputs": [
						{
							"internalType": "contract SimpleStorage",
							"name": "",
							"type": "address"
						}
					],
					"stateMutability": "view",
					"type": "function"
				}
			],
			"devdoc": {
				"kind": "dev",
				"methods": {},
				"version": 1
			},
			"evm": {
				"assembly": "    /* \"bai02/StorageFactory.sol\":125:643  contract StorageFactory {... */\n  mstore(0x40, 0x80)\n  callvalue\n  dup1\n  iszero\n  tag_1\n  jumpi\n  0x00\n  dup1\n  revert\ntag_1:\n  pop\n  dataSize(sub_0)\n  dup1\n  dataOffset(sub_0)\n  0x00\n  codecopy\n  0x00\n  return\nstop\n\nsub_0: assembly {\n        /* \"bai02/StorageFactory.sol\":125:643  contract StorageFactory {... */\n      mstore(0x40, 0x80)\n      callvalue\n      dup1\n      iszero\n      tag_1\n      jumpi\n      0x00\n      dup1\n      revert\n    tag_1:\n      pop\n      jumpi(tag_2, lt(calldatasize, 0x04))\n      shr(0xe0, calldataload(0x00))\n      dup1\n      0x1563700f\n      eq\n      tag_3\n      jumpi\n      dup1\n      0x40d66b3b\n      eq\n      tag_4\n      jumpi\n      dup1\n      0xa5772eba\n      eq\n      tag_5\n      jumpi\n      dup1\n      0xb51c8444\n      eq\n      tag_6\n      jumpi\n    tag_2:\n      0x00\n      dup1\n      revert\n        /* \"bai02/StorageFactory.sol\":379:502  function sfStore(uint256 index, uint256 newNumber) public {... */\n    tag_3:\n      tag_7\n      0x04\n      dup1\n      calldatasize\n      sub\n      dup2\n      add\n      swap1\n      tag_8\n      swap2\n      swap1\n      tag_9\n      jump\t// in\n    tag_8:\n      tag_10\n      jump\t// in\n    tag_7:\n      stop\n        /* \"bai02/StorageFactory.sol\":208:373  function createSimpleStorage() public {... */\n    tag_4:\n      tag_11\n      tag_12\n      jump\t// in\n    tag_11:\n      stop\n        /* \"bai02/StorageFactory.sol\":156:201  SimpleStorage[] public simpleStorageContracts */\n    tag_5:\n      tag_13\n      0x04\n      dup1\n      calldatasize\n      sub\n      dup2\n      add\n      swap1\n      tag_14\n      swap2\n      swap1\n      tag_15\n      jump\t// in\n    tag_14:\n      tag_16\n      jump\t// in\n    tag_13:\n      mload(0x40)\n      tag_17\n      swap2\n      swap1\n      tag_18\n      jump\t// in\n    tag_17:\n      mload(0x40)\n      dup1\n      swap2\n      sub\n      swap1\n      return\n        /* \"bai02/StorageFactory.sol\":508:640  function sfGetNumber(uint256 index) public view returns(uint256) {... */\n    tag_6:\n      tag_19\n      0x04\n      dup1\n      calldatasize\n      sub\n      dup2\n      add\n      swap1\n      tag_20\n      swap2\n      swap1\n      tag_15\n      jump\t// in\n    tag_20:\n      tag_21\n      jump\t// in\n    tag_19:\n      mload(0x40)\n      tag_22\n      swap2\n      swap1\n      tag_23\n      jump\t// in\n    tag_22:\n      mload(0x40)\n      dup1\n      swap2\n      sub\n      swap1\n      return\n        /* \"bai02/StorageFactory.sol\":379:502  function sfStore(uint256 index, uint256 newNumber) public {... */\n    tag_10:\n        /* \"bai02/StorageFactory.sol\":448:470  simpleStorageContracts */\n      0x00\n        /* \"bai02/StorageFactory.sol\":471:476  index */\n      dup3\n        /* \"bai02/StorageFactory.sol\":448:477  simpleStorageContracts[index] */\n      dup2\n      sload\n      dup2\n      lt\n      tag_25\n      jumpi\n      tag_26\n      tag_27\n      jump\t// in\n    tag_26:\n    tag_25:\n      swap1\n      0x00\n      mstore\n      keccak256(0x00, 0x20)\n      add\n      0x00\n      swap1\n      sload\n      swap1\n      0x0100\n      exp\n      swap1\n      div\n      0xffffffffffffffffffffffffffffffffffffffff\n      and\n        /* \"bai02/StorageFactory.sol\":448:483  simpleStorageContracts[index].store */\n      0xffffffffffffffffffffffffffffffffffffffff\n      and\n      0x6057361d\n        /* \"bai02/StorageFactory.sol\":484:493  newNumber */\n      dup3\n        /* \"bai02/StorageFactory.sol\":448:494  simpleStorageContracts[index].store(newNumber) */\n      mload(0x40)\n      dup3\n      0xffffffff\n      and\n      0xe0\n      shl\n      dup2\n      mstore\n      0x04\n      add\n      tag_29\n      swap2\n      swap1\n      tag_23\n      jump\t// in\n    tag_29:\n      0x00\n      mload(0x40)\n      dup1\n      dup4\n      sub\n      dup2\n      0x00\n      dup8\n      dup1\n      extcodesize\n      iszero\n      dup1\n      iszero\n      tag_30\n      jumpi\n      0x00\n      dup1\n      revert\n    tag_30:\n      pop\n      gas\n      call\n      iszero\n      dup1\n      iszero\n      tag_32\n      jumpi\n      returndatasize\n      0x00\n      dup1\n      returndatacopy\n      revert(0x00, returndatasize)\n    tag_32:\n      pop\n      pop\n      pop\n      pop\n        /* \"bai02/StorageFactory.sol\":379:502  function sfStore(uint256 index, uint256 newNumber) public {... */\n      pop\n      pop\n      jump\t// out\n        /* \"bai02/StorageFactory.sol\":208:373  function createSimpleStorage() public {... */\n    tag_12:\n        /* \"bai02/StorageFactory.sol\":257:287  SimpleStorage newSimpleStorage */\n      0x00\n        /* \"bai02/StorageFactory.sol\":290:309  new SimpleStorage() */\n      mload(0x40)\n      tag_34\n      swap1\n      tag_35\n      jump\t// in\n    tag_34:\n      mload(0x40)\n      dup1\n      swap2\n      sub\n      swap1\n      0x00\n      create\n      dup1\n      iszero\n      dup1\n      iszero\n      tag_36\n      jumpi\n      returndatasize\n      0x00\n      dup1\n      returndatacopy\n      revert(0x00, returndatasize)\n    tag_36:\n      pop\n        /* \"bai02/StorageFactory.sol\":257:309  SimpleStorage newSimpleStorage = new SimpleStorage() */\n      swap1\n      pop\n        /* \"bai02/StorageFactory.sol\":320:342  simpleStorageContracts */\n      0x00\n        /* \"bai02/StorageFactory.sol\":348:364  newSimpleStorage */\n      dup2\n        /* \"bai02/StorageFactory.sol\":320:365  simpleStorageContracts.push(newSimpleStorage) */\n      swap1\n      dup1\n      0x01\n      dup2\n      sload\n      add\n      dup1\n      dup3\n      sstore\n      dup1\n      swap2\n      pop\n      pop\n      0x01\n      swap1\n      sub\n      swap1\n      0x00\n      mstore\n      keccak256(0x00, 0x20)\n      add\n      0x00\n      swap1\n      swap2\n      swap1\n      swap2\n      swap1\n      swap2\n      0x0100\n      exp\n      dup2\n      sload\n      dup2\n      0xffffffffffffffffffffffffffffffffffffffff\n      mul\n      not\n      and\n      swap1\n      dup4\n      0xffffffffffffffffffffffffffffffffffffffff\n      and\n      mul\n      or\n      swap1\n      sstore\n      pop\n        /* \"bai02/StorageFactory.sol\":246:373  {... */\n      pop\n        /* \"bai02/StorageFactory.sol\":208:373  function createSimpleStorage() public {... */\n      jump\t// out\n        /* \"bai02/StorageFactory.sol\":156:201  SimpleStorage[] public simpleStorageContracts */\n    tag_16:\n      0x00\n      dup2\n      dup2\n      sload\n      dup2\n      lt\n      tag_38\n      jumpi\n      0x00\n      dup1\n      revert\n    tag_38:\n      swap1\n      0x00\n      mstore\n      keccak256(0x00, 0x20)\n      add\n      0x00\n      swap2\n      pop\n      sload\n      swap1\n      0x0100\n      exp\n      swap1\n      div\n      0xffffffffffffffffffffffffffffffffffffffff\n      and\n      dup2\n      jump\t// out\n        /* \"bai02/StorageFactory.sol\":508:640  function sfGetNumber(uint256 index) public view returns(uint256) {... */\n    tag_21:\n        /* \"bai02/StorageFactory.sol\":564:571  uint256 */\n      0x00\n        /* \"bai02/StorageFactory.sol\":591:613  simpleStorageContracts */\n      dup1\n        /* \"bai02/StorageFactory.sol\":614:619  index */\n      dup3\n        /* \"bai02/StorageFactory.sol\":591:620  simpleStorageContracts[index] */\n      dup2\n      sload\n      dup2\n      lt\n      tag_41\n      jumpi\n      tag_42\n      tag_27\n      jump\t// in\n    tag_42:\n    tag_41:\n      swap1\n      0x00\n      mstore\n      keccak256(0x00, 0x20)\n      add\n      0x00\n      swap1\n      sload\n      swap1\n      0x0100\n      exp\n      swap1\n      div\n      0xffffffffffffffffffffffffffffffffffffffff\n      and\n        /* \"bai02/StorageFactory.sol\":591:630  simpleStorageContracts[index].getNumber */\n      0xffffffffffffffffffffffffffffffffffffffff\n      and\n      0xf2c9ecd8\n        /* \"bai02/StorageFactory.sol\":591:632  simpleStorageContracts[index].getNumber() */\n      mload(0x40)\n      dup2\n      0xffffffff\n      and\n      0xe0\n      shl\n      dup2\n      mstore\n      0x04\n      add\n      0x20\n      mload(0x40)\n      dup1\n      dup4\n      sub\n      dup2\n      dup7\n      gas\n      staticcall\n      iszero\n      dup1\n      iszero\n      tag_45\n      jumpi\n      returndatasize\n      0x00\n      dup1\n      returndatacopy\n      revert(0x00, returndatasize)\n    tag_45:\n      pop\n      pop\n      pop\n      pop\n      mload(0x40)\n      returndatasize\n      not(0x1f)\n      0x1f\n      dup3\n      add\n      and\n      dup3\n      add\n      dup1\n      0x40\n      mstore\n      pop\n      dup2\n      add\n      swap1\n      tag_46\n      swap2\n      swap1\n      tag_47\n      jump\t// in\n    tag_46:\n        /* \"bai02/StorageFactory.sol\":584:632  return simpleStorageContracts[index].getNumber() */\n      swap1\n      pop\n        /* \"bai02/StorageFactory.sol\":508:640  function sfGetNumber(uint256 index) public view returns(uint256) {... */\n      swap2\n      swap1\n      pop\n      jump\t// out\n    tag_35:\n      dataSize(sub_0)\n      dup1\n      dataOffset(sub_0)\n      dup4\n      codecopy\n      add\n      swap1\n      jump\t// out\n        /* \"#utility.yul\":88:205   */\n    tag_49:\n        /* \"#utility.yul\":197:198   */\n      0x00\n        /* \"#utility.yul\":194:195   */\n      dup1\n        /* \"#utility.yul\":187:199   */\n      revert\n        /* \"#utility.yul\":334:411   */\n    tag_51:\n        /* \"#utility.yul\":371:378   */\n      0x00\n        /* \"#utility.yul\":400:405   */\n      dup2\n        /* \"#utility.yul\":389:405   */\n      swap1\n      pop\n        /* \"#utility.yul\":334:411   */\n      swap2\n      swap1\n      pop\n      jump\t// out\n        /* \"#utility.yul\":417:539   */\n    tag_52:\n        /* \"#utility.yul\":490:514   */\n      tag_68\n        /* \"#utility.yul\":508:513   */\n      dup2\n        /* \"#utility.yul\":490:514   */\n      tag_51\n      jump\t// in\n    tag_68:\n        /* \"#utility.yul\":483:488   */\n      dup2\n        /* \"#utility.yul\":480:515   */\n      eq\n        /* \"#utility.yul\":470:533   */\n      tag_69\n      jumpi\n        /* \"#utility.yul\":529:530   */\n      0x00\n        /* \"#utility.yul\":526:527   */\n      dup1\n        /* \"#utility.yul\":519:531   */\n      revert\n        /* \"#utility.yul\":470:533   */\n    tag_69:\n        /* \"#utility.yul\":417:539   */\n      pop\n      jump\t// out\n        /* \"#utility.yul\":545:684   */\n    tag_53:\n        /* \"#utility.yul\":591:596   */\n      0x00\n        /* \"#utility.yul\":629:635   */\n      dup2\n        /* \"#utility.yul\":616:636   */\n      calldataload\n        /* \"#utility.yul\":607:636   */\n      swap1\n      pop\n        /* \"#utility.yul\":645:678   */\n      tag_71\n        /* \"#utility.yul\":672:677   */\n      dup2\n        /* \"#utility.yul\":645:678   */\n      tag_52\n      jump\t// in\n    tag_71:\n        /* \"#utility.yul\":545:684   */\n      swap3\n      swap2\n      pop\n      pop\n      jump\t// out\n        /* \"#utility.yul\":690:1164   */\n    tag_9:\n        /* \"#utility.yul\":758:764   */\n      0x00\n        /* \"#utility.yul\":766:772   */\n      dup1\n        /* \"#utility.yul\":815:817   */\n      0x40\n        /* \"#utility.yul\":803:812   */\n      dup4\n        /* \"#utility.yul\":794:801   */\n      dup6\n        /* \"#utility.yul\":790:813   */\n      sub\n        /* \"#utility.yul\":786:818   */\n      slt\n        /* \"#utility.yul\":783:902   */\n      iszero\n      tag_73\n      jumpi\n        /* \"#utility.yul\":821:900   */\n      tag_74\n      tag_49\n      jump\t// in\n    tag_74:\n        /* \"#utility.yul\":783:902   */\n    tag_73:\n        /* \"#utility.yul\":941:942   */\n      0x00\n        /* \"#utility.yul\":966:1019   */\n      tag_75\n        /* \"#utility.yul\":1011:1018   */\n      dup6\n        /* \"#utility.yul\":1002:1008   */\n      dup3\n        /* \"#utility.yul\":991:1000   */\n      dup7\n        /* \"#utility.yul\":987:1009   */\n      add\n        /* \"#utility.yul\":966:1019   */\n      tag_53\n      jump\t// in\n    tag_75:\n        /* \"#utility.yul\":956:1019   */\n      swap3\n      pop\n        /* \"#utility.yul\":912:1029   */\n      pop\n        /* \"#utility.yul\":1068:1070   */\n      0x20\n        /* \"#utility.yul\":1094:1147   */\n      tag_76\n        /* \"#utility.yul\":1139:1146   */\n      dup6\n        /* \"#utility.yul\":1130:1136   */\n      dup3\n        /* \"#utility.yul\":1119:1128   */\n      dup7\n        /* \"#utility.yul\":1115:1137   */\n      add\n        /* \"#utility.yul\":1094:1147   */\n      tag_53\n      jump\t// in\n    tag_76:\n        /* \"#utility.yul\":1084:1147   */\n      swap2\n      pop\n        /* \"#utility.yul\":1039:1157   */\n      pop\n        /* \"#utility.yul\":690:1164   */\n      swap3\n      pop\n      swap3\n      swap1\n      pop\n      jump\t// out\n        /* \"#utility.yul\":1170:1499   */\n    tag_15:\n        /* \"#utility.yul\":1229:1235   */\n      0x00\n        /* \"#utility.yul\":1278:1280   */\n      0x20\n        /* \"#utility.yul\":1266:1275   */\n      dup3\n        /* \"#utility.yul\":1257:1264   */\n      dup5\n        /* \"#utility.yul\":1253:1276   */\n      sub\n        /* \"#utility.yul\":1249:1281   */\n      slt\n        /* \"#utility.yul\":1246:1365   */\n      iszero\n      tag_78\n      jumpi\n        /* \"#utility.yul\":1284:1363   */\n      tag_79\n      tag_49\n      jump\t// in\n    tag_79:\n        /* \"#utility.yul\":1246:1365   */\n    tag_78:\n        /* \"#utility.yul\":1404:1405   */\n      0x00\n        /* \"#utility.yul\":1429:1482   */\n      tag_80\n        /* \"#utility.yul\":1474:1481   */\n      dup5\n        /* \"#utility.yul\":1465:1471   */\n      dup3\n        /* \"#utility.yul\":1454:1463   */\n      dup6\n        /* \"#utility.yul\":1450:1472   */\n      add\n        /* \"#utility.yul\":1429:1482   */\n      tag_53\n      jump\t// in\n    tag_80:\n        /* \"#utility.yul\":1419:1482   */\n      swap2\n      pop\n        /* \"#utility.yul\":1375:1492   */\n      pop\n        /* \"#utility.yul\":1170:1499   */\n      swap3\n      swap2\n      pop\n      pop\n      jump\t// out\n        /* \"#utility.yul\":1505:1631   */\n    tag_54:\n        /* \"#utility.yul\":1542:1549   */\n      0x00\n        /* \"#utility.yul\":1582:1624   */\n      0xffffffffffffffffffffffffffffffffffffffff\n        /* \"#utility.yul\":1575:1580   */\n      dup3\n        /* \"#utility.yul\":1571:1625   */\n      and\n        /* \"#utility.yul\":1560:1625   */\n      swap1\n      pop\n        /* \"#utility.yul\":1505:1631   */\n      swap2\n      swap1\n      pop\n      jump\t// out\n        /* \"#utility.yul\":1637:1697   */\n    tag_55:\n        /* \"#utility.yul\":1665:1668   */\n      0x00\n        /* \"#utility.yul\":1686:1691   */\n      dup2\n        /* \"#utility.yul\":1679:1691   */\n      swap1\n      pop\n        /* \"#utility.yul\":1637:1697   */\n      swap2\n      swap1\n      pop\n      jump\t// out\n        /* \"#utility.yul\":1703:1845   */\n    tag_56:\n        /* \"#utility.yul\":1753:1762   */\n      0x00\n        /* \"#utility.yul\":1786:1839   */\n      tag_84\n        /* \"#utility.yul\":1804:1838   */\n      tag_85\n        /* \"#utility.yul\":1813:1837   */\n      tag_86\n        /* \"#utility.yul\":1831:1836   */\n      dup5\n        /* \"#utility.yul\":1813:1837   */\n      tag_54\n      jump\t// in\n    tag_86:\n        /* \"#utility.yul\":1804:1838   */\n      tag_55\n      jump\t// in\n    tag_85:\n        /* \"#utility.yul\":1786:1839   */\n      tag_54\n      jump\t// in\n    tag_84:\n        /* \"#utility.yul\":1773:1839   */\n      swap1\n      pop\n        /* \"#utility.yul\":1703:1845   */\n      swap2\n      swap1\n      pop\n      jump\t// out\n        /* \"#utility.yul\":1851:1977   */\n    tag_57:\n        /* \"#utility.yul\":1901:1910   */\n      0x00\n        /* \"#utility.yul\":1934:1971   */\n      tag_88\n        /* \"#utility.yul\":1965:1970   */\n      dup3\n        /* \"#utility.yul\":1934:1971   */\n      tag_56\n      jump\t// in\n    tag_88:\n        /* \"#utility.yul\":1921:1971   */\n      swap1\n      pop\n        /* \"#utility.yul\":1851:1977   */\n      swap2\n      swap1\n      pop\n      jump\t// out\n        /* \"#utility.yul\":1983:2129   */\n    tag_58:\n        /* \"#utility.yul\":2053:2062   */\n      0x00\n        /* \"#utility.yul\":2086:2123   */\n      tag_90\n        /* \"#utility.yul\":2117:2122   */\n      dup3\n        /* \"#utility.yul\":2086:2123   */\n      tag_57\n      jump\t// in\n    tag_90:\n        /* \"#utility.yul\":2073:2123   */\n      swap1\n      pop\n        /* \"#utility.yul\":1983:2129   */\n      swap2\n      swap1\n      pop\n      jump\t// out\n        /* \"#utility.yul\":2135:2306   */\n    tag_59:\n        /* \"#utility.yul\":2242:2299   */\n      tag_92\n        /* \"#utility.yul\":2293:2298   */\n      dup2\n        /* \"#utility.yul\":2242:2299   */\n      tag_58\n      jump\t// in\n    tag_92:\n        /* \"#utility.yul\":2237:2240   */\n      dup3\n        /* \"#utility.yul\":2230:2300   */\n      mstore\n        /* \"#utility.yul\":2135:2306   */\n      pop\n      pop\n      jump\t// out\n        /* \"#utility.yul\":2312:2574   */\n    tag_18:\n        /* \"#utility.yul\":2425:2429   */\n      0x00\n        /* \"#utility.yul\":2463:2465   */\n      0x20\n        /* \"#utility.yul\":2452:2461   */\n      dup3\n        /* \"#utility.yul\":2448:2466   */\n      add\n        /* \"#utility.yul\":2440:2466   */\n      swap1\n      pop\n        /* \"#utility.yul\":2476:2567   */\n      tag_94\n        /* \"#utility.yul\":2564:2565   */\n      0x00\n        /* \"#utility.yul\":2553:2562   */\n      dup4\n        /* \"#utility.yul\":2549:2566   */\n      add\n        /* \"#utility.yul\":2540:2546   */\n      dup5\n        /* \"#utility.yul\":2476:2567   */\n      tag_59\n      jump\t// in\n    tag_94:\n        /* \"#utility.yul\":2312:2574   */\n      swap3\n      swap2\n      pop\n      pop\n      jump\t// out\n        /* \"#utility.yul\":2580:2698   */\n    tag_60:\n        /* \"#utility.yul\":2667:2691   */\n      tag_96\n        /* \"#utility.yul\":2685:2690   */\n      dup2\n        /* \"#utility.yul\":2667:2691   */\n      tag_51\n      jump\t// in\n    tag_96:\n        /* \"#utility.yul\":2662:2665   */\n      dup3\n        /* \"#utility.yul\":2655:2692   */\n      mstore\n        /* \"#utility.yul\":2580:2698   */\n      pop\n      pop\n      jump\t// out\n        /* \"#utility.yul\":2704:2926   */\n    tag_23:\n        /* \"#utility.yul\":2797:2801   */\n      0x00\n        /* \"#utility.yul\":2835:2837   */\n      0x20\n        /* \"#utility.yul\":2824:2833   */\n      dup3\n        /* \"#utility.yul\":2820:2838   */\n      add\n        /* \"#utility.yul\":2812:2838   */\n      swap1\n      pop\n        /* \"#utility.yul\":2848:2919   */\n      tag_98\n        /* \"#utility.yul\":2916:2917   */\n      0x00\n        /* \"#utility.yul\":2905:2914   */\n      dup4\n        /* \"#utility.yul\":2901:2918   */\n      add\n        /* \"#utility.yul\":2892:2898   */\n      dup5\n        /* \"#utility.yul\":2848:2919   */\n      tag_60\n      jump\t// in\n    tag_98:\n        /* \"#utility.yul\":2704:2926   */\n      swap3\n      swap2\n      pop\n      pop\n      jump\t// out\n        /* \"#utility.yul\":2932:3112   */\n    tag_27:\n        /* \"#utility.yul\":2980:3057   */\n      0x4e487b7100000000000000000000000000000000000000000000000000000000\n        /* \"#utility.yul\":2977:2978   */\n      0x00\n        /* \"#utility.yul\":2970:3058   */\n      mstore\n        /* \"#utility.yul\":3077:3081   */\n      0x32\n        /* \"#utility.yul\":3074:3075   */\n      0x04\n        /* \"#utility.yul\":3067:3082   */\n      mstore\n        /* \"#utility.yul\":3101:3105   */\n      0x24\n        /* \"#utility.yul\":3098:3099   */\n      0x00\n        /* \"#utility.yul\":3091:3106   */\n      revert\n        /* \"#utility.yul\":3118:3261   */\n    tag_61:\n        /* \"#utility.yul\":3175:3180   */\n      0x00\n        /* \"#utility.yul\":3206:3212   */\n      dup2\n        /* \"#utility.yul\":3200:3213   */\n      mload\n        /* \"#utility.yul\":3191:3213   */\n      swap1\n      pop\n        /* \"#utility.yul\":3222:3255   */\n      tag_101\n        /* \"#utility.yul\":3249:3254   */\n      dup2\n        /* \"#utility.yul\":3222:3255   */\n      tag_52\n      jump\t// in\n    tag_101:\n        /* \"#utility.yul\":3118:3261   */\n      swap3\n      swap2\n      pop\n      pop\n      jump\t// out\n        /* \"#utility.yul\":3267:3618   */\n    tag_47:\n        /* \"#utility.yul\":3337:3343   */\n      0x00\n        /* \"#utility.yul\":3386:3388   */\n      0x20\n        /* \"#utility.yul\":3374:3383   */\n      dup3\n        /* \"#utility.yul\":3365:3372   */\n      dup5\n        /* \"#utility.yul\":3361:3384   */\n      sub\n        /* \"#utility.yul\":3357:3389   */\n      slt\n        /* \"#utility.yul\":3354:3473   */\n      iszero\n      tag_103\n      jumpi\n        /* \"#utility.yul\":3392:3471   */\n      tag_104\n      tag_49\n      jump\t// in\n    tag_104:\n        /* \"#utility.yul\":3354:3473   */\n    tag_103:\n        /* \"#utility.yul\":3512:3513   */\n      0x00\n        /* \"#utility.yul\":3537:3601   */\n      tag_105\n        /* \"#utility.yul\":3593:3600   */\n      dup5\n        /* \"#utility.yul\":3584:3590   */\n      dup3\n        /* \"#utility.yul\":3573:3582   */\n      dup6\n        /* \"#utility.yul\":3569:3591   */\n      add\n        /* \"#utility.yul\":3537:3601   */\n      tag_61\n      jump\t// in\n    tag_105:\n        /* \"#utility.yul\":3527:3601   */\n      swap2\n      pop\n        /* \"#utility.yul\":3483:3611   */\n      pop\n        /* \"#utility.yul\":3267:3618   */\n      swap3\n      swap2\n      pop\n      pop\n      jump\t// out\n    stop\n\n    sub_0: assembly {\n            /* \"bai02/SimpleStorage.sol\":67:569  contract SimpleStorage {... */\n          mstore(0x40, 0x80)\n          callvalue\n          dup1\n          iszero\n          tag_1\n          jumpi\n          0x00\n          dup1\n          revert\n        tag_1:\n          pop\n          dataSize(sub_0)\n          dup1\n          dataOffset(sub_0)\n          0x00\n          codecopy\n          0x00\n          return\n        stop\n\n        sub_0: assembly {\n                /* \"bai02/SimpleStorage.sol\":67:569  contract SimpleStorage {... */\n              mstore(0x40, 0x80)\n              callvalue\n              dup1\n              iszero\n              tag_1\n              jumpi\n              0x00\n              dup1\n              revert\n            tag_1:\n              pop\n              jumpi(tag_2, lt(calldatasize, 0x04))\n              shr(0xe0, calldataload(0x00))\n              dup1\n              0x1f1094e7\n              eq\n              tag_3\n              jumpi\n              dup1\n              0x6057361d\n              eq\n              tag_4\n              jumpi\n              dup1\n              0xbc832d4e\n              eq\n              tag_5\n              jumpi\n              dup1\n              0xf2c9ecd8\n              eq\n              tag_6\n              jumpi\n              dup1\n              0xf6d8f2cb\n              eq\n              tag_7\n              jumpi\n            tag_2:\n              0x00\n              dup1\n              revert\n                /* \"bai02/SimpleStorage.sol\":189:212  Person[] public peoples */\n            tag_3:\n              tag_8\n              0x04\n              dup1\n              calldatasize\n              sub\n              dup2\n              add\n              swap1\n              tag_9\n              swap2\n              swap1\n              tag_10\n              jump\t// in\n            tag_9:\n              tag_11\n              jump\t// in\n            tag_8:\n              mload(0x40)\n              tag_12\n              swap3\n              swap2\n              swap1\n              tag_13\n              jump\t// in\n            tag_12:\n              mload(0x40)\n              dup1\n              swap2\n              sub\n              swap1\n              return\n                /* \"bai02/SimpleStorage.sol\":270:356  function store(uint256 newNumber) public virtual {... */\n            tag_4:\n              tag_14\n              0x04\n              dup1\n              calldatasize\n              sub\n              dup2\n              add\n              swap1\n              tag_15\n              swap2\n              swap1\n              tag_10\n              jump\t// in\n            tag_15:\n              tag_16\n              jump\t// in\n            tag_14:\n              stop\n                /* \"bai02/SimpleStorage.sol\":362:481  function addPerson(uint256 newId, string memory newName) public {... */\n            tag_5:\n              tag_17\n              0x04\n              dup1\n              calldatasize\n              sub\n              dup2\n              add\n              swap1\n              tag_18\n              swap2\n              swap1\n              tag_19\n              jump\t// in\n            tag_18:\n              tag_20\n              jump\t// in\n            tag_17:\n              stop\n                /* \"bai02/SimpleStorage.sol\":487:566  function getNumber() public view returns(uint) {... */\n            tag_6:\n              tag_21\n              tag_22\n              jump\t// in\n            tag_21:\n              mload(0x40)\n              tag_23\n              swap2\n              swap1\n              tag_24\n              jump\t// in\n            tag_23:\n              mload(0x40)\n              dup1\n              swap2\n              sub\n              swap1\n              return\n                /* \"bai02/SimpleStorage.sol\":219:261  mapping(string => uint256) public nameToId */\n            tag_7:\n              tag_25\n              0x04\n              dup1\n              calldatasize\n              sub\n              dup2\n              add\n              swap1\n              tag_26\n              swap2\n              swap1\n              tag_27\n              jump\t// in\n            tag_26:\n              tag_28\n              jump\t// in\n            tag_25:\n              mload(0x40)\n              tag_29\n              swap2\n              swap1\n              tag_24\n              jump\t// in\n            tag_29:\n              mload(0x40)\n              dup1\n              swap2\n              sub\n              swap1\n              return\n                /* \"bai02/SimpleStorage.sol\":189:212  Person[] public peoples */\n            tag_11:\n              0x01\n              dup2\n              dup2\n              sload\n              dup2\n              lt\n              tag_30\n              jumpi\n              0x00\n              dup1\n              revert\n            tag_30:\n              swap1\n              0x00\n              mstore\n              keccak256(0x00, 0x20)\n              swap1\n              0x02\n              mul\n              add\n              0x00\n              swap2\n              pop\n              swap1\n              pop\n              dup1\n              0x00\n              add\n              sload\n              swap1\n              dup1\n              0x01\n              add\n              dup1\n              sload\n              tag_32\n              swap1\n              tag_33\n              jump\t// in\n            tag_32:\n              dup1\n              0x1f\n              add\n              0x20\n              dup1\n              swap2\n              div\n              mul\n              0x20\n              add\n              mload(0x40)\n              swap1\n              dup2\n              add\n              0x40\n              mstore\n              dup1\n              swap3\n              swap2\n              swap1\n              dup2\n              dup2\n              mstore\n              0x20\n              add\n              dup3\n              dup1\n              sload\n              tag_34\n              swap1\n              tag_33\n              jump\t// in\n            tag_34:\n              dup1\n              iszero\n              tag_35\n              jumpi\n              dup1\n              0x1f\n              lt\n              tag_36\n              jumpi\n              0x0100\n              dup1\n              dup4\n              sload\n              div\n              mul\n              dup4\n              mstore\n              swap2\n              0x20\n              add\n              swap2\n              jump(tag_35)\n            tag_36:\n              dup3\n              add\n              swap2\n              swap1\n              0x00\n              mstore\n              keccak256(0x00, 0x20)\n              swap1\n            tag_37:\n              dup2\n              sload\n              dup2\n              mstore\n              swap1\n              0x01\n              add\n              swap1\n              0x20\n              add\n              dup1\n              dup4\n              gt\n              tag_37\n              jumpi\n              dup3\n              swap1\n              sub\n              0x1f\n              and\n              dup3\n              add\n              swap2\n            tag_35:\n              pop\n              pop\n              pop\n              pop\n              pop\n              swap1\n              pop\n              dup3\n              jump\t// out\n                /* \"bai02/SimpleStorage.sol\":270:356  function store(uint256 newNumber) public virtual {... */\n            tag_16:\n                /* \"bai02/SimpleStorage.sol\":339:348  newNumber */\n              dup1\n                /* \"bai02/SimpleStorage.sol\":330:336  number */\n              0x00\n                /* \"bai02/SimpleStorage.sol\":330:348  number = newNumber */\n              dup2\n              swap1\n              sstore\n              pop\n                /* \"bai02/SimpleStorage.sol\":270:356  function store(uint256 newNumber) public virtual {... */\n              pop\n              jump\t// out\n                /* \"bai02/SimpleStorage.sol\":362:481  function addPerson(uint256 newId, string memory newName) public {... */\n            tag_20:\n                /* \"bai02/SimpleStorage.sol\":437:444  peoples */\n              0x01\n                /* \"bai02/SimpleStorage.sol\":450:472  Person(newId, newName) */\n              mload(0x40)\n              dup1\n              0x40\n              add\n              0x40\n              mstore\n              dup1\n                /* \"bai02/SimpleStorage.sol\":457:462  newId */\n              dup5\n                /* \"bai02/SimpleStorage.sol\":450:472  Person(newId, newName) */\n              dup2\n              mstore\n              0x20\n              add\n                /* \"bai02/SimpleStorage.sol\":464:471  newName */\n              dup4\n                /* \"bai02/SimpleStorage.sol\":450:472  Person(newId, newName) */\n              dup2\n              mstore\n              pop\n                /* \"bai02/SimpleStorage.sol\":437:473  peoples.push(Person(newId, newName)) */\n              swap1\n              dup1\n              0x01\n              dup2\n              sload\n              add\n              dup1\n              dup3\n              sstore\n              dup1\n              swap2\n              pop\n              pop\n              0x01\n              swap1\n              sub\n              swap1\n              0x00\n              mstore\n              keccak256(0x00, 0x20)\n              swap1\n              0x02\n              mul\n              add\n              0x00\n              swap1\n              swap2\n              swap1\n              swap2\n              swap1\n              swap2\n              pop\n              0x00\n              dup3\n              add\n              mload\n              dup2\n              0x00\n              add\n              sstore\n              0x20\n              dup3\n              add\n              mload\n              dup2\n              0x01\n              add\n              swap1\n              dup2\n              tag_41\n              swap2\n              swap1\n              tag_42\n              jump\t// in\n            tag_41:\n              pop\n              pop\n              pop\n                /* \"bai02/SimpleStorage.sol\":362:481  function addPerson(uint256 newId, string memory newName) public {... */\n              pop\n              pop\n              jump\t// out\n                /* \"bai02/SimpleStorage.sol\":487:566  function getNumber() public view returns(uint) {... */\n            tag_22:\n                /* \"bai02/SimpleStorage.sol\":528:532  uint */\n              0x00\n                /* \"bai02/SimpleStorage.sol\":552:558  number */\n              dup1\n              sload\n                /* \"bai02/SimpleStorage.sol\":545:558  return number */\n              swap1\n              pop\n                /* \"bai02/SimpleStorage.sol\":487:566  function getNumber() public view returns(uint) {... */\n              swap1\n              jump\t// out\n                /* \"bai02/SimpleStorage.sol\":219:261  mapping(string => uint256) public nameToId */\n            tag_28:\n              0x02\n              dup2\n              dup1\n              mload\n              0x20\n              dup2\n              add\n              dup3\n              add\n              dup1\n              mload\n              dup5\n              dup3\n              mstore\n              0x20\n              dup4\n              add\n              0x20\n              dup6\n              add\n              keccak256\n              dup2\n              dup4\n              mstore\n              dup1\n              swap6\n              pop\n              pop\n              pop\n              pop\n              pop\n              pop\n              0x00\n              swap2\n              pop\n              swap1\n              pop\n              sload\n              dup2\n              jump\t// out\n                /* \"#utility.yul\":7:82   */\n            tag_44:\n                /* \"#utility.yul\":40:46   */\n              0x00\n                /* \"#utility.yul\":73:75   */\n              0x40\n                /* \"#utility.yul\":67:76   */\n              mload\n                /* \"#utility.yul\":57:76   */\n              swap1\n              pop\n                /* \"#utility.yul\":7:82   */\n              swap1\n              jump\t// out\n                /* \"#utility.yul\":88:205   */\n            tag_45:\n                /* \"#utility.yul\":197:198   */\n              0x00\n                /* \"#utility.yul\":194:195   */\n              dup1\n                /* \"#utility.yul\":187:199   */\n              revert\n                /* \"#utility.yul\":211:328   */\n            tag_46:\n                /* \"#utility.yul\":320:321   */\n              0x00\n                /* \"#utility.yul\":317:318   */\n              dup1\n                /* \"#utility.yul\":310:322   */\n              revert\n                /* \"#utility.yul\":334:411   */\n            tag_47:\n                /* \"#utility.yul\":371:378   */\n              0x00\n                /* \"#utility.yul\":400:405   */\n              dup2\n                /* \"#utility.yul\":389:405   */\n              swap1\n              pop\n                /* \"#utility.yul\":334:411   */\n              swap2\n              swap1\n              pop\n              jump\t// out\n                /* \"#utility.yul\":417:539   */\n            tag_48:\n                /* \"#utility.yul\":490:514   */\n              tag_87\n                /* \"#utility.yul\":508:513   */\n              dup2\n                /* \"#utility.yul\":490:514   */\n              tag_47\n              jump\t// in\n            tag_87:\n                /* \"#utility.yul\":483:488   */\n              dup2\n                /* \"#utility.yul\":480:515   */\n              eq\n                /* \"#utility.yul\":470:533   */\n              tag_88\n              jumpi\n                /* \"#utility.yul\":529:530   */\n              0x00\n                /* \"#utility.yul\":526:527   */\n              dup1\n                /* \"#utility.yul\":519:531   */\n              revert\n                /* \"#utility.yul\":470:533   */\n            tag_88:\n                /* \"#utility.yul\":417:539   */\n              pop\n              jump\t// out\n                /* \"#utility.yul\":545:684   */\n            tag_49:\n                /* \"#utility.yul\":591:596   */\n              0x00\n                /* \"#utility.yul\":629:635   */\n              dup2\n                /* \"#utility.yul\":616:636   */\n              calldataload\n                /* \"#utility.yul\":607:636   */\n              swap1\n              pop\n                /* \"#utility.yul\":645:678   */\n              tag_90\n                /* \"#utility.yul\":672:677   */\n              dup2\n                /* \"#utility.yul\":645:678   */\n              tag_48\n              jump\t// in\n            tag_90:\n                /* \"#utility.yul\":545:684   */\n              swap3\n              swap2\n              pop\n              pop\n              jump\t// out\n                /* \"#utility.yul\":690:1019   */\n            tag_10:\n                /* \"#utility.yul\":749:755   */\n              0x00\n                /* \"#utility.yul\":798:800   */\n              0x20\n                /* \"#utility.yul\":786:795   */\n              dup3\n                /* \"#utility.yul\":777:784   */\n              dup5\n                /* \"#utility.yul\":773:796   */\n              sub\n                /* \"#utility.yul\":769:801   */\n              slt\n                /* \"#utility.yul\":766:885   */\n              iszero\n              tag_92\n              jumpi\n                /* \"#utility.yul\":804:883   */\n              tag_93\n              tag_45\n              jump\t// in\n            tag_93:\n                /* \"#utility.yul\":766:885   */\n            tag_92:\n                /* \"#utility.yul\":924:925   */\n              0x00\n                /* \"#utility.yul\":949:1002   */\n              tag_94\n                /* \"#utility.yul\":994:1001   */\n              dup5\n                /* \"#utility.yul\":985:991   */\n              dup3\n                /* \"#utility.yul\":974:983   */\n              dup6\n                /* \"#utility.yul\":970:992   */\n              add\n                /* \"#utility.yul\":949:1002   */\n              tag_49\n              jump\t// in\n            tag_94:\n                /* \"#utility.yul\":939:1002   */\n              swap2\n              pop\n                /* \"#utility.yul\":895:1012   */\n              pop\n                /* \"#utility.yul\":690:1019   */\n              swap3\n              swap2\n              pop\n              pop\n              jump\t// out\n                /* \"#utility.yul\":1025:1143   */\n            tag_50:\n                /* \"#utility.yul\":1112:1136   */\n              tag_96\n                /* \"#utility.yul\":1130:1135   */\n              dup2\n                /* \"#utility.yul\":1112:1136   */\n              tag_47\n              jump\t// in\n            tag_96:\n                /* \"#utility.yul\":1107:1110   */\n              dup3\n                /* \"#utility.yul\":1100:1137   */\n              mstore\n                /* \"#utility.yul\":1025:1143   */\n              pop\n              pop\n              jump\t// out\n                /* \"#utility.yul\":1149:1248   */\n            tag_51:\n                /* \"#utility.yul\":1201:1207   */\n              0x00\n                /* \"#utility.yul\":1235:1240   */\n              dup2\n                /* \"#utility.yul\":1229:1241   */\n              mload\n                /* \"#utility.yul\":1219:1241   */\n              swap1\n              pop\n                /* \"#utility.yul\":1149:1248   */\n              swap2\n              swap1\n              pop\n              jump\t// out\n                /* \"#utility.yul\":1254:1423   */\n            tag_52:\n                /* \"#utility.yul\":1338:1349   */\n              0x00\n                /* \"#utility.yul\":1372:1378   */\n              dup3\n                /* \"#utility.yul\":1367:1370   */\n              dup3\n                /* \"#utility.yul\":1360:1379   */\n              mstore\n                /* \"#utility.yul\":1412:1416   */\n              0x20\n                /* \"#utility.yul\":1407:1410   */\n              dup3\n                /* \"#utility.yul\":1403:1417   */\n              add\n                /* \"#utility.yul\":1388:1417   */\n              swap1\n              pop\n                /* \"#utility.yul\":1254:1423   */\n              swap3\n              swap2\n              pop\n              pop\n              jump\t// out\n                /* \"#utility.yul\":1429:1568   */\n            tag_53:\n                /* \"#utility.yul\":1518:1524   */\n              dup3\n                /* \"#utility.yul\":1513:1516   */\n              dup2\n                /* \"#utility.yul\":1508:1511   */\n              dup4\n                /* \"#utility.yul\":1502:1525   */\n              mcopy\n                /* \"#utility.yul\":1559:1560   */\n              0x00\n                /* \"#utility.yul\":1550:1556   */\n              dup4\n                /* \"#utility.yul\":1545:1548   */\n              dup4\n                /* \"#utility.yul\":1541:1557   */\n              add\n                /* \"#utility.yul\":1534:1561   */\n              mstore\n                /* \"#utility.yul\":1429:1568   */\n              pop\n              pop\n              pop\n              jump\t// out\n                /* \"#utility.yul\":1574:1676   */\n            tag_54:\n                /* \"#utility.yul\":1615:1621   */\n              0x00\n                /* \"#utility.yul\":1666:1668   */\n              0x1f\n                /* \"#utility.yul\":1662:1669   */\n              not\n                /* \"#utility.yul\":1657:1659   */\n              0x1f\n                /* \"#utility.yul\":1650:1655   */\n              dup4\n                /* \"#utility.yul\":1646:1660   */\n              add\n                /* \"#utility.yul\":1642:1670   */\n              and\n                /* \"#utility.yul\":1632:1670   */\n              swap1\n              pop\n                /* \"#utility.yul\":1574:1676   */\n              swap2\n              swap1\n              pop\n              jump\t// out\n                /* \"#utility.yul\":1682:2059   */\n            tag_55:\n                /* \"#utility.yul\":1770:1773   */\n              0x00\n                /* \"#utility.yul\":1798:1837   */\n              tag_102\n                /* \"#utility.yul\":1831:1836   */\n              dup3\n                /* \"#utility.yul\":1798:1837   */\n              tag_51\n              jump\t// in\n            tag_102:\n                /* \"#utility.yul\":1853:1924   */\n              tag_103\n                /* \"#utility.yul\":1917:1923   */\n              dup2\n                /* \"#utility.yul\":1912:1915   */\n              dup6\n                /* \"#utility.yul\":1853:1924   */\n              tag_52\n              jump\t// in\n            tag_103:\n                /* \"#utility.yul\":1846:1924   */\n              swap4\n              pop\n                /* \"#utility.yul\":1933:1998   */\n              tag_104\n                /* \"#utility.yul\":1991:1997   */\n              dup2\n                /* \"#utility.yul\":1986:1989   */\n              dup6\n                /* \"#utility.yul\":1979:1983   */\n              0x20\n                /* \"#utility.yul\":1972:1977   */\n              dup7\n                /* \"#utility.yul\":1968:1984   */\n              add\n                /* \"#utility.yul\":1933:1998   */\n              tag_53\n              jump\t// in\n            tag_104:\n                /* \"#utility.yul\":2023:2052   */\n              tag_105\n                /* \"#utility.yul\":2045:2051   */\n              dup2\n                /* \"#utility.yul\":2023:2052   */\n              tag_54\n              jump\t// in\n            tag_105:\n                /* \"#utility.yul\":2018:2021   */\n              dup5\n                /* \"#utility.yul\":2014:2053   */\n              add\n                /* \"#utility.yul\":2007:2053   */\n              swap2\n              pop\n                /* \"#utility.yul\":1774:2059   */\n              pop\n                /* \"#utility.yul\":1682:2059   */\n              swap3\n              swap2\n              pop\n              pop\n              jump\t// out\n                /* \"#utility.yul\":2065:2488   */\n            tag_13:\n                /* \"#utility.yul\":2206:2210   */\n              0x00\n                /* \"#utility.yul\":2244:2246   */\n              0x40\n                /* \"#utility.yul\":2233:2242   */\n              dup3\n                /* \"#utility.yul\":2229:2247   */\n              add\n                /* \"#utility.yul\":2221:2247   */\n              swap1\n              pop\n                /* \"#utility.yul\":2257:2328   */\n              tag_107\n                /* \"#utility.yul\":2325:2326   */\n              0x00\n                /* \"#utility.yul\":2314:2323   */\n              dup4\n                /* \"#utility.yul\":2310:2327   */\n              add\n                /* \"#utility.yul\":2301:2307   */\n              dup6\n                /* \"#utility.yul\":2257:2328   */\n              tag_50\n              jump\t// in\n            tag_107:\n                /* \"#utility.yul\":2375:2384   */\n              dup2\n                /* \"#utility.yul\":2369:2373   */\n              dup2\n                /* \"#utility.yul\":2365:2385   */\n              sub\n                /* \"#utility.yul\":2360:2362   */\n              0x20\n                /* \"#utility.yul\":2349:2358   */\n              dup4\n                /* \"#utility.yul\":2345:2363   */\n              add\n                /* \"#utility.yul\":2338:2386   */\n              mstore\n                /* \"#utility.yul\":2403:2481   */\n              tag_108\n                /* \"#utility.yul\":2476:2480   */\n              dup2\n                /* \"#utility.yul\":2467:2473   */\n              dup5\n                /* \"#utility.yul\":2403:2481   */\n              tag_55\n              jump\t// in\n            tag_108:\n                /* \"#utility.yul\":2395:2481   */\n              swap1\n              pop\n                /* \"#utility.yul\":2065:2488   */\n              swap4\n              swap3\n              pop\n              pop\n              pop\n              jump\t// out\n                /* \"#utility.yul\":2494:2611   */\n            tag_56:\n                /* \"#utility.yul\":2603:2604   */\n              0x00\n                /* \"#utility.yul\":2600:2601   */\n              dup1\n                /* \"#utility.yul\":2593:2605   */\n              revert\n                /* \"#utility.yul\":2617:2734   */\n            tag_57:\n                /* \"#utility.yul\":2726:2727   */\n              0x00\n                /* \"#utility.yul\":2723:2724   */\n              dup1\n                /* \"#utility.yul\":2716:2728   */\n              revert\n                /* \"#utility.yul\":2740:2920   */\n            tag_58:\n                /* \"#utility.yul\":2788:2865   */\n              0x4e487b7100000000000000000000000000000000000000000000000000000000\n                /* \"#utility.yul\":2785:2786   */\n              0x00\n                /* \"#utility.yul\":2778:2866   */\n              mstore\n                /* \"#utility.yul\":2885:2889   */\n              0x41\n                /* \"#utility.yul\":2882:2883   */\n              0x04\n                /* \"#utility.yul\":2875:2890   */\n              mstore\n                /* \"#utility.yul\":2909:2913   */\n              0x24\n                /* \"#utility.yul\":2906:2907   */\n              0x00\n                /* \"#utility.yul\":2899:2914   */\n              revert\n                /* \"#utility.yul\":2926:3207   */\n            tag_59:\n                /* \"#utility.yul\":3009:3036   */\n              tag_113\n                /* \"#utility.yul\":3031:3035   */\n              dup3\n                /* \"#utility.yul\":3009:3036   */\n              tag_54\n              jump\t// in\n            tag_113:\n                /* \"#utility.yul\":3001:3007   */\n              dup2\n                /* \"#utility.yul\":2997:3037   */\n              add\n                /* \"#utility.yul\":3139:3145   */\n              dup2\n                /* \"#utility.yul\":3127:3137   */\n              dup2\n                /* \"#utility.yul\":3124:3146   */\n              lt\n                /* \"#utility.yul\":3103:3121   */\n              0xffffffffffffffff\n                /* \"#utility.yul\":3091:3101   */\n              dup3\n                /* \"#utility.yul\":3088:3122   */\n              gt\n                /* \"#utility.yul\":3085:3147   */\n              or\n                /* \"#utility.yul\":3082:3170   */\n              iszero\n              tag_114\n              jumpi\n                /* \"#utility.yul\":3150:3168   */\n              tag_115\n              tag_58\n              jump\t// in\n            tag_115:\n                /* \"#utility.yul\":3082:3170   */\n            tag_114:\n                /* \"#utility.yul\":3190:3200   */\n              dup1\n                /* \"#utility.yul\":3186:3188   */\n              0x40\n                /* \"#utility.yul\":3179:3201   */\n              mstore\n                /* \"#utility.yul\":2969:3207   */\n              pop\n                /* \"#utility.yul\":2926:3207   */\n              pop\n              pop\n              jump\t// out\n                /* \"#utility.yul\":3213:3342   */\n            tag_60:\n                /* \"#utility.yul\":3247:3253   */\n              0x00\n                /* \"#utility.yul\":3274:3294   */\n              tag_117\n              tag_44\n              jump\t// in\n            tag_117:\n                /* \"#utility.yul\":3264:3294   */\n              swap1\n              pop\n                /* \"#utility.yul\":3303:3336   */\n              tag_118\n                /* \"#utility.yul\":3331:3335   */\n              dup3\n                /* \"#utility.yul\":3323:3329   */\n              dup3\n                /* \"#utility.yul\":3303:3336   */\n              tag_59\n              jump\t// in\n            tag_118:\n                /* \"#utility.yul\":3213:3342   */\n              swap2\n              swap1\n              pop\n              jump\t// out\n                /* \"#utility.yul\":3348:3656   */\n            tag_61:\n                /* \"#utility.yul\":3410:3414   */\n              0x00\n                /* \"#utility.yul\":3500:3518   */\n              0xffffffffffffffff\n                /* \"#utility.yul\":3492:3498   */\n              dup3\n                /* \"#utility.yul\":3489:3519   */\n              gt\n                /* \"#utility.yul\":3486:3542   */\n              iszero\n              tag_120\n              jumpi\n                /* \"#utility.yul\":3522:3540   */\n              tag_121\n              tag_58\n              jump\t// in\n            tag_121:\n                /* \"#utility.yul\":3486:3542   */\n            tag_120:\n                /* \"#utility.yul\":3560:3589   */\n              tag_122\n                /* \"#utility.yul\":3582:3588   */\n              dup3\n                /* \"#utility.yul\":3560:3589   */\n              tag_54\n              jump\t// in\n            tag_122:\n                /* \"#utility.yul\":3552:3589   */\n              swap1\n              pop\n                /* \"#utility.yul\":3644:3648   */\n              0x20\n                /* \"#utility.yul\":3638:3642   */\n              dup2\n                /* \"#utility.yul\":3634:3649   */\n              add\n                /* \"#utility.yul\":3626:3649   */\n              swap1\n              pop\n                /* \"#utility.yul\":3348:3656   */\n              swap2\n              swap1\n              pop\n              jump\t// out\n                /* \"#utility.yul\":3662:3810   */\n            tag_62:\n                /* \"#utility.yul\":3760:3766   */\n              dup3\n                /* \"#utility.yul\":3755:3758   */\n              dup2\n                /* \"#utility.yul\":3750:3753   */\n              dup4\n                /* \"#utility.yul\":3737:3767   */\n              calldatacopy\n                /* \"#utility.yul\":3801:3802   */\n              0x00\n                /* \"#utility.yul\":3792:3798   */\n              dup4\n                /* \"#utility.yul\":3787:3790   */\n              dup4\n                /* \"#utility.yul\":3783:3799   */\n              add\n                /* \"#utility.yul\":3776:3803   */\n              mstore\n                /* \"#utility.yul\":3662:3810   */\n              pop\n              pop\n              pop\n              jump\t// out\n                /* \"#utility.yul\":3816:4241   */\n            tag_63:\n                /* \"#utility.yul\":3894:3899   */\n              0x00\n                /* \"#utility.yul\":3919:3985   */\n              tag_125\n                /* \"#utility.yul\":3935:3984   */\n              tag_126\n                /* \"#utility.yul\":3977:3983   */\n              dup5\n                /* \"#utility.yul\":3935:3984   */\n              tag_61\n              jump\t// in\n            tag_126:\n                /* \"#utility.yul\":3919:3985   */\n              tag_60\n              jump\t// in\n            tag_125:\n                /* \"#utility.yul\":3910:3985   */\n              swap1\n              pop\n                /* \"#utility.yul\":4008:4014   */\n              dup3\n                /* \"#utility.yul\":4001:4006   */\n              dup2\n                /* \"#utility.yul\":3994:4015   */\n              mstore\n                /* \"#utility.yul\":4046:4050   */\n              0x20\n                /* \"#utility.yul\":4039:4044   */\n              dup2\n                /* \"#utility.yul\":4035:4051   */\n              add\n                /* \"#utility.yul\":4084:4087   */\n              dup5\n                /* \"#utility.yul\":4075:4081   */\n              dup5\n                /* \"#utility.yul\":4070:4073   */\n              dup5\n                /* \"#utility.yul\":4066:4082   */\n              add\n                /* \"#utility.yul\":4063:4088   */\n              gt\n                /* \"#utility.yul\":4060:4172   */\n              iszero\n              tag_127\n              jumpi\n                /* \"#utility.yul\":4091:4170   */\n              tag_128\n              tag_57\n              jump\t// in\n            tag_128:\n                /* \"#utility.yul\":4060:4172   */\n            tag_127:\n                /* \"#utility.yul\":4181:4235   */\n              tag_129\n                /* \"#utility.yul\":4228:4234   */\n              dup5\n                /* \"#utility.yul\":4223:4226   */\n              dup3\n                /* \"#utility.yul\":4218:4221   */\n              dup6\n                /* \"#utility.yul\":4181:4235   */\n              tag_62\n              jump\t// in\n            tag_129:\n                /* \"#utility.yul\":3900:4241   */\n              pop\n                /* \"#utility.yul\":3816:4241   */\n              swap4\n              swap3\n              pop\n              pop\n              pop\n              jump\t// out\n                /* \"#utility.yul\":4261:4601   */\n            tag_64:\n                /* \"#utility.yul\":4317:4322   */\n              0x00\n                /* \"#utility.yul\":4366:4369   */\n              dup3\n                /* \"#utility.yul\":4359:4363   */\n              0x1f\n                /* \"#utility.yul\":4351:4357   */\n              dup4\n                /* \"#utility.yul\":4347:4364   */\n              add\n                /* \"#utility.yul\":4343:4370   */\n              slt\n                /* \"#utility.yul\":4333:4455   */\n              tag_131\n              jumpi\n                /* \"#utility.yul\":4374:4453   */\n              tag_132\n              tag_56\n              jump\t// in\n            tag_132:\n                /* \"#utility.yul\":4333:4455   */\n            tag_131:\n                /* \"#utility.yul\":4491:4497   */\n              dup2\n                /* \"#utility.yul\":4478:4498   */\n              calldataload\n                /* \"#utility.yul\":4516:4595   */\n              tag_133\n                /* \"#utility.yul\":4591:4594   */\n              dup5\n                /* \"#utility.yul\":4583:4589   */\n              dup3\n                /* \"#utility.yul\":4576:4580   */\n              0x20\n                /* \"#utility.yul\":4568:4574   */\n              dup7\n                /* \"#utility.yul\":4564:4581   */\n              add\n                /* \"#utility.yul\":4516:4595   */\n              tag_63\n              jump\t// in\n            tag_133:\n                /* \"#utility.yul\":4507:4595   */\n              swap2\n              pop\n                /* \"#utility.yul\":4323:4601   */\n              pop\n                /* \"#utility.yul\":4261:4601   */\n              swap3\n              swap2\n              pop\n              pop\n              jump\t// out\n                /* \"#utility.yul\":4607:5261   */\n            tag_19:\n                /* \"#utility.yul\":4685:4691   */\n              0x00\n                /* \"#utility.yul\":4693:4699   */\n              dup1\n                /* \"#utility.yul\":4742:4744   */\n              0x40\n                /* \"#utility.yul\":4730:4739   */\n              dup4\n                /* \"#utility.yul\":4721:4728   */\n              dup6\n                /* \"#utility.yul\":4717:4740   */\n              sub\n                /* \"#utility.yul\":4713:4745   */\n              slt\n                /* \"#utility.yul\":4710:4829   */\n              iszero\n              tag_135\n              jumpi\n                /* \"#utility.yul\":4748:4827   */\n              tag_136\n              tag_45\n              jump\t// in\n            tag_136:\n                /* \"#utility.yul\":4710:4829   */\n            tag_135:\n                /* \"#utility.yul\":4868:4869   */\n              0x00\n                /* \"#utility.yul\":4893:4946   */\n              tag_137\n                /* \"#utility.yul\":4938:4945   */\n              dup6\n                /* \"#utility.yul\":4929:4935   */\n              dup3\n                /* \"#utility.yul\":4918:4927   */\n              dup7\n                /* \"#utility.yul\":4914:4936   */\n              add\n                /* \"#utility.yul\":4893:4946   */\n              tag_49\n              jump\t// in\n            tag_137:\n                /* \"#utility.yul\":4883:4946   */\n              swap3\n              pop\n                /* \"#utility.yul\":4839:4956   */\n              pop\n                /* \"#utility.yul\":5023:5025   */\n              0x20\n                /* \"#utility.yul\":5012:5021   */\n              dup4\n                /* \"#utility.yul\":5008:5026   */\n              add\n                /* \"#utility.yul\":4995:5027   */\n              calldataload\n                /* \"#utility.yul\":5054:5072   */\n              0xffffffffffffffff\n                /* \"#utility.yul\":5046:5052   */\n              dup2\n                /* \"#utility.yul\":5043:5073   */\n              gt\n                /* \"#utility.yul\":5040:5157   */\n              iszero\n              tag_138\n              jumpi\n                /* \"#utility.yul\":5076:5155   */\n              tag_139\n              tag_46\n              jump\t// in\n            tag_139:\n                /* \"#utility.yul\":5040:5157   */\n            tag_138:\n                /* \"#utility.yul\":5181:5244   */\n              tag_140\n                /* \"#utility.yul\":5236:5243   */\n              dup6\n                /* \"#utility.yul\":5227:5233   */\n              dup3\n                /* \"#utility.yul\":5216:5225   */\n              dup7\n                /* \"#utility.yul\":5212:5234   */\n              add\n                /* \"#utility.yul\":5181:5244   */\n              tag_64\n              jump\t// in\n            tag_140:\n                /* \"#utility.yul\":5171:5244   */\n              swap2\n              pop\n                /* \"#utility.yul\":4966:5254   */\n              pop\n                /* \"#utility.yul\":4607:5261   */\n              swap3\n              pop\n              swap3\n              swap1\n              pop\n              jump\t// out\n                /* \"#utility.yul\":5267:5489   */\n            tag_24:\n                /* \"#utility.yul\":5360:5364   */\n              0x00\n                /* \"#utility.yul\":5398:5400   */\n              0x20\n                /* \"#utility.yul\":5387:5396   */\n              dup3\n                /* \"#utility.yul\":5383:5401   */\n              add\n                /* \"#utility.yul\":5375:5401   */\n              swap1\n              pop\n                /* \"#utility.yul\":5411:5482   */\n              tag_142\n                /* \"#utility.yul\":5479:5480   */\n              0x00\n                /* \"#utility.yul\":5468:5477   */\n              dup4\n                /* \"#utility.yul\":5464:5481   */\n              add\n                /* \"#utility.yul\":5455:5461   */\n              dup5\n                /* \"#utility.yul\":5411:5482   */\n              tag_50\n              jump\t// in\n            tag_142:\n                /* \"#utility.yul\":5267:5489   */\n              swap3\n              swap2\n              pop\n              pop\n              jump\t// out\n                /* \"#utility.yul\":5495:6004   */\n            tag_27:\n                /* \"#utility.yul\":5564:5570   */\n              0x00\n                /* \"#utility.yul\":5613:5615   */\n              0x20\n                /* \"#utility.yul\":5601:5610   */\n              dup3\n                /* \"#utility.yul\":5592:5599   */\n              dup5\n                /* \"#utility.yul\":5588:5611   */\n              sub\n                /* \"#utility.yul\":5584:5616   */\n              slt\n                /* \"#utility.yul\":5581:5700   */\n              iszero\n              tag_144\n              jumpi\n                /* \"#utility.yul\":5619:5698   */\n              tag_145\n              tag_45\n              jump\t// in\n            tag_145:\n                /* \"#utility.yul\":5581:5700   */\n            tag_144:\n                /* \"#utility.yul\":5767:5768   */\n              0x00\n                /* \"#utility.yul\":5756:5765   */\n              dup3\n                /* \"#utility.yul\":5752:5769   */\n              add\n                /* \"#utility.yul\":5739:5770   */\n              calldataload\n                /* \"#utility.yul\":5797:5815   */\n              0xffffffffffffffff\n                /* \"#utility.yul\":5789:5795   */\n              dup2\n                /* \"#utility.yul\":5786:5816   */\n              gt\n                /* \"#utility.yul\":5783:5900   */\n              iszero\n              tag_146\n              jumpi\n                /* \"#utility.yul\":5819:5898   */\n              tag_147\n              tag_46\n              jump\t// in\n            tag_147:\n                /* \"#utility.yul\":5783:5900   */\n            tag_146:\n                /* \"#utility.yul\":5924:5987   */\n              tag_148\n                /* \"#utility.yul\":5979:5986   */\n              dup5\n                /* \"#utility.yul\":5970:5976   */\n              dup3\n                /* \"#utility.yul\":5959:5968   */\n              dup6\n                /* \"#utility.yul\":5955:5977   */\n              add\n                /* \"#utility.yul\":5924:5987   */\n              tag_64\n              jump\t// in\n            tag_148:\n                /* \"#utility.yul\":5914:5987   */\n              swap2\n              pop\n                /* \"#utility.yul\":5710:5997   */\n              pop\n                /* \"#utility.yul\":5495:6004   */\n              swap3\n              swap2\n              pop\n              pop\n              jump\t// out\n                /* \"#utility.yul\":6010:6190   */\n            tag_65:\n                /* \"#utility.yul\":6058:6135   */\n              0x4e487b7100000000000000000000000000000000000000000000000000000000\n                /* \"#utility.yul\":6055:6056   */\n              0x00\n                /* \"#utility.yul\":6048:6136   */\n              mstore\n                /* \"#utility.yul\":6155:6159   */\n              0x22\n                /* \"#utility.yul\":6152:6153   */\n              0x04\n                /* \"#utility.yul\":6145:6160   */\n              mstore\n                /* \"#utility.yul\":6179:6183   */\n              0x24\n                /* \"#utility.yul\":6176:6177   */\n              0x00\n                /* \"#utility.yul\":6169:6184   */\n              revert\n                /* \"#utility.yul\":6196:6516   */\n            tag_33:\n                /* \"#utility.yul\":6240:6246   */\n              0x00\n                /* \"#utility.yul\":6277:6278   */\n              0x02\n                /* \"#utility.yul\":6271:6275   */\n              dup3\n                /* \"#utility.yul\":6267:6279   */\n              div\n                /* \"#utility.yul\":6257:6279   */\n              swap1\n              pop\n                /* \"#utility.yul\":6324:6325   */\n              0x01\n                /* \"#utility.yul\":6318:6322   */\n              dup3\n                /* \"#utility.yul\":6314:6326   */\n              and\n                /* \"#utility.yul\":6345:6363   */\n              dup1\n                /* \"#utility.yul\":6335:6416   */\n              tag_151\n              jumpi\n                /* \"#utility.yul\":6401:6405   */\n              0x7f\n                /* \"#utility.yul\":6393:6399   */\n              dup3\n                /* \"#utility.yul\":6389:6406   */\n              and\n                /* \"#utility.yul\":6379:6406   */\n              swap2\n              pop\n                /* \"#utility.yul\":6335:6416   */\n            tag_151:\n                /* \"#utility.yul\":6463:6465   */\n              0x20\n                /* \"#utility.yul\":6455:6461   */\n              dup3\n                /* \"#utility.yul\":6452:6466   */\n              lt\n                /* \"#utility.yul\":6432:6450   */\n              dup2\n                /* \"#utility.yul\":6429:6467   */\n              sub\n                /* \"#utility.yul\":6426:6510   */\n              tag_152\n              jumpi\n                /* \"#utility.yul\":6482:6500   */\n              tag_153\n              tag_65\n              jump\t// in\n            tag_153:\n                /* \"#utility.yul\":6426:6510   */\n            tag_152:\n                /* \"#utility.yul\":6247:6516   */\n              pop\n                /* \"#utility.yul\":6196:6516   */\n              swap2\n              swap1\n              pop\n              jump\t// out\n                /* \"#utility.yul\":6522:6663   */\n            tag_66:\n                /* \"#utility.yul\":6571:6575   */\n              0x00\n                /* \"#utility.yul\":6594:6597   */\n              dup2\n                /* \"#utility.yul\":6586:6597   */\n              swap1\n              pop\n                /* \"#utility.yul\":6617:6620   */\n              dup2\n                /* \"#utility.yul\":6614:6615   */\n              0x00\n                /* \"#utility.yul\":6607:6621   */\n              mstore\n                /* \"#utility.yul\":6651:6655   */\n              0x20\n                /* \"#utility.yul\":6648:6649   */\n              0x00\n                /* \"#utility.yul\":6638:6656   */\n              keccak256\n                /* \"#utility.yul\":6630:6656   */\n              swap1\n              pop\n                /* \"#utility.yul\":6522:6663   */\n              swap2\n              swap1\n              pop\n              jump\t// out\n                /* \"#utility.yul\":6669:6762   */\n            tag_67:\n                /* \"#utility.yul\":6706:6712   */\n              0x00\n                /* \"#utility.yul\":6753:6755   */\n              0x20\n                /* \"#utility.yul\":6748:6750   */\n              0x1f\n                /* \"#utility.yul\":6741:6746   */\n              dup4\n                /* \"#utility.yul\":6737:6751   */\n              add\n                /* \"#utility.yul\":6733:6756   */\n              div\n                /* \"#utility.yul\":6723:6756   */\n              swap1\n              pop\n                /* \"#utility.yul\":6669:6762   */\n              swap2\n              swap1\n              pop\n              jump\t// out\n                /* \"#utility.yul\":6768:6875   */\n            tag_68:\n                /* \"#utility.yul\":6812:6820   */\n              0x00\n                /* \"#utility.yul\":6862:6867   */\n              dup3\n                /* \"#utility.yul\":6856:6860   */\n              dup3\n                /* \"#utility.yul\":6852:6868   */\n              shl\n                /* \"#utility.yul\":6831:6868   */\n              swap1\n              pop\n                /* \"#utility.yul\":6768:6875   */\n              swap3\n              swap2\n              pop\n              pop\n              jump\t// out\n                /* \"#utility.yul\":6881:7274   */\n            tag_69:\n                /* \"#utility.yul\":6950:6956   */\n              0x00\n                /* \"#utility.yul\":7000:7001   */\n              0x08\n                /* \"#utility.yul\":6988:6998   */\n              dup4\n                /* \"#utility.yul\":6984:7002   */\n              mul\n                /* \"#utility.yul\":7023:7120   */\n              tag_158\n                /* \"#utility.yul\":7053:7119   */\n              0xffffffffffffffffffffffffffffffffffffffffffffffffffffffffffffffff\n                /* \"#utility.yul\":7042:7051   */\n              dup3\n                /* \"#utility.yul\":7023:7120   */\n              tag_68\n              jump\t// in\n            tag_158:\n                /* \"#utility.yul\":7141:7180   */\n              tag_159\n                /* \"#utility.yul\":7171:7179   */\n              dup7\n                /* \"#utility.yul\":7160:7169   */\n              dup4\n                /* \"#utility.yul\":7141:7180   */\n              tag_68\n              jump\t// in\n            tag_159:\n                /* \"#utility.yul\":7129:7180   */\n              swap6\n              pop\n                /* \"#utility.yul\":7213:7217   */\n              dup1\n                /* \"#utility.yul\":7209:7218   */\n              not\n                /* \"#utility.yul\":7202:7207   */\n              dup5\n                /* \"#utility.yul\":7198:7219   */\n              and\n                /* \"#utility.yul\":7189:7219   */\n              swap4\n              pop\n                /* \"#utility.yul\":7262:7266   */\n              dup1\n                /* \"#utility.yul\":7252:7260   */\n              dup7\n                /* \"#utility.yul\":7248:7267   */\n              and\n                /* \"#utility.yul\":7241:7246   */\n              dup5\n                /* \"#utility.yul\":7238:7268   */\n              or\n                /* \"#utility.yul\":7228:7268   */\n              swap3\n              pop\n                /* \"#utility.yul\":6957:7274   */\n              pop\n              pop\n                /* \"#utility.yul\":6881:7274   */\n              swap4\n              swap3\n              pop\n              pop\n              pop\n              jump\t// out\n                /* \"#utility.yul\":7280:7340   */\n            tag_70:\n                /* \"#utility.yul\":7308:7311   */\n              0x00\n                /* \"#utility.yul\":7329:7334   */\n              dup2\n                /* \"#utility.yul\":7322:7334   */\n              swap1\n              pop\n                /* \"#utility.yul\":7280:7340   */\n              swap2\n              swap1\n              pop\n              jump\t// out\n                /* \"#utility.yul\":7346:7488   */\n            tag_71:\n                /* \"#utility.yul\":7396:7405   */\n              0x00\n                /* \"#utility.yul\":7429:7482   */\n              tag_162\n                /* \"#utility.yul\":7447:7481   */\n              tag_163\n                /* \"#utility.yul\":7456:7480   */\n              tag_164\n                /* \"#utility.yul\":7474:7479   */\n              dup5\n                /* \"#utility.yul\":7456:7480   */\n              tag_47\n              jump\t// in\n            tag_164:\n                /* \"#utility.yul\":7447:7481   */\n              tag_70\n              jump\t// in\n            tag_163:\n                /* \"#utility.yul\":7429:7482   */\n              tag_47\n              jump\t// in\n            tag_162:\n                /* \"#utility.yul\":7416:7482   */\n              swap1\n              pop\n                /* \"#utility.yul\":7346:7488   */\n              swap2\n              swap1\n              pop\n              jump\t// out\n                /* \"#utility.yul\":7494:7569   */\n            tag_72:\n                /* \"#utility.yul\":7537:7540   */\n              0x00\n                /* \"#utility.yul\":7558:7563   */\n              dup2\n                /* \"#utility.yul\":7551:7563   */\n              swap1\n              pop\n                /* \"#utility.yul\":7494:7569   */\n              swap2\n              swap1\n              pop\n              jump\t// out\n                /* \"#utility.yul\":7575:7844   */\n            tag_73:\n                /* \"#utility.yul\":7685:7724   */\n              tag_167\n                /* \"#utility.yul\":7716:7723   */\n              dup4\n                /* \"#utility.yul\":7685:7724   */\n              tag_71\n              jump\t// in\n            tag_167:\n                /* \"#utility.yul\":7746:7837   */\n              tag_168\n                /* \"#utility.yul\":7795:7836   */\n              tag_169\n                /* \"#utility.yul\":7819:7835   */\n              dup3\n                /* \"#utility.yul\":7795:7836   */\n              tag_72\n              jump\t// in\n            tag_169:\n                /* \"#utility.yul\":7787:7793   */\n              dup5\n                /* \"#utility.yul\":7780:7784   */\n              dup5\n                /* \"#utility.yul\":7774:7785   */\n              sload\n                /* \"#utility.yul\":7746:7837   */\n              tag_69\n              jump\t// in\n            tag_168:\n                /* \"#utility.yul\":7740:7744   */\n              dup3\n                /* \"#utility.yul\":7733:7838   */\n              sstore\n                /* \"#utility.yul\":7651:7844   */\n              pop\n                /* \"#utility.yul\":7575:7844   */\n              pop\n              pop\n              pop\n              jump\t// out\n                /* \"#utility.yul\":7850:7923   */\n            tag_74:\n                /* \"#utility.yul\":7895:7898   */\n              0x00\n                /* \"#utility.yul\":7850:7923   */\n              swap1\n              jump\t// out\n                /* \"#utility.yul\":7929:8118   */\n            tag_75:\n                /* \"#utility.yul\":8006:8038   */\n              tag_172\n              tag_74\n              jump\t// in\n            tag_172:\n                /* \"#utility.yul\":8047:8112   */\n              tag_173\n                /* \"#utility.yul\":8105:8111   */\n              dup2\n                /* \"#utility.yul\":8097:8103   */\n              dup5\n                /* \"#utility.yul\":8091:8095   */\n              dup5\n                /* \"#utility.yul\":8047:8112   */\n              tag_73\n              jump\t// in\n            tag_173:\n                /* \"#utility.yul\":7982:8118   */\n              pop\n                /* \"#utility.yul\":7929:8118   */\n              pop\n              pop\n              jump\t// out\n                /* \"#utility.yul\":8124:8310   */\n            tag_76:\n                /* \"#utility.yul\":8184:8304   */\n            tag_175:\n                /* \"#utility.yul\":8201:8204   */\n              dup2\n                /* \"#utility.yul\":8194:8199   */\n              dup2\n                /* \"#utility.yul\":8191:8205   */\n              lt\n                /* \"#utility.yul\":8184:8304   */\n              iszero\n              tag_177\n              jumpi\n                /* \"#utility.yul\":8255:8294   */\n              tag_178\n                /* \"#utility.yul\":8292:8293   */\n              0x00\n                /* \"#utility.yul\":8285:8290   */\n              dup3\n                /* \"#utility.yul\":8255:8294   */\n              tag_75\n              jump\t// in\n            tag_178:\n                /* \"#utility.yul\":8228:8229   */\n              0x01\n                /* \"#utility.yul\":8221:8226   */\n              dup2\n                /* \"#utility.yul\":8217:8230   */\n              add\n                /* \"#utility.yul\":8208:8230   */\n              swap1\n              pop\n                /* \"#utility.yul\":8184:8304   */\n              jump(tag_175)\n            tag_177:\n                /* \"#utility.yul\":8124:8310   */\n              pop\n              pop\n              jump\t// out\n                /* \"#utility.yul\":8316:8859   */\n            tag_77:\n                /* \"#utility.yul\":8417:8419   */\n              0x1f\n                /* \"#utility.yul\":8412:8415   */\n              dup3\n                /* \"#utility.yul\":8409:8420   */\n              gt\n                /* \"#utility.yul\":8406:8852   */\n              iszero\n              tag_180\n              jumpi\n                /* \"#utility.yul\":8451:8489   */\n              tag_181\n                /* \"#utility.yul\":8483:8488   */\n              dup2\n                /* \"#utility.yul\":8451:8489   */\n              tag_66\n              jump\t// in\n            tag_181:\n                /* \"#utility.yul\":8535:8564   */\n              tag_182\n                /* \"#utility.yul\":8553:8563   */\n              dup5\n                /* \"#utility.yul\":8535:8564   */\n              tag_67\n              jump\t// in\n            tag_182:\n                /* \"#utility.yul\":8525:8533   */\n              dup2\n                /* \"#utility.yul\":8521:8565   */\n              add\n                /* \"#utility.yul\":8718:8720   */\n              0x20\n                /* \"#utility.yul\":8706:8716   */\n              dup6\n                /* \"#utility.yul\":8703:8721   */\n              lt\n                /* \"#utility.yul\":8700:8749   */\n              iszero\n              tag_183\n              jumpi\n                /* \"#utility.yul\":8739:8747   */\n              dup2\n                /* \"#utility.yul\":8724:8747   */\n              swap1\n              pop\n                /* \"#utility.yul\":8700:8749   */\n            tag_183:\n                /* \"#utility.yul\":8762:8842   */\n              tag_184\n                /* \"#utility.yul\":8818:8840   */\n              tag_185\n                /* \"#utility.yul\":8836:8839   */\n              dup6\n                /* \"#utility.yul\":8818:8840   */\n              tag_67\n              jump\t// in\n            tag_185:\n                /* \"#utility.yul\":8808:8816   */\n              dup4\n                /* \"#utility.yul\":8804:8841   */\n              add\n                /* \"#utility.yul\":8791:8802   */\n              dup3\n                /* \"#utility.yul\":8762:8842   */\n              tag_76\n              jump\t// in\n            tag_184:\n                /* \"#utility.yul\":8421:8852   */\n              pop\n              pop\n                /* \"#utility.yul\":8406:8852   */\n            tag_180:\n                /* \"#utility.yul\":8316:8859   */\n              pop\n              pop\n              pop\n              jump\t// out\n                /* \"#utility.yul\":8865:8982   */\n            tag_78:\n                /* \"#utility.yul\":8919:8927   */\n              0x00\n                /* \"#utility.yul\":8969:8974   */\n              dup3\n                /* \"#utility.yul\":8963:8967   */\n              dup3\n                /* \"#utility.yul\":8959:8975   */\n              shr\n                /* \"#utility.yul\":8938:8975   */\n              swap1\n              pop\n                /* \"#utility.yul\":8865:8982   */\n              swap3\n              swap2\n              pop\n              pop\n              jump\t// out\n                /* \"#utility.yul\":8988:9157   */\n            tag_79:\n                /* \"#utility.yul\":9032:9038   */\n              0x00\n                /* \"#utility.yul\":9065:9116   */\n              tag_188\n                /* \"#utility.yul\":9113:9114   */\n              0x00\n                /* \"#utility.yul\":9109:9115   */\n              not\n                /* \"#utility.yul\":9101:9106   */\n              dup5\n                /* \"#utility.yul\":9098:9099   */\n              0x08\n                /* \"#utility.yul\":9094:9107   */\n              mul\n                /* \"#utility.yul\":9065:9116   */\n              tag_78\n              jump\t// in\n            tag_188:\n                /* \"#utility.yul\":9061:9117   */\n              not\n                /* \"#utility.yul\":9146:9150   */\n              dup1\n                /* \"#utility.yul\":9140:9144   */\n              dup4\n                /* \"#utility.yul\":9136:9151   */\n              and\n                /* \"#utility.yul\":9126:9151   */\n              swap2\n              pop\n                /* \"#utility.yul\":9039:9157   */\n              pop\n                /* \"#utility.yul\":8988:9157   */\n              swap3\n              swap2\n              pop\n              pop\n              jump\t// out\n                /* \"#utility.yul\":9162:9457   */\n            tag_80:\n                /* \"#utility.yul\":9238:9242   */\n              0x00\n                /* \"#utility.yul\":9384:9413   */\n              tag_190\n                /* \"#utility.yul\":9409:9412   */\n              dup4\n                /* \"#utility.yul\":9403:9407   */\n              dup4\n                /* \"#utility.yul\":9384:9413   */\n              tag_79\n              jump\t// in\n            tag_190:\n                /* \"#utility.yul\":9376:9413   */\n              swap2\n              pop\n                /* \"#utility.yul\":9446:9449   */\n              dup3\n                /* \"#utility.yul\":9443:9444   */\n              0x02\n                /* \"#utility.yul\":9439:9450   */\n              mul\n                /* \"#utility.yul\":9433:9437   */\n              dup3\n                /* \"#utility.yul\":9430:9451   */\n              or\n                /* \"#utility.yul\":9422:9451   */\n              swap1\n              pop\n                /* \"#utility.yul\":9162:9457   */\n              swap3\n              swap2\n              pop\n              pop\n              jump\t// out\n                /* \"#utility.yul\":9462:10857   */\n            tag_42:\n                /* \"#utility.yul\":9579:9616   */\n              tag_192\n                /* \"#utility.yul\":9612:9615   */\n              dup3\n                /* \"#utility.yul\":9579:9616   */\n              tag_51\n              jump\t// in\n            tag_192:\n                /* \"#utility.yul\":9681:9699   */\n              0xffffffffffffffff\n                /* \"#utility.yul\":9673:9679   */\n              dup2\n                /* \"#utility.yul\":9670:9700   */\n              gt\n                /* \"#utility.yul\":9667:9723   */\n              iszero\n              tag_193\n              jumpi\n                /* \"#utility.yul\":9703:9721   */\n              tag_194\n              tag_58\n              jump\t// in\n            tag_194:\n                /* \"#utility.yul\":9667:9723   */\n            tag_193:\n                /* \"#utility.yul\":9747:9785   */\n              tag_195\n                /* \"#utility.yul\":9779:9783   */\n              dup3\n                /* \"#utility.yul\":9773:9784   */\n              sload\n                /* \"#utility.yul\":9747:9785   */\n              tag_33\n              jump\t// in\n            tag_195:\n                /* \"#utility.yul\":9832:9899   */\n              tag_196\n                /* \"#utility.yul\":9892:9898   */\n              dup3\n                /* \"#utility.yul\":9884:9890   */\n              dup3\n                /* \"#utility.yul\":9878:9882   */\n              dup6\n                /* \"#utility.yul\":9832:9899   */\n              tag_77\n              jump\t// in\n            tag_196:\n                /* \"#utility.yul\":9926:9927   */\n              0x00\n                /* \"#utility.yul\":9950:9954   */\n              0x20\n                /* \"#utility.yul\":9937:9954   */\n              swap1\n              pop\n                /* \"#utility.yul\":9982:9984   */\n              0x1f\n                /* \"#utility.yul\":9974:9980   */\n              dup4\n                /* \"#utility.yul\":9971:9985   */\n              gt\n                /* \"#utility.yul\":9999:10000   */\n              0x01\n                /* \"#utility.yul\":9994:10612   */\n              dup2\n              eq\n              tag_198\n              jumpi\n                /* \"#utility.yul\":10656:10657   */\n              0x00\n                /* \"#utility.yul\":10673:10679   */\n              dup5\n                /* \"#utility.yul\":10670:10747   */\n              iszero\n              tag_199\n              jumpi\n                /* \"#utility.yul\":10722:10731   */\n              dup3\n                /* \"#utility.yul\":10717:10720   */\n              dup8\n                /* \"#utility.yul\":10713:10732   */\n              add\n                /* \"#utility.yul\":10707:10733   */\n              mload\n                /* \"#utility.yul\":10698:10733   */\n              swap1\n              pop\n                /* \"#utility.yul\":10670:10747   */\n            tag_199:\n                /* \"#utility.yul\":10773:10840   */\n              tag_200\n                /* \"#utility.yul\":10833:10839   */\n              dup6\n                /* \"#utility.yul\":10826:10831   */\n              dup3\n                /* \"#utility.yul\":10773:10840   */\n              tag_80\n              jump\t// in\n            tag_200:\n                /* \"#utility.yul\":10767:10771   */\n              dup7\n                /* \"#utility.yul\":10760:10841   */\n              sstore\n                /* \"#utility.yul\":10629:10851   */\n              pop\n                /* \"#utility.yul\":9964:10851   */\n              jump(tag_197)\n                /* \"#utility.yul\":9994:10612   */\n            tag_198:\n                /* \"#utility.yul\":10046:10050   */\n              0x1f\n                /* \"#utility.yul\":10042:10051   */\n              not\n                /* \"#utility.yul\":10034:10040   */\n              dup5\n                /* \"#utility.yul\":10030:10052   */\n              and\n                /* \"#utility.yul\":10080:10117   */\n              tag_201\n                /* \"#utility.yul\":10112:10116   */\n              dup7\n                /* \"#utility.yul\":10080:10117   */\n              tag_66\n              jump\t// in\n            tag_201:\n                /* \"#utility.yul\":10139:10140   */\n              0x00\n                /* \"#utility.yul\":10153:10361   */\n            tag_202:\n                /* \"#utility.yul\":10167:10174   */\n              dup3\n                /* \"#utility.yul\":10164:10165   */\n              dup2\n                /* \"#utility.yul\":10161:10175   */\n              lt\n                /* \"#utility.yul\":10153:10361   */\n              iszero\n              tag_204\n              jumpi\n                /* \"#utility.yul\":10246:10255   */\n              dup5\n                /* \"#utility.yul\":10241:10244   */\n              dup10\n                /* \"#utility.yul\":10237:10256   */\n              add\n                /* \"#utility.yul\":10231:10257   */\n              mload\n                /* \"#utility.yul\":10223:10229   */\n              dup3\n                /* \"#utility.yul\":10216:10258   */\n              sstore\n                /* \"#utility.yul\":10297:10298   */\n              0x01\n                /* \"#utility.yul\":10289:10295   */\n              dup3\n                /* \"#utility.yul\":10285:10299   */\n              add\n                /* \"#utility.yul\":10275:10299   */\n              swap2\n              pop\n                /* \"#utility.yul\":10344:10346   */\n              0x20\n                /* \"#utility.yul\":10333:10342   */\n              dup6\n                /* \"#utility.yul\":10329:10347   */\n              add\n                /* \"#utility.yul\":10316:10347   */\n              swap5\n              pop\n                /* \"#utility.yul\":10190:10194   */\n              0x20\n                /* \"#utility.yul\":10187:10188   */\n              dup2\n                /* \"#utility.yul\":10183:10195   */\n              add\n                /* \"#utility.yul\":10178:10195   */\n              swap1\n              pop\n                /* \"#utility.yul\":10153:10361   */\n              jump(tag_202)\n            tag_204:\n                /* \"#utility.yul\":10389:10395   */\n              dup7\n                /* \"#utility.yul\":10380:10387   */\n              dup4\n                /* \"#utility.yul\":10377:10396   */\n              lt\n                /* \"#utility.yul\":10374:10553   */\n              iszero\n              tag_205\n              jumpi\n                /* \"#utility.yul\":10447:10456   */\n              dup5\n                /* \"#utility.yul\":10442:10445   */\n              dup10\n                /* \"#utility.yul\":10438:10457   */\n              add\n                /* \"#utility.yul\":10432:10458   */\n              mload\n                /* \"#utility.yul\":10490:10538   */\n              tag_206\n                /* \"#utility.yul\":10532:10536   */\n              0x1f\n                /* \"#utility.yul\":10524:10530   */\n              dup10\n                /* \"#utility.yul\":10520:10537   */\n              and\n                /* \"#utility.yul\":10509:10518   */\n              dup3\n                /* \"#utility.yul\":10490:10538   */\n              tag_79\n              jump\t// in\n            tag_206:\n                /* \"#utility.yul\":10482:10488   */\n              dup4\n                /* \"#utility.yul\":10475:10539   */\n              sstore\n                /* \"#utility.yul\":10397:10553   */\n              pop\n                /* \"#utility.yul\":10374:10553   */\n            tag_205:\n                /* \"#utility.yul\":10599:10600   */\n              0x01\n                /* \"#utility.yul\":10595:10596   */\n              0x02\n                /* \"#utility.yul\":10587:10593   */\n              dup9\n                /* \"#utility.yul\":10583:10597   */\n              mul\n                /* \"#utility.yul\":10579:10601   */\n              add\n                /* \"#utility.yul\":10573:10577   */\n              dup9\n                /* \"#utility.yul\":10566:10602   */\n              sstore\n                /* \"#utility.yul\":10001:10612   */\n              pop\n              pop\n              pop\n                /* \"#utility.yul\":9964:10851   */\n            tag_197:\n              pop\n                /* \"#utility.yul\":9554:10857   */\n              pop\n              pop\n              pop\n                /* \"#utility.yul\":9462:10857   */\n              pop\n              pop\n              jump\t// out\n\n            auxdata: 0xa2646970667358221220419f64b323d8f9cccc5d2a00d5aea005dd70d88fef6ef644e1d020cd520936f164736f6c634300081a0033\n        }\n    }\n\n    auxdata: 0xa26469706673582212205fea4767c75f6935e5a167ab87f3c1853f3f9982fa6b6df62de0364105b156da64736f6c634300081a0033\n}\n",
				"bytecode": {
					"linkReferences": {},
					"object": "6080604052348015600e575f80fd5b50610d778061001c5f395ff3fe608060405234801561000f575f80fd5b506004361061004a575f3560e01c80631563700f1461004e57806340d66b3b1461006a578063a5772eba14610074578063b51c8444146100a4575b5f80fd5b61006860048036038101906100639190610330565b6100d4565b005b610072610178565b005b61008e6004803603810190610089919061036e565b610203565b60405161009b9190610413565b60405180910390f35b6100be60048036038101906100b9919061036e565b61023d565b6040516100cb919061043b565b60405180910390f35b5f82815481106100e7576100e6610454565b5b905f5260205f20015f9054906101000a900473ffffffffffffffffffffffffffffffffffffffff1673ffffffffffffffffffffffffffffffffffffffff16636057361d826040518263ffffffff1660e01b8152600401610147919061043b565b5f604051808303815f87803b15801561015e575f80fd5b505af1158015610170573d5f803e3d5ffd5b505050505050565b5f604051610185906102ec565b604051809103905ff08015801561019e573d5f803e3d5ffd5b5090505f81908060018154018082558091505060019003905f5260205f20015f9091909190916101000a81548173ffffffffffffffffffffffffffffffffffffffff021916908373ffffffffffffffffffffffffffffffffffffffff16021790555050565b5f8181548110610211575f80fd5b905f5260205f20015f915054906101000a900473ffffffffffffffffffffffffffffffffffffffff1681565b5f80828154811061025157610250610454565b5b905f5260205f20015f9054906101000a900473ffffffffffffffffffffffffffffffffffffffff1673ffffffffffffffffffffffffffffffffffffffff1663f2c9ecd86040518163ffffffff1660e01b8152600401602060405180830381865afa1580156102c1573d5f803e3d5ffd5b505050506040513d601f19601f820116820180604052508101906102e59190610495565b9050919050565b610881806104c183390190565b5f80fd5b5f819050919050565b61030f816102fd565b8114610319575f80fd5b50565b5f8135905061032a81610306565b92915050565b5f8060408385031215610346576103456102f9565b5b5f6103538582860161031c565b92505060206103648582860161031c565b9150509250929050565b5f60208284031215610383576103826102f9565b5b5f6103908482850161031c565b91505092915050565b5f73ffffffffffffffffffffffffffffffffffffffff82169050919050565b5f819050919050565b5f6103db6103d66103d184610399565b6103b8565b610399565b9050919050565b5f6103ec826103c1565b9050919050565b5f6103fd826103e2565b9050919050565b61040d816103f3565b82525050565b5f6020820190506104265f830184610404565b92915050565b610435816102fd565b82525050565b5f60208201905061044e5f83018461042c565b92915050565b7f4e487b71000000000000000000000000000000000000000000000000000000005f52603260045260245ffd5b5f8151905061048f81610306565b92915050565b5f602082840312156104aa576104a96102f9565b5b5f6104b784828501610481565b9150509291505056fe6080604052348015600e575f80fd5b506108658061001c5f395ff3fe608060405234801561000f575f80fd5b5060043610610055575f3560e01c80631f1094e7146100595780636057361d1461008a578063bc832d4e146100a6578063f2c9ecd8146100c2578063f6d8f2cb146100e0575b5f80fd5b610073600480360381019061006e91906102a8565b610110565b604051610081929190610352565b60405180910390f35b6100a4600480360381019061009f91906102a8565b6101c5565b005b6100c060048036038101906100bb91906104ac565b6101ce565b005b6100ca61022f565b6040516100d79190610506565b60405180910390f35b6100fa60048036038101906100f5919061051f565b610237565b6040516101079190610506565b60405180910390f35b6001818154811061011f575f80fd5b905f5260205f2090600202015f91509050805f01549080600101805461014490610593565b80601f016020809104026020016040519081016040528092919081815260200182805461017090610593565b80156101bb5780601f10610192576101008083540402835291602001916101bb565b820191905f5260205f20905b81548152906001019060200180831161019e57829003601f168201915b5050505050905082565b805f8190555050565b6001604051806040016040528084815260200183815250908060018154018082558091505060019003905f5260205f2090600202015f909190919091505f820151815f015560208201518160010190816102289190610760565b5050505050565b5f8054905090565b6002818051602081018201805184825260208301602085012081835280955050505050505f915090505481565b5f604051905090565b5f80fd5b5f80fd5b5f819050919050565b61028781610275565b8114610291575f80fd5b50565b5f813590506102a28161027e565b92915050565b5f602082840312156102bd576102bc61026d565b5b5f6102ca84828501610294565b91505092915050565b6102dc81610275565b82525050565b5f81519050919050565b5f82825260208201905092915050565b8281835e5f83830152505050565b5f601f19601f8301169050919050565b5f610324826102e2565b61032e81856102ec565b935061033e8185602086016102fc565b6103478161030a565b840191505092915050565b5f6040820190506103655f8301856102d3565b8181036020830152610377818461031a565b90509392505050565b5f80fd5b5f80fd5b7f4e487b71000000000000000000000000000000000000000000000000000000005f52604160045260245ffd5b6103be8261030a565b810181811067ffffffffffffffff821117156103dd576103dc610388565b5b80604052505050565b5f6103ef610264565b90506103fb82826103b5565b919050565b5f67ffffffffffffffff82111561041a57610419610388565b5b6104238261030a565b9050602081019050919050565b828183375f83830152505050565b5f61045061044b84610400565b6103e6565b90508281526020810184848401111561046c5761046b610384565b5b610477848285610430565b509392505050565b5f82601f83011261049357610492610380565b5b81356104a384826020860161043e565b91505092915050565b5f80604083850312156104c2576104c161026d565b5b5f6104cf85828601610294565b925050602083013567ffffffffffffffff8111156104f0576104ef610271565b5b6104fc8582860161047f565b9150509250929050565b5f6020820190506105195f8301846102d3565b92915050565b5f602082840312156105345761053361026d565b5b5f82013567ffffffffffffffff81111561055157610550610271565b5b61055d8482850161047f565b91505092915050565b7f4e487b71000000000000000000000000000000000000000000000000000000005f52602260045260245ffd5b5f60028204905060018216806105aa57607f821691505b6020821081036105bd576105bc610566565b5b50919050565b5f819050815f5260205f209050919050565b5f6020601f8301049050919050565b5f82821b905092915050565b5f6008830261061f7fffffffffffffffffffffffffffffffffffffffffffffffffffffffffffffffff826105e4565b61062986836105e4565b95508019841693508086168417925050509392505050565b5f819050919050565b5f61066461065f61065a84610275565b610641565b610275565b9050919050565b5f819050919050565b61067d8361064a565b6106916106898261066b565b8484546105f0565b825550505050565b5f90565b6106a5610699565b6106b0818484610674565b505050565b5b818110156106d3576106c85f8261069d565b6001810190506106b6565b5050565b601f821115610718576106e9816105c3565b6106f2846105d5565b81016020851015610701578190505b61071561070d856105d5565b8301826106b5565b50505b505050565b5f82821c905092915050565b5f6107385f198460080261071d565b1980831691505092915050565b5f6107508383610729565b9150826002028217905092915050565b610769826102e2565b67ffffffffffffffff81111561078257610781610388565b5b61078c8254610593565b6107978282856106d7565b5f60209050601f8311600181146107c8575f84156107b6578287015190505b6107c08582610745565b865550610827565b601f1984166107d6866105c3565b5f5b828110156107fd578489015182556001820191506020850194506020810190506107d8565b8683101561081a5784890151610816601f891682610729565b8355505b6001600288020188555050505b50505050505056fea2646970667358221220419f64b323d8f9cccc5d2a00d5aea005dd70d88fef6ef644e1d020cd520936f164736f6c634300081a0033a26469706673582212205fea4767c75f6935e5a167ab87f3c1853f3f9982fa6b6df62de0364105b156da64736f6c634300081a0033",
					"opcodes": "PUSH1 0x80 PUSH1 0x40 MSTORE CALLVALUE DUP1 ISZERO PUSH1 0xE JUMPI PUSH0 DUP1 REVERT JUMPDEST POP PUSH2 0xD77 DUP1 PUSH2 0x1C PUSH0 CODECOPY PUSH0 RETURN INVALID PUSH1 0x80 PUSH1 0x40 MSTORE CALLVALUE DUP1 ISZERO PUSH2 0xF JUMPI PUSH0 DUP1 REVERT JUMPDEST POP PUSH1 0x4 CALLDATASIZE LT PUSH2 0x4A JUMPI PUSH0 CALLDATALOAD PUSH1 0xE0 SHR DUP1 PUSH4 0x1563700F EQ PUSH2 0x4E JUMPI DUP1 PUSH4 0x40D66B3B EQ PUSH2 0x6A JUMPI DUP1 PUSH4 0xA5772EBA EQ PUSH2 0x74 JUMPI DUP1 PUSH4 0xB51C8444 EQ PUSH2 0xA4 JUMPI JUMPDEST PUSH0 DUP1 REVERT JUMPDEST PUSH2 0x68 PUSH1 0x4 DUP1 CALLDATASIZE SUB DUP2 ADD SWAP1 PUSH2 0x63 SWAP2 SWAP1 PUSH2 0x330 JUMP JUMPDEST PUSH2 0xD4 JUMP JUMPDEST STOP JUMPDEST PUSH2 0x72 PUSH2 0x178 JUMP JUMPDEST STOP JUMPDEST PUSH2 0x8E PUSH1 0x4 DUP1 CALLDATASIZE SUB DUP2 ADD SWAP1 PUSH2 0x89 SWAP2 SWAP1 PUSH2 0x36E JUMP JUMPDEST PUSH2 0x203 JUMP JUMPDEST PUSH1 0x40 MLOAD PUSH2 0x9B SWAP2 SWAP1 PUSH2 0x413 JUMP JUMPDEST PUSH1 0x40 MLOAD DUP1 SWAP2 SUB SWAP1 RETURN JUMPDEST PUSH2 0xBE PUSH1 0x4 DUP1 CALLDATASIZE SUB DUP2 ADD SWAP1 PUSH2 0xB9 SWAP2 SWAP1 PUSH2 0x36E JUMP JUMPDEST PUSH2 0x23D JUMP JUMPDEST PUSH1 0x40 MLOAD PUSH2 0xCB SWAP2 SWAP1 PUSH2 0x43B JUMP JUMPDEST PUSH1 0x40 MLOAD DUP1 SWAP2 SUB SWAP1 RETURN JUMPDEST PUSH0 DUP3 DUP2 SLOAD DUP2 LT PUSH2 0xE7 JUMPI PUSH2 0xE6 PUSH2 0x454 JUMP JUMPDEST JUMPDEST SWAP1 PUSH0 MSTORE PUSH1 0x20 PUSH0 KECCAK256 ADD PUSH0 SWAP1 SLOAD SWAP1 PUSH2 0x100 EXP SWAP1 DIV PUSH20 0xFFFFFFFFFFFFFFFFFFFFFFFFFFFFFFFFFFFFFFFF AND PUSH20 0xFFFFFFFFFFFFFFFFFFFFFFFFFFFFFFFFFFFFFFFF AND PUSH4 0x6057361D DUP3 PUSH1 0x40 MLOAD DUP3 PUSH4 0xFFFFFFFF AND PUSH1 0xE0 SHL DUP2 MSTORE PUSH1 0x4 ADD PUSH2 0x147 SWAP2 SWAP1 PUSH2 0x43B JUMP JUMPDEST PUSH0 PUSH1 0x40 MLOAD DUP1 DUP4 SUB DUP2 PUSH0 DUP8 DUP1 EXTCODESIZE ISZERO DUP1 ISZERO PUSH2 0x15E JUMPI PUSH0 DUP1 REVERT JUMPDEST POP GAS CALL ISZERO DUP1 ISZERO PUSH2 0x170 JUMPI RETURNDATASIZE PUSH0 DUP1 RETURNDATACOPY RETURNDATASIZE PUSH0 REVERT JUMPDEST POP POP POP POP POP POP JUMP JUMPDEST PUSH0 PUSH1 0x40 MLOAD PUSH2 0x185 SWAP1 PUSH2 0x2EC JUMP JUMPDEST PUSH1 0x40 MLOAD DUP1 SWAP2 SUB SWAP1 PUSH0 CREATE DUP1 ISZERO DUP1 ISZERO PUSH2 0x19E JUMPI RETURNDATASIZE PUSH0 DUP1 RETURNDATACOPY RETURNDATASIZE PUSH0 REVERT JUMPDEST POP SWAP1 POP PUSH0 DUP2 SWAP1 DUP1 PUSH1 0x1 DUP2 SLOAD ADD DUP1 DUP3 SSTORE DUP1 SWAP2 POP POP PUSH1 0x1 SWAP1 SUB SWAP1 PUSH0 MSTORE PUSH1 0x20 PUSH0 KECCAK256 ADD PUSH0 SWAP1 SWAP2 SWAP1 SWAP2 SWAP1 SWAP2 PUSH2 0x100 EXP DUP2 SLOAD DUP2 PUSH20 0xFFFFFFFFFFFFFFFFFFFFFFFFFFFFFFFFFFFFFFFF MUL NOT AND SWAP1 DUP4 PUSH20 0xFFFFFFFFFFFFFFFFFFFFFFFFFFFFFFFFFFFFFFFF AND MUL OR SWAP1 SSTORE POP POP JUMP JUMPDEST PUSH0 DUP2 DUP2 SLOAD DUP2 LT PUSH2 0x211 JUMPI PUSH0 DUP1 REVERT JUMPDEST SWAP1 PUSH0 MSTORE PUSH1 0x20 PUSH0 KECCAK256 ADD PUSH0 SWAP2 POP SLOAD SWAP1 PUSH2 0x100 EXP SWAP1 DIV PUSH20 0xFFFFFFFFFFFFFFFFFFFFFFFFFFFFFFFFFFFFFFFF AND DUP2 JUMP JUMPDEST PUSH0 DUP1 DUP3 DUP2 SLOAD DUP2 LT PUSH2 0x251 JUMPI PUSH2 0x250 PUSH2 0x454 JUMP JUMPDEST JUMPDEST SWAP1 PUSH0 MSTORE PUSH1 0x20 PUSH0 KECCAK256 ADD PUSH0 SWAP1 SLOAD SWAP1 PUSH2 0x100 EXP SWAP1 DIV PUSH20 0xFFFFFFFFFFFFFFFFFFFFFFFFFFFFFFFFFFFFFFFF AND PUSH20 0xFFFFFFFFFFFFFFFFFFFFFFFFFFFFFFFFFFFFFFFF AND PUSH4 0xF2C9ECD8 PUSH1 0x40 MLOAD DUP2 PUSH4 0xFFFFFFFF AND PUSH1 0xE0 SHL DUP2 MSTORE PUSH1 0x4 ADD PUSH1 0x20 PUSH1 0x40 MLOAD DUP1 DUP4 SUB DUP2 DUP7 GAS STATICCALL ISZERO DUP1 ISZERO PUSH2 0x2C1 JUMPI RETURNDATASIZE PUSH0 DUP1 RETURNDATACOPY RETURNDATASIZE PUSH0 REVERT JUMPDEST POP POP POP POP PUSH1 0x40 MLOAD RETURNDATASIZE PUSH1 0x1F NOT PUSH1 0x1F DUP3 ADD AND DUP3 ADD DUP1 PUSH1 0x40 MSTORE POP DUP2 ADD SWAP1 PUSH2 0x2E5 SWAP2 SWAP1 PUSH2 0x495 JUMP JUMPDEST SWAP1 POP SWAP2 SWAP1 POP JUMP JUMPDEST PUSH2 0x881 DUP1 PUSH2 0x4C1 DUP4 CODECOPY ADD SWAP1 JUMP JUMPDEST PUSH0 DUP1 REVERT JUMPDEST PUSH0 DUP2 SWAP1 POP SWAP2 SWAP1 POP JUMP JUMPDEST PUSH2 0x30F DUP2 PUSH2 0x2FD JUMP JUMPDEST DUP2 EQ PUSH2 0x319 JUMPI PUSH0 DUP1 REVERT JUMPDEST POP JUMP JUMPDEST PUSH0 DUP2 CALLDATALOAD SWAP1 POP PUSH2 0x32A DUP2 PUSH2 0x306 JUMP JUMPDEST SWAP3 SWAP2 POP POP JUMP JUMPDEST PUSH0 DUP1 PUSH1 0x40 DUP4 DUP6 SUB SLT ISZERO PUSH2 0x346 JUMPI PUSH2 0x345 PUSH2 0x2F9 JUMP JUMPDEST JUMPDEST PUSH0 PUSH2 0x353 DUP6 DUP3 DUP7 ADD PUSH2 0x31C JUMP JUMPDEST SWAP3 POP POP PUSH1 0x20 PUSH2 0x364 DUP6 DUP3 DUP7 ADD PUSH2 0x31C JUMP JUMPDEST SWAP2 POP POP SWAP3 POP SWAP3 SWAP1 POP JUMP JUMPDEST PUSH0 PUSH1 0x20 DUP3 DUP5 SUB SLT ISZERO PUSH2 0x383 JUMPI PUSH2 0x382 PUSH2 0x2F9 JUMP JUMPDEST JUMPDEST PUSH0 PUSH2 0x390 DUP5 DUP3 DUP6 ADD PUSH2 0x31C JUMP JUMPDEST SWAP2 POP POP SWAP3 SWAP2 POP POP JUMP JUMPDEST PUSH0 PUSH20 0xFFFFFFFFFFFFFFFFFFFFFFFFFFFFFFFFFFFFFFFF DUP3 AND SWAP1 POP SWAP2 SWAP1 POP JUMP JUMPDEST PUSH0 DUP2 SWAP1 POP SWAP2 SWAP1 POP JUMP JUMPDEST PUSH0 PUSH2 0x3DB PUSH2 0x3D6 PUSH2 0x3D1 DUP5 PUSH2 0x399 JUMP JUMPDEST PUSH2 0x3B8 JUMP JUMPDEST PUSH2 0x399 JUMP JUMPDEST SWAP1 POP SWAP2 SWAP1 POP JUMP JUMPDEST PUSH0 PUSH2 0x3EC DUP3 PUSH2 0x3C1 JUMP JUMPDEST SWAP1 POP SWAP2 SWAP1 POP JUMP JUMPDEST PUSH0 PUSH2 0x3FD DUP3 PUSH2 0x3E2 JUMP JUMPDEST SWAP1 POP SWAP2 SWAP1 POP JUMP JUMPDEST PUSH2 0x40D DUP2 PUSH2 0x3F3 JUMP JUMPDEST DUP3 MSTORE POP POP JUMP JUMPDEST PUSH0 PUSH1 0x20 DUP3 ADD SWAP1 POP PUSH2 0x426 PUSH0 DUP4 ADD DUP5 PUSH2 0x404 JUMP JUMPDEST SWAP3 SWAP2 POP POP JUMP JUMPDEST PUSH2 0x435 DUP2 PUSH2 0x2FD JUMP JUMPDEST DUP3 MSTORE POP POP JUMP JUMPDEST PUSH0 PUSH1 0x20 DUP3 ADD SWAP1 POP PUSH2 0x44E PUSH0 DUP4 ADD DUP5 PUSH2 0x42C JUMP JUMPDEST SWAP3 SWAP2 POP POP JUMP JUMPDEST PUSH32 0x4E487B7100000000000000000000000000000000000000000000000000000000 PUSH0 MSTORE PUSH1 0x32 PUSH1 0x4 MSTORE PUSH1 0x24 PUSH0 REVERT JUMPDEST PUSH0 DUP2 MLOAD SWAP1 POP PUSH2 0x48F DUP2 PUSH2 0x306 JUMP JUMPDEST SWAP3 SWAP2 POP POP JUMP JUMPDEST PUSH0 PUSH1 0x20 DUP3 DUP5 SUB SLT ISZERO PUSH2 0x4AA JUMPI PUSH2 0x4A9 PUSH2 0x2F9 JUMP JUMPDEST JUMPDEST PUSH0 PUSH2 0x4B7 DUP5 DUP3 DUP6 ADD PUSH2 0x481 JUMP JUMPDEST SWAP2 POP POP SWAP3 SWAP2 POP POP JUMP INVALID PUSH1 0x80 PUSH1 0x40 MSTORE CALLVALUE DUP1 ISZERO PUSH1 0xE JUMPI PUSH0 DUP1 REVERT JUMPDEST POP PUSH2 0x865 DUP1 PUSH2 0x1C PUSH0 CODECOPY PUSH0 RETURN INVALID PUSH1 0x80 PUSH1 0x40 MSTORE CALLVALUE DUP1 ISZERO PUSH2 0xF JUMPI PUSH0 DUP1 REVERT JUMPDEST POP PUSH1 0x4 CALLDATASIZE LT PUSH2 0x55 JUMPI PUSH0 CALLDATALOAD PUSH1 0xE0 SHR DUP1 PUSH4 0x1F1094E7 EQ PUSH2 0x59 JUMPI DUP1 PUSH4 0x6057361D EQ PUSH2 0x8A JUMPI DUP1 PUSH4 0xBC832D4E EQ PUSH2 0xA6 JUMPI DUP1 PUSH4 0xF2C9ECD8 EQ PUSH2 0xC2 JUMPI DUP1 PUSH4 0xF6D8F2CB EQ PUSH2 0xE0 JUMPI JUMPDEST PUSH0 DUP1 REVERT JUMPDEST PUSH2 0x73 PUSH1 0x4 DUP1 CALLDATASIZE SUB DUP2 ADD SWAP1 PUSH2 0x6E SWAP2 SWAP1 PUSH2 0x2A8 JUMP JUMPDEST PUSH2 0x110 JUMP JUMPDEST PUSH1 0x40 MLOAD PUSH2 0x81 SWAP3 SWAP2 SWAP1 PUSH2 0x352 JUMP JUMPDEST PUSH1 0x40 MLOAD DUP1 SWAP2 SUB SWAP1 RETURN JUMPDEST PUSH2 0xA4 PUSH1 0x4 DUP1 CALLDATASIZE SUB DUP2 ADD SWAP1 PUSH2 0x9F SWAP2 SWAP1 PUSH2 0x2A8 JUMP JUMPDEST PUSH2 0x1C5 JUMP JUMPDEST STOP JUMPDEST PUSH2 0xC0 PUSH1 0x4 DUP1 CALLDATASIZE SUB DUP2 ADD SWAP1 PUSH2 0xBB SWAP2 SWAP1 PUSH2 0x4AC JUMP JUMPDEST PUSH2 0x1CE JUMP JUMPDEST STOP JUMPDEST PUSH2 0xCA PUSH2 0x22F JUMP JUMPDEST PUSH1 0x40 MLOAD PUSH2 0xD7 SWAP2 SWAP1 PUSH2 0x506 JUMP JUMPDEST PUSH1 0x40 MLOAD DUP1 SWAP2 SUB SWAP1 RETURN JUMPDEST PUSH2 0xFA PUSH1 0x4 DUP1 CALLDATASIZE SUB DUP2 ADD SWAP1 PUSH2 0xF5 SWAP2 SWAP1 PUSH2 0x51F JUMP JUMPDEST PUSH2 0x237 JUMP JUMPDEST PUSH1 0x40 MLOAD PUSH2 0x107 SWAP2 SWAP1 PUSH2 0x506 JUMP JUMPDEST PUSH1 0x40 MLOAD DUP1 SWAP2 SUB SWAP1 RETURN JUMPDEST PUSH1 0x1 DUP2 DUP2 SLOAD DUP2 LT PUSH2 0x11F JUMPI PUSH0 DUP1 REVERT JUMPDEST SWAP1 PUSH0 MSTORE PUSH1 0x20 PUSH0 KECCAK256 SWAP1 PUSH1 0x2 MUL ADD PUSH0 SWAP2 POP SWAP1 POP DUP1 PUSH0 ADD SLOAD SWAP1 DUP1 PUSH1 0x1 ADD DUP1 SLOAD PUSH2 0x144 SWAP1 PUSH2 0x593 JUMP JUMPDEST DUP1 PUSH1 0x1F ADD PUSH1 0x20 DUP1 SWAP2 DIV MUL PUSH1 0x20 ADD PUSH1 0x40 MLOAD SWAP1 DUP2 ADD PUSH1 0x40 MSTORE DUP1 SWAP3 SWAP2 SWAP1 DUP2 DUP2 MSTORE PUSH1 0x20 ADD DUP3 DUP1 SLOAD PUSH2 0x170 SWAP1 PUSH2 0x593 JUMP JUMPDEST DUP1 ISZERO PUSH2 0x1BB JUMPI DUP1 PUSH1 0x1F LT PUSH2 0x192 JUMPI PUSH2 0x100 DUP1 DUP4 SLOAD DIV MUL DUP4 MSTORE SWAP2 PUSH1 0x20 ADD SWAP2 PUSH2 0x1BB JUMP JUMPDEST DUP3 ADD SWAP2 SWAP1 PUSH0 MSTORE PUSH1 0x20 PUSH0 KECCAK256 SWAP1 JUMPDEST DUP2 SLOAD DUP2 MSTORE SWAP1 PUSH1 0x1 ADD SWAP1 PUSH1 0x20 ADD DUP1 DUP4 GT PUSH2 0x19E JUMPI DUP3 SWAP1 SUB PUSH1 0x1F AND DUP3 ADD SWAP2 JUMPDEST POP POP POP POP POP SWAP1 POP DUP3 JUMP JUMPDEST DUP1 PUSH0 DUP2 SWAP1 SSTORE POP POP JUMP JUMPDEST PUSH1 0x1 PUSH1 0x40 MLOAD DUP1 PUSH1 0x40 ADD PUSH1 0x40 MSTORE DUP1 DUP5 DUP2 MSTORE PUSH1 0x20 ADD DUP4 DUP2 MSTORE POP SWAP1 DUP1 PUSH1 0x1 DUP2 SLOAD ADD DUP1 DUP3 SSTORE DUP1 SWAP2 POP POP PUSH1 0x1 SWAP1 SUB SWAP1 PUSH0 MSTORE PUSH1 0x20 PUSH0 KECCAK256 SWAP1 PUSH1 0x2 MUL ADD PUSH0 SWAP1 SWAP2 SWAP1 SWAP2 SWAP1 SWAP2 POP PUSH0 DUP3 ADD MLOAD DUP2 PUSH0 ADD SSTORE PUSH1 0x20 DUP3 ADD MLOAD DUP2 PUSH1 0x1 ADD SWAP1 DUP2 PUSH2 0x228 SWAP2 SWAP1 PUSH2 0x760 JUMP JUMPDEST POP POP POP POP POP JUMP JUMPDEST PUSH0 DUP1 SLOAD SWAP1 POP SWAP1 JUMP JUMPDEST PUSH1 0x2 DUP2 DUP1 MLOAD PUSH1 0x20 DUP2 ADD DUP3 ADD DUP1 MLOAD DUP5 DUP3 MSTORE PUSH1 0x20 DUP4 ADD PUSH1 0x20 DUP6 ADD KECCAK256 DUP2 DUP4 MSTORE DUP1 SWAP6 POP POP POP POP POP POP PUSH0 SWAP2 POP SWAP1 POP SLOAD DUP2 JUMP JUMPDEST PUSH0 PUSH1 0x40 MLOAD SWAP1 POP SWAP1 JUMP JUMPDEST PUSH0 DUP1 REVERT JUMPDEST PUSH0 DUP1 REVERT JUMPDEST PUSH0 DUP2 SWAP1 POP SWAP2 SWAP1 POP JUMP JUMPDEST PUSH2 0x287 DUP2 PUSH2 0x275 JUMP JUMPDEST DUP2 EQ PUSH2 0x291 JUMPI PUSH0 DUP1 REVERT JUMPDEST POP JUMP JUMPDEST PUSH0 DUP2 CALLDATALOAD SWAP1 POP PUSH2 0x2A2 DUP2 PUSH2 0x27E JUMP JUMPDEST SWAP3 SWAP2 POP POP JUMP JUMPDEST PUSH0 PUSH1 0x20 DUP3 DUP5 SUB SLT ISZERO PUSH2 0x2BD JUMPI PUSH2 0x2BC PUSH2 0x26D JUMP JUMPDEST JUMPDEST PUSH0 PUSH2 0x2CA DUP5 DUP3 DUP6 ADD PUSH2 0x294 JUMP JUMPDEST SWAP2 POP POP SWAP3 SWAP2 POP POP JUMP JUMPDEST PUSH2 0x2DC DUP2 PUSH2 0x275 JUMP JUMPDEST DUP3 MSTORE POP POP JUMP JUMPDEST PUSH0 DUP2 MLOAD SWAP1 POP SWAP2 SWAP1 POP JUMP JUMPDEST PUSH0 DUP3 DUP3 MSTORE PUSH1 0x20 DUP3 ADD SWAP1 POP SWAP3 SWAP2 POP POP JUMP JUMPDEST DUP3 DUP2 DUP4 MCOPY PUSH0 DUP4 DUP4 ADD MSTORE POP POP POP JUMP JUMPDEST PUSH0 PUSH1 0x1F NOT PUSH1 0x1F DUP4 ADD AND SWAP1 POP SWAP2 SWAP1 POP JUMP JUMPDEST PUSH0 PUSH2 0x324 DUP3 PUSH2 0x2E2 JUMP JUMPDEST PUSH2 0x32E DUP2 DUP6 PUSH2 0x2EC JUMP JUMPDEST SWAP4 POP PUSH2 0x33E DUP2 DUP6 PUSH1 0x20 DUP7 ADD PUSH2 0x2FC JUMP JUMPDEST PUSH2 0x347 DUP2 PUSH2 0x30A JUMP JUMPDEST DUP5 ADD SWAP2 POP POP SWAP3 SWAP2 POP POP JUMP JUMPDEST PUSH0 PUSH1 0x40 DUP3 ADD SWAP1 POP PUSH2 0x365 PUSH0 DUP4 ADD DUP6 PUSH2 0x2D3 JUMP JUMPDEST DUP2 DUP2 SUB PUSH1 0x20 DUP4 ADD MSTORE PUSH2 0x377 DUP2 DUP5 PUSH2 0x31A JUMP JUMPDEST SWAP1 POP SWAP4 SWAP3 POP POP POP JUMP JUMPDEST PUSH0 DUP1 REVERT JUMPDEST PUSH0 DUP1 REVERT JUMPDEST PUSH32 0x4E487B7100000000000000000000000000000000000000000000000000000000 PUSH0 MSTORE PUSH1 0x41 PUSH1 0x4 MSTORE PUSH1 0x24 PUSH0 REVERT JUMPDEST PUSH2 0x3BE DUP3 PUSH2 0x30A JUMP JUMPDEST DUP2 ADD DUP2 DUP2 LT PUSH8 0xFFFFFFFFFFFFFFFF DUP3 GT OR ISZERO PUSH2 0x3DD JUMPI PUSH2 0x3DC PUSH2 0x388 JUMP JUMPDEST JUMPDEST DUP1 PUSH1 0x40 MSTORE POP POP POP JUMP JUMPDEST PUSH0 PUSH2 0x3EF PUSH2 0x264 JUMP JUMPDEST SWAP1 POP PUSH2 0x3FB DUP3 DUP3 PUSH2 0x3B5 JUMP JUMPDEST SWAP2 SWAP1 POP JUMP JUMPDEST PUSH0 PUSH8 0xFFFFFFFFFFFFFFFF DUP3 GT ISZERO PUSH2 0x41A JUMPI PUSH2 0x419 PUSH2 0x388 JUMP JUMPDEST JUMPDEST PUSH2 0x423 DUP3 PUSH2 0x30A JUMP JUMPDEST SWAP1 POP PUSH1 0x20 DUP2 ADD SWAP1 POP SWAP2 SWAP1 POP JUMP JUMPDEST DUP3 DUP2 DUP4 CALLDATACOPY PUSH0 DUP4 DUP4 ADD MSTORE POP POP POP JUMP JUMPDEST PUSH0 PUSH2 0x450 PUSH2 0x44B DUP5 PUSH2 0x400 JUMP JUMPDEST PUSH2 0x3E6 JUMP JUMPDEST SWAP1 POP DUP3 DUP2 MSTORE PUSH1 0x20 DUP2 ADD DUP5 DUP5 DUP5 ADD GT ISZERO PUSH2 0x46C JUMPI PUSH2 0x46B PUSH2 0x384 JUMP JUMPDEST JUMPDEST PUSH2 0x477 DUP5 DUP3 DUP6 PUSH2 0x430 JUMP JUMPDEST POP SWAP4 SWAP3 POP POP POP JUMP JUMPDEST PUSH0 DUP3 PUSH1 0x1F DUP4 ADD SLT PUSH2 0x493 JUMPI PUSH2 0x492 PUSH2 0x380 JUMP JUMPDEST JUMPDEST DUP2 CALLDATALOAD PUSH2 0x4A3 DUP5 DUP3 PUSH1 0x20 DUP7 ADD PUSH2 0x43E JUMP JUMPDEST SWAP2 POP POP SWAP3 SWAP2 POP POP JUMP JUMPDEST PUSH0 DUP1 PUSH1 0x40 DUP4 DUP6 SUB SLT ISZERO PUSH2 0x4C2 JUMPI PUSH2 0x4C1 PUSH2 0x26D JUMP JUMPDEST JUMPDEST PUSH0 PUSH2 0x4CF DUP6 DUP3 DUP7 ADD PUSH2 0x294 JUMP JUMPDEST SWAP3 POP POP PUSH1 0x20 DUP4 ADD CALLDATALOAD PUSH8 0xFFFFFFFFFFFFFFFF DUP2 GT ISZERO PUSH2 0x4F0 JUMPI PUSH2 0x4EF PUSH2 0x271 JUMP JUMPDEST JUMPDEST PUSH2 0x4FC DUP6 DUP3 DUP7 ADD PUSH2 0x47F JUMP JUMPDEST SWAP2 POP POP SWAP3 POP SWAP3 SWAP1 POP JUMP JUMPDEST PUSH0 PUSH1 0x20 DUP3 ADD SWAP1 POP PUSH2 0x519 PUSH0 DUP4 ADD DUP5 PUSH2 0x2D3 JUMP JUMPDEST SWAP3 SWAP2 POP POP JUMP JUMPDEST PUSH0 PUSH1 0x20 DUP3 DUP5 SUB SLT ISZERO PUSH2 0x534 JUMPI PUSH2 0x533 PUSH2 0x26D JUMP JUMPDEST JUMPDEST PUSH0 DUP3 ADD CALLDATALOAD PUSH8 0xFFFFFFFFFFFFFFFF DUP2 GT ISZERO PUSH2 0x551 JUMPI PUSH2 0x550 PUSH2 0x271 JUMP JUMPDEST JUMPDEST PUSH2 0x55D DUP5 DUP3 DUP6 ADD PUSH2 0x47F JUMP JUMPDEST SWAP2 POP POP SWAP3 SWAP2 POP POP JUMP JUMPDEST PUSH32 0x4E487B7100000000000000000000000000000000000000000000000000000000 PUSH0 MSTORE PUSH1 0x22 PUSH1 0x4 MSTORE PUSH1 0x24 PUSH0 REVERT JUMPDEST PUSH0 PUSH1 0x2 DUP3 DIV SWAP1 POP PUSH1 0x1 DUP3 AND DUP1 PUSH2 0x5AA JUMPI PUSH1 0x7F DUP3 AND SWAP2 POP JUMPDEST PUSH1 0x20 DUP3 LT DUP2 SUB PUSH2 0x5BD JUMPI PUSH2 0x5BC PUSH2 0x566 JUMP JUMPDEST JUMPDEST POP SWAP2 SWAP1 POP JUMP JUMPDEST PUSH0 DUP2 SWAP1 POP DUP2 PUSH0 MSTORE PUSH1 0x20 PUSH0 KECCAK256 SWAP1 POP SWAP2 SWAP1 POP JUMP JUMPDEST PUSH0 PUSH1 0x20 PUSH1 0x1F DUP4 ADD DIV SWAP1 POP SWAP2 SWAP1 POP JUMP JUMPDEST PUSH0 DUP3 DUP3 SHL SWAP1 POP SWAP3 SWAP2 POP POP JUMP JUMPDEST PUSH0 PUSH1 0x8 DUP4 MUL PUSH2 0x61F PUSH32 0xFFFFFFFFFFFFFFFFFFFFFFFFFFFFFFFFFFFFFFFFFFFFFFFFFFFFFFFFFFFFFFFF DUP3 PUSH2 0x5E4 JUMP JUMPDEST PUSH2 0x629 DUP7 DUP4 PUSH2 0x5E4 JUMP JUMPDEST SWAP6 POP DUP1 NOT DUP5 AND SWAP4 POP DUP1 DUP7 AND DUP5 OR SWAP3 POP POP POP SWAP4 SWAP3 POP POP POP JUMP JUMPDEST PUSH0 DUP2 SWAP1 POP SWAP2 SWAP1 POP JUMP JUMPDEST PUSH0 PUSH2 0x664 PUSH2 0x65F PUSH2 0x65A DUP5 PUSH2 0x275 JUMP JUMPDEST PUSH2 0x641 JUMP JUMPDEST PUSH2 0x275 JUMP JUMPDEST SWAP1 POP SWAP2 SWAP1 POP JUMP JUMPDEST PUSH0 DUP2 SWAP1 POP SWAP2 SWAP1 POP JUMP JUMPDEST PUSH2 0x67D DUP4 PUSH2 0x64A JUMP JUMPDEST PUSH2 0x691 PUSH2 0x689 DUP3 PUSH2 0x66B JUMP JUMPDEST DUP5 DUP5 SLOAD PUSH2 0x5F0 JUMP JUMPDEST DUP3 SSTORE POP POP POP POP JUMP JUMPDEST PUSH0 SWAP1 JUMP JUMPDEST PUSH2 0x6A5 PUSH2 0x699 JUMP JUMPDEST PUSH2 0x6B0 DUP2 DUP5 DUP5 PUSH2 0x674 JUMP JUMPDEST POP POP POP JUMP JUMPDEST JUMPDEST DUP2 DUP2 LT ISZERO PUSH2 0x6D3 JUMPI PUSH2 0x6C8 PUSH0 DUP3 PUSH2 0x69D JUMP JUMPDEST PUSH1 0x1 DUP2 ADD SWAP1 POP PUSH2 0x6B6 JUMP JUMPDEST POP POP JUMP JUMPDEST PUSH1 0x1F DUP3 GT ISZERO PUSH2 0x718 JUMPI PUSH2 0x6E9 DUP2 PUSH2 0x5C3 JUMP JUMPDEST PUSH2 0x6F2 DUP5 PUSH2 0x5D5 JUMP JUMPDEST DUP2 ADD PUSH1 0x20 DUP6 LT ISZERO PUSH2 0x701 JUMPI DUP2 SWAP1 POP JUMPDEST PUSH2 0x715 PUSH2 0x70D DUP6 PUSH2 0x5D5 JUMP JUMPDEST DUP4 ADD DUP3 PUSH2 0x6B5 JUMP JUMPDEST POP POP JUMPDEST POP POP POP JUMP JUMPDEST PUSH0 DUP3 DUP3 SHR SWAP1 POP SWAP3 SWAP2 POP POP JUMP JUMPDEST PUSH0 PUSH2 0x738 PUSH0 NOT DUP5 PUSH1 0x8 MUL PUSH2 0x71D JUMP JUMPDEST NOT DUP1 DUP4 AND SWAP2 POP POP SWAP3 SWAP2 POP POP JUMP JUMPDEST PUSH0 PUSH2 0x750 DUP4 DUP4 PUSH2 0x729 JUMP JUMPDEST SWAP2 POP DUP3 PUSH1 0x2 MUL DUP3 OR SWAP1 POP SWAP3 SWAP2 POP POP JUMP JUMPDEST PUSH2 0x769 DUP3 PUSH2 0x2E2 JUMP JUMPDEST PUSH8 0xFFFFFFFFFFFFFFFF DUP2 GT ISZERO PUSH2 0x782 JUMPI PUSH2 0x781 PUSH2 0x388 JUMP JUMPDEST JUMPDEST PUSH2 0x78C DUP3 SLOAD PUSH2 0x593 JUMP JUMPDEST PUSH2 0x797 DUP3 DUP3 DUP6 PUSH2 0x6D7 JUMP JUMPDEST PUSH0 PUSH1 0x20 SWAP1 POP PUSH1 0x1F DUP4 GT PUSH1 0x1 DUP2 EQ PUSH2 0x7C8 JUMPI PUSH0 DUP5 ISZERO PUSH2 0x7B6 JUMPI DUP3 DUP8 ADD MLOAD SWAP1 POP JUMPDEST PUSH2 0x7C0 DUP6 DUP3 PUSH2 0x745 JUMP JUMPDEST DUP7 SSTORE POP PUSH2 0x827 JUMP JUMPDEST PUSH1 0x1F NOT DUP5 AND PUSH2 0x7D6 DUP7 PUSH2 0x5C3 JUMP JUMPDEST PUSH0 JUMPDEST DUP3 DUP2 LT ISZERO PUSH2 0x7FD JUMPI DUP5 DUP10 ADD MLOAD DUP3 SSTORE PUSH1 0x1 DUP3 ADD SWAP2 POP PUSH1 0x20 DUP6 ADD SWAP5 POP PUSH1 0x20 DUP2 ADD SWAP1 POP PUSH2 0x7D8 JUMP JUMPDEST DUP7 DUP4 LT ISZERO PUSH2 0x81A JUMPI DUP5 DUP10 ADD MLOAD PUSH2 0x816 PUSH1 0x1F DUP10 AND DUP3 PUSH2 0x729 JUMP JUMPDEST DUP4 SSTORE POP JUMPDEST PUSH1 0x1 PUSH1 0x2 DUP9 MUL ADD DUP9 SSTORE POP POP POP JUMPDEST POP POP POP POP POP POP JUMP INVALID LOG2 PUSH5 0x6970667358 0x22 SLT KECCAK256 COINBASE SWAP16 PUSH5 0xB323D8F9CC 0xCC TSTORE 0x2A STOP 0xD5 0xAE LOG0 SDIV 0xDD PUSH17 0xD88FEF6EF644E1D020CD520936F164736F PUSH13 0x634300081A0033A26469706673 PC 0x22 SLT KECCAK256 PUSH0 0xEA SELFBALANCE PUSH8 0xC75F6935E5A167AB DUP8 RETURN 0xC1 DUP6 EXTCODEHASH EXTCODEHASH SWAP10 DUP3 STATICCALL PUSH12 0x6DF62DE0364105B156DA6473 PUSH16 0x6C634300081A00330000000000000000 "
				},
				"gasEstimates": {
					"creation": {
						"codeDepositCost": "689400",
						"executionCost": "719",
						"totalCost": "690119"
					},
					"external": {
						"createSimpleStorage()": "infinite",
						"sfGetNumber(uint256)": "infinite",
						"sfStore(uint256,uint256)": "infinite",
						"simpleStorageContracts(uint256)": "infinite"
					}
				},
				"methodIdentifiers": {
					"createSimpleStorage()": "40d66b3b",
					"sfGetNumber(uint256)": "b51c8444",
					"sfStore(uint256,uint256)": "1563700f",
					"simpleStorageContracts(uint256)": "a5772eba"
				}
			},
			"storageLayout": {
				"storage": [
					{
						"astId": 60,
						"contract": "bai02/StorageFactory.sol:StorageFactory",
						"label": "simpleStorageContracts",
						"offset": 0,
						"slot": "0",
						"type": "t_array(t_contract(SimpleStorage)52)dyn_storage"
					}
				],
				"types": {
					"t_array(t_contract(SimpleStorage)52)dyn_storage": {
						"base": "t_contract(SimpleStorage)52",
						"encoding": "dynamic_array",
						"label": "contract SimpleStorage[]",
						"numberOfBytes": "32"
					},
					"t_contract(SimpleStorage)52": {
						"encoding": "inplace",
						"label": "contract SimpleStorage",
						"numberOfBytes": "20"
					}
				}
			},
			"userdoc": {
				"kind": "user",
				"methods": {},
				"version": 1
			}
		}
	}
}