{
	"Crowdfunding.sol": {
		"Crowdfunding": {
			"abi": [
				{
					"inputs": [],
					"stateMutability": "nonpayable",
					"type": "constructor"
				},
				{
					"inputs": [],
					"name": "NoAvailableAmout",
					"type": "error"
				},
				{
					"stateMutability": "payable",
					"type": "fallback"
				},
				{
					"inputs": [],
					"name": "MINIMUM_USD",
					"outputs": [
						{
							"internalType": "uint256",
							"name": "",
							"type": "uint256"
						}
					],
					"stateMutability": "view",
					"type": "function"
				},
				{
					"inputs": [],
					"name": "fund",
					"outputs": [],
					"stateMutability": "payable",
					"type": "function"
				},
				{
					"inputs": [],
					"name": "getBalance",
					"outputs": [
						{
							"internalType": "uint256",
							"name": "",
							"type": "uint256"
						}
					],
					"stateMutability": "view",
					"type": "function"
				},
				{
					"inputs": [],
					"name": "getLastestAnswer",
					"outputs": [
						{
							"internalType": "int256",
							"name": "",
							"type": "int256"
						}
					],
					"stateMutability": "view",
					"type": "function"
				},
				{
					"inputs": [],
					"name": "getThisContract",
					"outputs": [
						{
							"internalType": "address",
							"name": "",
							"type": "address"
						}
					],
					"stateMutability": "view",
					"type": "function"
				},
				{
					"inputs": [],
					"name": "i_owner",
					"outputs": [
						{
							"internalType": "address",
							"name": "",
							"type": "address"
						}
					],
					"stateMutability": "view",
					"type": "function"
				},
				{
					"inputs": [],
					"name": "withdraw",
					"outputs": [],
					"stateMutability": "nonpayable",
					"type": "function"
				},
				{
					"stateMutability": "payable",
					"type": "receive"
				}
			],
			"devdoc": {
				"kind": "dev",
				"methods": {},
				"version": 1
			},
			"evm": {
				"assembly": "    /* \"Crowdfunding.sol\":183:1937  contract Crowdfunding {... */\n  mstore(0x40, 0xa0)\n    /* \"Crowdfunding.sol\":339:381  0x1ddfE2c36478E61cE3acBE4B96e57143E1964FFd */\n  0x1ddfe2c36478e61ce3acbe4b96e57143e1964ffd\n    /* \"Crowdfunding.sol\":304:381  address public immutable i_owner = 0x1ddfE2c36478E61cE3acBE4B96e57143E1964FFd */\n  0xffffffffffffffffffffffffffffffffffffffff\n  and\n  0x80\n  swap1\n  0xffffffffffffffffffffffffffffffffffffffff\n  and\n  dup2\n  mstore\n  pop\n    /* \"Crowdfunding.sol\":553:692  constructor(){... */\n  callvalue\n  dup1\n  iszero\n  tag_1\n  jumpi\n  0x00\n  dup1\n  revert\ntag_1:\n  pop\n    /* \"Crowdfunding.sol\":587:597  msg.sender */\n  caller\n    /* \"Crowdfunding.sol\":577:597  i_owner = msg.sender */\n  0xffffffffffffffffffffffffffffffffffffffff\n  and\n  0x80\n  dup2\n  0xffffffffffffffffffffffffffffffffffffffff\n  and\n  dup2\n  mstore\n  pop\n  pop\n    /* \"Crowdfunding.sol\":641:683  0x694AA1769357215DE4FAC081bf1f309aDC325306 */\n  0x694aa1769357215de4fac081bf1f309adc325306\n    /* \"Crowdfunding.sol\":608:616  dataFeed */\n  0x00\n  dup1\n    /* \"Crowdfunding.sol\":608:684  dataFeed = AggregatorV3Interface(0x694AA1769357215DE4FAC081bf1f309aDC325306) */\n  0x0100\n  exp\n  dup2\n  sload\n  dup2\n  0xffffffffffffffffffffffffffffffffffffffff\n  mul\n  not\n  and\n  swap1\n  dup4\n  0xffffffffffffffffffffffffffffffffffffffff\n  and\n  mul\n  or\n  swap1\n  sstore\n  pop\n    /* \"Crowdfunding.sol\":183:1937  contract Crowdfunding {... */\n  mload(0x80)\n  codecopy(0x00, dataOffset(sub_0), dataSize(sub_0))\n  0x00\n  assignImmutable(\"0xe921da22f871c25c63f06c1365385cbb26397f64f79055cdbab32187a9377d16\")\n  return(0x00, dataSize(sub_0))\nstop\n\nsub_0: assembly {\n        /* \"Crowdfunding.sol\":183:1937  contract Crowdfunding {... */\n      mstore(0x40, 0x80)\n      jumpi(tag_1, lt(calldatasize, 0x04))\n      shr(0xe0, calldataload(0x00))\n      dup1\n      0x469e2cec\n      gt\n      tag_10\n      jumpi\n      dup1\n      0x469e2cec\n      eq\n      tag_6\n      jumpi\n      dup1\n      0x6b69a592\n      eq\n      tag_7\n      jumpi\n      dup1\n      0xb60d4288\n      eq\n      tag_8\n      jumpi\n      dup1\n      0xdba6335f\n      eq\n      tag_9\n      jumpi\n      jump(tag_2)\n    tag_10:\n      dup1\n      0x12065fe0\n      eq\n      tag_3\n      jumpi\n      dup1\n      0x339a2c4f\n      eq\n      tag_4\n      jumpi\n      dup1\n      0x3ccfd60b\n      eq\n      tag_5\n      jumpi\n      jump(tag_2)\n    tag_1:\n      jumpi(tag_2, calldatasize)\n        /* \"Crowdfunding.sol\":473:479  fund() */\n      tag_13\n        /* \"Crowdfunding.sol\":473:477  fund */\n      tag_14\n        /* \"Crowdfunding.sol\":473:479  fund() */\n      jump\t// in\n    tag_13:\n        /* \"Crowdfunding.sol\":183:1937  contract Crowdfunding {... */\n      stop\n    tag_2:\n        /* \"Crowdfunding.sol\":533:539  fund() */\n      tag_17\n        /* \"Crowdfunding.sol\":533:537  fund */\n      tag_14\n        /* \"Crowdfunding.sol\":533:539  fund() */\n      jump\t// in\n    tag_17:\n        /* \"Crowdfunding.sol\":183:1937  contract Crowdfunding {... */\n      stop\n        /* \"Crowdfunding.sol\":1672:1800  function getBalance() public view returns(uint256){... */\n    tag_3:\n      callvalue\n      dup1\n      iszero\n      tag_18\n      jumpi\n      0x00\n      dup1\n      revert\n    tag_18:\n      pop\n      tag_19\n      tag_20\n      jump\t// in\n    tag_19:\n      mload(0x40)\n      tag_21\n      swap2\n      swap1\n      tag_22\n      jump\t// in\n    tag_21:\n      mload(0x40)\n      dup1\n      swap2\n      sub\n      swap1\n      return\n        /* \"Crowdfunding.sol\":1315:1660  function getLastestAnswer() public view returns (int256) {... */\n    tag_4:\n      callvalue\n      dup1\n      iszero\n      tag_23\n      jumpi\n      0x00\n      dup1\n      revert\n    tag_23:\n      pop\n      tag_24\n      tag_25\n      jump\t// in\n    tag_24:\n      mload(0x40)\n      tag_26\n      swap2\n      swap1\n      tag_27\n      jump\t// in\n    tag_26:\n      mload(0x40)\n      dup1\n      swap2\n      sub\n      swap1\n      return\n        /* \"Crowdfunding.sol\":1102:1307  function withdraw() public onlyOwner {... */\n    tag_5:\n      callvalue\n      dup1\n      iszero\n      tag_28\n      jumpi\n      0x00\n      dup1\n      revert\n    tag_28:\n      pop\n      tag_29\n      tag_30\n      jump\t// in\n    tag_29:\n      stop\n        /* \"Crowdfunding.sol\":1806:1934  function getThisContract() public view returns (address) {... */\n    tag_6:\n      callvalue\n      dup1\n      iszero\n      tag_31\n      jumpi\n      0x00\n      dup1\n      revert\n    tag_31:\n      pop\n      tag_32\n      tag_33\n      jump\t// in\n    tag_32:\n      mload(0x40)\n      tag_34\n      swap2\n      swap1\n      tag_35\n      jump\t// in\n    tag_34:\n      mload(0x40)\n      dup1\n      swap2\n      sub\n      swap1\n      return\n        /* \"Crowdfunding.sol\":243:282  uint256 public constant MINIMUM_USD = 0 */\n    tag_7:\n      callvalue\n      dup1\n      iszero\n      tag_36\n      jumpi\n      0x00\n      dup1\n      revert\n    tag_36:\n      pop\n      tag_37\n      tag_38\n      jump\t// in\n    tag_37:\n      mload(0x40)\n      tag_39\n      swap2\n      swap1\n      tag_22\n      jump\t// in\n    tag_39:\n      mload(0x40)\n      dup1\n      swap2\n      sub\n      swap1\n      return\n        /* \"Crowdfunding.sol\":837:1096  function fund() public payable { // keyword payable thi msg.value moi doc duoc... */\n    tag_8:\n      tag_40\n      tag_14\n      jump\t// in\n    tag_40:\n      stop\n        /* \"Crowdfunding.sol\":304:381  address public immutable i_owner = 0x1ddfE2c36478E61cE3acBE4B96e57143E1964FFd */\n    tag_9:\n      callvalue\n      dup1\n      iszero\n      tag_41\n      jumpi\n      0x00\n      dup1\n      revert\n    tag_41:\n      pop\n      tag_42\n      tag_43\n      jump\t// in\n    tag_42:\n      mload(0x40)\n      tag_44\n      swap2\n      swap1\n      tag_35\n      jump\t// in\n    tag_44:\n      mload(0x40)\n      dup1\n      swap2\n      sub\n      swap1\n      return\n        /* \"Crowdfunding.sol\":837:1096  function fund() public payable { // keyword payable thi msg.value moi doc duoc... */\n    tag_14:\n        /* \"Crowdfunding.sol\":982:997  uint valueInUsd */\n      0x00\n        /* \"Crowdfunding.sol\":1000:1009  msg.value */\n      callvalue\n        /* \"Crowdfunding.sol\":982:1009  uint valueInUsd = msg.value */\n      swap1\n      pop\n        /* \"Crowdfunding.sol\":281:282  0 */\n      0x00\n        /* \"Crowdfunding.sol\":1028:1038  valueInUsd */\n      dup2\n        /* \"Crowdfunding.sol\":1028:1053  valueInUsd >= MINIMUM_USD */\n      lt\n      iszero\n        /* \"Crowdfunding.sol\":1020:1072  require(valueInUsd >= MINIMUM_USD, \"HCMUT No Money\") */\n      tag_46\n      jumpi\n      mload(0x40)\n      0x08c379a000000000000000000000000000000000000000000000000000000000\n      dup2\n      mstore\n      0x04\n      add\n      tag_47\n      swap1\n      tag_48\n      jump\t// in\n    tag_47:\n      mload(0x40)\n      dup1\n      swap2\n      sub\n      swap1\n      revert\n    tag_46:\n        /* \"Crowdfunding.sol\":868:1096  { // keyword payable thi msg.value moi doc duoc... */\n      pop\n        /* \"Crowdfunding.sol\":837:1096  function fund() public payable { // keyword payable thi msg.value moi doc duoc... */\n      jump\t// out\n        /* \"Crowdfunding.sol\":1672:1800  function getBalance() public view returns(uint256){... */\n    tag_20:\n        /* \"Crowdfunding.sol\":1714:1721  uint256 */\n      0x00\n        /* \"Crowdfunding.sol\":1740:1761  address(this).balance */\n      selfbalance\n        /* \"Crowdfunding.sol\":1733:1761  return address(this).balance */\n      swap1\n      pop\n        /* \"Crowdfunding.sol\":1672:1800  function getBalance() public view returns(uint256){... */\n      swap1\n      jump\t// out\n        /* \"Crowdfunding.sol\":1315:1660  function getLastestAnswer() public view returns (int256) {... */\n    tag_25:\n        /* \"Crowdfunding.sol\":1364:1370  int256 */\n      0x00\n        /* \"Crowdfunding.sol\":1461:1474  int256 answer */\n      dup1\n        /* \"Crowdfunding.sol\":1595:1603  dataFeed */\n      0x00\n      dup1\n      sload\n      swap1\n      0x0100\n      exp\n      swap1\n      div\n      0xffffffffffffffffffffffffffffffffffffffff\n      and\n        /* \"Crowdfunding.sol\":1595:1619  dataFeed.latestRoundData */\n      0xffffffffffffffffffffffffffffffffffffffff\n      and\n      0xfeaf968c\n        /* \"Crowdfunding.sol\":1595:1621  dataFeed.latestRoundData() */\n      mload(0x40)\n      dup2\n      0xffffffff\n      and\n      0xe0\n      shl\n      dup2\n      mstore\n      0x04\n      add\n      0xa0\n      mload(0x40)\n      dup1\n      dup4\n      sub\n      dup2\n      dup7\n      gas\n      staticcall\n      iszero\n      dup1\n      iszero\n      tag_52\n      jumpi\n      returndatasize\n      0x00\n      dup1\n      returndatacopy\n      revert(0x00, returndatasize)\n    tag_52:\n      pop\n      pop\n      pop\n      pop\n      mload(0x40)\n      returndatasize\n      not(0x1f)\n      0x1f\n      dup3\n      add\n      and\n      dup3\n      add\n      dup1\n      0x40\n      mstore\n      pop\n      dup2\n      add\n      swap1\n      tag_53\n      swap2\n      swap1\n      tag_54\n      jump\t// in\n    tag_53:\n        /* \"Crowdfunding.sol\":1411:1621  (... */\n      pop\n      pop\n      pop\n      swap2\n      pop\n      pop\n        /* \"Crowdfunding.sol\":1648:1652  1e10 */\n      0x02540be400\n        /* \"Crowdfunding.sol\":1639:1645  answer */\n      dup2\n        /* \"Crowdfunding.sol\":1639:1652  answer * 1e10 */\n      tag_55\n      swap2\n      swap1\n      tag_56\n      jump\t// in\n    tag_55:\n        /* \"Crowdfunding.sol\":1632:1652  return answer * 1e10 */\n      swap2\n      pop\n      pop\n        /* \"Crowdfunding.sol\":1315:1660  function getLastestAnswer() public view returns (int256) {... */\n      swap1\n      jump\t// out\n        /* \"Crowdfunding.sol\":1102:1307  function withdraw() public onlyOwner {... */\n    tag_30:\n        /* \"Crowdfunding.sol\":746:756  msg.sender */\n      caller\n        /* \"Crowdfunding.sol\":735:756  i_owner != msg.sender */\n      0xffffffffffffffffffffffffffffffffffffffff\n      and\n        /* \"Crowdfunding.sol\":735:742  i_owner */\n      immutable(\"0xe921da22f871c25c63f06c1365385cbb26397f64f79055cdbab32187a9377d16\")\n        /* \"Crowdfunding.sol\":735:756  i_owner != msg.sender */\n      0xffffffffffffffffffffffffffffffffffffffff\n      and\n      eq\n        /* \"Crowdfunding.sol\":732:810  if(i_owner != msg.sender) {... */\n      tag_58\n      jumpi\n        /* \"Crowdfunding.sol\":780:798  NoAvailableAmout() */\n      mload(0x40)\n      0xeb0c840800000000000000000000000000000000000000000000000000000000\n      dup2\n      mstore\n      0x04\n      add\n      mload(0x40)\n      dup1\n      swap2\n      sub\n      swap1\n      revert\n        /* \"Crowdfunding.sol\":732:810  if(i_owner != msg.sender) {... */\n    tag_58:\n        /* \"Crowdfunding.sol\":1151:1160  bool sent */\n      0x00\n        /* \"Crowdfunding.sol\":1174:1181  i_owner */\n      immutable(\"0xe921da22f871c25c63f06c1365385cbb26397f64f79055cdbab32187a9377d16\")\n        /* \"Crowdfunding.sol\":1166:1187  payable(i_owner).call */\n      0xffffffffffffffffffffffffffffffffffffffff\n      and\n        /* \"Crowdfunding.sol\":1195:1216  address(this).balance */\n      selfbalance\n        /* \"Crowdfunding.sol\":1166:1221  payable(i_owner).call{value: address(this).balance}(\"\") */\n      mload(0x40)\n      tag_60\n      swap1\n      tag_61\n      jump\t// in\n    tag_60:\n      0x00\n      mload(0x40)\n      dup1\n      dup4\n      sub\n      dup2\n      dup6\n      dup8\n      gas\n      call\n      swap3\n      pop\n      pop\n      pop\n      returndatasize\n      dup1\n      0x00\n      dup2\n      eq\n      tag_64\n      jumpi\n      mload(0x40)\n      swap2\n      pop\n      and(add(returndatasize, 0x3f), not(0x1f))\n      dup3\n      add\n      0x40\n      mstore\n      returndatasize\n      dup3\n      mstore\n      returndatasize\n      0x00\n      0x20\n      dup5\n      add\n      returndatacopy\n      jump(tag_63)\n    tag_64:\n      0x60\n      swap2\n      pop\n    tag_63:\n      pop\n        /* \"Crowdfunding.sol\":1150:1221  (bool sent, ) = payable(i_owner).call{value: address(this).balance}(\"\") */\n      pop\n      swap1\n      pop\n        /* \"Crowdfunding.sol\":1270:1274  sent */\n      dup1\n        /* \"Crowdfunding.sol\":1262:1299  require(sent, \"Failed to send Ether\") */\n      tag_65\n      jumpi\n      mload(0x40)\n      0x08c379a000000000000000000000000000000000000000000000000000000000\n      dup2\n      mstore\n      0x04\n      add\n      tag_66\n      swap1\n      tag_67\n      jump\t// in\n    tag_66:\n      mload(0x40)\n      dup1\n      swap2\n      sub\n      swap1\n      revert\n    tag_65:\n        /* \"Crowdfunding.sol\":1139:1307  {... */\n      pop\n        /* \"Crowdfunding.sol\":1102:1307  function withdraw() public onlyOwner {... */\n      jump\t// out\n        /* \"Crowdfunding.sol\":1806:1934  function getThisContract() public view returns (address) {... */\n    tag_33:\n        /* \"Crowdfunding.sol\":1854:1861  address */\n      0x00\n        /* \"Crowdfunding.sol\":1889:1893  this */\n      address\n        /* \"Crowdfunding.sol\":1874:1894  return address(this) */\n      swap1\n      pop\n        /* \"Crowdfunding.sol\":1806:1934  function getThisContract() public view returns (address) {... */\n      swap1\n      jump\t// out\n        /* \"Crowdfunding.sol\":243:282  uint256 public constant MINIMUM_USD = 0 */\n    tag_38:\n        /* \"Crowdfunding.sol\":281:282  0 */\n      0x00\n        /* \"Crowdfunding.sol\":243:282  uint256 public constant MINIMUM_USD = 0 */\n      dup2\n      jump\t// out\n        /* \"Crowdfunding.sol\":304:381  address public immutable i_owner = 0x1ddfE2c36478E61cE3acBE4B96e57143E1964FFd */\n    tag_43:\n      immutable(\"0xe921da22f871c25c63f06c1365385cbb26397f64f79055cdbab32187a9377d16\")\n      dup2\n      jump\t// out\n        /* \"#utility.yul\":7:84   */\n    tag_69:\n        /* \"#utility.yul\":44:51   */\n      0x00\n        /* \"#utility.yul\":73:78   */\n      dup2\n        /* \"#utility.yul\":62:78   */\n      swap1\n      pop\n        /* \"#utility.yul\":7:84   */\n      swap2\n      swap1\n      pop\n      jump\t// out\n        /* \"#utility.yul\":90:208   */\n    tag_70:\n        /* \"#utility.yul\":177:201   */\n      tag_98\n        /* \"#utility.yul\":195:200   */\n      dup2\n        /* \"#utility.yul\":177:201   */\n      tag_69\n      jump\t// in\n    tag_98:\n        /* \"#utility.yul\":172:175   */\n      dup3\n        /* \"#utility.yul\":165:202   */\n      mstore\n        /* \"#utility.yul\":90:208   */\n      pop\n      pop\n      jump\t// out\n        /* \"#utility.yul\":214:436   */\n    tag_22:\n        /* \"#utility.yul\":307:311   */\n      0x00\n        /* \"#utility.yul\":345:347   */\n      0x20\n        /* \"#utility.yul\":334:343   */\n      dup3\n        /* \"#utility.yul\":330:348   */\n      add\n        /* \"#utility.yul\":322:348   */\n      swap1\n      pop\n        /* \"#utility.yul\":358:429   */\n      tag_100\n        /* \"#utility.yul\":426:427   */\n      0x00\n        /* \"#utility.yul\":415:424   */\n      dup4\n        /* \"#utility.yul\":411:428   */\n      add\n        /* \"#utility.yul\":402:408   */\n      dup5\n        /* \"#utility.yul\":358:429   */\n      tag_70\n      jump\t// in\n    tag_100:\n        /* \"#utility.yul\":214:436   */\n      swap3\n      swap2\n      pop\n      pop\n      jump\t// out\n        /* \"#utility.yul\":442:518   */\n    tag_71:\n        /* \"#utility.yul\":478:485   */\n      0x00\n        /* \"#utility.yul\":507:512   */\n      dup2\n        /* \"#utility.yul\":496:512   */\n      swap1\n      pop\n        /* \"#utility.yul\":442:518   */\n      swap2\n      swap1\n      pop\n      jump\t// out\n        /* \"#utility.yul\":524:639   */\n    tag_72:\n        /* \"#utility.yul\":609:632   */\n      tag_103\n        /* \"#utility.yul\":626:631   */\n      dup2\n        /* \"#utility.yul\":609:632   */\n      tag_71\n      jump\t// in\n    tag_103:\n        /* \"#utility.yul\":604:607   */\n      dup3\n        /* \"#utility.yul\":597:633   */\n      mstore\n        /* \"#utility.yul\":524:639   */\n      pop\n      pop\n      jump\t// out\n        /* \"#utility.yul\":645:863   */\n    tag_27:\n        /* \"#utility.yul\":736:740   */\n      0x00\n        /* \"#utility.yul\":774:776   */\n      0x20\n        /* \"#utility.yul\":763:772   */\n      dup3\n        /* \"#utility.yul\":759:777   */\n      add\n        /* \"#utility.yul\":751:777   */\n      swap1\n      pop\n        /* \"#utility.yul\":787:856   */\n      tag_105\n        /* \"#utility.yul\":853:854   */\n      0x00\n        /* \"#utility.yul\":842:851   */\n      dup4\n        /* \"#utility.yul\":838:855   */\n      add\n        /* \"#utility.yul\":829:835   */\n      dup5\n        /* \"#utility.yul\":787:856   */\n      tag_72\n      jump\t// in\n    tag_105:\n        /* \"#utility.yul\":645:863   */\n      swap3\n      swap2\n      pop\n      pop\n      jump\t// out\n        /* \"#utility.yul\":869:995   */\n    tag_73:\n        /* \"#utility.yul\":906:913   */\n      0x00\n        /* \"#utility.yul\":946:988   */\n      0xffffffffffffffffffffffffffffffffffffffff\n        /* \"#utility.yul\":939:944   */\n      dup3\n        /* \"#utility.yul\":935:989   */\n      and\n        /* \"#utility.yul\":924:989   */\n      swap1\n      pop\n        /* \"#utility.yul\":869:995   */\n      swap2\n      swap1\n      pop\n      jump\t// out\n        /* \"#utility.yul\":1001:1097   */\n    tag_74:\n        /* \"#utility.yul\":1038:1045   */\n      0x00\n        /* \"#utility.yul\":1067:1091   */\n      tag_108\n        /* \"#utility.yul\":1085:1090   */\n      dup3\n        /* \"#utility.yul\":1067:1091   */\n      tag_73\n      jump\t// in\n    tag_108:\n        /* \"#utility.yul\":1056:1091   */\n      swap1\n      pop\n        /* \"#utility.yul\":1001:1097   */\n      swap2\n      swap1\n      pop\n      jump\t// out\n        /* \"#utility.yul\":1103:1221   */\n    tag_75:\n        /* \"#utility.yul\":1190:1214   */\n      tag_110\n        /* \"#utility.yul\":1208:1213   */\n      dup2\n        /* \"#utility.yul\":1190:1214   */\n      tag_74\n      jump\t// in\n    tag_110:\n        /* \"#utility.yul\":1185:1188   */\n      dup3\n        /* \"#utility.yul\":1178:1215   */\n      mstore\n        /* \"#utility.yul\":1103:1221   */\n      pop\n      pop\n      jump\t// out\n        /* \"#utility.yul\":1227:1449   */\n    tag_35:\n        /* \"#utility.yul\":1320:1324   */\n      0x00\n        /* \"#utility.yul\":1358:1360   */\n      0x20\n        /* \"#utility.yul\":1347:1356   */\n      dup3\n        /* \"#utility.yul\":1343:1361   */\n      add\n        /* \"#utility.yul\":1335:1361   */\n      swap1\n      pop\n        /* \"#utility.yul\":1371:1442   */\n      tag_112\n        /* \"#utility.yul\":1439:1440   */\n      0x00\n        /* \"#utility.yul\":1428:1437   */\n      dup4\n        /* \"#utility.yul\":1424:1441   */\n      add\n        /* \"#utility.yul\":1415:1421   */\n      dup5\n        /* \"#utility.yul\":1371:1442   */\n      tag_75\n      jump\t// in\n    tag_112:\n        /* \"#utility.yul\":1227:1449   */\n      swap3\n      swap2\n      pop\n      pop\n      jump\t// out\n        /* \"#utility.yul\":1455:1624   */\n    tag_76:\n        /* \"#utility.yul\":1539:1550   */\n      0x00\n        /* \"#utility.yul\":1573:1579   */\n      dup3\n        /* \"#utility.yul\":1568:1571   */\n      dup3\n        /* \"#utility.yul\":1561:1580   */\n      mstore\n        /* \"#utility.yul\":1613:1617   */\n      0x20\n        /* \"#utility.yul\":1608:1611   */\n      dup3\n        /* \"#utility.yul\":1604:1618   */\n      add\n        /* \"#utility.yul\":1589:1618   */\n      swap1\n      pop\n        /* \"#utility.yul\":1455:1624   */\n      swap3\n      swap2\n      pop\n      pop\n      jump\t// out\n        /* \"#utility.yul\":1630:1794   */\n    tag_77:\n        /* \"#utility.yul\":1770:1786   */\n      0x48434d5554204e6f204d6f6e6579000000000000000000000000000000000000\n        /* \"#utility.yul\":1766:1767   */\n      0x00\n        /* \"#utility.yul\":1758:1764   */\n      dup3\n        /* \"#utility.yul\":1754:1768   */\n      add\n        /* \"#utility.yul\":1747:1787   */\n      mstore\n        /* \"#utility.yul\":1630:1794   */\n      pop\n      jump\t// out\n        /* \"#utility.yul\":1800:2166   */\n    tag_78:\n        /* \"#utility.yul\":1942:1945   */\n      0x00\n        /* \"#utility.yul\":1963:2030   */\n      tag_116\n        /* \"#utility.yul\":2027:2029   */\n      0x0e\n        /* \"#utility.yul\":2022:2025   */\n      dup4\n        /* \"#utility.yul\":1963:2030   */\n      tag_76\n      jump\t// in\n    tag_116:\n        /* \"#utility.yul\":1956:2030   */\n      swap2\n      pop\n        /* \"#utility.yul\":2039:2132   */\n      tag_117\n        /* \"#utility.yul\":2128:2131   */\n      dup3\n        /* \"#utility.yul\":2039:2132   */\n      tag_77\n      jump\t// in\n    tag_117:\n        /* \"#utility.yul\":2157:2159   */\n      0x20\n        /* \"#utility.yul\":2152:2155   */\n      dup3\n        /* \"#utility.yul\":2148:2160   */\n      add\n        /* \"#utility.yul\":2141:2160   */\n      swap1\n      pop\n        /* \"#utility.yul\":1800:2166   */\n      swap2\n      swap1\n      pop\n      jump\t// out\n        /* \"#utility.yul\":2172:2591   */\n    tag_48:\n        /* \"#utility.yul\":2338:2342   */\n      0x00\n        /* \"#utility.yul\":2376:2378   */\n      0x20\n        /* \"#utility.yul\":2365:2374   */\n      dup3\n        /* \"#utility.yul\":2361:2379   */\n      add\n        /* \"#utility.yul\":2353:2379   */\n      swap1\n      pop\n        /* \"#utility.yul\":2425:2434   */\n      dup2\n        /* \"#utility.yul\":2419:2423   */\n      dup2\n        /* \"#utility.yul\":2415:2435   */\n      sub\n        /* \"#utility.yul\":2411:2412   */\n      0x00\n        /* \"#utility.yul\":2400:2409   */\n      dup4\n        /* \"#utility.yul\":2396:2413   */\n      add\n        /* \"#utility.yul\":2389:2436   */\n      mstore\n        /* \"#utility.yul\":2453:2584   */\n      tag_119\n        /* \"#utility.yul\":2579:2583   */\n      dup2\n        /* \"#utility.yul\":2453:2584   */\n      tag_78\n      jump\t// in\n    tag_119:\n        /* \"#utility.yul\":2445:2584   */\n      swap1\n      pop\n        /* \"#utility.yul\":2172:2591   */\n      swap2\n      swap1\n      pop\n      jump\t// out\n        /* \"#utility.yul\":2678:2795   */\n    tag_80:\n        /* \"#utility.yul\":2787:2788   */\n      0x00\n        /* \"#utility.yul\":2784:2785   */\n      dup1\n        /* \"#utility.yul\":2777:2789   */\n      revert\n        /* \"#utility.yul\":2924:3029   */\n    tag_82:\n        /* \"#utility.yul\":2960:2967   */\n      0x00\n        /* \"#utility.yul\":3000:3022   */\n      0xffffffffffffffffffff\n        /* \"#utility.yul\":2993:2998   */\n      dup3\n        /* \"#utility.yul\":2989:3023   */\n      and\n        /* \"#utility.yul\":2978:3023   */\n      swap1\n      pop\n        /* \"#utility.yul\":2924:3029   */\n      swap2\n      swap1\n      pop\n      jump\t// out\n        /* \"#utility.yul\":3035:3155   */\n    tag_83:\n        /* \"#utility.yul\":3107:3130   */\n      tag_125\n        /* \"#utility.yul\":3124:3129   */\n      dup2\n        /* \"#utility.yul\":3107:3130   */\n      tag_82\n      jump\t// in\n    tag_125:\n        /* \"#utility.yul\":3100:3105   */\n      dup2\n        /* \"#utility.yul\":3097:3131   */\n      eq\n        /* \"#utility.yul\":3087:3149   */\n      tag_126\n      jumpi\n        /* \"#utility.yul\":3145:3146   */\n      0x00\n        /* \"#utility.yul\":3142:3143   */\n      dup1\n        /* \"#utility.yul\":3135:3147   */\n      revert\n        /* \"#utility.yul\":3087:3149   */\n    tag_126:\n        /* \"#utility.yul\":3035:3155   */\n      pop\n      jump\t// out\n        /* \"#utility.yul\":3161:3302   */\n    tag_84:\n        /* \"#utility.yul\":3217:3222   */\n      0x00\n        /* \"#utility.yul\":3248:3254   */\n      dup2\n        /* \"#utility.yul\":3242:3255   */\n      mload\n        /* \"#utility.yul\":3233:3255   */\n      swap1\n      pop\n        /* \"#utility.yul\":3264:3296   */\n      tag_128\n        /* \"#utility.yul\":3290:3295   */\n      dup2\n        /* \"#utility.yul\":3264:3296   */\n      tag_83\n      jump\t// in\n    tag_128:\n        /* \"#utility.yul\":3161:3302   */\n      swap3\n      swap2\n      pop\n      pop\n      jump\t// out\n        /* \"#utility.yul\":3308:3428   */\n    tag_85:\n        /* \"#utility.yul\":3380:3403   */\n      tag_130\n        /* \"#utility.yul\":3397:3402   */\n      dup2\n        /* \"#utility.yul\":3380:3403   */\n      tag_71\n      jump\t// in\n    tag_130:\n        /* \"#utility.yul\":3373:3378   */\n      dup2\n        /* \"#utility.yul\":3370:3404   */\n      eq\n        /* \"#utility.yul\":3360:3422   */\n      tag_131\n      jumpi\n        /* \"#utility.yul\":3418:3419   */\n      0x00\n        /* \"#utility.yul\":3415:3416   */\n      dup1\n        /* \"#utility.yul\":3408:3420   */\n      revert\n        /* \"#utility.yul\":3360:3422   */\n    tag_131:\n        /* \"#utility.yul\":3308:3428   */\n      pop\n      jump\t// out\n        /* \"#utility.yul\":3434:3575   */\n    tag_86:\n        /* \"#utility.yul\":3490:3495   */\n      0x00\n        /* \"#utility.yul\":3521:3527   */\n      dup2\n        /* \"#utility.yul\":3515:3528   */\n      mload\n        /* \"#utility.yul\":3506:3528   */\n      swap1\n      pop\n        /* \"#utility.yul\":3537:3569   */\n      tag_133\n        /* \"#utility.yul\":3563:3568   */\n      dup2\n        /* \"#utility.yul\":3537:3569   */\n      tag_85\n      jump\t// in\n    tag_133:\n        /* \"#utility.yul\":3434:3575   */\n      swap3\n      swap2\n      pop\n      pop\n      jump\t// out\n        /* \"#utility.yul\":3581:3703   */\n    tag_87:\n        /* \"#utility.yul\":3654:3678   */\n      tag_135\n        /* \"#utility.yul\":3672:3677   */\n      dup2\n        /* \"#utility.yul\":3654:3678   */\n      tag_69\n      jump\t// in\n    tag_135:\n        /* \"#utility.yul\":3647:3652   */\n      dup2\n        /* \"#utility.yul\":3644:3679   */\n      eq\n        /* \"#utility.yul\":3634:3697   */\n      tag_136\n      jumpi\n        /* \"#utility.yul\":3693:3694   */\n      0x00\n        /* \"#utility.yul\":3690:3691   */\n      dup1\n        /* \"#utility.yul\":3683:3695   */\n      revert\n        /* \"#utility.yul\":3634:3697   */\n    tag_136:\n        /* \"#utility.yul\":3581:3703   */\n      pop\n      jump\t// out\n        /* \"#utility.yul\":3709:3852   */\n    tag_88:\n        /* \"#utility.yul\":3766:3771   */\n      0x00\n        /* \"#utility.yul\":3797:3803   */\n      dup2\n        /* \"#utility.yul\":3791:3804   */\n      mload\n        /* \"#utility.yul\":3782:3804   */\n      swap1\n      pop\n        /* \"#utility.yul\":3813:3846   */\n      tag_138\n        /* \"#utility.yul\":3840:3845   */\n      dup2\n        /* \"#utility.yul\":3813:3846   */\n      tag_87\n      jump\t// in\n    tag_138:\n        /* \"#utility.yul\":3709:3852   */\n      swap3\n      swap2\n      pop\n      pop\n      jump\t// out\n        /* \"#utility.yul\":3858:4829   */\n    tag_54:\n        /* \"#utility.yul\":3961:3967   */\n      0x00\n        /* \"#utility.yul\":3969:3975   */\n      dup1\n        /* \"#utility.yul\":3977:3983   */\n      0x00\n        /* \"#utility.yul\":3985:3991   */\n      dup1\n        /* \"#utility.yul\":3993:3999   */\n      0x00\n        /* \"#utility.yul\":4042:4045   */\n      0xa0\n        /* \"#utility.yul\":4030:4039   */\n      dup7\n        /* \"#utility.yul\":4021:4028   */\n      dup9\n        /* \"#utility.yul\":4017:4040   */\n      sub\n        /* \"#utility.yul\":4013:4046   */\n      slt\n        /* \"#utility.yul\":4010:4130   */\n      iszero\n      tag_140\n      jumpi\n        /* \"#utility.yul\":4049:4128   */\n      tag_141\n      tag_80\n      jump\t// in\n    tag_141:\n        /* \"#utility.yul\":4010:4130   */\n    tag_140:\n        /* \"#utility.yul\":4169:4170   */\n      0x00\n        /* \"#utility.yul\":4194:4257   */\n      tag_142\n        /* \"#utility.yul\":4249:4256   */\n      dup9\n        /* \"#utility.yul\":4240:4246   */\n      dup3\n        /* \"#utility.yul\":4229:4238   */\n      dup10\n        /* \"#utility.yul\":4225:4247   */\n      add\n        /* \"#utility.yul\":4194:4257   */\n      tag_84\n      jump\t// in\n    tag_142:\n        /* \"#utility.yul\":4184:4257   */\n      swap6\n      pop\n        /* \"#utility.yul\":4140:4267   */\n      pop\n        /* \"#utility.yul\":4306:4308   */\n      0x20\n        /* \"#utility.yul\":4332:4395   */\n      tag_143\n        /* \"#utility.yul\":4387:4394   */\n      dup9\n        /* \"#utility.yul\":4378:4384   */\n      dup3\n        /* \"#utility.yul\":4367:4376   */\n      dup10\n        /* \"#utility.yul\":4363:4385   */\n      add\n        /* \"#utility.yul\":4332:4395   */\n      tag_86\n      jump\t// in\n    tag_143:\n        /* \"#utility.yul\":4322:4395   */\n      swap5\n      pop\n        /* \"#utility.yul\":4277:4405   */\n      pop\n        /* \"#utility.yul\":4444:4446   */\n      0x40\n        /* \"#utility.yul\":4470:4534   */\n      tag_144\n        /* \"#utility.yul\":4526:4533   */\n      dup9\n        /* \"#utility.yul\":4517:4523   */\n      dup3\n        /* \"#utility.yul\":4506:4515   */\n      dup10\n        /* \"#utility.yul\":4502:4524   */\n      add\n        /* \"#utility.yul\":4470:4534   */\n      tag_88\n      jump\t// in\n    tag_144:\n        /* \"#utility.yul\":4460:4534   */\n      swap4\n      pop\n        /* \"#utility.yul\":4415:4544   */\n      pop\n        /* \"#utility.yul\":4583:4585   */\n      0x60\n        /* \"#utility.yul\":4609:4673   */\n      tag_145\n        /* \"#utility.yul\":4665:4672   */\n      dup9\n        /* \"#utility.yul\":4656:4662   */\n      dup3\n        /* \"#utility.yul\":4645:4654   */\n      dup10\n        /* \"#utility.yul\":4641:4663   */\n      add\n        /* \"#utility.yul\":4609:4673   */\n      tag_88\n      jump\t// in\n    tag_145:\n        /* \"#utility.yul\":4599:4673   */\n      swap3\n      pop\n        /* \"#utility.yul\":4554:4683   */\n      pop\n        /* \"#utility.yul\":4722:4725   */\n      0x80\n        /* \"#utility.yul\":4749:4812   */\n      tag_146\n        /* \"#utility.yul\":4804:4811   */\n      dup9\n        /* \"#utility.yul\":4795:4801   */\n      dup3\n        /* \"#utility.yul\":4784:4793   */\n      dup10\n        /* \"#utility.yul\":4780:4802   */\n      add\n        /* \"#utility.yul\":4749:4812   */\n      tag_84\n      jump\t// in\n    tag_146:\n        /* \"#utility.yul\":4739:4812   */\n      swap2\n      pop\n        /* \"#utility.yul\":4693:4822   */\n      pop\n        /* \"#utility.yul\":3858:4829   */\n      swap3\n      swap6\n      pop\n      swap3\n      swap6\n      swap1\n      swap4\n      pop\n      jump\t// out\n        /* \"#utility.yul\":4835:5015   */\n    tag_89:\n        /* \"#utility.yul\":4883:4960   */\n      0x4e487b7100000000000000000000000000000000000000000000000000000000\n        /* \"#utility.yul\":4880:4881   */\n      0x00\n        /* \"#utility.yul\":4873:4961   */\n      mstore\n        /* \"#utility.yul\":4980:4984   */\n      0x11\n        /* \"#utility.yul\":4977:4978   */\n      0x04\n        /* \"#utility.yul\":4970:4985   */\n      mstore\n        /* \"#utility.yul\":5004:5008   */\n      0x24\n        /* \"#utility.yul\":5001:5002   */\n      0x00\n        /* \"#utility.yul\":4994:5009   */\n      revert\n        /* \"#utility.yul\":5021:5577   */\n    tag_56:\n        /* \"#utility.yul\":5060:5067   */\n      0x00\n        /* \"#utility.yul\":5083:5102   */\n      tag_149\n        /* \"#utility.yul\":5100:5101   */\n      dup3\n        /* \"#utility.yul\":5083:5102   */\n      tag_71\n      jump\t// in\n    tag_149:\n        /* \"#utility.yul\":5078:5102   */\n      swap2\n      pop\n        /* \"#utility.yul\":5116:5135   */\n      tag_150\n        /* \"#utility.yul\":5133:5134   */\n      dup4\n        /* \"#utility.yul\":5116:5135   */\n      tag_71\n      jump\t// in\n    tag_150:\n        /* \"#utility.yul\":5111:5135   */\n      swap3\n      pop\n        /* \"#utility.yul\":5170:5171   */\n      dup3\n        /* \"#utility.yul\":5167:5168   */\n      dup3\n        /* \"#utility.yul\":5163:5172   */\n      mul\n        /* \"#utility.yul\":5192:5221   */\n      tag_151\n        /* \"#utility.yul\":5209:5220   */\n      dup2\n        /* \"#utility.yul\":5192:5221   */\n      tag_71\n      jump\t// in\n    tag_151:\n        /* \"#utility.yul\":5181:5221   */\n      swap2\n      pop\n        /* \"#utility.yul\":5279:5345   */\n      0x8000000000000000000000000000000000000000000000000000000000000000\n        /* \"#utility.yul\":5276:5277   */\n      dup5\n        /* \"#utility.yul\":5273:5346   */\n      eq\n        /* \"#utility.yul\":5269:5270   */\n      0x00\n        /* \"#utility.yul\":5266:5267   */\n      dup5\n        /* \"#utility.yul\":5262:5271   */\n      slt\n        /* \"#utility.yul\":5258:5347   */\n      and\n        /* \"#utility.yul\":5255:5370   */\n      iszero\n      tag_152\n      jumpi\n        /* \"#utility.yul\":5350:5368   */\n      tag_153\n      tag_89\n      jump\t// in\n    tag_153:\n        /* \"#utility.yul\":5255:5370   */\n    tag_152:\n        /* \"#utility.yul\":5520:5521   */\n      dup3\n        /* \"#utility.yul\":5511:5518   */\n      dup3\n        /* \"#utility.yul\":5506:5522   */\n      sdiv\n        /* \"#utility.yul\":5503:5504   */\n      dup5\n        /* \"#utility.yul\":5500:5523   */\n      eq\n        /* \"#utility.yul\":5480:5481   */\n      dup4\n        /* \"#utility.yul\":5473:5482   */\n      iszero\n        /* \"#utility.yul\":5453:5537   */\n      or\n        /* \"#utility.yul\":5430:5570   */\n      tag_154\n      jumpi\n        /* \"#utility.yul\":5550:5568   */\n      tag_155\n      tag_89\n      jump\t// in\n    tag_155:\n        /* \"#utility.yul\":5430:5570   */\n    tag_154:\n        /* \"#utility.yul\":5068:5577   */\n      pop\n        /* \"#utility.yul\":5021:5577   */\n      swap3\n      swap2\n      pop\n      pop\n      jump\t// out\n        /* \"#utility.yul\":5583:5730   */\n    tag_90:\n        /* \"#utility.yul\":5684:5695   */\n      0x00\n        /* \"#utility.yul\":5721:5724   */\n      dup2\n        /* \"#utility.yul\":5706:5724   */\n      swap1\n      pop\n        /* \"#utility.yul\":5583:5730   */\n      swap3\n      swap2\n      pop\n      pop\n      jump\t// out\n        /* \"#utility.yul\":5736:5850   */\n    tag_91:\n      pop\n      jump\t// out\n        /* \"#utility.yul\":5856:6254   */\n    tag_92:\n        /* \"#utility.yul\":6015:6018   */\n      0x00\n        /* \"#utility.yul\":6036:6119   */\n      tag_159\n        /* \"#utility.yul\":6117:6118   */\n      0x00\n        /* \"#utility.yul\":6112:6115   */\n      dup4\n        /* \"#utility.yul\":6036:6119   */\n      tag_90\n      jump\t// in\n    tag_159:\n        /* \"#utility.yul\":6029:6119   */\n      swap2\n      pop\n        /* \"#utility.yul\":6128:6221   */\n      tag_160\n        /* \"#utility.yul\":6217:6220   */\n      dup3\n        /* \"#utility.yul\":6128:6221   */\n      tag_91\n      jump\t// in\n    tag_160:\n        /* \"#utility.yul\":6246:6247   */\n      0x00\n        /* \"#utility.yul\":6241:6244   */\n      dup3\n        /* \"#utility.yul\":6237:6248   */\n      add\n        /* \"#utility.yul\":6230:6248   */\n      swap1\n      pop\n        /* \"#utility.yul\":5856:6254   */\n      swap2\n      swap1\n      pop\n      jump\t// out\n        /* \"#utility.yul\":6260:6639   */\n    tag_61:\n        /* \"#utility.yul\":6444:6447   */\n      0x00\n        /* \"#utility.yul\":6466:6613   */\n      tag_162\n        /* \"#utility.yul\":6609:6612   */\n      dup3\n        /* \"#utility.yul\":6466:6613   */\n      tag_92\n      jump\t// in\n    tag_162:\n        /* \"#utility.yul\":6459:6613   */\n      swap2\n      pop\n        /* \"#utility.yul\":6630:6633   */\n      dup2\n        /* \"#utility.yul\":6623:6633   */\n      swap1\n      pop\n        /* \"#utility.yul\":6260:6639   */\n      swap2\n      swap1\n      pop\n      jump\t// out\n        /* \"#utility.yul\":6645:6815   */\n    tag_93:\n        /* \"#utility.yul\":6785:6807   */\n      0x4661696c656420746f2073656e64204574686572000000000000000000000000\n        /* \"#utility.yul\":6781:6782   */\n      0x00\n        /* \"#utility.yul\":6773:6779   */\n      dup3\n        /* \"#utility.yul\":6769:6783   */\n      add\n        /* \"#utility.yul\":6762:6808   */\n      mstore\n        /* \"#utility.yul\":6645:6815   */\n      pop\n      jump\t// out\n        /* \"#utility.yul\":6821:7187   */\n    tag_94:\n        /* \"#utility.yul\":6963:6966   */\n      0x00\n        /* \"#utility.yul\":6984:7051   */\n      tag_165\n        /* \"#utility.yul\":7048:7050   */\n      0x14\n        /* \"#utility.yul\":7043:7046   */\n      dup4\n        /* \"#utility.yul\":6984:7051   */\n      tag_76\n      jump\t// in\n    tag_165:\n        /* \"#utility.yul\":6977:7051   */\n      swap2\n      pop\n        /* \"#utility.yul\":7060:7153   */\n      tag_166\n        /* \"#utility.yul\":7149:7152   */\n      dup3\n        /* \"#utility.yul\":7060:7153   */\n      tag_93\n      jump\t// in\n    tag_166:\n        /* \"#utility.yul\":7178:7180   */\n      0x20\n        /* \"#utility.yul\":7173:7176   */\n      dup3\n        /* \"#utility.yul\":7169:7181   */\n      add\n        /* \"#utility.yul\":7162:7181   */\n      swap1\n      pop\n        /* \"#utility.yul\":6821:7187   */\n      swap2\n      swap1\n      pop\n      jump\t// out\n        /* \"#utility.yul\":7193:7612   */\n    tag_67:\n        /* \"#utility.yul\":7359:7363   */\n      0x00\n        /* \"#utility.yul\":7397:7399   */\n      0x20\n        /* \"#utility.yul\":7386:7395   */\n      dup3\n        /* \"#utility.yul\":7382:7400   */\n      add\n        /* \"#utility.yul\":7374:7400   */\n      swap1\n      pop\n        /* \"#utility.yul\":7446:7455   */\n      dup2\n        /* \"#utility.yul\":7440:7444   */\n      dup2\n        /* \"#utility.yul\":7436:7456   */\n      sub\n        /* \"#utility.yul\":7432:7433   */\n      0x00\n        /* \"#utility.yul\":7421:7430   */\n      dup4\n        /* \"#utility.yul\":7417:7434   */\n      add\n        /* \"#utility.yul\":7410:7457   */\n      mstore\n        /* \"#utility.yul\":7474:7605   */\n      tag_168\n        /* \"#utility.yul\":7600:7604   */\n      dup2\n        /* \"#utility.yul\":7474:7605   */\n      tag_94\n      jump\t// in\n    tag_168:\n        /* \"#utility.yul\":7466:7605   */\n      swap1\n      pop\n        /* \"#utility.yul\":7193:7612   */\n      swap2\n      swap1\n      pop\n      jump\t// out\n\n    auxdata: 0xa2646970667358221220a1f08a5cf9e0309e1228ab61d5b47705bdd5c775b669ede0bba27bc2fae6780b64736f6c634300081a0033\n}\n",
				"bytecode": {
					"linkReferences": {},
					"object": "60a0604052731ddfe2c36478e61ce3acbe4b96e57143e1964ffd73ffffffffffffffffffffffffffffffffffffffff1660809073ffffffffffffffffffffffffffffffffffffffff16815250348015610056575f80fd5b503373ffffffffffffffffffffffffffffffffffffffff1660808173ffffffffffffffffffffffffffffffffffffffff168152505073694aa1769357215de4fac081bf1f309adc3253065f806101000a81548173ffffffffffffffffffffffffffffffffffffffff021916908373ffffffffffffffffffffffffffffffffffffffff1602179055506080516107bb6101045f395f81816102930152818161030201526103d701526107bb5ff3fe608060405260043610610073575f3560e01c8063469e2cec1161004d578063469e2cec146100f65780636b69a59214610120578063b60d42881461014a578063dba6335f1461015457610082565b806312065fe01461008c578063339a2c4f146100b65780633ccfd60b146100e057610082565b366100825761008061017e565b005b61008a61017e565b005b348015610097575f80fd5b506100a06101c8565b6040516100ad9190610411565b60405180910390f35b3480156100c1575f80fd5b506100ca6101cf565b6040516100d79190610442565b60405180910390f35b3480156100eb575f80fd5b506100f461027a565b005b348015610101575f80fd5b5061010a6103ca565b604051610117919061049a565b60405180910390f35b34801561012b575f80fd5b506101346103d1565b6040516101419190610411565b60405180910390f35b61015261017e565b005b34801561015f575f80fd5b506101686103d5565b604051610175919061049a565b60405180910390f35b5f3490505f8110156101c5576040517f08c379a00000000000000000000000000000000000000000000000000000000081526004016101bc9061050d565b60405180910390fd5b50565b5f47905090565b5f805f8054906101000a900473ffffffffffffffffffffffffffffffffffffffff1673ffffffffffffffffffffffffffffffffffffffff1663feaf968c6040518163ffffffff1660e01b815260040160a060405180830381865afa158015610239573d5f803e3d5ffd5b505050506040513d601f19601f8201168201806040525081019061025d91906105c2565b5050509150506402540be400816102749190610666565b91505090565b3373ffffffffffffffffffffffffffffffffffffffff167f000000000000000000000000000000000000000000000000000000000000000073ffffffffffffffffffffffffffffffffffffffff16146102ff576040517feb0c840800000000000000000000000000000000000000000000000000000000815260040160405180910390fd5b5f7f000000000000000000000000000000000000000000000000000000000000000073ffffffffffffffffffffffffffffffffffffffff164760405161034490610709565b5f6040518083038185875af1925050503d805f811461037e576040519150601f19603f3d011682016040523d82523d5f602084013e610383565b606091505b50509050806103c7576040517f08c379a00000000000000000000000000000000000000000000000000000000081526004016103be90610767565b60405180910390fd5b50565b5f30905090565b5f81565b7f000000000000000000000000000000000000000000000000000000000000000081565b5f819050919050565b61040b816103f9565b82525050565b5f6020820190506104245f830184610402565b92915050565b5f819050919050565b61043c8161042a565b82525050565b5f6020820190506104555f830184610433565b92915050565b5f73ffffffffffffffffffffffffffffffffffffffff82169050919050565b5f6104848261045b565b9050919050565b6104948161047a565b82525050565b5f6020820190506104ad5f83018461048b565b92915050565b5f82825260208201905092915050565b7f48434d5554204e6f204d6f6e65790000000000000000000000000000000000005f82015250565b5f6104f7600e836104b3565b9150610502826104c3565b602082019050919050565b5f6020820190508181035f830152610524816104eb565b9050919050565b5f80fd5b5f69ffffffffffffffffffff82169050919050565b61054d8161052f565b8114610557575f80fd5b50565b5f8151905061056881610544565b92915050565b6105778161042a565b8114610581575f80fd5b50565b5f815190506105928161056e565b92915050565b6105a1816103f9565b81146105ab575f80fd5b50565b5f815190506105bc81610598565b92915050565b5f805f805f60a086880312156105db576105da61052b565b5b5f6105e88882890161055a565b95505060206105f988828901610584565b945050604061060a888289016105ae565b935050606061061b888289016105ae565b925050608061062c8882890161055a565b9150509295509295909350565b7f4e487b71000000000000000000000000000000000000000000000000000000005f52601160045260245ffd5b5f6106708261042a565b915061067b8361042a565b92508282026106898161042a565b91507f800000000000000000000000000000000000000000000000000000000000000084145f841216156106c0576106bf610639565b5b82820584148315176106d5576106d4610639565b5b5092915050565b5f81905092915050565b50565b5f6106f45f836106dc565b91506106ff826106e6565b5f82019050919050565b5f610713826106e9565b9150819050919050565b7f4661696c656420746f2073656e642045746865720000000000000000000000005f82015250565b5f6107516014836104b3565b915061075c8261071d565b602082019050919050565b5f6020820190508181035f83015261077e81610745565b905091905056fea2646970667358221220a1f08a5cf9e0309e1228ab61d5b47705bdd5c775b669ede0bba27bc2fae6780b64736f6c634300081a0033",
					"opcodes": "PUSH1 0xA0 PUSH1 0x40 MSTORE PUSH20 0x1DDFE2C36478E61CE3ACBE4B96E57143E1964FFD PUSH20 0xFFFFFFFFFFFFFFFFFFFFFFFFFFFFFFFFFFFFFFFF AND PUSH1 0x80 SWAP1 PUSH20 0xFFFFFFFFFFFFFFFFFFFFFFFFFFFFFFFFFFFFFFFF AND DUP2 MSTORE POP CALLVALUE DUP1 ISZERO PUSH2 0x56 JUMPI PUSH0 DUP1 REVERT JUMPDEST POP CALLER PUSH20 0xFFFFFFFFFFFFFFFFFFFFFFFFFFFFFFFFFFFFFFFF AND PUSH1 0x80 DUP2 PUSH20 0xFFFFFFFFFFFFFFFFFFFFFFFFFFFFFFFFFFFFFFFF AND DUP2 MSTORE POP POP PUSH20 0x694AA1769357215DE4FAC081BF1F309ADC325306 PUSH0 DUP1 PUSH2 0x100 EXP DUP2 SLOAD DUP2 PUSH20 0xFFFFFFFFFFFFFFFFFFFFFFFFFFFFFFFFFFFFFFFF MUL NOT AND SWAP1 DUP4 PUSH20 0xFFFFFFFFFFFFFFFFFFFFFFFFFFFFFFFFFFFFFFFF AND MUL OR SWAP1 SSTORE POP PUSH1 0x80 MLOAD PUSH2 0x7BB PUSH2 0x104 PUSH0 CODECOPY PUSH0 DUP2 DUP2 PUSH2 0x293 ADD MSTORE DUP2 DUP2 PUSH2 0x302 ADD MSTORE PUSH2 0x3D7 ADD MSTORE PUSH2 0x7BB PUSH0 RETURN INVALID PUSH1 0x80 PUSH1 0x40 MSTORE PUSH1 0x4 CALLDATASIZE LT PUSH2 0x73 JUMPI PUSH0 CALLDATALOAD PUSH1 0xE0 SHR DUP1 PUSH4 0x469E2CEC GT PUSH2 0x4D JUMPI DUP1 PUSH4 0x469E2CEC EQ PUSH2 0xF6 JUMPI DUP1 PUSH4 0x6B69A592 EQ PUSH2 0x120 JUMPI DUP1 PUSH4 0xB60D4288 EQ PUSH2 0x14A JUMPI DUP1 PUSH4 0xDBA6335F EQ PUSH2 0x154 JUMPI PUSH2 0x82 JUMP JUMPDEST DUP1 PUSH4 0x12065FE0 EQ PUSH2 0x8C JUMPI DUP1 PUSH4 0x339A2C4F EQ PUSH2 0xB6 JUMPI DUP1 PUSH4 0x3CCFD60B EQ PUSH2 0xE0 JUMPI PUSH2 0x82 JUMP JUMPDEST CALLDATASIZE PUSH2 0x82 JUMPI PUSH2 0x80 PUSH2 0x17E JUMP JUMPDEST STOP JUMPDEST PUSH2 0x8A PUSH2 0x17E JUMP JUMPDEST STOP JUMPDEST CALLVALUE DUP1 ISZERO PUSH2 0x97 JUMPI PUSH0 DUP1 REVERT JUMPDEST POP PUSH2 0xA0 PUSH2 0x1C8 JUMP JUMPDEST PUSH1 0x40 MLOAD PUSH2 0xAD SWAP2 SWAP1 PUSH2 0x411 JUMP JUMPDEST PUSH1 0x40 MLOAD DUP1 SWAP2 SUB SWAP1 RETURN JUMPDEST CALLVALUE DUP1 ISZERO PUSH2 0xC1 JUMPI PUSH0 DUP1 REVERT JUMPDEST POP PUSH2 0xCA PUSH2 0x1CF JUMP JUMPDEST PUSH1 0x40 MLOAD PUSH2 0xD7 SWAP2 SWAP1 PUSH2 0x442 JUMP JUMPDEST PUSH1 0x40 MLOAD DUP1 SWAP2 SUB SWAP1 RETURN JUMPDEST CALLVALUE DUP1 ISZERO PUSH2 0xEB JUMPI PUSH0 DUP1 REVERT JUMPDEST POP PUSH2 0xF4 PUSH2 0x27A JUMP JUMPDEST STOP JUMPDEST CALLVALUE DUP1 ISZERO PUSH2 0x101 JUMPI PUSH0 DUP1 REVERT JUMPDEST POP PUSH2 0x10A PUSH2 0x3CA JUMP JUMPDEST PUSH1 0x40 MLOAD PUSH2 0x117 SWAP2 SWAP1 PUSH2 0x49A JUMP JUMPDEST PUSH1 0x40 MLOAD DUP1 SWAP2 SUB SWAP1 RETURN JUMPDEST CALLVALUE DUP1 ISZERO PUSH2 0x12B JUMPI PUSH0 DUP1 REVERT JUMPDEST POP PUSH2 0x134 PUSH2 0x3D1 JUMP JUMPDEST PUSH1 0x40 MLOAD PUSH2 0x141 SWAP2 SWAP1 PUSH2 0x411 JUMP JUMPDEST PUSH1 0x40 MLOAD DUP1 SWAP2 SUB SWAP1 RETURN JUMPDEST PUSH2 0x152 PUSH2 0x17E JUMP JUMPDEST STOP JUMPDEST CALLVALUE DUP1 ISZERO PUSH2 0x15F JUMPI PUSH0 DUP1 REVERT JUMPDEST POP PUSH2 0x168 PUSH2 0x3D5 JUMP JUMPDEST PUSH1 0x40 MLOAD PUSH2 0x175 SWAP2 SWAP1 PUSH2 0x49A JUMP JUMPDEST PUSH1 0x40 MLOAD DUP1 SWAP2 SUB SWAP1 RETURN JUMPDEST PUSH0 CALLVALUE SWAP1 POP PUSH0 DUP2 LT ISZERO PUSH2 0x1C5 JUMPI PUSH1 0x40 MLOAD PUSH32 0x8C379A000000000000000000000000000000000000000000000000000000000 DUP2 MSTORE PUSH1 0x4 ADD PUSH2 0x1BC SWAP1 PUSH2 0x50D JUMP JUMPDEST PUSH1 0x40 MLOAD DUP1 SWAP2 SUB SWAP1 REVERT JUMPDEST POP JUMP JUMPDEST PUSH0 SELFBALANCE SWAP1 POP SWAP1 JUMP JUMPDEST PUSH0 DUP1 PUSH0 DUP1 SLOAD SWAP1 PUSH2 0x100 EXP SWAP1 DIV PUSH20 0xFFFFFFFFFFFFFFFFFFFFFFFFFFFFFFFFFFFFFFFF AND PUSH20 0xFFFFFFFFFFFFFFFFFFFFFFFFFFFFFFFFFFFFFFFF AND PUSH4 0xFEAF968C PUSH1 0x40 MLOAD DUP2 PUSH4 0xFFFFFFFF AND PUSH1 0xE0 SHL DUP2 MSTORE PUSH1 0x4 ADD PUSH1 0xA0 PUSH1 0x40 MLOAD DUP1 DUP4 SUB DUP2 DUP7 GAS STATICCALL ISZERO DUP1 ISZERO PUSH2 0x239 JUMPI RETURNDATASIZE PUSH0 DUP1 RETURNDATACOPY RETURNDATASIZE PUSH0 REVERT JUMPDEST POP POP POP POP PUSH1 0x40 MLOAD RETURNDATASIZE PUSH1 0x1F NOT PUSH1 0x1F DUP3 ADD AND DUP3 ADD DUP1 PUSH1 0x40 MSTORE POP DUP2 ADD SWAP1 PUSH2 0x25D SWAP2 SWAP1 PUSH2 0x5C2 JUMP JUMPDEST POP POP POP SWAP2 POP POP PUSH5 0x2540BE400 DUP2 PUSH2 0x274 SWAP2 SWAP1 PUSH2 0x666 JUMP JUMPDEST SWAP2 POP POP SWAP1 JUMP JUMPDEST CALLER PUSH20 0xFFFFFFFFFFFFFFFFFFFFFFFFFFFFFFFFFFFFFFFF AND PUSH32 0x0 PUSH20 0xFFFFFFFFFFFFFFFFFFFFFFFFFFFFFFFFFFFFFFFF AND EQ PUSH2 0x2FF JUMPI PUSH1 0x40 MLOAD PUSH32 0xEB0C840800000000000000000000000000000000000000000000000000000000 DUP2 MSTORE PUSH1 0x4 ADD PUSH1 0x40 MLOAD DUP1 SWAP2 SUB SWAP1 REVERT JUMPDEST PUSH0 PUSH32 0x0 PUSH20 0xFFFFFFFFFFFFFFFFFFFFFFFFFFFFFFFFFFFFFFFF AND SELFBALANCE PUSH1 0x40 MLOAD PUSH2 0x344 SWAP1 PUSH2 0x709 JUMP JUMPDEST PUSH0 PUSH1 0x40 MLOAD DUP1 DUP4 SUB DUP2 DUP6 DUP8 GAS CALL SWAP3 POP POP POP RETURNDATASIZE DUP1 PUSH0 DUP2 EQ PUSH2 0x37E JUMPI PUSH1 0x40 MLOAD SWAP2 POP PUSH1 0x1F NOT PUSH1 0x3F RETURNDATASIZE ADD AND DUP3 ADD PUSH1 0x40 MSTORE RETURNDATASIZE DUP3 MSTORE RETURNDATASIZE PUSH0 PUSH1 0x20 DUP5 ADD RETURNDATACOPY PUSH2 0x383 JUMP JUMPDEST PUSH1 0x60 SWAP2 POP JUMPDEST POP POP SWAP1 POP DUP1 PUSH2 0x3C7 JUMPI PUSH1 0x40 MLOAD PUSH32 0x8C379A000000000000000000000000000000000000000000000000000000000 DUP2 MSTORE PUSH1 0x4 ADD PUSH2 0x3BE SWAP1 PUSH2 0x767 JUMP JUMPDEST PUSH1 0x40 MLOAD DUP1 SWAP2 SUB SWAP1 REVERT JUMPDEST POP JUMP JUMPDEST PUSH0 ADDRESS SWAP1 POP SWAP1 JUMP JUMPDEST PUSH0 DUP2 JUMP JUMPDEST PUSH32 0x0 DUP2 JUMP JUMPDEST PUSH0 DUP2 SWAP1 POP SWAP2 SWAP1 POP JUMP JUMPDEST PUSH2 0x40B DUP2 PUSH2 0x3F9 JUMP JUMPDEST DUP3 MSTORE POP POP JUMP JUMPDEST PUSH0 PUSH1 0x20 DUP3 ADD SWAP1 POP PUSH2 0x424 PUSH0 DUP4 ADD DUP5 PUSH2 0x402 JUMP JUMPDEST SWAP3 SWAP2 POP POP JUMP JUMPDEST PUSH0 DUP2 SWAP1 POP SWAP2 SWAP1 POP JUMP JUMPDEST PUSH2 0x43C DUP2 PUSH2 0x42A JUMP JUMPDEST DUP3 MSTORE POP POP JUMP JUMPDEST PUSH0 PUSH1 0x20 DUP3 ADD SWAP1 POP PUSH2 0x455 PUSH0 DUP4 ADD DUP5 PUSH2 0x433 JUMP JUMPDEST SWAP3 SWAP2 POP POP JUMP JUMPDEST PUSH0 PUSH20 0xFFFFFFFFFFFFFFFFFFFFFFFFFFFFFFFFFFFFFFFF DUP3 AND SWAP1 POP SWAP2 SWAP1 POP JUMP JUMPDEST PUSH0 PUSH2 0x484 DUP3 PUSH2 0x45B JUMP JUMPDEST SWAP1 POP SWAP2 SWAP1 POP JUMP JUMPDEST PUSH2 0x494 DUP2 PUSH2 0x47A JUMP JUMPDEST DUP3 MSTORE POP POP JUMP JUMPDEST PUSH0 PUSH1 0x20 DUP3 ADD SWAP1 POP PUSH2 0x4AD PUSH0 DUP4 ADD DUP5 PUSH2 0x48B JUMP JUMPDEST SWAP3 SWAP2 POP POP JUMP JUMPDEST PUSH0 DUP3 DUP3 MSTORE PUSH1 0x20 DUP3 ADD SWAP1 POP SWAP3 SWAP2 POP POP JUMP JUMPDEST PUSH32 0x48434D5554204E6F204D6F6E6579000000000000000000000000000000000000 PUSH0 DUP3 ADD MSTORE POP JUMP JUMPDEST PUSH0 PUSH2 0x4F7 PUSH1 0xE DUP4 PUSH2 0x4B3 JUMP JUMPDEST SWAP2 POP PUSH2 0x502 DUP3 PUSH2 0x4C3 JUMP JUMPDEST PUSH1 0x20 DUP3 ADD SWAP1 POP SWAP2 SWAP1 POP JUMP JUMPDEST PUSH0 PUSH1 0x20 DUP3 ADD SWAP1 POP DUP2 DUP2 SUB PUSH0 DUP4 ADD MSTORE PUSH2 0x524 DUP2 PUSH2 0x4EB JUMP JUMPDEST SWAP1 POP SWAP2 SWAP1 POP JUMP JUMPDEST PUSH0 DUP1 REVERT JUMPDEST PUSH0 PUSH10 0xFFFFFFFFFFFFFFFFFFFF DUP3 AND SWAP1 POP SWAP2 SWAP1 POP JUMP JUMPDEST PUSH2 0x54D DUP2 PUSH2 0x52F JUMP JUMPDEST DUP2 EQ PUSH2 0x557 JUMPI PUSH0 DUP1 REVERT JUMPDEST POP JUMP JUMPDEST PUSH0 DUP2 MLOAD SWAP1 POP PUSH2 0x568 DUP2 PUSH2 0x544 JUMP JUMPDEST SWAP3 SWAP2 POP POP JUMP JUMPDEST PUSH2 0x577 DUP2 PUSH2 0x42A JUMP JUMPDEST DUP2 EQ PUSH2 0x581 JUMPI PUSH0 DUP1 REVERT JUMPDEST POP JUMP JUMPDEST PUSH0 DUP2 MLOAD SWAP1 POP PUSH2 0x592 DUP2 PUSH2 0x56E JUMP JUMPDEST SWAP3 SWAP2 POP POP JUMP JUMPDEST PUSH2 0x5A1 DUP2 PUSH2 0x3F9 JUMP JUMPDEST DUP2 EQ PUSH2 0x5AB JUMPI PUSH0 DUP1 REVERT JUMPDEST POP JUMP JUMPDEST PUSH0 DUP2 MLOAD SWAP1 POP PUSH2 0x5BC DUP2 PUSH2 0x598 JUMP JUMPDEST SWAP3 SWAP2 POP POP JUMP JUMPDEST PUSH0 DUP1 PUSH0 DUP1 PUSH0 PUSH1 0xA0 DUP7 DUP9 SUB SLT ISZERO PUSH2 0x5DB JUMPI PUSH2 0x5DA PUSH2 0x52B JUMP JUMPDEST JUMPDEST PUSH0 PUSH2 0x5E8 DUP9 DUP3 DUP10 ADD PUSH2 0x55A JUMP JUMPDEST SWAP6 POP POP PUSH1 0x20 PUSH2 0x5F9 DUP9 DUP3 DUP10 ADD PUSH2 0x584 JUMP JUMPDEST SWAP5 POP POP PUSH1 0x40 PUSH2 0x60A DUP9 DUP3 DUP10 ADD PUSH2 0x5AE JUMP JUMPDEST SWAP4 POP POP PUSH1 0x60 PUSH2 0x61B DUP9 DUP3 DUP10 ADD PUSH2 0x5AE JUMP JUMPDEST SWAP3 POP POP PUSH1 0x80 PUSH2 0x62C DUP9 DUP3 DUP10 ADD PUSH2 0x55A JUMP JUMPDEST SWAP2 POP POP SWAP3 SWAP6 POP SWAP3 SWAP6 SWAP1 SWAP4 POP JUMP JUMPDEST PUSH32 0x4E487B7100000000000000000000000000000000000000000000000000000000 PUSH0 MSTORE PUSH1 0x11 PUSH1 0x4 MSTORE PUSH1 0x24 PUSH0 REVERT JUMPDEST PUSH0 PUSH2 0x670 DUP3 PUSH2 0x42A JUMP JUMPDEST SWAP2 POP PUSH2 0x67B DUP4 PUSH2 0x42A JUMP JUMPDEST SWAP3 POP DUP3 DUP3 MUL PUSH2 0x689 DUP2 PUSH2 0x42A JUMP JUMPDEST SWAP2 POP PUSH32 0x8000000000000000000000000000000000000000000000000000000000000000 DUP5 EQ PUSH0 DUP5 SLT AND ISZERO PUSH2 0x6C0 JUMPI PUSH2 0x6BF PUSH2 0x639 JUMP JUMPDEST JUMPDEST DUP3 DUP3 SDIV DUP5 EQ DUP4 ISZERO OR PUSH2 0x6D5 JUMPI PUSH2 0x6D4 PUSH2 0x639 JUMP JUMPDEST JUMPDEST POP SWAP3 SWAP2 POP POP JUMP JUMPDEST PUSH0 DUP2 SWAP1 POP SWAP3 SWAP2 POP POP JUMP JUMPDEST POP JUMP JUMPDEST PUSH0 PUSH2 0x6F4 PUSH0 DUP4 PUSH2 0x6DC JUMP JUMPDEST SWAP2 POP PUSH2 0x6FF DUP3 PUSH2 0x6E6 JUMP JUMPDEST PUSH0 DUP3 ADD SWAP1 POP SWAP2 SWAP1 POP JUMP JUMPDEST PUSH0 PUSH2 0x713 DUP3 PUSH2 0x6E9 JUMP JUMPDEST SWAP2 POP DUP2 SWAP1 POP SWAP2 SWAP1 POP JUMP JUMPDEST PUSH32 0x4661696C656420746F2073656E64204574686572000000000000000000000000 PUSH0 DUP3 ADD MSTORE POP JUMP JUMPDEST PUSH0 PUSH2 0x751 PUSH1 0x14 DUP4 PUSH2 0x4B3 JUMP JUMPDEST SWAP2 POP PUSH2 0x75C DUP3 PUSH2 0x71D JUMP JUMPDEST PUSH1 0x20 DUP3 ADD SWAP1 POP SWAP2 SWAP1 POP JUMP JUMPDEST PUSH0 PUSH1 0x20 DUP3 ADD SWAP1 POP DUP2 DUP2 SUB PUSH0 DUP4 ADD MSTORE PUSH2 0x77E DUP2 PUSH2 0x745 JUMP JUMPDEST SWAP1 POP SWAP2 SWAP1 POP JUMP INVALID LOG2 PUSH5 0x6970667358 0x22 SLT KECCAK256 LOG1 CREATE DUP11 TLOAD 0xF9 0xE0 ADDRESS SWAP15 SLT 0x28 0xAB PUSH2 0xD5B4 PUSH24 0x5BDD5C775B669EDE0BBA27BC2FAE6780B64736F6C634300 ADDMOD BYTE STOP CALLER "
				},
				"gasEstimates": {
					"creation": {
						"codeDepositCost": "395800",
						"executionCost": "infinite",
						"totalCost": "infinite"
					},
					"external": {
						"": "211",
						"MINIMUM_USD()": "346",
						"fund()": "199",
						"getBalance()": "335",
						"getLastestAnswer()": "infinite",
						"getThisContract()": "379",
						"i_owner()": "infinite",
						"withdraw()": "infinite"
					}
				},
				"methodIdentifiers": {
					"MINIMUM_USD()": "6b69a592",
					"fund()": "b60d4288",
					"getBalance()": "12065fe0",
					"getLastestAnswer()": "339a2c4f",
					"getThisContract()": "469e2cec",
					"i_owner()": "dba6335f",
					"withdraw()": "3ccfd60b"
				}
			},
			"storageLayout": {
				"storage": [
					{
						"astId": 60,
						"contract": "Crowdfunding.sol:Crowdfunding",
						"label": "dataFeed",
						"offset": 0,
						"slot": "0",
						"type": "t_contract(AggregatorV3Interface)45"
					}
				],
				"types": {
					"t_contract(AggregatorV3Interface)45": {
						"encoding": "inplace",
						"label": "contract AggregatorV3Interface",
						"numberOfBytes": "20"
					}
				}
			},
			"userdoc": {
				"kind": "user",
				"methods": {},
				"version": 1
			}
		}
	}
}