{
	"bai04/Crowdfunding.sol": {
		"Crowdfunding": {
			"abi": [
				{
					"inputs": [],
					"stateMutability": "nonpayable",
					"type": "constructor"
				},
				{
					"inputs": [],
					"name": "NoAvailableAmout",
					"type": "error"
				},
				{
					"stateMutability": "payable",
					"type": "fallback"
				},
				{
					"inputs": [],
					"name": "MINIMUM_USD",
					"outputs": [
						{
							"internalType": "uint256",
							"name": "",
							"type": "uint256"
						}
					],
					"stateMutability": "view",
					"type": "function"
				},
				{
					"inputs": [],
					"name": "fund",
					"outputs": [],
					"stateMutability": "payable",
					"type": "function"
				},
				{
					"inputs": [],
					"name": "getBalance",
					"outputs": [
						{
							"internalType": "uint256",
							"name": "",
							"type": "uint256"
						}
					],
					"stateMutability": "view",
					"type": "function"
				},
				{
					"inputs": [],
					"name": "getLastestAnswer",
					"outputs": [
						{
							"internalType": "int256",
							"name": "",
							"type": "int256"
						}
					],
					"stateMutability": "view",
					"type": "function"
				},
				{
					"inputs": [],
					"name": "getThisContract",
					"outputs": [
						{
							"internalType": "address",
							"name": "",
							"type": "address"
						}
					],
					"stateMutability": "view",
					"type": "function"
				},
				{
					"inputs": [],
					"name": "i_owner",
					"outputs": [
						{
							"internalType": "address",
							"name": "",
							"type": "address"
						}
					],
					"stateMutability": "view",
					"type": "function"
				},
				{
					"inputs": [],
					"name": "withdraw",
					"outputs": [],
					"stateMutability": "nonpayable",
					"type": "function"
				},
				{
					"stateMutability": "payable",
					"type": "receive"
				}
			],
			"devdoc": {
				"kind": "dev",
				"methods": {},
				"version": 1
			},
			"evm": {
				"assembly": "    /* \"bai04/Crowdfunding.sol\":183:1960  contract Crowdfunding {... */\n  mstore(0x40, 0xa0)\n    /* \"bai04/Crowdfunding.sol\":354:396  0x1ddfE2c36478E61cE3acBE4B96e57143E1964FFd */\n  0x1ddfe2c36478e61ce3acbe4b96e57143e1964ffd\n    /* \"bai04/Crowdfunding.sol\":319:396  address public immutable i_owner = 0x1ddfE2c36478E61cE3acBE4B96e57143E1964FFd */\n  0xffffffffffffffffffffffffffffffffffffffff\n  and\n  0x80\n  swap1\n  0xffffffffffffffffffffffffffffffffffffffff\n  and\n  dup2\n  mstore\n  pop\n    /* \"bai04/Crowdfunding.sol\":568:707  constructor(){... */\n  callvalue\n  dup1\n  iszero\n  tag_1\n  jumpi\n  0x00\n  dup1\n  revert\ntag_1:\n  pop\n    /* \"bai04/Crowdfunding.sol\":602:612  msg.sender */\n  caller\n    /* \"bai04/Crowdfunding.sol\":592:612  i_owner = msg.sender */\n  0xffffffffffffffffffffffffffffffffffffffff\n  and\n  0x80\n  dup2\n  0xffffffffffffffffffffffffffffffffffffffff\n  and\n  dup2\n  mstore\n  pop\n  pop\n    /* \"bai04/Crowdfunding.sol\":656:698  0x694AA1769357215DE4FAC081bf1f309aDC325306 */\n  0x694aa1769357215de4fac081bf1f309adc325306\n    /* \"bai04/Crowdfunding.sol\":623:631  dataFeed */\n  0x00\n  dup1\n    /* \"bai04/Crowdfunding.sol\":623:699  dataFeed = AggregatorV3Interface(0x694AA1769357215DE4FAC081bf1f309aDC325306) */\n  0x0100\n  exp\n  dup2\n  sload\n  dup2\n  0xffffffffffffffffffffffffffffffffffffffff\n  mul\n  not\n  and\n  swap1\n  dup4\n  0xffffffffffffffffffffffffffffffffffffffff\n  and\n  mul\n  or\n  swap1\n  sstore\n  pop\n    /* \"bai04/Crowdfunding.sol\":183:1960  contract Crowdfunding {... */\n  mload(0x80)\n  codecopy(0x00, dataOffset(sub_0), dataSize(sub_0))\n  0x00\n  assignImmutable(\"0xe921da22f871c25c63f06c1365385cbb26397f64f79055cdbab32187a9377d16\")\n  return(0x00, dataSize(sub_0))\nstop\n\nsub_0: assembly {\n        /* \"bai04/Crowdfunding.sol\":183:1960  contract Crowdfunding {... */\n      mstore(0x40, 0x80)\n      jumpi(tag_1, lt(calldatasize, 0x04))\n      shr(0xe0, calldataload(0x00))\n      dup1\n      0x469e2cec\n      gt\n      tag_10\n      jumpi\n      dup1\n      0x469e2cec\n      eq\n      tag_6\n      jumpi\n      dup1\n      0x6b69a592\n      eq\n      tag_7\n      jumpi\n      dup1\n      0xb60d4288\n      eq\n      tag_8\n      jumpi\n      dup1\n      0xdba6335f\n      eq\n      tag_9\n      jumpi\n      jump(tag_2)\n    tag_10:\n      dup1\n      0x12065fe0\n      eq\n      tag_3\n      jumpi\n      dup1\n      0x339a2c4f\n      eq\n      tag_4\n      jumpi\n      dup1\n      0x3ccfd60b\n      eq\n      tag_5\n      jumpi\n      jump(tag_2)\n    tag_1:\n      jumpi(tag_2, calldatasize)\n        /* \"bai04/Crowdfunding.sol\":488:494  fund() */\n      tag_13\n        /* \"bai04/Crowdfunding.sol\":488:492  fund */\n      tag_14\n        /* \"bai04/Crowdfunding.sol\":488:494  fund() */\n      jump\t// in\n    tag_13:\n        /* \"bai04/Crowdfunding.sol\":183:1960  contract Crowdfunding {... */\n      stop\n    tag_2:\n        /* \"bai04/Crowdfunding.sol\":548:554  fund() */\n      tag_17\n        /* \"bai04/Crowdfunding.sol\":548:552  fund */\n      tag_14\n        /* \"bai04/Crowdfunding.sol\":548:554  fund() */\n      jump\t// in\n    tag_17:\n        /* \"bai04/Crowdfunding.sol\":183:1960  contract Crowdfunding {... */\n      stop\n        /* \"bai04/Crowdfunding.sol\":1695:1823  function getBalance() public view returns(uint256){... */\n    tag_3:\n      callvalue\n      dup1\n      iszero\n      tag_18\n      jumpi\n      0x00\n      dup1\n      revert\n    tag_18:\n      pop\n      tag_19\n      tag_20\n      jump\t// in\n    tag_19:\n      mload(0x40)\n      tag_21\n      swap2\n      swap1\n      tag_22\n      jump\t// in\n    tag_21:\n      mload(0x40)\n      dup1\n      swap2\n      sub\n      swap1\n      return\n        /* \"bai04/Crowdfunding.sol\":1338:1683  function getLastestAnswer() public view returns (int256) {... */\n    tag_4:\n      callvalue\n      dup1\n      iszero\n      tag_23\n      jumpi\n      0x00\n      dup1\n      revert\n    tag_23:\n      pop\n      tag_24\n      tag_25\n      jump\t// in\n    tag_24:\n      mload(0x40)\n      tag_26\n      swap2\n      swap1\n      tag_27\n      jump\t// in\n    tag_26:\n      mload(0x40)\n      dup1\n      swap2\n      sub\n      swap1\n      return\n        /* \"bai04/Crowdfunding.sol\":1125:1330  function withdraw() public onlyOwner {... */\n    tag_5:\n      callvalue\n      dup1\n      iszero\n      tag_28\n      jumpi\n      0x00\n      dup1\n      revert\n    tag_28:\n      pop\n      tag_29\n      tag_30\n      jump\t// in\n    tag_29:\n      stop\n        /* \"bai04/Crowdfunding.sol\":1829:1957  function getThisContract() public view returns (address) {... */\n    tag_6:\n      callvalue\n      dup1\n      iszero\n      tag_31\n      jumpi\n      0x00\n      dup1\n      revert\n    tag_31:\n      pop\n      tag_32\n      tag_33\n      jump\t// in\n    tag_32:\n      mload(0x40)\n      tag_34\n      swap2\n      swap1\n      tag_35\n      jump\t// in\n    tag_34:\n      mload(0x40)\n      dup1\n      swap2\n      sub\n      swap1\n      return\n        /* \"bai04/Crowdfunding.sol\":243:297  uint256 public constant MINIMUM_USD = 1800000000000000 */\n    tag_7:\n      callvalue\n      dup1\n      iszero\n      tag_36\n      jumpi\n      0x00\n      dup1\n      revert\n    tag_36:\n      pop\n      tag_37\n      tag_38\n      jump\t// in\n    tag_37:\n      mload(0x40)\n      tag_39\n      swap2\n      swap1\n      tag_22\n      jump\t// in\n    tag_39:\n      mload(0x40)\n      dup1\n      swap2\n      sub\n      swap1\n      return\n        /* \"bai04/Crowdfunding.sol\":852:1119  function fund() public payable { // keyword payable thi msg.value moi doc duoc... */\n    tag_8:\n      tag_40\n      tag_14\n      jump\t// in\n    tag_40:\n      stop\n        /* \"bai04/Crowdfunding.sol\":319:396  address public immutable i_owner = 0x1ddfE2c36478E61cE3acBE4B96e57143E1964FFd */\n    tag_9:\n      callvalue\n      dup1\n      iszero\n      tag_41\n      jumpi\n      0x00\n      dup1\n      revert\n    tag_41:\n      pop\n      tag_42\n      tag_43\n      jump\t// in\n    tag_42:\n      mload(0x40)\n      tag_44\n      swap2\n      swap1\n      tag_35\n      jump\t// in\n    tag_44:\n      mload(0x40)\n      dup1\n      swap2\n      sub\n      swap1\n      return\n        /* \"bai04/Crowdfunding.sol\":852:1119  function fund() public payable { // keyword payable thi msg.value moi doc duoc... */\n    tag_14:\n        /* \"bai04/Crowdfunding.sol\":940:953  uint ETHPrice */\n      0x00\n        /* \"bai04/Crowdfunding.sol\":964:982  getLastestAnswer() */\n      tag_46\n        /* \"bai04/Crowdfunding.sol\":964:980  getLastestAnswer */\n      tag_25\n        /* \"bai04/Crowdfunding.sol\":964:982  getLastestAnswer() */\n      jump\t// in\n    tag_46:\n        /* \"bai04/Crowdfunding.sol\":940:983  uint ETHPrice = uint256(getLastestAnswer()) */\n      swap1\n      pop\n        /* \"bai04/Crowdfunding.sol\":994:1009  uint valueInUsd */\n      0x00\n        /* \"bai04/Crowdfunding.sol\":1024:1032  ETHPrice */\n      dup2\n        /* \"bai04/Crowdfunding.sol\":1012:1021  msg.value */\n      callvalue\n        /* \"bai04/Crowdfunding.sol\":1012:1032  msg.value * ETHPrice */\n      tag_47\n      swap2\n      swap1\n      tag_48\n      jump\t// in\n    tag_47:\n        /* \"bai04/Crowdfunding.sol\":994:1032  uint valueInUsd = msg.value * ETHPrice */\n      swap1\n      pop\n        /* \"bai04/Crowdfunding.sol\":281:297  1800000000000000 */\n      0x06651728988000\n        /* \"bai04/Crowdfunding.sol\":1051:1061  valueInUsd */\n      dup2\n        /* \"bai04/Crowdfunding.sol\":1051:1076  valueInUsd >= MINIMUM_USD */\n      lt\n      iszero\n        /* \"bai04/Crowdfunding.sol\":1043:1095  require(valueInUsd >= MINIMUM_USD, \"HCMUT No Money\") */\n      tag_49\n      jumpi\n      mload(0x40)\n      0x08c379a000000000000000000000000000000000000000000000000000000000\n      dup2\n      mstore\n      0x04\n      add\n      tag_50\n      swap1\n      tag_51\n      jump\t// in\n    tag_50:\n      mload(0x40)\n      dup1\n      swap2\n      sub\n      swap1\n      revert\n    tag_49:\n        /* \"bai04/Crowdfunding.sol\":883:1119  { // keyword payable thi msg.value moi doc duoc... */\n      pop\n      pop\n        /* \"bai04/Crowdfunding.sol\":852:1119  function fund() public payable { // keyword payable thi msg.value moi doc duoc... */\n      jump\t// out\n        /* \"bai04/Crowdfunding.sol\":1695:1823  function getBalance() public view returns(uint256){... */\n    tag_20:\n        /* \"bai04/Crowdfunding.sol\":1737:1744  uint256 */\n      0x00\n        /* \"bai04/Crowdfunding.sol\":1763:1784  address(this).balance */\n      selfbalance\n        /* \"bai04/Crowdfunding.sol\":1756:1784  return address(this).balance */\n      swap1\n      pop\n        /* \"bai04/Crowdfunding.sol\":1695:1823  function getBalance() public view returns(uint256){... */\n      swap1\n      jump\t// out\n        /* \"bai04/Crowdfunding.sol\":1338:1683  function getLastestAnswer() public view returns (int256) {... */\n    tag_25:\n        /* \"bai04/Crowdfunding.sol\":1387:1393  int256 */\n      0x00\n        /* \"bai04/Crowdfunding.sol\":1484:1497  int256 answer */\n      dup1\n        /* \"bai04/Crowdfunding.sol\":1618:1626  dataFeed */\n      0x00\n      dup1\n      sload\n      swap1\n      0x0100\n      exp\n      swap1\n      div\n      0xffffffffffffffffffffffffffffffffffffffff\n      and\n        /* \"bai04/Crowdfunding.sol\":1618:1642  dataFeed.latestRoundData */\n      0xffffffffffffffffffffffffffffffffffffffff\n      and\n      0xfeaf968c\n        /* \"bai04/Crowdfunding.sol\":1618:1644  dataFeed.latestRoundData() */\n      mload(0x40)\n      dup2\n      0xffffffff\n      and\n      0xe0\n      shl\n      dup2\n      mstore\n      0x04\n      add\n      0xa0\n      mload(0x40)\n      dup1\n      dup4\n      sub\n      dup2\n      dup7\n      gas\n      staticcall\n      iszero\n      dup1\n      iszero\n      tag_55\n      jumpi\n      returndatasize\n      0x00\n      dup1\n      returndatacopy\n      revert(0x00, returndatasize)\n    tag_55:\n      pop\n      pop\n      pop\n      pop\n      mload(0x40)\n      returndatasize\n      not(0x1f)\n      0x1f\n      dup3\n      add\n      and\n      dup3\n      add\n      dup1\n      0x40\n      mstore\n      pop\n      dup2\n      add\n      swap1\n      tag_56\n      swap2\n      swap1\n      tag_57\n      jump\t// in\n    tag_56:\n        /* \"bai04/Crowdfunding.sol\":1434:1644  (... */\n      pop\n      pop\n      pop\n      swap2\n      pop\n      pop\n        /* \"bai04/Crowdfunding.sol\":1671:1675  1e10 */\n      0x02540be400\n        /* \"bai04/Crowdfunding.sol\":1662:1668  answer */\n      dup2\n        /* \"bai04/Crowdfunding.sol\":1662:1675  answer * 1e10 */\n      tag_58\n      swap2\n      swap1\n      tag_59\n      jump\t// in\n    tag_58:\n        /* \"bai04/Crowdfunding.sol\":1655:1675  return answer * 1e10 */\n      swap2\n      pop\n      pop\n        /* \"bai04/Crowdfunding.sol\":1338:1683  function getLastestAnswer() public view returns (int256) {... */\n      swap1\n      jump\t// out\n        /* \"bai04/Crowdfunding.sol\":1125:1330  function withdraw() public onlyOwner {... */\n    tag_30:\n        /* \"bai04/Crowdfunding.sol\":761:771  msg.sender */\n      caller\n        /* \"bai04/Crowdfunding.sol\":750:771  i_owner != msg.sender */\n      0xffffffffffffffffffffffffffffffffffffffff\n      and\n        /* \"bai04/Crowdfunding.sol\":750:757  i_owner */\n      immutable(\"0xe921da22f871c25c63f06c1365385cbb26397f64f79055cdbab32187a9377d16\")\n        /* \"bai04/Crowdfunding.sol\":750:771  i_owner != msg.sender */\n      0xffffffffffffffffffffffffffffffffffffffff\n      and\n      eq\n        /* \"bai04/Crowdfunding.sol\":747:825  if(i_owner != msg.sender) {... */\n      tag_61\n      jumpi\n        /* \"bai04/Crowdfunding.sol\":795:813  NoAvailableAmout() */\n      mload(0x40)\n      0xeb0c840800000000000000000000000000000000000000000000000000000000\n      dup2\n      mstore\n      0x04\n      add\n      mload(0x40)\n      dup1\n      swap2\n      sub\n      swap1\n      revert\n        /* \"bai04/Crowdfunding.sol\":747:825  if(i_owner != msg.sender) {... */\n    tag_61:\n        /* \"bai04/Crowdfunding.sol\":1174:1183  bool sent */\n      0x00\n        /* \"bai04/Crowdfunding.sol\":1197:1204  i_owner */\n      immutable(\"0xe921da22f871c25c63f06c1365385cbb26397f64f79055cdbab32187a9377d16\")\n        /* \"bai04/Crowdfunding.sol\":1189:1210  payable(i_owner).call */\n      0xffffffffffffffffffffffffffffffffffffffff\n      and\n        /* \"bai04/Crowdfunding.sol\":1218:1239  address(this).balance */\n      selfbalance\n        /* \"bai04/Crowdfunding.sol\":1189:1244  payable(i_owner).call{value: address(this).balance}(\"\") */\n      mload(0x40)\n      tag_63\n      swap1\n      tag_64\n      jump\t// in\n    tag_63:\n      0x00\n      mload(0x40)\n      dup1\n      dup4\n      sub\n      dup2\n      dup6\n      dup8\n      gas\n      call\n      swap3\n      pop\n      pop\n      pop\n      returndatasize\n      dup1\n      0x00\n      dup2\n      eq\n      tag_67\n      jumpi\n      mload(0x40)\n      swap2\n      pop\n      and(add(returndatasize, 0x3f), not(0x1f))\n      dup3\n      add\n      0x40\n      mstore\n      returndatasize\n      dup3\n      mstore\n      returndatasize\n      0x00\n      0x20\n      dup5\n      add\n      returndatacopy\n      jump(tag_66)\n    tag_67:\n      0x60\n      swap2\n      pop\n    tag_66:\n      pop\n        /* \"bai04/Crowdfunding.sol\":1173:1244  (bool sent, ) = payable(i_owner).call{value: address(this).balance}(\"\") */\n      pop\n      swap1\n      pop\n        /* \"bai04/Crowdfunding.sol\":1293:1297  sent */\n      dup1\n        /* \"bai04/Crowdfunding.sol\":1285:1322  require(sent, \"Failed to send Ether\") */\n      tag_68\n      jumpi\n      mload(0x40)\n      0x08c379a000000000000000000000000000000000000000000000000000000000\n      dup2\n      mstore\n      0x04\n      add\n      tag_69\n      swap1\n      tag_70\n      jump\t// in\n    tag_69:\n      mload(0x40)\n      dup1\n      swap2\n      sub\n      swap1\n      revert\n    tag_68:\n        /* \"bai04/Crowdfunding.sol\":1162:1330  {... */\n      pop\n        /* \"bai04/Crowdfunding.sol\":1125:1330  function withdraw() public onlyOwner {... */\n      jump\t// out\n        /* \"bai04/Crowdfunding.sol\":1829:1957  function getThisContract() public view returns (address) {... */\n    tag_33:\n        /* \"bai04/Crowdfunding.sol\":1877:1884  address */\n      0x00\n        /* \"bai04/Crowdfunding.sol\":1912:1916  this */\n      address\n        /* \"bai04/Crowdfunding.sol\":1897:1917  return address(this) */\n      swap1\n      pop\n        /* \"bai04/Crowdfunding.sol\":1829:1957  function getThisContract() public view returns (address) {... */\n      swap1\n      jump\t// out\n        /* \"bai04/Crowdfunding.sol\":243:297  uint256 public constant MINIMUM_USD = 1800000000000000 */\n    tag_38:\n        /* \"bai04/Crowdfunding.sol\":281:297  1800000000000000 */\n      0x06651728988000\n        /* \"bai04/Crowdfunding.sol\":243:297  uint256 public constant MINIMUM_USD = 1800000000000000 */\n      dup2\n      jump\t// out\n        /* \"bai04/Crowdfunding.sol\":319:396  address public immutable i_owner = 0x1ddfE2c36478E61cE3acBE4B96e57143E1964FFd */\n    tag_43:\n      immutable(\"0xe921da22f871c25c63f06c1365385cbb26397f64f79055cdbab32187a9377d16\")\n      dup2\n      jump\t// out\n        /* \"#utility.yul\":7:84   */\n    tag_72:\n        /* \"#utility.yul\":44:51   */\n      0x00\n        /* \"#utility.yul\":73:78   */\n      dup2\n        /* \"#utility.yul\":62:78   */\n      swap1\n      pop\n        /* \"#utility.yul\":7:84   */\n      swap2\n      swap1\n      pop\n      jump\t// out\n        /* \"#utility.yul\":90:208   */\n    tag_73:\n        /* \"#utility.yul\":177:201   */\n      tag_101\n        /* \"#utility.yul\":195:200   */\n      dup2\n        /* \"#utility.yul\":177:201   */\n      tag_72\n      jump\t// in\n    tag_101:\n        /* \"#utility.yul\":172:175   */\n      dup3\n        /* \"#utility.yul\":165:202   */\n      mstore\n        /* \"#utility.yul\":90:208   */\n      pop\n      pop\n      jump\t// out\n        /* \"#utility.yul\":214:436   */\n    tag_22:\n        /* \"#utility.yul\":307:311   */\n      0x00\n        /* \"#utility.yul\":345:347   */\n      0x20\n        /* \"#utility.yul\":334:343   */\n      dup3\n        /* \"#utility.yul\":330:348   */\n      add\n        /* \"#utility.yul\":322:348   */\n      swap1\n      pop\n        /* \"#utility.yul\":358:429   */\n      tag_103\n        /* \"#utility.yul\":426:427   */\n      0x00\n        /* \"#utility.yul\":415:424   */\n      dup4\n        /* \"#utility.yul\":411:428   */\n      add\n        /* \"#utility.yul\":402:408   */\n      dup5\n        /* \"#utility.yul\":358:429   */\n      tag_73\n      jump\t// in\n    tag_103:\n        /* \"#utility.yul\":214:436   */\n      swap3\n      swap2\n      pop\n      pop\n      jump\t// out\n        /* \"#utility.yul\":442:518   */\n    tag_74:\n        /* \"#utility.yul\":478:485   */\n      0x00\n        /* \"#utility.yul\":507:512   */\n      dup2\n        /* \"#utility.yul\":496:512   */\n      swap1\n      pop\n        /* \"#utility.yul\":442:518   */\n      swap2\n      swap1\n      pop\n      jump\t// out\n        /* \"#utility.yul\":524:639   */\n    tag_75:\n        /* \"#utility.yul\":609:632   */\n      tag_106\n        /* \"#utility.yul\":626:631   */\n      dup2\n        /* \"#utility.yul\":609:632   */\n      tag_74\n      jump\t// in\n    tag_106:\n        /* \"#utility.yul\":604:607   */\n      dup3\n        /* \"#utility.yul\":597:633   */\n      mstore\n        /* \"#utility.yul\":524:639   */\n      pop\n      pop\n      jump\t// out\n        /* \"#utility.yul\":645:863   */\n    tag_27:\n        /* \"#utility.yul\":736:740   */\n      0x00\n        /* \"#utility.yul\":774:776   */\n      0x20\n        /* \"#utility.yul\":763:772   */\n      dup3\n        /* \"#utility.yul\":759:777   */\n      add\n        /* \"#utility.yul\":751:777   */\n      swap1\n      pop\n        /* \"#utility.yul\":787:856   */\n      tag_108\n        /* \"#utility.yul\":853:854   */\n      0x00\n        /* \"#utility.yul\":842:851   */\n      dup4\n        /* \"#utility.yul\":838:855   */\n      add\n        /* \"#utility.yul\":829:835   */\n      dup5\n        /* \"#utility.yul\":787:856   */\n      tag_75\n      jump\t// in\n    tag_108:\n        /* \"#utility.yul\":645:863   */\n      swap3\n      swap2\n      pop\n      pop\n      jump\t// out\n        /* \"#utility.yul\":869:995   */\n    tag_76:\n        /* \"#utility.yul\":906:913   */\n      0x00\n        /* \"#utility.yul\":946:988   */\n      0xffffffffffffffffffffffffffffffffffffffff\n        /* \"#utility.yul\":939:944   */\n      dup3\n        /* \"#utility.yul\":935:989   */\n      and\n        /* \"#utility.yul\":924:989   */\n      swap1\n      pop\n        /* \"#utility.yul\":869:995   */\n      swap2\n      swap1\n      pop\n      jump\t// out\n        /* \"#utility.yul\":1001:1097   */\n    tag_77:\n        /* \"#utility.yul\":1038:1045   */\n      0x00\n        /* \"#utility.yul\":1067:1091   */\n      tag_111\n        /* \"#utility.yul\":1085:1090   */\n      dup3\n        /* \"#utility.yul\":1067:1091   */\n      tag_76\n      jump\t// in\n    tag_111:\n        /* \"#utility.yul\":1056:1091   */\n      swap1\n      pop\n        /* \"#utility.yul\":1001:1097   */\n      swap2\n      swap1\n      pop\n      jump\t// out\n        /* \"#utility.yul\":1103:1221   */\n    tag_78:\n        /* \"#utility.yul\":1190:1214   */\n      tag_113\n        /* \"#utility.yul\":1208:1213   */\n      dup2\n        /* \"#utility.yul\":1190:1214   */\n      tag_77\n      jump\t// in\n    tag_113:\n        /* \"#utility.yul\":1185:1188   */\n      dup3\n        /* \"#utility.yul\":1178:1215   */\n      mstore\n        /* \"#utility.yul\":1103:1221   */\n      pop\n      pop\n      jump\t// out\n        /* \"#utility.yul\":1227:1449   */\n    tag_35:\n        /* \"#utility.yul\":1320:1324   */\n      0x00\n        /* \"#utility.yul\":1358:1360   */\n      0x20\n        /* \"#utility.yul\":1347:1356   */\n      dup3\n        /* \"#utility.yul\":1343:1361   */\n      add\n        /* \"#utility.yul\":1335:1361   */\n      swap1\n      pop\n        /* \"#utility.yul\":1371:1442   */\n      tag_115\n        /* \"#utility.yul\":1439:1440   */\n      0x00\n        /* \"#utility.yul\":1428:1437   */\n      dup4\n        /* \"#utility.yul\":1424:1441   */\n      add\n        /* \"#utility.yul\":1415:1421   */\n      dup5\n        /* \"#utility.yul\":1371:1442   */\n      tag_78\n      jump\t// in\n    tag_115:\n        /* \"#utility.yul\":1227:1449   */\n      swap3\n      swap2\n      pop\n      pop\n      jump\t// out\n        /* \"#utility.yul\":1455:1635   */\n    tag_79:\n        /* \"#utility.yul\":1503:1580   */\n      0x4e487b7100000000000000000000000000000000000000000000000000000000\n        /* \"#utility.yul\":1500:1501   */\n      0x00\n        /* \"#utility.yul\":1493:1581   */\n      mstore\n        /* \"#utility.yul\":1600:1604   */\n      0x11\n        /* \"#utility.yul\":1597:1598   */\n      0x04\n        /* \"#utility.yul\":1590:1605   */\n      mstore\n        /* \"#utility.yul\":1624:1628   */\n      0x24\n        /* \"#utility.yul\":1621:1622   */\n      0x00\n        /* \"#utility.yul\":1614:1629   */\n      revert\n        /* \"#utility.yul\":1641:2051   */\n    tag_48:\n        /* \"#utility.yul\":1681:1688   */\n      0x00\n        /* \"#utility.yul\":1704:1724   */\n      tag_118\n        /* \"#utility.yul\":1722:1723   */\n      dup3\n        /* \"#utility.yul\":1704:1724   */\n      tag_72\n      jump\t// in\n    tag_118:\n        /* \"#utility.yul\":1699:1724   */\n      swap2\n      pop\n        /* \"#utility.yul\":1738:1758   */\n      tag_119\n        /* \"#utility.yul\":1756:1757   */\n      dup4\n        /* \"#utility.yul\":1738:1758   */\n      tag_72\n      jump\t// in\n    tag_119:\n        /* \"#utility.yul\":1733:1758   */\n      swap3\n      pop\n        /* \"#utility.yul\":1793:1794   */\n      dup3\n        /* \"#utility.yul\":1790:1791   */\n      dup3\n        /* \"#utility.yul\":1786:1795   */\n      mul\n        /* \"#utility.yul\":1815:1845   */\n      tag_120\n        /* \"#utility.yul\":1833:1844   */\n      dup2\n        /* \"#utility.yul\":1815:1845   */\n      tag_72\n      jump\t// in\n    tag_120:\n        /* \"#utility.yul\":1804:1845   */\n      swap2\n      pop\n        /* \"#utility.yul\":1994:1995   */\n      dup3\n        /* \"#utility.yul\":1985:1992   */\n      dup3\n        /* \"#utility.yul\":1981:1996   */\n      div\n        /* \"#utility.yul\":1978:1979   */\n      dup5\n        /* \"#utility.yul\":1975:1997   */\n      eq\n        /* \"#utility.yul\":1955:1956   */\n      dup4\n        /* \"#utility.yul\":1948:1957   */\n      iszero\n        /* \"#utility.yul\":1928:2011   */\n      or\n        /* \"#utility.yul\":1905:2044   */\n      tag_121\n      jumpi\n        /* \"#utility.yul\":2024:2042   */\n      tag_122\n      tag_79\n      jump\t// in\n    tag_122:\n        /* \"#utility.yul\":1905:2044   */\n    tag_121:\n        /* \"#utility.yul\":1689:2051   */\n      pop\n        /* \"#utility.yul\":1641:2051   */\n      swap3\n      swap2\n      pop\n      pop\n      jump\t// out\n        /* \"#utility.yul\":2057:2226   */\n    tag_80:\n        /* \"#utility.yul\":2141:2152   */\n      0x00\n        /* \"#utility.yul\":2175:2181   */\n      dup3\n        /* \"#utility.yul\":2170:2173   */\n      dup3\n        /* \"#utility.yul\":2163:2182   */\n      mstore\n        /* \"#utility.yul\":2215:2219   */\n      0x20\n        /* \"#utility.yul\":2210:2213   */\n      dup3\n        /* \"#utility.yul\":2206:2220   */\n      add\n        /* \"#utility.yul\":2191:2220   */\n      swap1\n      pop\n        /* \"#utility.yul\":2057:2226   */\n      swap3\n      swap2\n      pop\n      pop\n      jump\t// out\n        /* \"#utility.yul\":2232:2396   */\n    tag_81:\n        /* \"#utility.yul\":2372:2388   */\n      0x48434d5554204e6f204d6f6e6579000000000000000000000000000000000000\n        /* \"#utility.yul\":2368:2369   */\n      0x00\n        /* \"#utility.yul\":2360:2366   */\n      dup3\n        /* \"#utility.yul\":2356:2370   */\n      add\n        /* \"#utility.yul\":2349:2389   */\n      mstore\n        /* \"#utility.yul\":2232:2396   */\n      pop\n      jump\t// out\n        /* \"#utility.yul\":2402:2768   */\n    tag_82:\n        /* \"#utility.yul\":2544:2547   */\n      0x00\n        /* \"#utility.yul\":2565:2632   */\n      tag_126\n        /* \"#utility.yul\":2629:2631   */\n      0x0e\n        /* \"#utility.yul\":2624:2627   */\n      dup4\n        /* \"#utility.yul\":2565:2632   */\n      tag_80\n      jump\t// in\n    tag_126:\n        /* \"#utility.yul\":2558:2632   */\n      swap2\n      pop\n        /* \"#utility.yul\":2641:2734   */\n      tag_127\n        /* \"#utility.yul\":2730:2733   */\n      dup3\n        /* \"#utility.yul\":2641:2734   */\n      tag_81\n      jump\t// in\n    tag_127:\n        /* \"#utility.yul\":2759:2761   */\n      0x20\n        /* \"#utility.yul\":2754:2757   */\n      dup3\n        /* \"#utility.yul\":2750:2762   */\n      add\n        /* \"#utility.yul\":2743:2762   */\n      swap1\n      pop\n        /* \"#utility.yul\":2402:2768   */\n      swap2\n      swap1\n      pop\n      jump\t// out\n        /* \"#utility.yul\":2774:3193   */\n    tag_51:\n        /* \"#utility.yul\":2940:2944   */\n      0x00\n        /* \"#utility.yul\":2978:2980   */\n      0x20\n        /* \"#utility.yul\":2967:2976   */\n      dup3\n        /* \"#utility.yul\":2963:2981   */\n      add\n        /* \"#utility.yul\":2955:2981   */\n      swap1\n      pop\n        /* \"#utility.yul\":3027:3036   */\n      dup2\n        /* \"#utility.yul\":3021:3025   */\n      dup2\n        /* \"#utility.yul\":3017:3037   */\n      sub\n        /* \"#utility.yul\":3013:3014   */\n      0x00\n        /* \"#utility.yul\":3002:3011   */\n      dup4\n        /* \"#utility.yul\":2998:3015   */\n      add\n        /* \"#utility.yul\":2991:3038   */\n      mstore\n        /* \"#utility.yul\":3055:3186   */\n      tag_129\n        /* \"#utility.yul\":3181:3185   */\n      dup2\n        /* \"#utility.yul\":3055:3186   */\n      tag_82\n      jump\t// in\n    tag_129:\n        /* \"#utility.yul\":3047:3186   */\n      swap1\n      pop\n        /* \"#utility.yul\":2774:3193   */\n      swap2\n      swap1\n      pop\n      jump\t// out\n        /* \"#utility.yul\":3280:3397   */\n    tag_84:\n        /* \"#utility.yul\":3389:3390   */\n      0x00\n        /* \"#utility.yul\":3386:3387   */\n      dup1\n        /* \"#utility.yul\":3379:3391   */\n      revert\n        /* \"#utility.yul\":3526:3631   */\n    tag_86:\n        /* \"#utility.yul\":3562:3569   */\n      0x00\n        /* \"#utility.yul\":3602:3624   */\n      0xffffffffffffffffffff\n        /* \"#utility.yul\":3595:3600   */\n      dup3\n        /* \"#utility.yul\":3591:3625   */\n      and\n        /* \"#utility.yul\":3580:3625   */\n      swap1\n      pop\n        /* \"#utility.yul\":3526:3631   */\n      swap2\n      swap1\n      pop\n      jump\t// out\n        /* \"#utility.yul\":3637:3757   */\n    tag_87:\n        /* \"#utility.yul\":3709:3732   */\n      tag_135\n        /* \"#utility.yul\":3726:3731   */\n      dup2\n        /* \"#utility.yul\":3709:3732   */\n      tag_86\n      jump\t// in\n    tag_135:\n        /* \"#utility.yul\":3702:3707   */\n      dup2\n        /* \"#utility.yul\":3699:3733   */\n      eq\n        /* \"#utility.yul\":3689:3751   */\n      tag_136\n      jumpi\n        /* \"#utility.yul\":3747:3748   */\n      0x00\n        /* \"#utility.yul\":3744:3745   */\n      dup1\n        /* \"#utility.yul\":3737:3749   */\n      revert\n        /* \"#utility.yul\":3689:3751   */\n    tag_136:\n        /* \"#utility.yul\":3637:3757   */\n      pop\n      jump\t// out\n        /* \"#utility.yul\":3763:3904   */\n    tag_88:\n        /* \"#utility.yul\":3819:3824   */\n      0x00\n        /* \"#utility.yul\":3850:3856   */\n      dup2\n        /* \"#utility.yul\":3844:3857   */\n      mload\n        /* \"#utility.yul\":3835:3857   */\n      swap1\n      pop\n        /* \"#utility.yul\":3866:3898   */\n      tag_138\n        /* \"#utility.yul\":3892:3897   */\n      dup2\n        /* \"#utility.yul\":3866:3898   */\n      tag_87\n      jump\t// in\n    tag_138:\n        /* \"#utility.yul\":3763:3904   */\n      swap3\n      swap2\n      pop\n      pop\n      jump\t// out\n        /* \"#utility.yul\":3910:4030   */\n    tag_89:\n        /* \"#utility.yul\":3982:4005   */\n      tag_140\n        /* \"#utility.yul\":3999:4004   */\n      dup2\n        /* \"#utility.yul\":3982:4005   */\n      tag_74\n      jump\t// in\n    tag_140:\n        /* \"#utility.yul\":3975:3980   */\n      dup2\n        /* \"#utility.yul\":3972:4006   */\n      eq\n        /* \"#utility.yul\":3962:4024   */\n      tag_141\n      jumpi\n        /* \"#utility.yul\":4020:4021   */\n      0x00\n        /* \"#utility.yul\":4017:4018   */\n      dup1\n        /* \"#utility.yul\":4010:4022   */\n      revert\n        /* \"#utility.yul\":3962:4024   */\n    tag_141:\n        /* \"#utility.yul\":3910:4030   */\n      pop\n      jump\t// out\n        /* \"#utility.yul\":4036:4177   */\n    tag_90:\n        /* \"#utility.yul\":4092:4097   */\n      0x00\n        /* \"#utility.yul\":4123:4129   */\n      dup2\n        /* \"#utility.yul\":4117:4130   */\n      mload\n        /* \"#utility.yul\":4108:4130   */\n      swap1\n      pop\n        /* \"#utility.yul\":4139:4171   */\n      tag_143\n        /* \"#utility.yul\":4165:4170   */\n      dup2\n        /* \"#utility.yul\":4139:4171   */\n      tag_89\n      jump\t// in\n    tag_143:\n        /* \"#utility.yul\":4036:4177   */\n      swap3\n      swap2\n      pop\n      pop\n      jump\t// out\n        /* \"#utility.yul\":4183:4305   */\n    tag_91:\n        /* \"#utility.yul\":4256:4280   */\n      tag_145\n        /* \"#utility.yul\":4274:4279   */\n      dup2\n        /* \"#utility.yul\":4256:4280   */\n      tag_72\n      jump\t// in\n    tag_145:\n        /* \"#utility.yul\":4249:4254   */\n      dup2\n        /* \"#utility.yul\":4246:4281   */\n      eq\n        /* \"#utility.yul\":4236:4299   */\n      tag_146\n      jumpi\n        /* \"#utility.yul\":4295:4296   */\n      0x00\n        /* \"#utility.yul\":4292:4293   */\n      dup1\n        /* \"#utility.yul\":4285:4297   */\n      revert\n        /* \"#utility.yul\":4236:4299   */\n    tag_146:\n        /* \"#utility.yul\":4183:4305   */\n      pop\n      jump\t// out\n        /* \"#utility.yul\":4311:4454   */\n    tag_92:\n        /* \"#utility.yul\":4368:4373   */\n      0x00\n        /* \"#utility.yul\":4399:4405   */\n      dup2\n        /* \"#utility.yul\":4393:4406   */\n      mload\n        /* \"#utility.yul\":4384:4406   */\n      swap1\n      pop\n        /* \"#utility.yul\":4415:4448   */\n      tag_148\n        /* \"#utility.yul\":4442:4447   */\n      dup2\n        /* \"#utility.yul\":4415:4448   */\n      tag_91\n      jump\t// in\n    tag_148:\n        /* \"#utility.yul\":4311:4454   */\n      swap3\n      swap2\n      pop\n      pop\n      jump\t// out\n        /* \"#utility.yul\":4460:5431   */\n    tag_57:\n        /* \"#utility.yul\":4563:4569   */\n      0x00\n        /* \"#utility.yul\":4571:4577   */\n      dup1\n        /* \"#utility.yul\":4579:4585   */\n      0x00\n        /* \"#utility.yul\":4587:4593   */\n      dup1\n        /* \"#utility.yul\":4595:4601   */\n      0x00\n        /* \"#utility.yul\":4644:4647   */\n      0xa0\n        /* \"#utility.yul\":4632:4641   */\n      dup7\n        /* \"#utility.yul\":4623:4630   */\n      dup9\n        /* \"#utility.yul\":4619:4642   */\n      sub\n        /* \"#utility.yul\":4615:4648   */\n      slt\n        /* \"#utility.yul\":4612:4732   */\n      iszero\n      tag_150\n      jumpi\n        /* \"#utility.yul\":4651:4730   */\n      tag_151\n      tag_84\n      jump\t// in\n    tag_151:\n        /* \"#utility.yul\":4612:4732   */\n    tag_150:\n        /* \"#utility.yul\":4771:4772   */\n      0x00\n        /* \"#utility.yul\":4796:4859   */\n      tag_152\n        /* \"#utility.yul\":4851:4858   */\n      dup9\n        /* \"#utility.yul\":4842:4848   */\n      dup3\n        /* \"#utility.yul\":4831:4840   */\n      dup10\n        /* \"#utility.yul\":4827:4849   */\n      add\n        /* \"#utility.yul\":4796:4859   */\n      tag_88\n      jump\t// in\n    tag_152:\n        /* \"#utility.yul\":4786:4859   */\n      swap6\n      pop\n        /* \"#utility.yul\":4742:4869   */\n      pop\n        /* \"#utility.yul\":4908:4910   */\n      0x20\n        /* \"#utility.yul\":4934:4997   */\n      tag_153\n        /* \"#utility.yul\":4989:4996   */\n      dup9\n        /* \"#utility.yul\":4980:4986   */\n      dup3\n        /* \"#utility.yul\":4969:4978   */\n      dup10\n        /* \"#utility.yul\":4965:4987   */\n      add\n        /* \"#utility.yul\":4934:4997   */\n      tag_90\n      jump\t// in\n    tag_153:\n        /* \"#utility.yul\":4924:4997   */\n      swap5\n      pop\n        /* \"#utility.yul\":4879:5007   */\n      pop\n        /* \"#utility.yul\":5046:5048   */\n      0x40\n        /* \"#utility.yul\":5072:5136   */\n      tag_154\n        /* \"#utility.yul\":5128:5135   */\n      dup9\n        /* \"#utility.yul\":5119:5125   */\n      dup3\n        /* \"#utility.yul\":5108:5117   */\n      dup10\n        /* \"#utility.yul\":5104:5126   */\n      add\n        /* \"#utility.yul\":5072:5136   */\n      tag_92\n      jump\t// in\n    tag_154:\n        /* \"#utility.yul\":5062:5136   */\n      swap4\n      pop\n        /* \"#utility.yul\":5017:5146   */\n      pop\n        /* \"#utility.yul\":5185:5187   */\n      0x60\n        /* \"#utility.yul\":5211:5275   */\n      tag_155\n        /* \"#utility.yul\":5267:5274   */\n      dup9\n        /* \"#utility.yul\":5258:5264   */\n      dup3\n        /* \"#utility.yul\":5247:5256   */\n      dup10\n        /* \"#utility.yul\":5243:5265   */\n      add\n        /* \"#utility.yul\":5211:5275   */\n      tag_92\n      jump\t// in\n    tag_155:\n        /* \"#utility.yul\":5201:5275   */\n      swap3\n      pop\n        /* \"#utility.yul\":5156:5285   */\n      pop\n        /* \"#utility.yul\":5324:5327   */\n      0x80\n        /* \"#utility.yul\":5351:5414   */\n      tag_156\n        /* \"#utility.yul\":5406:5413   */\n      dup9\n        /* \"#utility.yul\":5397:5403   */\n      dup3\n        /* \"#utility.yul\":5386:5395   */\n      dup10\n        /* \"#utility.yul\":5382:5404   */\n      add\n        /* \"#utility.yul\":5351:5414   */\n      tag_88\n      jump\t// in\n    tag_156:\n        /* \"#utility.yul\":5341:5414   */\n      swap2\n      pop\n        /* \"#utility.yul\":5295:5424   */\n      pop\n        /* \"#utility.yul\":4460:5431   */\n      swap3\n      swap6\n      pop\n      swap3\n      swap6\n      swap1\n      swap4\n      pop\n      jump\t// out\n        /* \"#utility.yul\":5437:5993   */\n    tag_59:\n        /* \"#utility.yul\":5476:5483   */\n      0x00\n        /* \"#utility.yul\":5499:5518   */\n      tag_158\n        /* \"#utility.yul\":5516:5517   */\n      dup3\n        /* \"#utility.yul\":5499:5518   */\n      tag_74\n      jump\t// in\n    tag_158:\n        /* \"#utility.yul\":5494:5518   */\n      swap2\n      pop\n        /* \"#utility.yul\":5532:5551   */\n      tag_159\n        /* \"#utility.yul\":5549:5550   */\n      dup4\n        /* \"#utility.yul\":5532:5551   */\n      tag_74\n      jump\t// in\n    tag_159:\n        /* \"#utility.yul\":5527:5551   */\n      swap3\n      pop\n        /* \"#utility.yul\":5586:5587   */\n      dup3\n        /* \"#utility.yul\":5583:5584   */\n      dup3\n        /* \"#utility.yul\":5579:5588   */\n      mul\n        /* \"#utility.yul\":5608:5637   */\n      tag_160\n        /* \"#utility.yul\":5625:5636   */\n      dup2\n        /* \"#utility.yul\":5608:5637   */\n      tag_74\n      jump\t// in\n    tag_160:\n        /* \"#utility.yul\":5597:5637   */\n      swap2\n      pop\n        /* \"#utility.yul\":5695:5761   */\n      0x8000000000000000000000000000000000000000000000000000000000000000\n        /* \"#utility.yul\":5692:5693   */\n      dup5\n        /* \"#utility.yul\":5689:5762   */\n      eq\n        /* \"#utility.yul\":5685:5686   */\n      0x00\n        /* \"#utility.yul\":5682:5683   */\n      dup5\n        /* \"#utility.yul\":5678:5687   */\n      slt\n        /* \"#utility.yul\":5674:5763   */\n      and\n        /* \"#utility.yul\":5671:5786   */\n      iszero\n      tag_161\n      jumpi\n        /* \"#utility.yul\":5766:5784   */\n      tag_162\n      tag_79\n      jump\t// in\n    tag_162:\n        /* \"#utility.yul\":5671:5786   */\n    tag_161:\n        /* \"#utility.yul\":5936:5937   */\n      dup3\n        /* \"#utility.yul\":5927:5934   */\n      dup3\n        /* \"#utility.yul\":5922:5938   */\n      sdiv\n        /* \"#utility.yul\":5919:5920   */\n      dup5\n        /* \"#utility.yul\":5916:5939   */\n      eq\n        /* \"#utility.yul\":5896:5897   */\n      dup4\n        /* \"#utility.yul\":5889:5898   */\n      iszero\n        /* \"#utility.yul\":5869:5953   */\n      or\n        /* \"#utility.yul\":5846:5986   */\n      tag_163\n      jumpi\n        /* \"#utility.yul\":5966:5984   */\n      tag_164\n      tag_79\n      jump\t// in\n    tag_164:\n        /* \"#utility.yul\":5846:5986   */\n    tag_163:\n        /* \"#utility.yul\":5484:5993   */\n      pop\n        /* \"#utility.yul\":5437:5993   */\n      swap3\n      swap2\n      pop\n      pop\n      jump\t// out\n        /* \"#utility.yul\":5999:6146   */\n    tag_93:\n        /* \"#utility.yul\":6100:6111   */\n      0x00\n        /* \"#utility.yul\":6137:6140   */\n      dup2\n        /* \"#utility.yul\":6122:6140   */\n      swap1\n      pop\n        /* \"#utility.yul\":5999:6146   */\n      swap3\n      swap2\n      pop\n      pop\n      jump\t// out\n        /* \"#utility.yul\":6152:6266   */\n    tag_94:\n      pop\n      jump\t// out\n        /* \"#utility.yul\":6272:6670   */\n    tag_95:\n        /* \"#utility.yul\":6431:6434   */\n      0x00\n        /* \"#utility.yul\":6452:6535   */\n      tag_168\n        /* \"#utility.yul\":6533:6534   */\n      0x00\n        /* \"#utility.yul\":6528:6531   */\n      dup4\n        /* \"#utility.yul\":6452:6535   */\n      tag_93\n      jump\t// in\n    tag_168:\n        /* \"#utility.yul\":6445:6535   */\n      swap2\n      pop\n        /* \"#utility.yul\":6544:6637   */\n      tag_169\n        /* \"#utility.yul\":6633:6636   */\n      dup3\n        /* \"#utility.yul\":6544:6637   */\n      tag_94\n      jump\t// in\n    tag_169:\n        /* \"#utility.yul\":6662:6663   */\n      0x00\n        /* \"#utility.yul\":6657:6660   */\n      dup3\n        /* \"#utility.yul\":6653:6664   */\n      add\n        /* \"#utility.yul\":6646:6664   */\n      swap1\n      pop\n        /* \"#utility.yul\":6272:6670   */\n      swap2\n      swap1\n      pop\n      jump\t// out\n        /* \"#utility.yul\":6676:7055   */\n    tag_64:\n        /* \"#utility.yul\":6860:6863   */\n      0x00\n        /* \"#utility.yul\":6882:7029   */\n      tag_171\n        /* \"#utility.yul\":7025:7028   */\n      dup3\n        /* \"#utility.yul\":6882:7029   */\n      tag_95\n      jump\t// in\n    tag_171:\n        /* \"#utility.yul\":6875:7029   */\n      swap2\n      pop\n        /* \"#utility.yul\":7046:7049   */\n      dup2\n        /* \"#utility.yul\":7039:7049   */\n      swap1\n      pop\n        /* \"#utility.yul\":6676:7055   */\n      swap2\n      swap1\n      pop\n      jump\t// out\n        /* \"#utility.yul\":7061:7231   */\n    tag_96:\n        /* \"#utility.yul\":7201:7223   */\n      0x4661696c656420746f2073656e64204574686572000000000000000000000000\n        /* \"#utility.yul\":7197:7198   */\n      0x00\n        /* \"#utility.yul\":7189:7195   */\n      dup3\n        /* \"#utility.yul\":7185:7199   */\n      add\n        /* \"#utility.yul\":7178:7224   */\n      mstore\n        /* \"#utility.yul\":7061:7231   */\n      pop\n      jump\t// out\n        /* \"#utility.yul\":7237:7603   */\n    tag_97:\n        /* \"#utility.yul\":7379:7382   */\n      0x00\n        /* \"#utility.yul\":7400:7467   */\n      tag_174\n        /* \"#utility.yul\":7464:7466   */\n      0x14\n        /* \"#utility.yul\":7459:7462   */\n      dup4\n        /* \"#utility.yul\":7400:7467   */\n      tag_80\n      jump\t// in\n    tag_174:\n        /* \"#utility.yul\":7393:7467   */\n      swap2\n      pop\n        /* \"#utility.yul\":7476:7569   */\n      tag_175\n        /* \"#utility.yul\":7565:7568   */\n      dup3\n        /* \"#utility.yul\":7476:7569   */\n      tag_96\n      jump\t// in\n    tag_175:\n        /* \"#utility.yul\":7594:7596   */\n      0x20\n        /* \"#utility.yul\":7589:7592   */\n      dup3\n        /* \"#utility.yul\":7585:7597   */\n      add\n        /* \"#utility.yul\":7578:7597   */\n      swap1\n      pop\n        /* \"#utility.yul\":7237:7603   */\n      swap2\n      swap1\n      pop\n      jump\t// out\n        /* \"#utility.yul\":7609:8028   */\n    tag_70:\n        /* \"#utility.yul\":7775:7779   */\n      0x00\n        /* \"#utility.yul\":7813:7815   */\n      0x20\n        /* \"#utility.yul\":7802:7811   */\n      dup3\n        /* \"#utility.yul\":7798:7816   */\n      add\n        /* \"#utility.yul\":7790:7816   */\n      swap1\n      pop\n        /* \"#utility.yul\":7862:7871   */\n      dup2\n        /* \"#utility.yul\":7856:7860   */\n      dup2\n        /* \"#utility.yul\":7852:7872   */\n      sub\n        /* \"#utility.yul\":7848:7849   */\n      0x00\n        /* \"#utility.yul\":7837:7846   */\n      dup4\n        /* \"#utility.yul\":7833:7850   */\n      add\n        /* \"#utility.yul\":7826:7873   */\n      mstore\n        /* \"#utility.yul\":7890:8021   */\n      tag_177\n        /* \"#utility.yul\":8016:8020   */\n      dup2\n        /* \"#utility.yul\":7890:8021   */\n      tag_97\n      jump\t// in\n    tag_177:\n        /* \"#utility.yul\":7882:8021   */\n      swap1\n      pop\n        /* \"#utility.yul\":7609:8028   */\n      swap2\n      swap1\n      pop\n      jump\t// out\n\n    auxdata: 0xa264697066735822122021a21d507485d3cbd677d5330739be681173aecfd3d681d09e62d1bcfd5e4a2464736f6c634300081a0033\n}\n",
				"bytecode": {
					"linkReferences": {},
					"object": "60a0604052731ddfe2c36478e61ce3acbe4b96e57143e1964ffd73ffffffffffffffffffffffffffffffffffffffff1660809073ffffffffffffffffffffffffffffffffffffffff16815250348015610056575f80fd5b503373ffffffffffffffffffffffffffffffffffffffff1660808173ffffffffffffffffffffffffffffffffffffffff168152505073694aa1769357215de4fac081bf1f309adc3253065f806101000a81548173ffffffffffffffffffffffffffffffffffffffff021916908373ffffffffffffffffffffffffffffffffffffffff1602179055506080516108216101045f395f81816102b10152818161032001526103fc01526108215ff3fe608060405260043610610073575f3560e01c8063469e2cec1161004d578063469e2cec146100f65780636b69a59214610120578063b60d42881461014a578063dba6335f1461015457610082565b806312065fe01461008c578063339a2c4f146100b65780633ccfd60b146100e057610082565b366100825761008061017e565b005b61008a61017e565b005b348015610097575f80fd5b506100a06101e6565b6040516100ad9190610436565b60405180910390f35b3480156100c1575f80fd5b506100ca6101ed565b6040516100d79190610467565b60405180910390f35b3480156100eb575f80fd5b506100f4610298565b005b348015610101575f80fd5b5061010a6103e8565b60405161011791906104bf565b60405180910390f35b34801561012b575f80fd5b506101346103ef565b6040516101419190610436565b60405180910390f35b61015261017e565b005b34801561015f575f80fd5b506101686103fa565b60405161017591906104bf565b60405180910390f35b5f6101876101ed565b90505f81346101969190610505565b905066066517289880008110156101e2576040517f08c379a00000000000000000000000000000000000000000000000000000000081526004016101d9906105a0565b60405180910390fd5b5050565b5f47905090565b5f805f8054906101000a900473ffffffffffffffffffffffffffffffffffffffff1673ffffffffffffffffffffffffffffffffffffffff1663feaf968c6040518163ffffffff1660e01b815260040160a060405180830381865afa158015610257573d5f803e3d5ffd5b505050506040513d601f19601f8201168201806040525081019061027b9190610655565b5050509150506402540be4008161029291906106cc565b91505090565b3373ffffffffffffffffffffffffffffffffffffffff167f000000000000000000000000000000000000000000000000000000000000000073ffffffffffffffffffffffffffffffffffffffff161461031d576040517feb0c840800000000000000000000000000000000000000000000000000000000815260040160405180910390fd5b5f7f000000000000000000000000000000000000000000000000000000000000000073ffffffffffffffffffffffffffffffffffffffff16476040516103629061076f565b5f6040518083038185875af1925050503d805f811461039c576040519150601f19603f3d011682016040523d82523d5f602084013e6103a1565b606091505b50509050806103e5576040517f08c379a00000000000000000000000000000000000000000000000000000000081526004016103dc906107cd565b60405180910390fd5b50565b5f30905090565b660665172898800081565b7f000000000000000000000000000000000000000000000000000000000000000081565b5f819050919050565b6104308161041e565b82525050565b5f6020820190506104495f830184610427565b92915050565b5f819050919050565b6104618161044f565b82525050565b5f60208201905061047a5f830184610458565b92915050565b5f73ffffffffffffffffffffffffffffffffffffffff82169050919050565b5f6104a982610480565b9050919050565b6104b98161049f565b82525050565b5f6020820190506104d25f8301846104b0565b92915050565b7f4e487b71000000000000000000000000000000000000000000000000000000005f52601160045260245ffd5b5f61050f8261041e565b915061051a8361041e565b92508282026105288161041e565b9150828204841483151761053f5761053e6104d8565b5b5092915050565b5f82825260208201905092915050565b7f48434d5554204e6f204d6f6e65790000000000000000000000000000000000005f82015250565b5f61058a600e83610546565b915061059582610556565b602082019050919050565b5f6020820190508181035f8301526105b78161057e565b9050919050565b5f80fd5b5f69ffffffffffffffffffff82169050919050565b6105e0816105c2565b81146105ea575f80fd5b50565b5f815190506105fb816105d7565b92915050565b61060a8161044f565b8114610614575f80fd5b50565b5f8151905061062581610601565b92915050565b6106348161041e565b811461063e575f80fd5b50565b5f8151905061064f8161062b565b92915050565b5f805f805f60a0868803121561066e5761066d6105be565b5b5f61067b888289016105ed565b955050602061068c88828901610617565b945050604061069d88828901610641565b93505060606106ae88828901610641565b92505060806106bf888289016105ed565b9150509295509295909350565b5f6106d68261044f565b91506106e18361044f565b92508282026106ef8161044f565b91507f800000000000000000000000000000000000000000000000000000000000000084145f84121615610726576107256104d8565b5b828205841483151761073b5761073a6104d8565b5b5092915050565b5f81905092915050565b50565b5f61075a5f83610742565b91506107658261074c565b5f82019050919050565b5f6107798261074f565b9150819050919050565b7f4661696c656420746f2073656e642045746865720000000000000000000000005f82015250565b5f6107b7601483610546565b91506107c282610783565b602082019050919050565b5f6020820190508181035f8301526107e4816107ab565b905091905056fea264697066735822122021a21d507485d3cbd677d5330739be681173aecfd3d681d09e62d1bcfd5e4a2464736f6c634300081a0033",
					"opcodes": "PUSH1 0xA0 PUSH1 0x40 MSTORE PUSH20 0x1DDFE2C36478E61CE3ACBE4B96E57143E1964FFD PUSH20 0xFFFFFFFFFFFFFFFFFFFFFFFFFFFFFFFFFFFFFFFF AND PUSH1 0x80 SWAP1 PUSH20 0xFFFFFFFFFFFFFFFFFFFFFFFFFFFFFFFFFFFFFFFF AND DUP2 MSTORE POP CALLVALUE DUP1 ISZERO PUSH2 0x56 JUMPI PUSH0 DUP1 REVERT JUMPDEST POP CALLER PUSH20 0xFFFFFFFFFFFFFFFFFFFFFFFFFFFFFFFFFFFFFFFF AND PUSH1 0x80 DUP2 PUSH20 0xFFFFFFFFFFFFFFFFFFFFFFFFFFFFFFFFFFFFFFFF AND DUP2 MSTORE POP POP PUSH20 0x694AA1769357215DE4FAC081BF1F309ADC325306 PUSH0 DUP1 PUSH2 0x100 EXP DUP2 SLOAD DUP2 PUSH20 0xFFFFFFFFFFFFFFFFFFFFFFFFFFFFFFFFFFFFFFFF MUL NOT AND SWAP1 DUP4 PUSH20 0xFFFFFFFFFFFFFFFFFFFFFFFFFFFFFFFFFFFFFFFF AND MUL OR SWAP1 SSTORE POP PUSH1 0x80 MLOAD PUSH2 0x821 PUSH2 0x104 PUSH0 CODECOPY PUSH0 DUP2 DUP2 PUSH2 0x2B1 ADD MSTORE DUP2 DUP2 PUSH2 0x320 ADD MSTORE PUSH2 0x3FC ADD MSTORE PUSH2 0x821 PUSH0 RETURN INVALID PUSH1 0x80 PUSH1 0x40 MSTORE PUSH1 0x4 CALLDATASIZE LT PUSH2 0x73 JUMPI PUSH0 CALLDATALOAD PUSH1 0xE0 SHR DUP1 PUSH4 0x469E2CEC GT PUSH2 0x4D JUMPI DUP1 PUSH4 0x469E2CEC EQ PUSH2 0xF6 JUMPI DUP1 PUSH4 0x6B69A592 EQ PUSH2 0x120 JUMPI DUP1 PUSH4 0xB60D4288 EQ PUSH2 0x14A JUMPI DUP1 PUSH4 0xDBA6335F EQ PUSH2 0x154 JUMPI PUSH2 0x82 JUMP JUMPDEST DUP1 PUSH4 0x12065FE0 EQ PUSH2 0x8C JUMPI DUP1 PUSH4 0x339A2C4F EQ PUSH2 0xB6 JUMPI DUP1 PUSH4 0x3CCFD60B EQ PUSH2 0xE0 JUMPI PUSH2 0x82 JUMP JUMPDEST CALLDATASIZE PUSH2 0x82 JUMPI PUSH2 0x80 PUSH2 0x17E JUMP JUMPDEST STOP JUMPDEST PUSH2 0x8A PUSH2 0x17E JUMP JUMPDEST STOP JUMPDEST CALLVALUE DUP1 ISZERO PUSH2 0x97 JUMPI PUSH0 DUP1 REVERT JUMPDEST POP PUSH2 0xA0 PUSH2 0x1E6 JUMP JUMPDEST PUSH1 0x40 MLOAD PUSH2 0xAD SWAP2 SWAP1 PUSH2 0x436 JUMP JUMPDEST PUSH1 0x40 MLOAD DUP1 SWAP2 SUB SWAP1 RETURN JUMPDEST CALLVALUE DUP1 ISZERO PUSH2 0xC1 JUMPI PUSH0 DUP1 REVERT JUMPDEST POP PUSH2 0xCA PUSH2 0x1ED JUMP JUMPDEST PUSH1 0x40 MLOAD PUSH2 0xD7 SWAP2 SWAP1 PUSH2 0x467 JUMP JUMPDEST PUSH1 0x40 MLOAD DUP1 SWAP2 SUB SWAP1 RETURN JUMPDEST CALLVALUE DUP1 ISZERO PUSH2 0xEB JUMPI PUSH0 DUP1 REVERT JUMPDEST POP PUSH2 0xF4 PUSH2 0x298 JUMP JUMPDEST STOP JUMPDEST CALLVALUE DUP1 ISZERO PUSH2 0x101 JUMPI PUSH0 DUP1 REVERT JUMPDEST POP PUSH2 0x10A PUSH2 0x3E8 JUMP JUMPDEST PUSH1 0x40 MLOAD PUSH2 0x117 SWAP2 SWAP1 PUSH2 0x4BF JUMP JUMPDEST PUSH1 0x40 MLOAD DUP1 SWAP2 SUB SWAP1 RETURN JUMPDEST CALLVALUE DUP1 ISZERO PUSH2 0x12B JUMPI PUSH0 DUP1 REVERT JUMPDEST POP PUSH2 0x134 PUSH2 0x3EF JUMP JUMPDEST PUSH1 0x40 MLOAD PUSH2 0x141 SWAP2 SWAP1 PUSH2 0x436 JUMP JUMPDEST PUSH1 0x40 MLOAD DUP1 SWAP2 SUB SWAP1 RETURN JUMPDEST PUSH2 0x152 PUSH2 0x17E JUMP JUMPDEST STOP JUMPDEST CALLVALUE DUP1 ISZERO PUSH2 0x15F JUMPI PUSH0 DUP1 REVERT JUMPDEST POP PUSH2 0x168 PUSH2 0x3FA JUMP JUMPDEST PUSH1 0x40 MLOAD PUSH2 0x175 SWAP2 SWAP1 PUSH2 0x4BF JUMP JUMPDEST PUSH1 0x40 MLOAD DUP1 SWAP2 SUB SWAP1 RETURN JUMPDEST PUSH0 PUSH2 0x187 PUSH2 0x1ED JUMP JUMPDEST SWAP1 POP PUSH0 DUP2 CALLVALUE PUSH2 0x196 SWAP2 SWAP1 PUSH2 0x505 JUMP JUMPDEST SWAP1 POP PUSH7 0x6651728988000 DUP2 LT ISZERO PUSH2 0x1E2 JUMPI PUSH1 0x40 MLOAD PUSH32 0x8C379A000000000000000000000000000000000000000000000000000000000 DUP2 MSTORE PUSH1 0x4 ADD PUSH2 0x1D9 SWAP1 PUSH2 0x5A0 JUMP JUMPDEST PUSH1 0x40 MLOAD DUP1 SWAP2 SUB SWAP1 REVERT JUMPDEST POP POP JUMP JUMPDEST PUSH0 SELFBALANCE SWAP1 POP SWAP1 JUMP JUMPDEST PUSH0 DUP1 PUSH0 DUP1 SLOAD SWAP1 PUSH2 0x100 EXP SWAP1 DIV PUSH20 0xFFFFFFFFFFFFFFFFFFFFFFFFFFFFFFFFFFFFFFFF AND PUSH20 0xFFFFFFFFFFFFFFFFFFFFFFFFFFFFFFFFFFFFFFFF AND PUSH4 0xFEAF968C PUSH1 0x40 MLOAD DUP2 PUSH4 0xFFFFFFFF AND PUSH1 0xE0 SHL DUP2 MSTORE PUSH1 0x4 ADD PUSH1 0xA0 PUSH1 0x40 MLOAD DUP1 DUP4 SUB DUP2 DUP7 GAS STATICCALL ISZERO DUP1 ISZERO PUSH2 0x257 JUMPI RETURNDATASIZE PUSH0 DUP1 RETURNDATACOPY RETURNDATASIZE PUSH0 REVERT JUMPDEST POP POP POP POP PUSH1 0x40 MLOAD RETURNDATASIZE PUSH1 0x1F NOT PUSH1 0x1F DUP3 ADD AND DUP3 ADD DUP1 PUSH1 0x40 MSTORE POP DUP2 ADD SWAP1 PUSH2 0x27B SWAP2 SWAP1 PUSH2 0x655 JUMP JUMPDEST POP POP POP SWAP2 POP POP PUSH5 0x2540BE400 DUP2 PUSH2 0x292 SWAP2 SWAP1 PUSH2 0x6CC JUMP JUMPDEST SWAP2 POP POP SWAP1 JUMP JUMPDEST CALLER PUSH20 0xFFFFFFFFFFFFFFFFFFFFFFFFFFFFFFFFFFFFFFFF AND PUSH32 0x0 PUSH20 0xFFFFFFFFFFFFFFFFFFFFFFFFFFFFFFFFFFFFFFFF AND EQ PUSH2 0x31D JUMPI PUSH1 0x40 MLOAD PUSH32 0xEB0C840800000000000000000000000000000000000000000000000000000000 DUP2 MSTORE PUSH1 0x4 ADD PUSH1 0x40 MLOAD DUP1 SWAP2 SUB SWAP1 REVERT JUMPDEST PUSH0 PUSH32 0x0 PUSH20 0xFFFFFFFFFFFFFFFFFFFFFFFFFFFFFFFFFFFFFFFF AND SELFBALANCE PUSH1 0x40 MLOAD PUSH2 0x362 SWAP1 PUSH2 0x76F JUMP JUMPDEST PUSH0 PUSH1 0x40 MLOAD DUP1 DUP4 SUB DUP2 DUP6 DUP8 GAS CALL SWAP3 POP POP POP RETURNDATASIZE DUP1 PUSH0 DUP2 EQ PUSH2 0x39C JUMPI PUSH1 0x40 MLOAD SWAP2 POP PUSH1 0x1F NOT PUSH1 0x3F RETURNDATASIZE ADD AND DUP3 ADD PUSH1 0x40 MSTORE RETURNDATASIZE DUP3 MSTORE RETURNDATASIZE PUSH0 PUSH1 0x20 DUP5 ADD RETURNDATACOPY PUSH2 0x3A1 JUMP JUMPDEST PUSH1 0x60 SWAP2 POP JUMPDEST POP POP SWAP1 POP DUP1 PUSH2 0x3E5 JUMPI PUSH1 0x40 MLOAD PUSH32 0x8C379A000000000000000000000000000000000000000000000000000000000 DUP2 MSTORE PUSH1 0x4 ADD PUSH2 0x3DC SWAP1 PUSH2 0x7CD JUMP JUMPDEST PUSH1 0x40 MLOAD DUP1 SWAP2 SUB SWAP1 REVERT JUMPDEST POP JUMP JUMPDEST PUSH0 ADDRESS SWAP1 POP SWAP1 JUMP JUMPDEST PUSH7 0x6651728988000 DUP2 JUMP JUMPDEST PUSH32 0x0 DUP2 JUMP JUMPDEST PUSH0 DUP2 SWAP1 POP SWAP2 SWAP1 POP JUMP JUMPDEST PUSH2 0x430 DUP2 PUSH2 0x41E JUMP JUMPDEST DUP3 MSTORE POP POP JUMP JUMPDEST PUSH0 PUSH1 0x20 DUP3 ADD SWAP1 POP PUSH2 0x449 PUSH0 DUP4 ADD DUP5 PUSH2 0x427 JUMP JUMPDEST SWAP3 SWAP2 POP POP JUMP JUMPDEST PUSH0 DUP2 SWAP1 POP SWAP2 SWAP1 POP JUMP JUMPDEST PUSH2 0x461 DUP2 PUSH2 0x44F JUMP JUMPDEST DUP3 MSTORE POP POP JUMP JUMPDEST PUSH0 PUSH1 0x20 DUP3 ADD SWAP1 POP PUSH2 0x47A PUSH0 DUP4 ADD DUP5 PUSH2 0x458 JUMP JUMPDEST SWAP3 SWAP2 POP POP JUMP JUMPDEST PUSH0 PUSH20 0xFFFFFFFFFFFFFFFFFFFFFFFFFFFFFFFFFFFFFFFF DUP3 AND SWAP1 POP SWAP2 SWAP1 POP JUMP JUMPDEST PUSH0 PUSH2 0x4A9 DUP3 PUSH2 0x480 JUMP JUMPDEST SWAP1 POP SWAP2 SWAP1 POP JUMP JUMPDEST PUSH2 0x4B9 DUP2 PUSH2 0x49F JUMP JUMPDEST DUP3 MSTORE POP POP JUMP JUMPDEST PUSH0 PUSH1 0x20 DUP3 ADD SWAP1 POP PUSH2 0x4D2 PUSH0 DUP4 ADD DUP5 PUSH2 0x4B0 JUMP JUMPDEST SWAP3 SWAP2 POP POP JUMP JUMPDEST PUSH32 0x4E487B7100000000000000000000000000000000000000000000000000000000 PUSH0 MSTORE PUSH1 0x11 PUSH1 0x4 MSTORE PUSH1 0x24 PUSH0 REVERT JUMPDEST PUSH0 PUSH2 0x50F DUP3 PUSH2 0x41E JUMP JUMPDEST SWAP2 POP PUSH2 0x51A DUP4 PUSH2 0x41E JUMP JUMPDEST SWAP3 POP DUP3 DUP3 MUL PUSH2 0x528 DUP2 PUSH2 0x41E JUMP JUMPDEST SWAP2 POP DUP3 DUP3 DIV DUP5 EQ DUP4 ISZERO OR PUSH2 0x53F JUMPI PUSH2 0x53E PUSH2 0x4D8 JUMP JUMPDEST JUMPDEST POP SWAP3 SWAP2 POP POP JUMP JUMPDEST PUSH0 DUP3 DUP3 MSTORE PUSH1 0x20 DUP3 ADD SWAP1 POP SWAP3 SWAP2 POP POP JUMP JUMPDEST PUSH32 0x48434D5554204E6F204D6F6E6579000000000000000000000000000000000000 PUSH0 DUP3 ADD MSTORE POP JUMP JUMPDEST PUSH0 PUSH2 0x58A PUSH1 0xE DUP4 PUSH2 0x546 JUMP JUMPDEST SWAP2 POP PUSH2 0x595 DUP3 PUSH2 0x556 JUMP JUMPDEST PUSH1 0x20 DUP3 ADD SWAP1 POP SWAP2 SWAP1 POP JUMP JUMPDEST PUSH0 PUSH1 0x20 DUP3 ADD SWAP1 POP DUP2 DUP2 SUB PUSH0 DUP4 ADD MSTORE PUSH2 0x5B7 DUP2 PUSH2 0x57E JUMP JUMPDEST SWAP1 POP SWAP2 SWAP1 POP JUMP JUMPDEST PUSH0 DUP1 REVERT JUMPDEST PUSH0 PUSH10 0xFFFFFFFFFFFFFFFFFFFF DUP3 AND SWAP1 POP SWAP2 SWAP1 POP JUMP JUMPDEST PUSH2 0x5E0 DUP2 PUSH2 0x5C2 JUMP JUMPDEST DUP2 EQ PUSH2 0x5EA JUMPI PUSH0 DUP1 REVERT JUMPDEST POP JUMP JUMPDEST PUSH0 DUP2 MLOAD SWAP1 POP PUSH2 0x5FB DUP2 PUSH2 0x5D7 JUMP JUMPDEST SWAP3 SWAP2 POP POP JUMP JUMPDEST PUSH2 0x60A DUP2 PUSH2 0x44F JUMP JUMPDEST DUP2 EQ PUSH2 0x614 JUMPI PUSH0 DUP1 REVERT JUMPDEST POP JUMP JUMPDEST PUSH0 DUP2 MLOAD SWAP1 POP PUSH2 0x625 DUP2 PUSH2 0x601 JUMP JUMPDEST SWAP3 SWAP2 POP POP JUMP JUMPDEST PUSH2 0x634 DUP2 PUSH2 0x41E JUMP JUMPDEST DUP2 EQ PUSH2 0x63E JUMPI PUSH0 DUP1 REVERT JUMPDEST POP JUMP JUMPDEST PUSH0 DUP2 MLOAD SWAP1 POP PUSH2 0x64F DUP2 PUSH2 0x62B JUMP JUMPDEST SWAP3 SWAP2 POP POP JUMP JUMPDEST PUSH0 DUP1 PUSH0 DUP1 PUSH0 PUSH1 0xA0 DUP7 DUP9 SUB SLT ISZERO PUSH2 0x66E JUMPI PUSH2 0x66D PUSH2 0x5BE JUMP JUMPDEST JUMPDEST PUSH0 PUSH2 0x67B DUP9 DUP3 DUP10 ADD PUSH2 0x5ED JUMP JUMPDEST SWAP6 POP POP PUSH1 0x20 PUSH2 0x68C DUP9 DUP3 DUP10 ADD PUSH2 0x617 JUMP JUMPDEST SWAP5 POP POP PUSH1 0x40 PUSH2 0x69D DUP9 DUP3 DUP10 ADD PUSH2 0x641 JUMP JUMPDEST SWAP4 POP POP PUSH1 0x60 PUSH2 0x6AE DUP9 DUP3 DUP10 ADD PUSH2 0x641 JUMP JUMPDEST SWAP3 POP POP PUSH1 0x80 PUSH2 0x6BF DUP9 DUP3 DUP10 ADD PUSH2 0x5ED JUMP JUMPDEST SWAP2 POP POP SWAP3 SWAP6 POP SWAP3 SWAP6 SWAP1 SWAP4 POP JUMP JUMPDEST PUSH0 PUSH2 0x6D6 DUP3 PUSH2 0x44F JUMP JUMPDEST SWAP2 POP PUSH2 0x6E1 DUP4 PUSH2 0x44F JUMP JUMPDEST SWAP3 POP DUP3 DUP3 MUL PUSH2 0x6EF DUP2 PUSH2 0x44F JUMP JUMPDEST SWAP2 POP PUSH32 0x8000000000000000000000000000000000000000000000000000000000000000 DUP5 EQ PUSH0 DUP5 SLT AND ISZERO PUSH2 0x726 JUMPI PUSH2 0x725 PUSH2 0x4D8 JUMP JUMPDEST JUMPDEST DUP3 DUP3 SDIV DUP5 EQ DUP4 ISZERO OR PUSH2 0x73B JUMPI PUSH2 0x73A PUSH2 0x4D8 JUMP JUMPDEST JUMPDEST POP SWAP3 SWAP2 POP POP JUMP JUMPDEST PUSH0 DUP2 SWAP1 POP SWAP3 SWAP2 POP POP JUMP JUMPDEST POP JUMP JUMPDEST PUSH0 PUSH2 0x75A PUSH0 DUP4 PUSH2 0x742 JUMP JUMPDEST SWAP2 POP PUSH2 0x765 DUP3 PUSH2 0x74C JUMP JUMPDEST PUSH0 DUP3 ADD SWAP1 POP SWAP2 SWAP1 POP JUMP JUMPDEST PUSH0 PUSH2 0x779 DUP3 PUSH2 0x74F JUMP JUMPDEST SWAP2 POP DUP2 SWAP1 POP SWAP2 SWAP1 POP JUMP JUMPDEST PUSH32 0x4661696C656420746F2073656E64204574686572000000000000000000000000 PUSH0 DUP3 ADD MSTORE POP JUMP JUMPDEST PUSH0 PUSH2 0x7B7 PUSH1 0x14 DUP4 PUSH2 0x546 JUMP JUMPDEST SWAP2 POP PUSH2 0x7C2 DUP3 PUSH2 0x783 JUMP JUMPDEST PUSH1 0x20 DUP3 ADD SWAP1 POP SWAP2 SWAP1 POP JUMP JUMPDEST PUSH0 PUSH1 0x20 DUP3 ADD SWAP1 POP DUP2 DUP2 SUB PUSH0 DUP4 ADD MSTORE PUSH2 0x7E4 DUP2 PUSH2 0x7AB JUMP JUMPDEST SWAP1 POP SWAP2 SWAP1 POP JUMP INVALID LOG2 PUSH5 0x6970667358 0x22 SLT KECCAK256 0x21 LOG2 SAR POP PUSH21 0x85D3CBD677D5330739BE681173AECFD3D681D09E62 0xD1 0xBC REVERT MCOPY BLOBBASEFEE 0x24 PUSH5 0x736F6C6343 STOP ADDMOD BYTE STOP CALLER "
				},
				"gasEstimates": {
					"creation": {
						"codeDepositCost": "416200",
						"executionCost": "infinite",
						"totalCost": "infinite"
					},
					"external": {
						"": "infinite",
						"MINIMUM_USD()": "347",
						"fund()": "infinite",
						"getBalance()": "335",
						"getLastestAnswer()": "infinite",
						"getThisContract()": "379",
						"i_owner()": "infinite",
						"withdraw()": "infinite"
					}
				},
				"methodIdentifiers": {
					"MINIMUM_USD()": "6b69a592",
					"fund()": "b60d4288",
					"getBalance()": "12065fe0",
					"getLastestAnswer()": "339a2c4f",
					"getThisContract()": "469e2cec",
					"i_owner()": "dba6335f",
					"withdraw()": "3ccfd60b"
				}
			},
			"storageLayout": {
				"storage": [
					{
						"astId": 60,
						"contract": "bai04/Crowdfunding.sol:Crowdfunding",
						"label": "dataFeed",
						"offset": 0,
						"slot": "0",
						"type": "t_contract(AggregatorV3Interface)45"
					}
				],
				"types": {
					"t_contract(AggregatorV3Interface)45": {
						"encoding": "inplace",
						"label": "contract AggregatorV3Interface",
						"numberOfBytes": "20"
					}
				}
			},
			"userdoc": {
				"kind": "user",
				"methods": {},
				"version": 1
			}
		}
	}
}