{
	"bai03/AddFiveStoage.sol": {
		"AddFiveStorage": {
			"abi": [
				{
					"inputs": [
						{
							"internalType": "uint256",
							"name": "newId",
							"type": "uint256"
						},
						{
							"internalType": "string",
							"name": "newName",
							"type": "string"
						}
					],
					"name": "addPerson",
					"outputs": [],
					"stateMutability": "nonpayable",
					"type": "function"
				},
				{
					"inputs": [],
					"name": "getNumber",
					"outputs": [
						{
							"internalType": "uint256",
							"name": "",
							"type": "uint256"
						}
					],
					"stateMutability": "view",
					"type": "function"
				},
				{
					"inputs": [
						{
							"internalType": "string",
							"name": "",
							"type": "string"
						}
					],
					"name": "nameToId",
					"outputs": [
						{
							"internalType": "uint256",
							"name": "",
							"type": "uint256"
						}
					],
					"stateMutability": "view",
					"type": "function"
				},
				{
					"inputs": [
						{
							"internalType": "uint256",
							"name": "",
							"type": "uint256"
						}
					],
					"name": "peoples",
					"outputs": [
						{
							"internalType": "uint256",
							"name": "id",
							"type": "uint256"
						},
						{
							"internalType": "string",
							"name": "name",
							"type": "string"
						}
					],
					"stateMutability": "view",
					"type": "function"
				},
				{
					"inputs": [
						{
							"internalType": "uint256",
							"name": "newNumber",
							"type": "uint256"
						}
					],
					"name": "store",
					"outputs": [],
					"stateMutability": "nonpayable",
					"type": "function"
				}
			],
			"devdoc": {
				"kind": "dev",
				"methods": {},
				"version": 1
			},
			"evm": {
				"assembly": "    /* \"bai03/AddFiveStoage.sol\":123:265  contract AddFiveStorage is SimpleStorage {... */\n  mstore(0x40, 0x80)\n  callvalue\n  dup1\n  iszero\n  tag_1\n  jumpi\n  0x00\n  dup1\n  revert\ntag_1:\n  pop\n  dataSize(sub_0)\n  dup1\n  dataOffset(sub_0)\n  0x00\n  codecopy\n  0x00\n  return\nstop\n\nsub_0: assembly {\n        /* \"bai03/AddFiveStoage.sol\":123:265  contract AddFiveStorage is SimpleStorage {... */\n      mstore(0x40, 0x80)\n      callvalue\n      dup1\n      iszero\n      tag_1\n      jumpi\n      0x00\n      dup1\n      revert\n    tag_1:\n      pop\n      jumpi(tag_2, lt(calldatasize, 0x04))\n      shr(0xe0, calldataload(0x00))\n      dup1\n      0x1f1094e7\n      eq\n      tag_3\n      jumpi\n      dup1\n      0x6057361d\n      eq\n      tag_4\n      jumpi\n      dup1\n      0xbc832d4e\n      eq\n      tag_5\n      jumpi\n      dup1\n      0xf2c9ecd8\n      eq\n      tag_6\n      jumpi\n      dup1\n      0xf6d8f2cb\n      eq\n      tag_7\n      jumpi\n    tag_2:\n      0x00\n      dup1\n      revert\n        /* \"bai03/SimpleStorage.sol\":189:212  Person[] public peoples */\n    tag_3:\n      tag_8\n      0x04\n      dup1\n      calldatasize\n      sub\n      dup2\n      add\n      swap1\n      tag_9\n      swap2\n      swap1\n      tag_10\n      jump\t// in\n    tag_9:\n      tag_11\n      jump\t// in\n    tag_8:\n      mload(0x40)\n      tag_12\n      swap3\n      swap2\n      swap1\n      tag_13\n      jump\t// in\n    tag_12:\n      mload(0x40)\n      dup1\n      swap2\n      sub\n      swap1\n      return\n        /* \"bai03/AddFiveStoage.sol\":171:262  function store(uint256 newNumber) public override {... */\n    tag_4:\n      tag_14\n      0x04\n      dup1\n      calldatasize\n      sub\n      dup2\n      add\n      swap1\n      tag_15\n      swap2\n      swap1\n      tag_10\n      jump\t// in\n    tag_15:\n      tag_16\n      jump\t// in\n    tag_14:\n      stop\n        /* \"bai03/SimpleStorage.sol\":362:481  function addPerson(uint256 newId, string memory newName) public {... */\n    tag_5:\n      tag_17\n      0x04\n      dup1\n      calldatasize\n      sub\n      dup2\n      add\n      swap1\n      tag_18\n      swap2\n      swap1\n      tag_19\n      jump\t// in\n    tag_18:\n      tag_20\n      jump\t// in\n    tag_17:\n      stop\n        /* \"bai03/SimpleStorage.sol\":487:566  function getNumber() public view returns(uint) {... */\n    tag_6:\n      tag_21\n      tag_22\n      jump\t// in\n    tag_21:\n      mload(0x40)\n      tag_23\n      swap2\n      swap1\n      tag_24\n      jump\t// in\n    tag_23:\n      mload(0x40)\n      dup1\n      swap2\n      sub\n      swap1\n      return\n        /* \"bai03/SimpleStorage.sol\":219:261  mapping(string => uint256) public nameToId */\n    tag_7:\n      tag_25\n      0x04\n      dup1\n      calldatasize\n      sub\n      dup2\n      add\n      swap1\n      tag_26\n      swap2\n      swap1\n      tag_27\n      jump\t// in\n    tag_26:\n      tag_28\n      jump\t// in\n    tag_25:\n      mload(0x40)\n      tag_29\n      swap2\n      swap1\n      tag_24\n      jump\t// in\n    tag_29:\n      mload(0x40)\n      dup1\n      swap2\n      sub\n      swap1\n      return\n        /* \"bai03/SimpleStorage.sol\":189:212  Person[] public peoples */\n    tag_11:\n      0x01\n      dup2\n      dup2\n      sload\n      dup2\n      lt\n      tag_30\n      jumpi\n      0x00\n      dup1\n      revert\n    tag_30:\n      swap1\n      0x00\n      mstore\n      keccak256(0x00, 0x20)\n      swap1\n      0x02\n      mul\n      add\n      0x00\n      swap2\n      pop\n      swap1\n      pop\n      dup1\n      0x00\n      add\n      sload\n      swap1\n      dup1\n      0x01\n      add\n      dup1\n      sload\n      tag_32\n      swap1\n      tag_33\n      jump\t// in\n    tag_32:\n      dup1\n      0x1f\n      add\n      0x20\n      dup1\n      swap2\n      div\n      mul\n      0x20\n      add\n      mload(0x40)\n      swap1\n      dup2\n      add\n      0x40\n      mstore\n      dup1\n      swap3\n      swap2\n      swap1\n      dup2\n      dup2\n      mstore\n      0x20\n      add\n      dup3\n      dup1\n      sload\n      tag_34\n      swap1\n      tag_33\n      jump\t// in\n    tag_34:\n      dup1\n      iszero\n      tag_35\n      jumpi\n      dup1\n      0x1f\n      lt\n      tag_36\n      jumpi\n      0x0100\n      dup1\n      dup4\n      sload\n      div\n      mul\n      dup4\n      mstore\n      swap2\n      0x20\n      add\n      swap2\n      jump(tag_35)\n    tag_36:\n      dup3\n      add\n      swap2\n      swap1\n      0x00\n      mstore\n      keccak256(0x00, 0x20)\n      swap1\n    tag_37:\n      dup2\n      sload\n      dup2\n      mstore\n      swap1\n      0x01\n      add\n      swap1\n      0x20\n      add\n      dup1\n      dup4\n      gt\n      tag_37\n      jumpi\n      dup3\n      swap1\n      sub\n      0x1f\n      and\n      dup3\n      add\n      swap2\n    tag_35:\n      pop\n      pop\n      pop\n      pop\n      pop\n      swap1\n      pop\n      dup3\n      jump\t// out\n        /* \"bai03/AddFiveStoage.sol\":171:262  function store(uint256 newNumber) public override {... */\n    tag_16:\n        /* \"bai03/AddFiveStoage.sol\":253:254  5 */\n      0x05\n        /* \"bai03/AddFiveStoage.sol\":241:250  newNumber */\n      dup2\n        /* \"bai03/AddFiveStoage.sol\":241:254  newNumber + 5 */\n      tag_39\n      swap2\n      swap1\n      tag_40\n      jump\t// in\n    tag_39:\n        /* \"bai03/AddFiveStoage.sol\":232:238  number */\n      0x00\n        /* \"bai03/AddFiveStoage.sol\":232:254  number = newNumber + 5 */\n      dup2\n      swap1\n      sstore\n      pop\n        /* \"bai03/AddFiveStoage.sol\":171:262  function store(uint256 newNumber) public override {... */\n      pop\n      jump\t// out\n        /* \"bai03/SimpleStorage.sol\":362:481  function addPerson(uint256 newId, string memory newName) public {... */\n    tag_20:\n        /* \"bai03/SimpleStorage.sol\":437:444  peoples */\n      0x01\n        /* \"bai03/SimpleStorage.sol\":450:472  Person(newId, newName) */\n      mload(0x40)\n      dup1\n      0x40\n      add\n      0x40\n      mstore\n      dup1\n        /* \"bai03/SimpleStorage.sol\":457:462  newId */\n      dup5\n        /* \"bai03/SimpleStorage.sol\":450:472  Person(newId, newName) */\n      dup2\n      mstore\n      0x20\n      add\n        /* \"bai03/SimpleStorage.sol\":464:471  newName */\n      dup4\n        /* \"bai03/SimpleStorage.sol\":450:472  Person(newId, newName) */\n      dup2\n      mstore\n      pop\n        /* \"bai03/SimpleStorage.sol\":437:473  peoples.push(Person(newId, newName)) */\n      swap1\n      dup1\n      0x01\n      dup2\n      sload\n      add\n      dup1\n      dup3\n      sstore\n      dup1\n      swap2\n      pop\n      pop\n      0x01\n      swap1\n      sub\n      swap1\n      0x00\n      mstore\n      keccak256(0x00, 0x20)\n      swap1\n      0x02\n      mul\n      add\n      0x00\n      swap1\n      swap2\n      swap1\n      swap2\n      swap1\n      swap2\n      pop\n      0x00\n      dup3\n      add\n      mload\n      dup2\n      0x00\n      add\n      sstore\n      0x20\n      dup3\n      add\n      mload\n      dup2\n      0x01\n      add\n      swap1\n      dup2\n      tag_43\n      swap2\n      swap1\n      tag_44\n      jump\t// in\n    tag_43:\n      pop\n      pop\n      pop\n        /* \"bai03/SimpleStorage.sol\":362:481  function addPerson(uint256 newId, string memory newName) public {... */\n      pop\n      pop\n      jump\t// out\n        /* \"bai03/SimpleStorage.sol\":487:566  function getNumber() public view returns(uint) {... */\n    tag_22:\n        /* \"bai03/SimpleStorage.sol\":528:532  uint */\n      0x00\n        /* \"bai03/SimpleStorage.sol\":552:558  number */\n      dup1\n      sload\n        /* \"bai03/SimpleStorage.sol\":545:558  return number */\n      swap1\n      pop\n        /* \"bai03/SimpleStorage.sol\":487:566  function getNumber() public view returns(uint) {... */\n      swap1\n      jump\t// out\n        /* \"bai03/SimpleStorage.sol\":219:261  mapping(string => uint256) public nameToId */\n    tag_28:\n      0x02\n      dup2\n      dup1\n      mload\n      0x20\n      dup2\n      add\n      dup3\n      add\n      dup1\n      mload\n      dup5\n      dup3\n      mstore\n      0x20\n      dup4\n      add\n      0x20\n      dup6\n      add\n      keccak256\n      dup2\n      dup4\n      mstore\n      dup1\n      swap6\n      pop\n      pop\n      pop\n      pop\n      pop\n      pop\n      0x00\n      swap2\n      pop\n      swap1\n      pop\n      sload\n      dup2\n      jump\t// out\n        /* \"#utility.yul\":7:82   */\n    tag_46:\n        /* \"#utility.yul\":40:46   */\n      0x00\n        /* \"#utility.yul\":73:75   */\n      0x40\n        /* \"#utility.yul\":67:76   */\n      mload\n        /* \"#utility.yul\":57:76   */\n      swap1\n      pop\n        /* \"#utility.yul\":7:82   */\n      swap1\n      jump\t// out\n        /* \"#utility.yul\":88:205   */\n    tag_47:\n        /* \"#utility.yul\":197:198   */\n      0x00\n        /* \"#utility.yul\":194:195   */\n      dup1\n        /* \"#utility.yul\":187:199   */\n      revert\n        /* \"#utility.yul\":211:328   */\n    tag_48:\n        /* \"#utility.yul\":320:321   */\n      0x00\n        /* \"#utility.yul\":317:318   */\n      dup1\n        /* \"#utility.yul\":310:322   */\n      revert\n        /* \"#utility.yul\":334:411   */\n    tag_49:\n        /* \"#utility.yul\":371:378   */\n      0x00\n        /* \"#utility.yul\":400:405   */\n      dup2\n        /* \"#utility.yul\":389:405   */\n      swap1\n      pop\n        /* \"#utility.yul\":334:411   */\n      swap2\n      swap1\n      pop\n      jump\t// out\n        /* \"#utility.yul\":417:539   */\n    tag_50:\n        /* \"#utility.yul\":490:514   */\n      tag_90\n        /* \"#utility.yul\":508:513   */\n      dup2\n        /* \"#utility.yul\":490:514   */\n      tag_49\n      jump\t// in\n    tag_90:\n        /* \"#utility.yul\":483:488   */\n      dup2\n        /* \"#utility.yul\":480:515   */\n      eq\n        /* \"#utility.yul\":470:533   */\n      tag_91\n      jumpi\n        /* \"#utility.yul\":529:530   */\n      0x00\n        /* \"#utility.yul\":526:527   */\n      dup1\n        /* \"#utility.yul\":519:531   */\n      revert\n        /* \"#utility.yul\":470:533   */\n    tag_91:\n        /* \"#utility.yul\":417:539   */\n      pop\n      jump\t// out\n        /* \"#utility.yul\":545:684   */\n    tag_51:\n        /* \"#utility.yul\":591:596   */\n      0x00\n        /* \"#utility.yul\":629:635   */\n      dup2\n        /* \"#utility.yul\":616:636   */\n      calldataload\n        /* \"#utility.yul\":607:636   */\n      swap1\n      pop\n        /* \"#utility.yul\":645:678   */\n      tag_93\n        /* \"#utility.yul\":672:677   */\n      dup2\n        /* \"#utility.yul\":645:678   */\n      tag_50\n      jump\t// in\n    tag_93:\n        /* \"#utility.yul\":545:684   */\n      swap3\n      swap2\n      pop\n      pop\n      jump\t// out\n        /* \"#utility.yul\":690:1019   */\n    tag_10:\n        /* \"#utility.yul\":749:755   */\n      0x00\n        /* \"#utility.yul\":798:800   */\n      0x20\n        /* \"#utility.yul\":786:795   */\n      dup3\n        /* \"#utility.yul\":777:784   */\n      dup5\n        /* \"#utility.yul\":773:796   */\n      sub\n        /* \"#utility.yul\":769:801   */\n      slt\n        /* \"#utility.yul\":766:885   */\n      iszero\n      tag_95\n      jumpi\n        /* \"#utility.yul\":804:883   */\n      tag_96\n      tag_47\n      jump\t// in\n    tag_96:\n        /* \"#utility.yul\":766:885   */\n    tag_95:\n        /* \"#utility.yul\":924:925   */\n      0x00\n        /* \"#utility.yul\":949:1002   */\n      tag_97\n        /* \"#utility.yul\":994:1001   */\n      dup5\n        /* \"#utility.yul\":985:991   */\n      dup3\n        /* \"#utility.yul\":974:983   */\n      dup6\n        /* \"#utility.yul\":970:992   */\n      add\n        /* \"#utility.yul\":949:1002   */\n      tag_51\n      jump\t// in\n    tag_97:\n        /* \"#utility.yul\":939:1002   */\n      swap2\n      pop\n        /* \"#utility.yul\":895:1012   */\n      pop\n        /* \"#utility.yul\":690:1019   */\n      swap3\n      swap2\n      pop\n      pop\n      jump\t// out\n        /* \"#utility.yul\":1025:1143   */\n    tag_52:\n        /* \"#utility.yul\":1112:1136   */\n      tag_99\n        /* \"#utility.yul\":1130:1135   */\n      dup2\n        /* \"#utility.yul\":1112:1136   */\n      tag_49\n      jump\t// in\n    tag_99:\n        /* \"#utility.yul\":1107:1110   */\n      dup3\n        /* \"#utility.yul\":1100:1137   */\n      mstore\n        /* \"#utility.yul\":1025:1143   */\n      pop\n      pop\n      jump\t// out\n        /* \"#utility.yul\":1149:1248   */\n    tag_53:\n        /* \"#utility.yul\":1201:1207   */\n      0x00\n        /* \"#utility.yul\":1235:1240   */\n      dup2\n        /* \"#utility.yul\":1229:1241   */\n      mload\n        /* \"#utility.yul\":1219:1241   */\n      swap1\n      pop\n        /* \"#utility.yul\":1149:1248   */\n      swap2\n      swap1\n      pop\n      jump\t// out\n        /* \"#utility.yul\":1254:1423   */\n    tag_54:\n        /* \"#utility.yul\":1338:1349   */\n      0x00\n        /* \"#utility.yul\":1372:1378   */\n      dup3\n        /* \"#utility.yul\":1367:1370   */\n      dup3\n        /* \"#utility.yul\":1360:1379   */\n      mstore\n        /* \"#utility.yul\":1412:1416   */\n      0x20\n        /* \"#utility.yul\":1407:1410   */\n      dup3\n        /* \"#utility.yul\":1403:1417   */\n      add\n        /* \"#utility.yul\":1388:1417   */\n      swap1\n      pop\n        /* \"#utility.yul\":1254:1423   */\n      swap3\n      swap2\n      pop\n      pop\n      jump\t// out\n        /* \"#utility.yul\":1429:1568   */\n    tag_55:\n        /* \"#utility.yul\":1518:1524   */\n      dup3\n        /* \"#utility.yul\":1513:1516   */\n      dup2\n        /* \"#utility.yul\":1508:1511   */\n      dup4\n        /* \"#utility.yul\":1502:1525   */\n      mcopy\n        /* \"#utility.yul\":1559:1560   */\n      0x00\n        /* \"#utility.yul\":1550:1556   */\n      dup4\n        /* \"#utility.yul\":1545:1548   */\n      dup4\n        /* \"#utility.yul\":1541:1557   */\n      add\n        /* \"#utility.yul\":1534:1561   */\n      mstore\n        /* \"#utility.yul\":1429:1568   */\n      pop\n      pop\n      pop\n      jump\t// out\n        /* \"#utility.yul\":1574:1676   */\n    tag_56:\n        /* \"#utility.yul\":1615:1621   */\n      0x00\n        /* \"#utility.yul\":1666:1668   */\n      0x1f\n        /* \"#utility.yul\":1662:1669   */\n      not\n        /* \"#utility.yul\":1657:1659   */\n      0x1f\n        /* \"#utility.yul\":1650:1655   */\n      dup4\n        /* \"#utility.yul\":1646:1660   */\n      add\n        /* \"#utility.yul\":1642:1670   */\n      and\n        /* \"#utility.yul\":1632:1670   */\n      swap1\n      pop\n        /* \"#utility.yul\":1574:1676   */\n      swap2\n      swap1\n      pop\n      jump\t// out\n        /* \"#utility.yul\":1682:2059   */\n    tag_57:\n        /* \"#utility.yul\":1770:1773   */\n      0x00\n        /* \"#utility.yul\":1798:1837   */\n      tag_105\n        /* \"#utility.yul\":1831:1836   */\n      dup3\n        /* \"#utility.yul\":1798:1837   */\n      tag_53\n      jump\t// in\n    tag_105:\n        /* \"#utility.yul\":1853:1924   */\n      tag_106\n        /* \"#utility.yul\":1917:1923   */\n      dup2\n        /* \"#utility.yul\":1912:1915   */\n      dup6\n        /* \"#utility.yul\":1853:1924   */\n      tag_54\n      jump\t// in\n    tag_106:\n        /* \"#utility.yul\":1846:1924   */\n      swap4\n      pop\n        /* \"#utility.yul\":1933:1998   */\n      tag_107\n        /* \"#utility.yul\":1991:1997   */\n      dup2\n        /* \"#utility.yul\":1986:1989   */\n      dup6\n        /* \"#utility.yul\":1979:1983   */\n      0x20\n        /* \"#utility.yul\":1972:1977   */\n      dup7\n        /* \"#utility.yul\":1968:1984   */\n      add\n        /* \"#utility.yul\":1933:1998   */\n      tag_55\n      jump\t// in\n    tag_107:\n        /* \"#utility.yul\":2023:2052   */\n      tag_108\n        /* \"#utility.yul\":2045:2051   */\n      dup2\n        /* \"#utility.yul\":2023:2052   */\n      tag_56\n      jump\t// in\n    tag_108:\n        /* \"#utility.yul\":2018:2021   */\n      dup5\n        /* \"#utility.yul\":2014:2053   */\n      add\n        /* \"#utility.yul\":2007:2053   */\n      swap2\n      pop\n        /* \"#utility.yul\":1774:2059   */\n      pop\n        /* \"#utility.yul\":1682:2059   */\n      swap3\n      swap2\n      pop\n      pop\n      jump\t// out\n        /* \"#utility.yul\":2065:2488   */\n    tag_13:\n        /* \"#utility.yul\":2206:2210   */\n      0x00\n        /* \"#utility.yul\":2244:2246   */\n      0x40\n        /* \"#utility.yul\":2233:2242   */\n      dup3\n        /* \"#utility.yul\":2229:2247   */\n      add\n        /* \"#utility.yul\":2221:2247   */\n      swap1\n      pop\n        /* \"#utility.yul\":2257:2328   */\n      tag_110\n        /* \"#utility.yul\":2325:2326   */\n      0x00\n        /* \"#utility.yul\":2314:2323   */\n      dup4\n        /* \"#utility.yul\":2310:2327   */\n      add\n        /* \"#utility.yul\":2301:2307   */\n      dup6\n        /* \"#utility.yul\":2257:2328   */\n      tag_52\n      jump\t// in\n    tag_110:\n        /* \"#utility.yul\":2375:2384   */\n      dup2\n        /* \"#utility.yul\":2369:2373   */\n      dup2\n        /* \"#utility.yul\":2365:2385   */\n      sub\n        /* \"#utility.yul\":2360:2362   */\n      0x20\n        /* \"#utility.yul\":2349:2358   */\n      dup4\n        /* \"#utility.yul\":2345:2363   */\n      add\n        /* \"#utility.yul\":2338:2386   */\n      mstore\n        /* \"#utility.yul\":2403:2481   */\n      tag_111\n        /* \"#utility.yul\":2476:2480   */\n      dup2\n        /* \"#utility.yul\":2467:2473   */\n      dup5\n        /* \"#utility.yul\":2403:2481   */\n      tag_57\n      jump\t// in\n    tag_111:\n        /* \"#utility.yul\":2395:2481   */\n      swap1\n      pop\n        /* \"#utility.yul\":2065:2488   */\n      swap4\n      swap3\n      pop\n      pop\n      pop\n      jump\t// out\n        /* \"#utility.yul\":2494:2611   */\n    tag_58:\n        /* \"#utility.yul\":2603:2604   */\n      0x00\n        /* \"#utility.yul\":2600:2601   */\n      dup1\n        /* \"#utility.yul\":2593:2605   */\n      revert\n        /* \"#utility.yul\":2617:2734   */\n    tag_59:\n        /* \"#utility.yul\":2726:2727   */\n      0x00\n        /* \"#utility.yul\":2723:2724   */\n      dup1\n        /* \"#utility.yul\":2716:2728   */\n      revert\n        /* \"#utility.yul\":2740:2920   */\n    tag_60:\n        /* \"#utility.yul\":2788:2865   */\n      0x4e487b7100000000000000000000000000000000000000000000000000000000\n        /* \"#utility.yul\":2785:2786   */\n      0x00\n        /* \"#utility.yul\":2778:2866   */\n      mstore\n        /* \"#utility.yul\":2885:2889   */\n      0x41\n        /* \"#utility.yul\":2882:2883   */\n      0x04\n        /* \"#utility.yul\":2875:2890   */\n      mstore\n        /* \"#utility.yul\":2909:2913   */\n      0x24\n        /* \"#utility.yul\":2906:2907   */\n      0x00\n        /* \"#utility.yul\":2899:2914   */\n      revert\n        /* \"#utility.yul\":2926:3207   */\n    tag_61:\n        /* \"#utility.yul\":3009:3036   */\n      tag_116\n        /* \"#utility.yul\":3031:3035   */\n      dup3\n        /* \"#utility.yul\":3009:3036   */\n      tag_56\n      jump\t// in\n    tag_116:\n        /* \"#utility.yul\":3001:3007   */\n      dup2\n        /* \"#utility.yul\":2997:3037   */\n      add\n        /* \"#utility.yul\":3139:3145   */\n      dup2\n        /* \"#utility.yul\":3127:3137   */\n      dup2\n        /* \"#utility.yul\":3124:3146   */\n      lt\n        /* \"#utility.yul\":3103:3121   */\n      0xffffffffffffffff\n        /* \"#utility.yul\":3091:3101   */\n      dup3\n        /* \"#utility.yul\":3088:3122   */\n      gt\n        /* \"#utility.yul\":3085:3147   */\n      or\n        /* \"#utility.yul\":3082:3170   */\n      iszero\n      tag_117\n      jumpi\n        /* \"#utility.yul\":3150:3168   */\n      tag_118\n      tag_60\n      jump\t// in\n    tag_118:\n        /* \"#utility.yul\":3082:3170   */\n    tag_117:\n        /* \"#utility.yul\":3190:3200   */\n      dup1\n        /* \"#utility.yul\":3186:3188   */\n      0x40\n        /* \"#utility.yul\":3179:3201   */\n      mstore\n        /* \"#utility.yul\":2969:3207   */\n      pop\n        /* \"#utility.yul\":2926:3207   */\n      pop\n      pop\n      jump\t// out\n        /* \"#utility.yul\":3213:3342   */\n    tag_62:\n        /* \"#utility.yul\":3247:3253   */\n      0x00\n        /* \"#utility.yul\":3274:3294   */\n      tag_120\n      tag_46\n      jump\t// in\n    tag_120:\n        /* \"#utility.yul\":3264:3294   */\n      swap1\n      pop\n        /* \"#utility.yul\":3303:3336   */\n      tag_121\n        /* \"#utility.yul\":3331:3335   */\n      dup3\n        /* \"#utility.yul\":3323:3329   */\n      dup3\n        /* \"#utility.yul\":3303:3336   */\n      tag_61\n      jump\t// in\n    tag_121:\n        /* \"#utility.yul\":3213:3342   */\n      swap2\n      swap1\n      pop\n      jump\t// out\n        /* \"#utility.yul\":3348:3656   */\n    tag_63:\n        /* \"#utility.yul\":3410:3414   */\n      0x00\n        /* \"#utility.yul\":3500:3518   */\n      0xffffffffffffffff\n        /* \"#utility.yul\":3492:3498   */\n      dup3\n        /* \"#utility.yul\":3489:3519   */\n      gt\n        /* \"#utility.yul\":3486:3542   */\n      iszero\n      tag_123\n      jumpi\n        /* \"#utility.yul\":3522:3540   */\n      tag_124\n      tag_60\n      jump\t// in\n    tag_124:\n        /* \"#utility.yul\":3486:3542   */\n    tag_123:\n        /* \"#utility.yul\":3560:3589   */\n      tag_125\n        /* \"#utility.yul\":3582:3588   */\n      dup3\n        /* \"#utility.yul\":3560:3589   */\n      tag_56\n      jump\t// in\n    tag_125:\n        /* \"#utility.yul\":3552:3589   */\n      swap1\n      pop\n        /* \"#utility.yul\":3644:3648   */\n      0x20\n        /* \"#utility.yul\":3638:3642   */\n      dup2\n        /* \"#utility.yul\":3634:3649   */\n      add\n        /* \"#utility.yul\":3626:3649   */\n      swap1\n      pop\n        /* \"#utility.yul\":3348:3656   */\n      swap2\n      swap1\n      pop\n      jump\t// out\n        /* \"#utility.yul\":3662:3810   */\n    tag_64:\n        /* \"#utility.yul\":3760:3766   */\n      dup3\n        /* \"#utility.yul\":3755:3758   */\n      dup2\n        /* \"#utility.yul\":3750:3753   */\n      dup4\n        /* \"#utility.yul\":3737:3767   */\n      calldatacopy\n        /* \"#utility.yul\":3801:3802   */\n      0x00\n        /* \"#utility.yul\":3792:3798   */\n      dup4\n        /* \"#utility.yul\":3787:3790   */\n      dup4\n        /* \"#utility.yul\":3783:3799   */\n      add\n        /* \"#utility.yul\":3776:3803   */\n      mstore\n        /* \"#utility.yul\":3662:3810   */\n      pop\n      pop\n      pop\n      jump\t// out\n        /* \"#utility.yul\":3816:4241   */\n    tag_65:\n        /* \"#utility.yul\":3894:3899   */\n      0x00\n        /* \"#utility.yul\":3919:3985   */\n      tag_128\n        /* \"#utility.yul\":3935:3984   */\n      tag_129\n        /* \"#utility.yul\":3977:3983   */\n      dup5\n        /* \"#utility.yul\":3935:3984   */\n      tag_63\n      jump\t// in\n    tag_129:\n        /* \"#utility.yul\":3919:3985   */\n      tag_62\n      jump\t// in\n    tag_128:\n        /* \"#utility.yul\":3910:3985   */\n      swap1\n      pop\n        /* \"#utility.yul\":4008:4014   */\n      dup3\n        /* \"#utility.yul\":4001:4006   */\n      dup2\n        /* \"#utility.yul\":3994:4015   */\n      mstore\n        /* \"#utility.yul\":4046:4050   */\n      0x20\n        /* \"#utility.yul\":4039:4044   */\n      dup2\n        /* \"#utility.yul\":4035:4051   */\n      add\n        /* \"#utility.yul\":4084:4087   */\n      dup5\n        /* \"#utility.yul\":4075:4081   */\n      dup5\n        /* \"#utility.yul\":4070:4073   */\n      dup5\n        /* \"#utility.yul\":4066:4082   */\n      add\n        /* \"#utility.yul\":4063:4088   */\n      gt\n        /* \"#utility.yul\":4060:4172   */\n      iszero\n      tag_130\n      jumpi\n        /* \"#utility.yul\":4091:4170   */\n      tag_131\n      tag_59\n      jump\t// in\n    tag_131:\n        /* \"#utility.yul\":4060:4172   */\n    tag_130:\n        /* \"#utility.yul\":4181:4235   */\n      tag_132\n        /* \"#utility.yul\":4228:4234   */\n      dup5\n        /* \"#utility.yul\":4223:4226   */\n      dup3\n        /* \"#utility.yul\":4218:4221   */\n      dup6\n        /* \"#utility.yul\":4181:4235   */\n      tag_64\n      jump\t// in\n    tag_132:\n        /* \"#utility.yul\":3900:4241   */\n      pop\n        /* \"#utility.yul\":3816:4241   */\n      swap4\n      swap3\n      pop\n      pop\n      pop\n      jump\t// out\n        /* \"#utility.yul\":4261:4601   */\n    tag_66:\n        /* \"#utility.yul\":4317:4322   */\n      0x00\n        /* \"#utility.yul\":4366:4369   */\n      dup3\n        /* \"#utility.yul\":4359:4363   */\n      0x1f\n        /* \"#utility.yul\":4351:4357   */\n      dup4\n        /* \"#utility.yul\":4347:4364   */\n      add\n        /* \"#utility.yul\":4343:4370   */\n      slt\n        /* \"#utility.yul\":4333:4455   */\n      tag_134\n      jumpi\n        /* \"#utility.yul\":4374:4453   */\n      tag_135\n      tag_58\n      jump\t// in\n    tag_135:\n        /* \"#utility.yul\":4333:4455   */\n    tag_134:\n        /* \"#utility.yul\":4491:4497   */\n      dup2\n        /* \"#utility.yul\":4478:4498   */\n      calldataload\n        /* \"#utility.yul\":4516:4595   */\n      tag_136\n        /* \"#utility.yul\":4591:4594   */\n      dup5\n        /* \"#utility.yul\":4583:4589   */\n      dup3\n        /* \"#utility.yul\":4576:4580   */\n      0x20\n        /* \"#utility.yul\":4568:4574   */\n      dup7\n        /* \"#utility.yul\":4564:4581   */\n      add\n        /* \"#utility.yul\":4516:4595   */\n      tag_65\n      jump\t// in\n    tag_136:\n        /* \"#utility.yul\":4507:4595   */\n      swap2\n      pop\n        /* \"#utility.yul\":4323:4601   */\n      pop\n        /* \"#utility.yul\":4261:4601   */\n      swap3\n      swap2\n      pop\n      pop\n      jump\t// out\n        /* \"#utility.yul\":4607:5261   */\n    tag_19:\n        /* \"#utility.yul\":4685:4691   */\n      0x00\n        /* \"#utility.yul\":4693:4699   */\n      dup1\n        /* \"#utility.yul\":4742:4744   */\n      0x40\n        /* \"#utility.yul\":4730:4739   */\n      dup4\n        /* \"#utility.yul\":4721:4728   */\n      dup6\n        /* \"#utility.yul\":4717:4740   */\n      sub\n        /* \"#utility.yul\":4713:4745   */\n      slt\n        /* \"#utility.yul\":4710:4829   */\n      iszero\n      tag_138\n      jumpi\n        /* \"#utility.yul\":4748:4827   */\n      tag_139\n      tag_47\n      jump\t// in\n    tag_139:\n        /* \"#utility.yul\":4710:4829   */\n    tag_138:\n        /* \"#utility.yul\":4868:4869   */\n      0x00\n        /* \"#utility.yul\":4893:4946   */\n      tag_140\n        /* \"#utility.yul\":4938:4945   */\n      dup6\n        /* \"#utility.yul\":4929:4935   */\n      dup3\n        /* \"#utility.yul\":4918:4927   */\n      dup7\n        /* \"#utility.yul\":4914:4936   */\n      add\n        /* \"#utility.yul\":4893:4946   */\n      tag_51\n      jump\t// in\n    tag_140:\n        /* \"#utility.yul\":4883:4946   */\n      swap3\n      pop\n        /* \"#utility.yul\":4839:4956   */\n      pop\n        /* \"#utility.yul\":5023:5025   */\n      0x20\n        /* \"#utility.yul\":5012:5021   */\n      dup4\n        /* \"#utility.yul\":5008:5026   */\n      add\n        /* \"#utility.yul\":4995:5027   */\n      calldataload\n        /* \"#utility.yul\":5054:5072   */\n      0xffffffffffffffff\n        /* \"#utility.yul\":5046:5052   */\n      dup2\n        /* \"#utility.yul\":5043:5073   */\n      gt\n        /* \"#utility.yul\":5040:5157   */\n      iszero\n      tag_141\n      jumpi\n        /* \"#utility.yul\":5076:5155   */\n      tag_142\n      tag_48\n      jump\t// in\n    tag_142:\n        /* \"#utility.yul\":5040:5157   */\n    tag_141:\n        /* \"#utility.yul\":5181:5244   */\n      tag_143\n        /* \"#utility.yul\":5236:5243   */\n      dup6\n        /* \"#utility.yul\":5227:5233   */\n      dup3\n        /* \"#utility.yul\":5216:5225   */\n      dup7\n        /* \"#utility.yul\":5212:5234   */\n      add\n        /* \"#utility.yul\":5181:5244   */\n      tag_66\n      jump\t// in\n    tag_143:\n        /* \"#utility.yul\":5171:5244   */\n      swap2\n      pop\n        /* \"#utility.yul\":4966:5254   */\n      pop\n        /* \"#utility.yul\":4607:5261   */\n      swap3\n      pop\n      swap3\n      swap1\n      pop\n      jump\t// out\n        /* \"#utility.yul\":5267:5489   */\n    tag_24:\n        /* \"#utility.yul\":5360:5364   */\n      0x00\n        /* \"#utility.yul\":5398:5400   */\n      0x20\n        /* \"#utility.yul\":5387:5396   */\n      dup3\n        /* \"#utility.yul\":5383:5401   */\n      add\n        /* \"#utility.yul\":5375:5401   */\n      swap1\n      pop\n        /* \"#utility.yul\":5411:5482   */\n      tag_145\n        /* \"#utility.yul\":5479:5480   */\n      0x00\n        /* \"#utility.yul\":5468:5477   */\n      dup4\n        /* \"#utility.yul\":5464:5481   */\n      add\n        /* \"#utility.yul\":5455:5461   */\n      dup5\n        /* \"#utility.yul\":5411:5482   */\n      tag_52\n      jump\t// in\n    tag_145:\n        /* \"#utility.yul\":5267:5489   */\n      swap3\n      swap2\n      pop\n      pop\n      jump\t// out\n        /* \"#utility.yul\":5495:6004   */\n    tag_27:\n        /* \"#utility.yul\":5564:5570   */\n      0x00\n        /* \"#utility.yul\":5613:5615   */\n      0x20\n        /* \"#utility.yul\":5601:5610   */\n      dup3\n        /* \"#utility.yul\":5592:5599   */\n      dup5\n        /* \"#utility.yul\":5588:5611   */\n      sub\n        /* \"#utility.yul\":5584:5616   */\n      slt\n        /* \"#utility.yul\":5581:5700   */\n      iszero\n      tag_147\n      jumpi\n        /* \"#utility.yul\":5619:5698   */\n      tag_148\n      tag_47\n      jump\t// in\n    tag_148:\n        /* \"#utility.yul\":5581:5700   */\n    tag_147:\n        /* \"#utility.yul\":5767:5768   */\n      0x00\n        /* \"#utility.yul\":5756:5765   */\n      dup3\n        /* \"#utility.yul\":5752:5769   */\n      add\n        /* \"#utility.yul\":5739:5770   */\n      calldataload\n        /* \"#utility.yul\":5797:5815   */\n      0xffffffffffffffff\n        /* \"#utility.yul\":5789:5795   */\n      dup2\n        /* \"#utility.yul\":5786:5816   */\n      gt\n        /* \"#utility.yul\":5783:5900   */\n      iszero\n      tag_149\n      jumpi\n        /* \"#utility.yul\":5819:5898   */\n      tag_150\n      tag_48\n      jump\t// in\n    tag_150:\n        /* \"#utility.yul\":5783:5900   */\n    tag_149:\n        /* \"#utility.yul\":5924:5987   */\n      tag_151\n        /* \"#utility.yul\":5979:5986   */\n      dup5\n        /* \"#utility.yul\":5970:5976   */\n      dup3\n        /* \"#utility.yul\":5959:5968   */\n      dup6\n        /* \"#utility.yul\":5955:5977   */\n      add\n        /* \"#utility.yul\":5924:5987   */\n      tag_66\n      jump\t// in\n    tag_151:\n        /* \"#utility.yul\":5914:5987   */\n      swap2\n      pop\n        /* \"#utility.yul\":5710:5997   */\n      pop\n        /* \"#utility.yul\":5495:6004   */\n      swap3\n      swap2\n      pop\n      pop\n      jump\t// out\n        /* \"#utility.yul\":6010:6190   */\n    tag_67:\n        /* \"#utility.yul\":6058:6135   */\n      0x4e487b7100000000000000000000000000000000000000000000000000000000\n        /* \"#utility.yul\":6055:6056   */\n      0x00\n        /* \"#utility.yul\":6048:6136   */\n      mstore\n        /* \"#utility.yul\":6155:6159   */\n      0x22\n        /* \"#utility.yul\":6152:6153   */\n      0x04\n        /* \"#utility.yul\":6145:6160   */\n      mstore\n        /* \"#utility.yul\":6179:6183   */\n      0x24\n        /* \"#utility.yul\":6176:6177   */\n      0x00\n        /* \"#utility.yul\":6169:6184   */\n      revert\n        /* \"#utility.yul\":6196:6516   */\n    tag_33:\n        /* \"#utility.yul\":6240:6246   */\n      0x00\n        /* \"#utility.yul\":6277:6278   */\n      0x02\n        /* \"#utility.yul\":6271:6275   */\n      dup3\n        /* \"#utility.yul\":6267:6279   */\n      div\n        /* \"#utility.yul\":6257:6279   */\n      swap1\n      pop\n        /* \"#utility.yul\":6324:6325   */\n      0x01\n        /* \"#utility.yul\":6318:6322   */\n      dup3\n        /* \"#utility.yul\":6314:6326   */\n      and\n        /* \"#utility.yul\":6345:6363   */\n      dup1\n        /* \"#utility.yul\":6335:6416   */\n      tag_154\n      jumpi\n        /* \"#utility.yul\":6401:6405   */\n      0x7f\n        /* \"#utility.yul\":6393:6399   */\n      dup3\n        /* \"#utility.yul\":6389:6406   */\n      and\n        /* \"#utility.yul\":6379:6406   */\n      swap2\n      pop\n        /* \"#utility.yul\":6335:6416   */\n    tag_154:\n        /* \"#utility.yul\":6463:6465   */\n      0x20\n        /* \"#utility.yul\":6455:6461   */\n      dup3\n        /* \"#utility.yul\":6452:6466   */\n      lt\n        /* \"#utility.yul\":6432:6450   */\n      dup2\n        /* \"#utility.yul\":6429:6467   */\n      sub\n        /* \"#utility.yul\":6426:6510   */\n      tag_155\n      jumpi\n        /* \"#utility.yul\":6482:6500   */\n      tag_156\n      tag_67\n      jump\t// in\n    tag_156:\n        /* \"#utility.yul\":6426:6510   */\n    tag_155:\n        /* \"#utility.yul\":6247:6516   */\n      pop\n        /* \"#utility.yul\":6196:6516   */\n      swap2\n      swap1\n      pop\n      jump\t// out\n        /* \"#utility.yul\":6522:6702   */\n    tag_68:\n        /* \"#utility.yul\":6570:6647   */\n      0x4e487b7100000000000000000000000000000000000000000000000000000000\n        /* \"#utility.yul\":6567:6568   */\n      0x00\n        /* \"#utility.yul\":6560:6648   */\n      mstore\n        /* \"#utility.yul\":6667:6671   */\n      0x11\n        /* \"#utility.yul\":6664:6665   */\n      0x04\n        /* \"#utility.yul\":6657:6672   */\n      mstore\n        /* \"#utility.yul\":6691:6695   */\n      0x24\n        /* \"#utility.yul\":6688:6689   */\n      0x00\n        /* \"#utility.yul\":6681:6696   */\n      revert\n        /* \"#utility.yul\":6708:6899   */\n    tag_40:\n        /* \"#utility.yul\":6748:6751   */\n      0x00\n        /* \"#utility.yul\":6767:6787   */\n      tag_159\n        /* \"#utility.yul\":6785:6786   */\n      dup3\n        /* \"#utility.yul\":6767:6787   */\n      tag_49\n      jump\t// in\n    tag_159:\n        /* \"#utility.yul\":6762:6787   */\n      swap2\n      pop\n        /* \"#utility.yul\":6801:6821   */\n      tag_160\n        /* \"#utility.yul\":6819:6820   */\n      dup4\n        /* \"#utility.yul\":6801:6821   */\n      tag_49\n      jump\t// in\n    tag_160:\n        /* \"#utility.yul\":6796:6821   */\n      swap3\n      pop\n        /* \"#utility.yul\":6844:6845   */\n      dup3\n        /* \"#utility.yul\":6841:6842   */\n      dup3\n        /* \"#utility.yul\":6837:6846   */\n      add\n        /* \"#utility.yul\":6830:6846   */\n      swap1\n      pop\n        /* \"#utility.yul\":6865:6868   */\n      dup1\n        /* \"#utility.yul\":6862:6863   */\n      dup3\n        /* \"#utility.yul\":6859:6869   */\n      gt\n        /* \"#utility.yul\":6856:6892   */\n      iszero\n      tag_161\n      jumpi\n        /* \"#utility.yul\":6872:6890   */\n      tag_162\n      tag_68\n      jump\t// in\n    tag_162:\n        /* \"#utility.yul\":6856:6892   */\n    tag_161:\n        /* \"#utility.yul\":6708:6899   */\n      swap3\n      swap2\n      pop\n      pop\n      jump\t// out\n        /* \"#utility.yul\":6905:7046   */\n    tag_69:\n        /* \"#utility.yul\":6954:6958   */\n      0x00\n        /* \"#utility.yul\":6977:6980   */\n      dup2\n        /* \"#utility.yul\":6969:6980   */\n      swap1\n      pop\n        /* \"#utility.yul\":7000:7003   */\n      dup2\n        /* \"#utility.yul\":6997:6998   */\n      0x00\n        /* \"#utility.yul\":6990:7004   */\n      mstore\n        /* \"#utility.yul\":7034:7038   */\n      0x20\n        /* \"#utility.yul\":7031:7032   */\n      0x00\n        /* \"#utility.yul\":7021:7039   */\n      keccak256\n        /* \"#utility.yul\":7013:7039   */\n      swap1\n      pop\n        /* \"#utility.yul\":6905:7046   */\n      swap2\n      swap1\n      pop\n      jump\t// out\n        /* \"#utility.yul\":7052:7145   */\n    tag_70:\n        /* \"#utility.yul\":7089:7095   */\n      0x00\n        /* \"#utility.yul\":7136:7138   */\n      0x20\n        /* \"#utility.yul\":7131:7133   */\n      0x1f\n        /* \"#utility.yul\":7124:7129   */\n      dup4\n        /* \"#utility.yul\":7120:7134   */\n      add\n        /* \"#utility.yul\":7116:7139   */\n      div\n        /* \"#utility.yul\":7106:7139   */\n      swap1\n      pop\n        /* \"#utility.yul\":7052:7145   */\n      swap2\n      swap1\n      pop\n      jump\t// out\n        /* \"#utility.yul\":7151:7258   */\n    tag_71:\n        /* \"#utility.yul\":7195:7203   */\n      0x00\n        /* \"#utility.yul\":7245:7250   */\n      dup3\n        /* \"#utility.yul\":7239:7243   */\n      dup3\n        /* \"#utility.yul\":7235:7251   */\n      shl\n        /* \"#utility.yul\":7214:7251   */\n      swap1\n      pop\n        /* \"#utility.yul\":7151:7258   */\n      swap3\n      swap2\n      pop\n      pop\n      jump\t// out\n        /* \"#utility.yul\":7264:7657   */\n    tag_72:\n        /* \"#utility.yul\":7333:7339   */\n      0x00\n        /* \"#utility.yul\":7383:7384   */\n      0x08\n        /* \"#utility.yul\":7371:7381   */\n      dup4\n        /* \"#utility.yul\":7367:7385   */\n      mul\n        /* \"#utility.yul\":7406:7503   */\n      tag_167\n        /* \"#utility.yul\":7436:7502   */\n      0xffffffffffffffffffffffffffffffffffffffffffffffffffffffffffffffff\n        /* \"#utility.yul\":7425:7434   */\n      dup3\n        /* \"#utility.yul\":7406:7503   */\n      tag_71\n      jump\t// in\n    tag_167:\n        /* \"#utility.yul\":7524:7563   */\n      tag_168\n        /* \"#utility.yul\":7554:7562   */\n      dup7\n        /* \"#utility.yul\":7543:7552   */\n      dup4\n        /* \"#utility.yul\":7524:7563   */\n      tag_71\n      jump\t// in\n    tag_168:\n        /* \"#utility.yul\":7512:7563   */\n      swap6\n      pop\n        /* \"#utility.yul\":7596:7600   */\n      dup1\n        /* \"#utility.yul\":7592:7601   */\n      not\n        /* \"#utility.yul\":7585:7590   */\n      dup5\n        /* \"#utility.yul\":7581:7602   */\n      and\n        /* \"#utility.yul\":7572:7602   */\n      swap4\n      pop\n        /* \"#utility.yul\":7645:7649   */\n      dup1\n        /* \"#utility.yul\":7635:7643   */\n      dup7\n        /* \"#utility.yul\":7631:7650   */\n      and\n        /* \"#utility.yul\":7624:7629   */\n      dup5\n        /* \"#utility.yul\":7621:7651   */\n      or\n        /* \"#utility.yul\":7611:7651   */\n      swap3\n      pop\n        /* \"#utility.yul\":7340:7657   */\n      pop\n      pop\n        /* \"#utility.yul\":7264:7657   */\n      swap4\n      swap3\n      pop\n      pop\n      pop\n      jump\t// out\n        /* \"#utility.yul\":7663:7723   */\n    tag_73:\n        /* \"#utility.yul\":7691:7694   */\n      0x00\n        /* \"#utility.yul\":7712:7717   */\n      dup2\n        /* \"#utility.yul\":7705:7717   */\n      swap1\n      pop\n        /* \"#utility.yul\":7663:7723   */\n      swap2\n      swap1\n      pop\n      jump\t// out\n        /* \"#utility.yul\":7729:7871   */\n    tag_74:\n        /* \"#utility.yul\":7779:7788   */\n      0x00\n        /* \"#utility.yul\":7812:7865   */\n      tag_171\n        /* \"#utility.yul\":7830:7864   */\n      tag_172\n        /* \"#utility.yul\":7839:7863   */\n      tag_173\n        /* \"#utility.yul\":7857:7862   */\n      dup5\n        /* \"#utility.yul\":7839:7863   */\n      tag_49\n      jump\t// in\n    tag_173:\n        /* \"#utility.yul\":7830:7864   */\n      tag_73\n      jump\t// in\n    tag_172:\n        /* \"#utility.yul\":7812:7865   */\n      tag_49\n      jump\t// in\n    tag_171:\n        /* \"#utility.yul\":7799:7865   */\n      swap1\n      pop\n        /* \"#utility.yul\":7729:7871   */\n      swap2\n      swap1\n      pop\n      jump\t// out\n        /* \"#utility.yul\":7877:7952   */\n    tag_75:\n        /* \"#utility.yul\":7920:7923   */\n      0x00\n        /* \"#utility.yul\":7941:7946   */\n      dup2\n        /* \"#utility.yul\":7934:7946   */\n      swap1\n      pop\n        /* \"#utility.yul\":7877:7952   */\n      swap2\n      swap1\n      pop\n      jump\t// out\n        /* \"#utility.yul\":7958:8227   */\n    tag_76:\n        /* \"#utility.yul\":8068:8107   */\n      tag_176\n        /* \"#utility.yul\":8099:8106   */\n      dup4\n        /* \"#utility.yul\":8068:8107   */\n      tag_74\n      jump\t// in\n    tag_176:\n        /* \"#utility.yul\":8129:8220   */\n      tag_177\n        /* \"#utility.yul\":8178:8219   */\n      tag_178\n        /* \"#utility.yul\":8202:8218   */\n      dup3\n        /* \"#utility.yul\":8178:8219   */\n      tag_75\n      jump\t// in\n    tag_178:\n        /* \"#utility.yul\":8170:8176   */\n      dup5\n        /* \"#utility.yul\":8163:8167   */\n      dup5\n        /* \"#utility.yul\":8157:8168   */\n      sload\n        /* \"#utility.yul\":8129:8220   */\n      tag_72\n      jump\t// in\n    tag_177:\n        /* \"#utility.yul\":8123:8127   */\n      dup3\n        /* \"#utility.yul\":8116:8221   */\n      sstore\n        /* \"#utility.yul\":8034:8227   */\n      pop\n        /* \"#utility.yul\":7958:8227   */\n      pop\n      pop\n      pop\n      jump\t// out\n        /* \"#utility.yul\":8233:8306   */\n    tag_77:\n        /* \"#utility.yul\":8278:8281   */\n      0x00\n        /* \"#utility.yul\":8233:8306   */\n      swap1\n      jump\t// out\n        /* \"#utility.yul\":8312:8501   */\n    tag_78:\n        /* \"#utility.yul\":8389:8421   */\n      tag_181\n      tag_77\n      jump\t// in\n    tag_181:\n        /* \"#utility.yul\":8430:8495   */\n      tag_182\n        /* \"#utility.yul\":8488:8494   */\n      dup2\n        /* \"#utility.yul\":8480:8486   */\n      dup5\n        /* \"#utility.yul\":8474:8478   */\n      dup5\n        /* \"#utility.yul\":8430:8495   */\n      tag_76\n      jump\t// in\n    tag_182:\n        /* \"#utility.yul\":8365:8501   */\n      pop\n        /* \"#utility.yul\":8312:8501   */\n      pop\n      pop\n      jump\t// out\n        /* \"#utility.yul\":8507:8693   */\n    tag_79:\n        /* \"#utility.yul\":8567:8687   */\n    tag_184:\n        /* \"#utility.yul\":8584:8587   */\n      dup2\n        /* \"#utility.yul\":8577:8582   */\n      dup2\n        /* \"#utility.yul\":8574:8588   */\n      lt\n        /* \"#utility.yul\":8567:8687   */\n      iszero\n      tag_186\n      jumpi\n        /* \"#utility.yul\":8638:8677   */\n      tag_187\n        /* \"#utility.yul\":8675:8676   */\n      0x00\n        /* \"#utility.yul\":8668:8673   */\n      dup3\n        /* \"#utility.yul\":8638:8677   */\n      tag_78\n      jump\t// in\n    tag_187:\n        /* \"#utility.yul\":8611:8612   */\n      0x01\n        /* \"#utility.yul\":8604:8609   */\n      dup2\n        /* \"#utility.yul\":8600:8613   */\n      add\n        /* \"#utility.yul\":8591:8613   */\n      swap1\n      pop\n        /* \"#utility.yul\":8567:8687   */\n      jump(tag_184)\n    tag_186:\n        /* \"#utility.yul\":8507:8693   */\n      pop\n      pop\n      jump\t// out\n        /* \"#utility.yul\":8699:9242   */\n    tag_80:\n        /* \"#utility.yul\":8800:8802   */\n      0x1f\n        /* \"#utility.yul\":8795:8798   */\n      dup3\n        /* \"#utility.yul\":8792:8803   */\n      gt\n        /* \"#utility.yul\":8789:9235   */\n      iszero\n      tag_189\n      jumpi\n        /* \"#utility.yul\":8834:8872   */\n      tag_190\n        /* \"#utility.yul\":8866:8871   */\n      dup2\n        /* \"#utility.yul\":8834:8872   */\n      tag_69\n      jump\t// in\n    tag_190:\n        /* \"#utility.yul\":8918:8947   */\n      tag_191\n        /* \"#utility.yul\":8936:8946   */\n      dup5\n        /* \"#utility.yul\":8918:8947   */\n      tag_70\n      jump\t// in\n    tag_191:\n        /* \"#utility.yul\":8908:8916   */\n      dup2\n        /* \"#utility.yul\":8904:8948   */\n      add\n        /* \"#utility.yul\":9101:9103   */\n      0x20\n        /* \"#utility.yul\":9089:9099   */\n      dup6\n        /* \"#utility.yul\":9086:9104   */\n      lt\n        /* \"#utility.yul\":9083:9132   */\n      iszero\n      tag_192\n      jumpi\n        /* \"#utility.yul\":9122:9130   */\n      dup2\n        /* \"#utility.yul\":9107:9130   */\n      swap1\n      pop\n        /* \"#utility.yul\":9083:9132   */\n    tag_192:\n        /* \"#utility.yul\":9145:9225   */\n      tag_193\n        /* \"#utility.yul\":9201:9223   */\n      tag_194\n        /* \"#utility.yul\":9219:9222   */\n      dup6\n        /* \"#utility.yul\":9201:9223   */\n      tag_70\n      jump\t// in\n    tag_194:\n        /* \"#utility.yul\":9191:9199   */\n      dup4\n        /* \"#utility.yul\":9187:9224   */\n      add\n        /* \"#utility.yul\":9174:9185   */\n      dup3\n        /* \"#utility.yul\":9145:9225   */\n      tag_79\n      jump\t// in\n    tag_193:\n        /* \"#utility.yul\":8804:9235   */\n      pop\n      pop\n        /* \"#utility.yul\":8789:9235   */\n    tag_189:\n        /* \"#utility.yul\":8699:9242   */\n      pop\n      pop\n      pop\n      jump\t// out\n        /* \"#utility.yul\":9248:9365   */\n    tag_81:\n        /* \"#utility.yul\":9302:9310   */\n      0x00\n        /* \"#utility.yul\":9352:9357   */\n      dup3\n        /* \"#utility.yul\":9346:9350   */\n      dup3\n        /* \"#utility.yul\":9342:9358   */\n      shr\n        /* \"#utility.yul\":9321:9358   */\n      swap1\n      pop\n        /* \"#utility.yul\":9248:9365   */\n      swap3\n      swap2\n      pop\n      pop\n      jump\t// out\n        /* \"#utility.yul\":9371:9540   */\n    tag_82:\n        /* \"#utility.yul\":9415:9421   */\n      0x00\n        /* \"#utility.yul\":9448:9499   */\n      tag_197\n        /* \"#utility.yul\":9496:9497   */\n      0x00\n        /* \"#utility.yul\":9492:9498   */\n      not\n        /* \"#utility.yul\":9484:9489   */\n      dup5\n        /* \"#utility.yul\":9481:9482   */\n      0x08\n        /* \"#utility.yul\":9477:9490   */\n      mul\n        /* \"#utility.yul\":9448:9499   */\n      tag_81\n      jump\t// in\n    tag_197:\n        /* \"#utility.yul\":9444:9500   */\n      not\n        /* \"#utility.yul\":9529:9533   */\n      dup1\n        /* \"#utility.yul\":9523:9527   */\n      dup4\n        /* \"#utility.yul\":9519:9534   */\n      and\n        /* \"#utility.yul\":9509:9534   */\n      swap2\n      pop\n        /* \"#utility.yul\":9422:9540   */\n      pop\n        /* \"#utility.yul\":9371:9540   */\n      swap3\n      swap2\n      pop\n      pop\n      jump\t// out\n        /* \"#utility.yul\":9545:9840   */\n    tag_83:\n        /* \"#utility.yul\":9621:9625   */\n      0x00\n        /* \"#utility.yul\":9767:9796   */\n      tag_199\n        /* \"#utility.yul\":9792:9795   */\n      dup4\n        /* \"#utility.yul\":9786:9790   */\n      dup4\n        /* \"#utility.yul\":9767:9796   */\n      tag_82\n      jump\t// in\n    tag_199:\n        /* \"#utility.yul\":9759:9796   */\n      swap2\n      pop\n        /* \"#utility.yul\":9829:9832   */\n      dup3\n        /* \"#utility.yul\":9826:9827   */\n      0x02\n        /* \"#utility.yul\":9822:9833   */\n      mul\n        /* \"#utility.yul\":9816:9820   */\n      dup3\n        /* \"#utility.yul\":9813:9834   */\n      or\n        /* \"#utility.yul\":9805:9834   */\n      swap1\n      pop\n        /* \"#utility.yul\":9545:9840   */\n      swap3\n      swap2\n      pop\n      pop\n      jump\t// out\n        /* \"#utility.yul\":9845:11240   */\n    tag_44:\n        /* \"#utility.yul\":9962:9999   */\n      tag_201\n        /* \"#utility.yul\":9995:9998   */\n      dup3\n        /* \"#utility.yul\":9962:9999   */\n      tag_53\n      jump\t// in\n    tag_201:\n        /* \"#utility.yul\":10064:10082   */\n      0xffffffffffffffff\n        /* \"#utility.yul\":10056:10062   */\n      dup2\n        /* \"#utility.yul\":10053:10083   */\n      gt\n        /* \"#utility.yul\":10050:10106   */\n      iszero\n      tag_202\n      jumpi\n        /* \"#utility.yul\":10086:10104   */\n      tag_203\n      tag_60\n      jump\t// in\n    tag_203:\n        /* \"#utility.yul\":10050:10106   */\n    tag_202:\n        /* \"#utility.yul\":10130:10168   */\n      tag_204\n        /* \"#utility.yul\":10162:10166   */\n      dup3\n        /* \"#utility.yul\":10156:10167   */\n      sload\n        /* \"#utility.yul\":10130:10168   */\n      tag_33\n      jump\t// in\n    tag_204:\n        /* \"#utility.yul\":10215:10282   */\n      tag_205\n        /* \"#utility.yul\":10275:10281   */\n      dup3\n        /* \"#utility.yul\":10267:10273   */\n      dup3\n        /* \"#utility.yul\":10261:10265   */\n      dup6\n        /* \"#utility.yul\":10215:10282   */\n      tag_80\n      jump\t// in\n    tag_205:\n        /* \"#utility.yul\":10309:10310   */\n      0x00\n        /* \"#utility.yul\":10333:10337   */\n      0x20\n        /* \"#utility.yul\":10320:10337   */\n      swap1\n      pop\n        /* \"#utility.yul\":10365:10367   */\n      0x1f\n        /* \"#utility.yul\":10357:10363   */\n      dup4\n        /* \"#utility.yul\":10354:10368   */\n      gt\n        /* \"#utility.yul\":10382:10383   */\n      0x01\n        /* \"#utility.yul\":10377:10995   */\n      dup2\n      eq\n      tag_207\n      jumpi\n        /* \"#utility.yul\":11039:11040   */\n      0x00\n        /* \"#utility.yul\":11056:11062   */\n      dup5\n        /* \"#utility.yul\":11053:11130   */\n      iszero\n      tag_208\n      jumpi\n        /* \"#utility.yul\":11105:11114   */\n      dup3\n        /* \"#utility.yul\":11100:11103   */\n      dup8\n        /* \"#utility.yul\":11096:11115   */\n      add\n        /* \"#utility.yul\":11090:11116   */\n      mload\n        /* \"#utility.yul\":11081:11116   */\n      swap1\n      pop\n        /* \"#utility.yul\":11053:11130   */\n    tag_208:\n        /* \"#utility.yul\":11156:11223   */\n      tag_209\n        /* \"#utility.yul\":11216:11222   */\n      dup6\n        /* \"#utility.yul\":11209:11214   */\n      dup3\n        /* \"#utility.yul\":11156:11223   */\n      tag_83\n      jump\t// in\n    tag_209:\n        /* \"#utility.yul\":11150:11154   */\n      dup7\n        /* \"#utility.yul\":11143:11224   */\n      sstore\n        /* \"#utility.yul\":11012:11234   */\n      pop\n        /* \"#utility.yul\":10347:11234   */\n      jump(tag_206)\n        /* \"#utility.yul\":10377:10995   */\n    tag_207:\n        /* \"#utility.yul\":10429:10433   */\n      0x1f\n        /* \"#utility.yul\":10425:10434   */\n      not\n        /* \"#utility.yul\":10417:10423   */\n      dup5\n        /* \"#utility.yul\":10413:10435   */\n      and\n        /* \"#utility.yul\":10463:10500   */\n      tag_210\n        /* \"#utility.yul\":10495:10499   */\n      dup7\n        /* \"#utility.yul\":10463:10500   */\n      tag_69\n      jump\t// in\n    tag_210:\n        /* \"#utility.yul\":10522:10523   */\n      0x00\n        /* \"#utility.yul\":10536:10744   */\n    tag_211:\n        /* \"#utility.yul\":10550:10557   */\n      dup3\n        /* \"#utility.yul\":10547:10548   */\n      dup2\n        /* \"#utility.yul\":10544:10558   */\n      lt\n        /* \"#utility.yul\":10536:10744   */\n      iszero\n      tag_213\n      jumpi\n        /* \"#utility.yul\":10629:10638   */\n      dup5\n        /* \"#utility.yul\":10624:10627   */\n      dup10\n        /* \"#utility.yul\":10620:10639   */\n      add\n        /* \"#utility.yul\":10614:10640   */\n      mload\n        /* \"#utility.yul\":10606:10612   */\n      dup3\n        /* \"#utility.yul\":10599:10641   */\n      sstore\n        /* \"#utility.yul\":10680:10681   */\n      0x01\n        /* \"#utility.yul\":10672:10678   */\n      dup3\n        /* \"#utility.yul\":10668:10682   */\n      add\n        /* \"#utility.yul\":10658:10682   */\n      swap2\n      pop\n        /* \"#utility.yul\":10727:10729   */\n      0x20\n        /* \"#utility.yul\":10716:10725   */\n      dup6\n        /* \"#utility.yul\":10712:10730   */\n      add\n        /* \"#utility.yul\":10699:10730   */\n      swap5\n      pop\n        /* \"#utility.yul\":10573:10577   */\n      0x20\n        /* \"#utility.yul\":10570:10571   */\n      dup2\n        /* \"#utility.yul\":10566:10578   */\n      add\n        /* \"#utility.yul\":10561:10578   */\n      swap1\n      pop\n        /* \"#utility.yul\":10536:10744   */\n      jump(tag_211)\n    tag_213:\n        /* \"#utility.yul\":10772:10778   */\n      dup7\n        /* \"#utility.yul\":10763:10770   */\n      dup4\n        /* \"#utility.yul\":10760:10779   */\n      lt\n        /* \"#utility.yul\":10757:10936   */\n      iszero\n      tag_214\n      jumpi\n        /* \"#utility.yul\":10830:10839   */\n      dup5\n        /* \"#utility.yul\":10825:10828   */\n      dup10\n        /* \"#utility.yul\":10821:10840   */\n      add\n        /* \"#utility.yul\":10815:10841   */\n      mload\n        /* \"#utility.yul\":10873:10921   */\n      tag_215\n        /* \"#utility.yul\":10915:10919   */\n      0x1f\n        /* \"#utility.yul\":10907:10913   */\n      dup10\n        /* \"#utility.yul\":10903:10920   */\n      and\n        /* \"#utility.yul\":10892:10901   */\n      dup3\n        /* \"#utility.yul\":10873:10921   */\n      tag_82\n      jump\t// in\n    tag_215:\n        /* \"#utility.yul\":10865:10871   */\n      dup4\n        /* \"#utility.yul\":10858:10922   */\n      sstore\n        /* \"#utility.yul\":10780:10936   */\n      pop\n        /* \"#utility.yul\":10757:10936   */\n    tag_214:\n        /* \"#utility.yul\":10982:10983   */\n      0x01\n        /* \"#utility.yul\":10978:10979   */\n      0x02\n        /* \"#utility.yul\":10970:10976   */\n      dup9\n        /* \"#utility.yul\":10966:10980   */\n      mul\n        /* \"#utility.yul\":10962:10984   */\n      add\n        /* \"#utility.yul\":10956:10960   */\n      dup9\n        /* \"#utility.yul\":10949:10985   */\n      sstore\n        /* \"#utility.yul\":10384:10995   */\n      pop\n      pop\n      pop\n        /* \"#utility.yul\":10347:11234   */\n    tag_206:\n      pop\n        /* \"#utility.yul\":9937:11240   */\n      pop\n      pop\n      pop\n        /* \"#utility.yul\":9845:11240   */\n      pop\n      pop\n      jump\t// out\n\n    auxdata: 0xa26469706673582212202fab00b09a221835246dd737aa887af1c0a73ee70c48a97988568051a285b9d464736f6c634300081a0033\n}\n",
				"bytecode": {
					"linkReferences": {},
					"object": "6080604052348015600e575f80fd5b506108d18061001c5f395ff3fe608060405234801561000f575f80fd5b5060043610610055575f3560e01c80631f1094e7146100595780636057361d1461008a578063bc832d4e146100a6578063f2c9ecd8146100c2578063f6d8f2cb146100e0575b5f80fd5b610073600480360381019061006e91906102b4565b610110565b60405161008192919061035e565b60405180910390f35b6100a4600480360381019061009f91906102b4565b6101c5565b005b6100c060048036038101906100bb91906104b8565b6101da565b005b6100ca61023b565b6040516100d79190610512565b60405180910390f35b6100fa60048036038101906100f5919061052b565b610243565b6040516101079190610512565b60405180910390f35b6001818154811061011f575f80fd5b905f5260205f2090600202015f91509050805f0154908060010180546101449061059f565b80601f01602080910402602001604051908101604052809291908181526020018280546101709061059f565b80156101bb5780601f10610192576101008083540402835291602001916101bb565b820191905f5260205f20905b81548152906001019060200180831161019e57829003601f168201915b5050505050905082565b6005816101d291906105fc565b5f8190555050565b6001604051806040016040528084815260200183815250908060018154018082558091505060019003905f5260205f2090600202015f909190919091505f820151815f0155602082015181600101908161023491906107cc565b5050505050565b5f8054905090565b6002818051602081018201805184825260208301602085012081835280955050505050505f915090505481565b5f604051905090565b5f80fd5b5f80fd5b5f819050919050565b61029381610281565b811461029d575f80fd5b50565b5f813590506102ae8161028a565b92915050565b5f602082840312156102c9576102c8610279565b5b5f6102d6848285016102a0565b91505092915050565b6102e881610281565b82525050565b5f81519050919050565b5f82825260208201905092915050565b8281835e5f83830152505050565b5f601f19601f8301169050919050565b5f610330826102ee565b61033a81856102f8565b935061034a818560208601610308565b61035381610316565b840191505092915050565b5f6040820190506103715f8301856102df565b81810360208301526103838184610326565b90509392505050565b5f80fd5b5f80fd5b7f4e487b71000000000000000000000000000000000000000000000000000000005f52604160045260245ffd5b6103ca82610316565b810181811067ffffffffffffffff821117156103e9576103e8610394565b5b80604052505050565b5f6103fb610270565b905061040782826103c1565b919050565b5f67ffffffffffffffff82111561042657610425610394565b5b61042f82610316565b9050602081019050919050565b828183375f83830152505050565b5f61045c6104578461040c565b6103f2565b90508281526020810184848401111561047857610477610390565b5b61048384828561043c565b509392505050565b5f82601f83011261049f5761049e61038c565b5b81356104af84826020860161044a565b91505092915050565b5f80604083850312156104ce576104cd610279565b5b5f6104db858286016102a0565b925050602083013567ffffffffffffffff8111156104fc576104fb61027d565b5b6105088582860161048b565b9150509250929050565b5f6020820190506105255f8301846102df565b92915050565b5f602082840312156105405761053f610279565b5b5f82013567ffffffffffffffff81111561055d5761055c61027d565b5b6105698482850161048b565b91505092915050565b7f4e487b71000000000000000000000000000000000000000000000000000000005f52602260045260245ffd5b5f60028204905060018216806105b657607f821691505b6020821081036105c9576105c8610572565b5b50919050565b7f4e487b71000000000000000000000000000000000000000000000000000000005f52601160045260245ffd5b5f61060682610281565b915061061183610281565b9250828201905080821115610629576106286105cf565b5b92915050565b5f819050815f5260205f209050919050565b5f6020601f8301049050919050565b5f82821b905092915050565b5f6008830261068b7fffffffffffffffffffffffffffffffffffffffffffffffffffffffffffffffff82610650565b6106958683610650565b95508019841693508086168417925050509392505050565b5f819050919050565b5f6106d06106cb6106c684610281565b6106ad565b610281565b9050919050565b5f819050919050565b6106e9836106b6565b6106fd6106f5826106d7565b84845461065c565b825550505050565b5f90565b610711610705565b61071c8184846106e0565b505050565b5b8181101561073f576107345f82610709565b600181019050610722565b5050565b601f821115610784576107558161062f565b61075e84610641565b8101602085101561076d578190505b61078161077985610641565b830182610721565b50505b505050565b5f82821c905092915050565b5f6107a45f1984600802610789565b1980831691505092915050565b5f6107bc8383610795565b9150826002028217905092915050565b6107d5826102ee565b67ffffffffffffffff8111156107ee576107ed610394565b5b6107f8825461059f565b610803828285610743565b5f60209050601f831160018114610834575f8415610822578287015190505b61082c85826107b1565b865550610893565b601f1984166108428661062f565b5f5b8281101561086957848901518255600182019150602085019450602081019050610844565b868310156108865784890151610882601f891682610795565b8355505b6001600288020188555050505b50505050505056fea26469706673582212202fab00b09a221835246dd737aa887af1c0a73ee70c48a97988568051a285b9d464736f6c634300081a0033",
					"opcodes": "PUSH1 0x80 PUSH1 0x40 MSTORE CALLVALUE DUP1 ISZERO PUSH1 0xE JUMPI PUSH0 DUP1 REVERT JUMPDEST POP PUSH2 0x8D1 DUP1 PUSH2 0x1C PUSH0 CODECOPY PUSH0 RETURN INVALID PUSH1 0x80 PUSH1 0x40 MSTORE CALLVALUE DUP1 ISZERO PUSH2 0xF JUMPI PUSH0 DUP1 REVERT JUMPDEST POP PUSH1 0x4 CALLDATASIZE LT PUSH2 0x55 JUMPI PUSH0 CALLDATALOAD PUSH1 0xE0 SHR DUP1 PUSH4 0x1F1094E7 EQ PUSH2 0x59 JUMPI DUP1 PUSH4 0x6057361D EQ PUSH2 0x8A JUMPI DUP1 PUSH4 0xBC832D4E EQ PUSH2 0xA6 JUMPI DUP1 PUSH4 0xF2C9ECD8 EQ PUSH2 0xC2 JUMPI DUP1 PUSH4 0xF6D8F2CB EQ PUSH2 0xE0 JUMPI JUMPDEST PUSH0 DUP1 REVERT JUMPDEST PUSH2 0x73 PUSH1 0x4 DUP1 CALLDATASIZE SUB DUP2 ADD SWAP1 PUSH2 0x6E SWAP2 SWAP1 PUSH2 0x2B4 JUMP JUMPDEST PUSH2 0x110 JUMP JUMPDEST PUSH1 0x40 MLOAD PUSH2 0x81 SWAP3 SWAP2 SWAP1 PUSH2 0x35E JUMP JUMPDEST PUSH1 0x40 MLOAD DUP1 SWAP2 SUB SWAP1 RETURN JUMPDEST PUSH2 0xA4 PUSH1 0x4 DUP1 CALLDATASIZE SUB DUP2 ADD SWAP1 PUSH2 0x9F SWAP2 SWAP1 PUSH2 0x2B4 JUMP JUMPDEST PUSH2 0x1C5 JUMP JUMPDEST STOP JUMPDEST PUSH2 0xC0 PUSH1 0x4 DUP1 CALLDATASIZE SUB DUP2 ADD SWAP1 PUSH2 0xBB SWAP2 SWAP1 PUSH2 0x4B8 JUMP JUMPDEST PUSH2 0x1DA JUMP JUMPDEST STOP JUMPDEST PUSH2 0xCA PUSH2 0x23B JUMP JUMPDEST PUSH1 0x40 MLOAD PUSH2 0xD7 SWAP2 SWAP1 PUSH2 0x512 JUMP JUMPDEST PUSH1 0x40 MLOAD DUP1 SWAP2 SUB SWAP1 RETURN JUMPDEST PUSH2 0xFA PUSH1 0x4 DUP1 CALLDATASIZE SUB DUP2 ADD SWAP1 PUSH2 0xF5 SWAP2 SWAP1 PUSH2 0x52B JUMP JUMPDEST PUSH2 0x243 JUMP JUMPDEST PUSH1 0x40 MLOAD PUSH2 0x107 SWAP2 SWAP1 PUSH2 0x512 JUMP JUMPDEST PUSH1 0x40 MLOAD DUP1 SWAP2 SUB SWAP1 RETURN JUMPDEST PUSH1 0x1 DUP2 DUP2 SLOAD DUP2 LT PUSH2 0x11F JUMPI PUSH0 DUP1 REVERT JUMPDEST SWAP1 PUSH0 MSTORE PUSH1 0x20 PUSH0 KECCAK256 SWAP1 PUSH1 0x2 MUL ADD PUSH0 SWAP2 POP SWAP1 POP DUP1 PUSH0 ADD SLOAD SWAP1 DUP1 PUSH1 0x1 ADD DUP1 SLOAD PUSH2 0x144 SWAP1 PUSH2 0x59F JUMP JUMPDEST DUP1 PUSH1 0x1F ADD PUSH1 0x20 DUP1 SWAP2 DIV MUL PUSH1 0x20 ADD PUSH1 0x40 MLOAD SWAP1 DUP2 ADD PUSH1 0x40 MSTORE DUP1 SWAP3 SWAP2 SWAP1 DUP2 DUP2 MSTORE PUSH1 0x20 ADD DUP3 DUP1 SLOAD PUSH2 0x170 SWAP1 PUSH2 0x59F JUMP JUMPDEST DUP1 ISZERO PUSH2 0x1BB JUMPI DUP1 PUSH1 0x1F LT PUSH2 0x192 JUMPI PUSH2 0x100 DUP1 DUP4 SLOAD DIV MUL DUP4 MSTORE SWAP2 PUSH1 0x20 ADD SWAP2 PUSH2 0x1BB JUMP JUMPDEST DUP3 ADD SWAP2 SWAP1 PUSH0 MSTORE PUSH1 0x20 PUSH0 KECCAK256 SWAP1 JUMPDEST DUP2 SLOAD DUP2 MSTORE SWAP1 PUSH1 0x1 ADD SWAP1 PUSH1 0x20 ADD DUP1 DUP4 GT PUSH2 0x19E JUMPI DUP3 SWAP1 SUB PUSH1 0x1F AND DUP3 ADD SWAP2 JUMPDEST POP POP POP POP POP SWAP1 POP DUP3 JUMP JUMPDEST PUSH1 0x5 DUP2 PUSH2 0x1D2 SWAP2 SWAP1 PUSH2 0x5FC JUMP JUMPDEST PUSH0 DUP2 SWAP1 SSTORE POP POP JUMP JUMPDEST PUSH1 0x1 PUSH1 0x40 MLOAD DUP1 PUSH1 0x40 ADD PUSH1 0x40 MSTORE DUP1 DUP5 DUP2 MSTORE PUSH1 0x20 ADD DUP4 DUP2 MSTORE POP SWAP1 DUP1 PUSH1 0x1 DUP2 SLOAD ADD DUP1 DUP3 SSTORE DUP1 SWAP2 POP POP PUSH1 0x1 SWAP1 SUB SWAP1 PUSH0 MSTORE PUSH1 0x20 PUSH0 KECCAK256 SWAP1 PUSH1 0x2 MUL ADD PUSH0 SWAP1 SWAP2 SWAP1 SWAP2 SWAP1 SWAP2 POP PUSH0 DUP3 ADD MLOAD DUP2 PUSH0 ADD SSTORE PUSH1 0x20 DUP3 ADD MLOAD DUP2 PUSH1 0x1 ADD SWAP1 DUP2 PUSH2 0x234 SWAP2 SWAP1 PUSH2 0x7CC JUMP JUMPDEST POP POP POP POP POP JUMP JUMPDEST PUSH0 DUP1 SLOAD SWAP1 POP SWAP1 JUMP JUMPDEST PUSH1 0x2 DUP2 DUP1 MLOAD PUSH1 0x20 DUP2 ADD DUP3 ADD DUP1 MLOAD DUP5 DUP3 MSTORE PUSH1 0x20 DUP4 ADD PUSH1 0x20 DUP6 ADD KECCAK256 DUP2 DUP4 MSTORE DUP1 SWAP6 POP POP POP POP POP POP PUSH0 SWAP2 POP SWAP1 POP SLOAD DUP2 JUMP JUMPDEST PUSH0 PUSH1 0x40 MLOAD SWAP1 POP SWAP1 JUMP JUMPDEST PUSH0 DUP1 REVERT JUMPDEST PUSH0 DUP1 REVERT JUMPDEST PUSH0 DUP2 SWAP1 POP SWAP2 SWAP1 POP JUMP JUMPDEST PUSH2 0x293 DUP2 PUSH2 0x281 JUMP JUMPDEST DUP2 EQ PUSH2 0x29D JUMPI PUSH0 DUP1 REVERT JUMPDEST POP JUMP JUMPDEST PUSH0 DUP2 CALLDATALOAD SWAP1 POP PUSH2 0x2AE DUP2 PUSH2 0x28A JUMP JUMPDEST SWAP3 SWAP2 POP POP JUMP JUMPDEST PUSH0 PUSH1 0x20 DUP3 DUP5 SUB SLT ISZERO PUSH2 0x2C9 JUMPI PUSH2 0x2C8 PUSH2 0x279 JUMP JUMPDEST JUMPDEST PUSH0 PUSH2 0x2D6 DUP5 DUP3 DUP6 ADD PUSH2 0x2A0 JUMP JUMPDEST SWAP2 POP POP SWAP3 SWAP2 POP POP JUMP JUMPDEST PUSH2 0x2E8 DUP2 PUSH2 0x281 JUMP JUMPDEST DUP3 MSTORE POP POP JUMP JUMPDEST PUSH0 DUP2 MLOAD SWAP1 POP SWAP2 SWAP1 POP JUMP JUMPDEST PUSH0 DUP3 DUP3 MSTORE PUSH1 0x20 DUP3 ADD SWAP1 POP SWAP3 SWAP2 POP POP JUMP JUMPDEST DUP3 DUP2 DUP4 MCOPY PUSH0 DUP4 DUP4 ADD MSTORE POP POP POP JUMP JUMPDEST PUSH0 PUSH1 0x1F NOT PUSH1 0x1F DUP4 ADD AND SWAP1 POP SWAP2 SWAP1 POP JUMP JUMPDEST PUSH0 PUSH2 0x330 DUP3 PUSH2 0x2EE JUMP JUMPDEST PUSH2 0x33A DUP2 DUP6 PUSH2 0x2F8 JUMP JUMPDEST SWAP4 POP PUSH2 0x34A DUP2 DUP6 PUSH1 0x20 DUP7 ADD PUSH2 0x308 JUMP JUMPDEST PUSH2 0x353 DUP2 PUSH2 0x316 JUMP JUMPDEST DUP5 ADD SWAP2 POP POP SWAP3 SWAP2 POP POP JUMP JUMPDEST PUSH0 PUSH1 0x40 DUP3 ADD SWAP1 POP PUSH2 0x371 PUSH0 DUP4 ADD DUP6 PUSH2 0x2DF JUMP JUMPDEST DUP2 DUP2 SUB PUSH1 0x20 DUP4 ADD MSTORE PUSH2 0x383 DUP2 DUP5 PUSH2 0x326 JUMP JUMPDEST SWAP1 POP SWAP4 SWAP3 POP POP POP JUMP JUMPDEST PUSH0 DUP1 REVERT JUMPDEST PUSH0 DUP1 REVERT JUMPDEST PUSH32 0x4E487B7100000000000000000000000000000000000000000000000000000000 PUSH0 MSTORE PUSH1 0x41 PUSH1 0x4 MSTORE PUSH1 0x24 PUSH0 REVERT JUMPDEST PUSH2 0x3CA DUP3 PUSH2 0x316 JUMP JUMPDEST DUP2 ADD DUP2 DUP2 LT PUSH8 0xFFFFFFFFFFFFFFFF DUP3 GT OR ISZERO PUSH2 0x3E9 JUMPI PUSH2 0x3E8 PUSH2 0x394 JUMP JUMPDEST JUMPDEST DUP1 PUSH1 0x40 MSTORE POP POP POP JUMP JUMPDEST PUSH0 PUSH2 0x3FB PUSH2 0x270 JUMP JUMPDEST SWAP1 POP PUSH2 0x407 DUP3 DUP3 PUSH2 0x3C1 JUMP JUMPDEST SWAP2 SWAP1 POP JUMP JUMPDEST PUSH0 PUSH8 0xFFFFFFFFFFFFFFFF DUP3 GT ISZERO PUSH2 0x426 JUMPI PUSH2 0x425 PUSH2 0x394 JUMP JUMPDEST JUMPDEST PUSH2 0x42F DUP3 PUSH2 0x316 JUMP JUMPDEST SWAP1 POP PUSH1 0x20 DUP2 ADD SWAP1 POP SWAP2 SWAP1 POP JUMP JUMPDEST DUP3 DUP2 DUP4 CALLDATACOPY PUSH0 DUP4 DUP4 ADD MSTORE POP POP POP JUMP JUMPDEST PUSH0 PUSH2 0x45C PUSH2 0x457 DUP5 PUSH2 0x40C JUMP JUMPDEST PUSH2 0x3F2 JUMP JUMPDEST SWAP1 POP DUP3 DUP2 MSTORE PUSH1 0x20 DUP2 ADD DUP5 DUP5 DUP5 ADD GT ISZERO PUSH2 0x478 JUMPI PUSH2 0x477 PUSH2 0x390 JUMP JUMPDEST JUMPDEST PUSH2 0x483 DUP5 DUP3 DUP6 PUSH2 0x43C JUMP JUMPDEST POP SWAP4 SWAP3 POP POP POP JUMP JUMPDEST PUSH0 DUP3 PUSH1 0x1F DUP4 ADD SLT PUSH2 0x49F JUMPI PUSH2 0x49E PUSH2 0x38C JUMP JUMPDEST JUMPDEST DUP2 CALLDATALOAD PUSH2 0x4AF DUP5 DUP3 PUSH1 0x20 DUP7 ADD PUSH2 0x44A JUMP JUMPDEST SWAP2 POP POP SWAP3 SWAP2 POP POP JUMP JUMPDEST PUSH0 DUP1 PUSH1 0x40 DUP4 DUP6 SUB SLT ISZERO PUSH2 0x4CE JUMPI PUSH2 0x4CD PUSH2 0x279 JUMP JUMPDEST JUMPDEST PUSH0 PUSH2 0x4DB DUP6 DUP3 DUP7 ADD PUSH2 0x2A0 JUMP JUMPDEST SWAP3 POP POP PUSH1 0x20 DUP4 ADD CALLDATALOAD PUSH8 0xFFFFFFFFFFFFFFFF DUP2 GT ISZERO PUSH2 0x4FC JUMPI PUSH2 0x4FB PUSH2 0x27D JUMP JUMPDEST JUMPDEST PUSH2 0x508 DUP6 DUP3 DUP7 ADD PUSH2 0x48B JUMP JUMPDEST SWAP2 POP POP SWAP3 POP SWAP3 SWAP1 POP JUMP JUMPDEST PUSH0 PUSH1 0x20 DUP3 ADD SWAP1 POP PUSH2 0x525 PUSH0 DUP4 ADD DUP5 PUSH2 0x2DF JUMP JUMPDEST SWAP3 SWAP2 POP POP JUMP JUMPDEST PUSH0 PUSH1 0x20 DUP3 DUP5 SUB SLT ISZERO PUSH2 0x540 JUMPI PUSH2 0x53F PUSH2 0x279 JUMP JUMPDEST JUMPDEST PUSH0 DUP3 ADD CALLDATALOAD PUSH8 0xFFFFFFFFFFFFFFFF DUP2 GT ISZERO PUSH2 0x55D JUMPI PUSH2 0x55C PUSH2 0x27D JUMP JUMPDEST JUMPDEST PUSH2 0x569 DUP5 DUP3 DUP6 ADD PUSH2 0x48B JUMP JUMPDEST SWAP2 POP POP SWAP3 SWAP2 POP POP JUMP JUMPDEST PUSH32 0x4E487B7100000000000000000000000000000000000000000000000000000000 PUSH0 MSTORE PUSH1 0x22 PUSH1 0x4 MSTORE PUSH1 0x24 PUSH0 REVERT JUMPDEST PUSH0 PUSH1 0x2 DUP3 DIV SWAP1 POP PUSH1 0x1 DUP3 AND DUP1 PUSH2 0x5B6 JUMPI PUSH1 0x7F DUP3 AND SWAP2 POP JUMPDEST PUSH1 0x20 DUP3 LT DUP2 SUB PUSH2 0x5C9 JUMPI PUSH2 0x5C8 PUSH2 0x572 JUMP JUMPDEST JUMPDEST POP SWAP2 SWAP1 POP JUMP JUMPDEST PUSH32 0x4E487B7100000000000000000000000000000000000000000000000000000000 PUSH0 MSTORE PUSH1 0x11 PUSH1 0x4 MSTORE PUSH1 0x24 PUSH0 REVERT JUMPDEST PUSH0 PUSH2 0x606 DUP3 PUSH2 0x281 JUMP JUMPDEST SWAP2 POP PUSH2 0x611 DUP4 PUSH2 0x281 JUMP JUMPDEST SWAP3 POP DUP3 DUP3 ADD SWAP1 POP DUP1 DUP3 GT ISZERO PUSH2 0x629 JUMPI PUSH2 0x628 PUSH2 0x5CF JUMP JUMPDEST JUMPDEST SWAP3 SWAP2 POP POP JUMP JUMPDEST PUSH0 DUP2 SWAP1 POP DUP2 PUSH0 MSTORE PUSH1 0x20 PUSH0 KECCAK256 SWAP1 POP SWAP2 SWAP1 POP JUMP JUMPDEST PUSH0 PUSH1 0x20 PUSH1 0x1F DUP4 ADD DIV SWAP1 POP SWAP2 SWAP1 POP JUMP JUMPDEST PUSH0 DUP3 DUP3 SHL SWAP1 POP SWAP3 SWAP2 POP POP JUMP JUMPDEST PUSH0 PUSH1 0x8 DUP4 MUL PUSH2 0x68B PUSH32 0xFFFFFFFFFFFFFFFFFFFFFFFFFFFFFFFFFFFFFFFFFFFFFFFFFFFFFFFFFFFFFFFF DUP3 PUSH2 0x650 JUMP JUMPDEST PUSH2 0x695 DUP7 DUP4 PUSH2 0x650 JUMP JUMPDEST SWAP6 POP DUP1 NOT DUP5 AND SWAP4 POP DUP1 DUP7 AND DUP5 OR SWAP3 POP POP POP SWAP4 SWAP3 POP POP POP JUMP JUMPDEST PUSH0 DUP2 SWAP1 POP SWAP2 SWAP1 POP JUMP JUMPDEST PUSH0 PUSH2 0x6D0 PUSH2 0x6CB PUSH2 0x6C6 DUP5 PUSH2 0x281 JUMP JUMPDEST PUSH2 0x6AD JUMP JUMPDEST PUSH2 0x281 JUMP JUMPDEST SWAP1 POP SWAP2 SWAP1 POP JUMP JUMPDEST PUSH0 DUP2 SWAP1 POP SWAP2 SWAP1 POP JUMP JUMPDEST PUSH2 0x6E9 DUP4 PUSH2 0x6B6 JUMP JUMPDEST PUSH2 0x6FD PUSH2 0x6F5 DUP3 PUSH2 0x6D7 JUMP JUMPDEST DUP5 DUP5 SLOAD PUSH2 0x65C JUMP JUMPDEST DUP3 SSTORE POP POP POP POP JUMP JUMPDEST PUSH0 SWAP1 JUMP JUMPDEST PUSH2 0x711 PUSH2 0x705 JUMP JUMPDEST PUSH2 0x71C DUP2 DUP5 DUP5 PUSH2 0x6E0 JUMP JUMPDEST POP POP POP JUMP JUMPDEST JUMPDEST DUP2 DUP2 LT ISZERO PUSH2 0x73F JUMPI PUSH2 0x734 PUSH0 DUP3 PUSH2 0x709 JUMP JUMPDEST PUSH1 0x1 DUP2 ADD SWAP1 POP PUSH2 0x722 JUMP JUMPDEST POP POP JUMP JUMPDEST PUSH1 0x1F DUP3 GT ISZERO PUSH2 0x784 JUMPI PUSH2 0x755 DUP2 PUSH2 0x62F JUMP JUMPDEST PUSH2 0x75E DUP5 PUSH2 0x641 JUMP JUMPDEST DUP2 ADD PUSH1 0x20 DUP6 LT ISZERO PUSH2 0x76D JUMPI DUP2 SWAP1 POP JUMPDEST PUSH2 0x781 PUSH2 0x779 DUP6 PUSH2 0x641 JUMP JUMPDEST DUP4 ADD DUP3 PUSH2 0x721 JUMP JUMPDEST POP POP JUMPDEST POP POP POP JUMP JUMPDEST PUSH0 DUP3 DUP3 SHR SWAP1 POP SWAP3 SWAP2 POP POP JUMP JUMPDEST PUSH0 PUSH2 0x7A4 PUSH0 NOT DUP5 PUSH1 0x8 MUL PUSH2 0x789 JUMP JUMPDEST NOT DUP1 DUP4 AND SWAP2 POP POP SWAP3 SWAP2 POP POP JUMP JUMPDEST PUSH0 PUSH2 0x7BC DUP4 DUP4 PUSH2 0x795 JUMP JUMPDEST SWAP2 POP DUP3 PUSH1 0x2 MUL DUP3 OR SWAP1 POP SWAP3 SWAP2 POP POP JUMP JUMPDEST PUSH2 0x7D5 DUP3 PUSH2 0x2EE JUMP JUMPDEST PUSH8 0xFFFFFFFFFFFFFFFF DUP2 GT ISZERO PUSH2 0x7EE JUMPI PUSH2 0x7ED PUSH2 0x394 JUMP JUMPDEST JUMPDEST PUSH2 0x7F8 DUP3 SLOAD PUSH2 0x59F JUMP JUMPDEST PUSH2 0x803 DUP3 DUP3 DUP6 PUSH2 0x743 JUMP JUMPDEST PUSH0 PUSH1 0x20 SWAP1 POP PUSH1 0x1F DUP4 GT PUSH1 0x1 DUP2 EQ PUSH2 0x834 JUMPI PUSH0 DUP5 ISZERO PUSH2 0x822 JUMPI DUP3 DUP8 ADD MLOAD SWAP1 POP JUMPDEST PUSH2 0x82C DUP6 DUP3 PUSH2 0x7B1 JUMP JUMPDEST DUP7 SSTORE POP PUSH2 0x893 JUMP JUMPDEST PUSH1 0x1F NOT DUP5 AND PUSH2 0x842 DUP7 PUSH2 0x62F JUMP JUMPDEST PUSH0 JUMPDEST DUP3 DUP2 LT ISZERO PUSH2 0x869 JUMPI DUP5 DUP10 ADD MLOAD DUP3 SSTORE PUSH1 0x1 DUP3 ADD SWAP2 POP PUSH1 0x20 DUP6 ADD SWAP5 POP PUSH1 0x20 DUP2 ADD SWAP1 POP PUSH2 0x844 JUMP JUMPDEST DUP7 DUP4 LT ISZERO PUSH2 0x886 JUMPI DUP5 DUP10 ADD MLOAD PUSH2 0x882 PUSH1 0x1F DUP10 AND DUP3 PUSH2 0x795 JUMP JUMPDEST DUP4 SSTORE POP JUMPDEST PUSH1 0x1 PUSH1 0x2 DUP9 MUL ADD DUP9 SSTORE POP POP POP JUMPDEST POP POP POP POP POP POP JUMP INVALID LOG2 PUSH5 0x6970667358 0x22 SLT KECCAK256 0x2F 0xAB STOP 0xB0 SWAP11 0x22 XOR CALLDATALOAD 0x24 PUSH14 0xD737AA887AF1C0A73EE70C48A979 DUP9 JUMP DUP1 MLOAD LOG2 DUP6 0xB9 0xD4 PUSH5 0x736F6C6343 STOP ADDMOD BYTE STOP CALLER "
				},
				"gasEstimates": {
					"creation": {
						"codeDepositCost": "451400",
						"executionCost": "484",
						"totalCost": "451884"
					},
					"external": {
						"addPerson(uint256,string)": "infinite",
						"getNumber()": "2476",
						"nameToId(string)": "infinite",
						"peoples(uint256)": "infinite",
						"store(uint256)": "infinite"
					}
				},
				"methodIdentifiers": {
					"addPerson(uint256,string)": "bc832d4e",
					"getNumber()": "f2c9ecd8",
					"nameToId(string)": "f6d8f2cb",
					"peoples(uint256)": "1f1094e7",
					"store(uint256)": "6057361d"
				}
			},
			"storageLayout": {
				"storage": [
					{
						"astId": 23,
						"contract": "bai03/AddFiveStoage.sol:AddFiveStorage",
						"label": "number",
						"offset": 0,
						"slot": "0",
						"type": "t_uint256"
					},
					{
						"astId": 32,
						"contract": "bai03/AddFiveStoage.sol:AddFiveStorage",
						"label": "peoples",
						"offset": 0,
						"slot": "1",
						"type": "t_array(t_struct(Person)28_storage)dyn_storage"
					},
					{
						"astId": 36,
						"contract": "bai03/AddFiveStoage.sol:AddFiveStorage",
						"label": "nameToId",
						"offset": 0,
						"slot": "2",
						"type": "t_mapping(t_string_memory_ptr,t_uint256)"
					}
				],
				"types": {
					"t_array(t_struct(Person)28_storage)dyn_storage": {
						"base": "t_struct(Person)28_storage",
						"encoding": "dynamic_array",
						"label": "struct SimpleStorage.Person[]",
						"numberOfBytes": "32"
					},
					"t_mapping(t_string_memory_ptr,t_uint256)": {
						"encoding": "mapping",
						"key": "t_string_memory_ptr",
						"label": "mapping(string => uint256)",
						"numberOfBytes": "32",
						"value": "t_uint256"
					},
					"t_string_memory_ptr": {
						"encoding": "bytes",
						"label": "string",
						"numberOfBytes": "32"
					},
					"t_string_storage": {
						"encoding": "bytes",
						"label": "string",
						"numberOfBytes": "32"
					},
					"t_struct(Person)28_storage": {
						"encoding": "inplace",
						"label": "struct SimpleStorage.Person",
						"members": [
							{
								"astId": 25,
								"contract": "bai03/AddFiveStoage.sol:AddFiveStorage",
								"label": "id",
								"offset": 0,
								"slot": "0",
								"type": "t_uint256"
							},
							{
								"astId": 27,
								"contract": "bai03/AddFiveStoage.sol:AddFiveStorage",
								"label": "name",
								"offset": 0,
								"slot": "1",
								"type": "t_string_storage"
							}
						],
						"numberOfBytes": "64"
					},
					"t_uint256": {
						"encoding": "inplace",
						"label": "uint256",
						"numberOfBytes": "32"
					}
				}
			},
			"userdoc": {
				"kind": "user",
				"methods": {},
				"version": 1
			}
		}
	}
}