{
	"PriceConverter.sol": {
		"PriceConverter": {
			"abi": [
				{
					"inputs": [],
					"name": "getPrice",
					"outputs": [
						{
							"internalType": "int256",
							"name": "",
							"type": "int256"
						},
						{
							"internalType": "uint80",
							"name": "",
							"type": "uint80"
						},
						{
							"internalType": "uint256",
							"name": "",
							"type": "uint256"
						},
						{
							"internalType": "uint80",
							"name": "",
							"type": "uint80"
						}
					],
					"stateMutability": "view",
					"type": "function"
				}
			],
			"devdoc": {
				"kind": "dev",
				"methods": {},
				"version": 1
			},
			"evm": {
				"assembly": "    /* \"PriceConverter.sol\":178:1032  contract PriceConverter {... */\n  mstore(0x40, 0x80)\n  callvalue\n  dup1\n  iszero\n  tag_1\n  jumpi\n  0x00\n  dup1\n  revert\ntag_1:\n  pop\n  dataSize(sub_0)\n  dup1\n  dataOffset(sub_0)\n  0x00\n  codecopy\n  0x00\n  return\nstop\n\nsub_0: assembly {\n        /* \"PriceConverter.sol\":178:1032  contract PriceConverter {... */\n      mstore(0x40, 0x80)\n      callvalue\n      dup1\n      iszero\n      tag_1\n      jumpi\n      0x00\n      dup1\n      revert\n    tag_1:\n      pop\n      jumpi(tag_2, lt(calldatasize, 0x04))\n      shr(0xe0, calldataload(0x00))\n      dup1\n      0x98d5fdca\n      eq\n      tag_3\n      jumpi\n    tag_2:\n      0x00\n      dup1\n      revert\n        /* \"PriceConverter.sol\":228:770  function getPrice()... */\n    tag_3:\n      tag_4\n      tag_5\n      jump\t// in\n    tag_4:\n      mload(0x40)\n      tag_6\n      swap5\n      swap4\n      swap3\n      swap2\n      swap1\n      tag_7\n      jump\t// in\n    tag_6:\n      mload(0x40)\n      dup1\n      swap2\n      sub\n      swap1\n      return\n    tag_5:\n        /* \"PriceConverter.sol\":306:312  int256 */\n      0x00\n        /* \"PriceConverter.sol\":326:332  uint80 */\n      dup1\n        /* \"PriceConverter.sol\":346:353  uint256 */\n      0x00\n        /* \"PriceConverter.sol\":367:373  uint80 */\n      dup1\n        /* \"PriceConverter.sol\":398:429  AggregatorV3Interface priceFeed */\n      0x00\n        /* \"PriceConverter.sol\":467:509  0x694AA1769357215DE4FAC081bf1f309aDC325306 */\n      0x694aa1769357215de4fac081bf1f309adc325306\n        /* \"PriceConverter.sol\":398:519  AggregatorV3Interface priceFeed = AggregatorV3Interface(... */\n      swap1\n      pop\n        /* \"PriceConverter.sol\":530:544  uint80 roundID */\n      0x00\n        /* \"PriceConverter.sol\":546:559  int256 answer */\n      dup1\n        /* \"PriceConverter.sol\":563:580  uint256 updatedAt */\n      0x00\n        /* \"PriceConverter.sol\":582:604  uint80 answeredInRound */\n      dup1\n        /* \"PriceConverter.sol\":608:617  priceFeed */\n      dup5\n        /* \"PriceConverter.sol\":608:633  priceFeed.latestRoundData */\n      0xffffffffffffffffffffffffffffffffffffffff\n      and\n      0xfeaf968c\n        /* \"PriceConverter.sol\":608:635  priceFeed.latestRoundData() */\n      mload(0x40)\n      dup2\n      0xffffffff\n      and\n      0xe0\n      shl\n      dup2\n      mstore\n      0x04\n      add\n      0xa0\n      mload(0x40)\n      dup1\n      dup4\n      sub\n      dup2\n      dup7\n      gas\n      staticcall\n      iszero\n      dup1\n      iszero\n      tag_10\n      jumpi\n      returndatasize\n      0x00\n      dup1\n      returndatacopy\n      revert(0x00, returndatasize)\n    tag_10:\n      pop\n      pop\n      pop\n      pop\n      mload(0x40)\n      returndatasize\n      not(0x1f)\n      0x1f\n      dup3\n      add\n      and\n      dup3\n      add\n      dup1\n      0x40\n      mstore\n      pop\n      dup2\n      add\n      swap1\n      tag_11\n      swap2\n      swap1\n      tag_12\n      jump\t// in\n    tag_11:\n        /* \"PriceConverter.sol\":529:635  (uint80 roundID, int256 answer, , uint256 updatedAt, uint80 answeredInRound) = priceFeed.latestRoundData() */\n      swap5\n      pop\n      swap5\n      pop\n      pop\n      swap4\n      pop\n      swap4\n      pop\n        /* \"PriceConverter.sol\":662:663  0 */\n      0x00\n        /* \"PriceConverter.sol\":653:659  answer */\n      dup4\n        /* \"PriceConverter.sol\":653:663  answer > 0 */\n      sgt\n        /* \"PriceConverter.sol\":645:701  require(answer > 0, \"Invalid price data from Chainlink\") */\n      tag_13\n      jumpi\n      mload(0x40)\n      0x08c379a000000000000000000000000000000000000000000000000000000000\n      dup2\n      mstore\n      0x04\n      add\n      tag_14\n      swap1\n      tag_15\n      jump\t// in\n    tag_14:\n      mload(0x40)\n      dup1\n      swap2\n      sub\n      swap1\n      revert\n    tag_13:\n        /* \"PriceConverter.sol\":719:725  answer */\n      dup3\n        /* \"PriceConverter.sol\":727:734  roundID */\n      dup5\n        /* \"PriceConverter.sol\":736:745  updatedAt */\n      dup4\n        /* \"PriceConverter.sol\":747:762  answeredInRound */\n      dup4\n        /* \"PriceConverter.sol\":711:763  return (answer, roundID, updatedAt, answeredInRound) */\n      swap9\n      pop\n      swap9\n      pop\n      swap9\n      pop\n      swap9\n      pop\n      pop\n      pop\n      pop\n      pop\n      pop\n        /* \"PriceConverter.sol\":228:770  function getPrice()... */\n      swap1\n      swap2\n      swap3\n      swap4\n      jump\t// out\n        /* \"#utility.yul\":7:83   */\n    tag_16:\n        /* \"#utility.yul\":43:50   */\n      0x00\n        /* \"#utility.yul\":72:77   */\n      dup2\n        /* \"#utility.yul\":61:77   */\n      swap1\n      pop\n        /* \"#utility.yul\":7:83   */\n      swap2\n      swap1\n      pop\n      jump\t// out\n        /* \"#utility.yul\":89:204   */\n    tag_17:\n        /* \"#utility.yul\":174:197   */\n      tag_37\n        /* \"#utility.yul\":191:196   */\n      dup2\n        /* \"#utility.yul\":174:197   */\n      tag_16\n      jump\t// in\n    tag_37:\n        /* \"#utility.yul\":169:172   */\n      dup3\n        /* \"#utility.yul\":162:198   */\n      mstore\n        /* \"#utility.yul\":89:204   */\n      pop\n      pop\n      jump\t// out\n        /* \"#utility.yul\":210:315   */\n    tag_18:\n        /* \"#utility.yul\":246:253   */\n      0x00\n        /* \"#utility.yul\":286:308   */\n      0xffffffffffffffffffff\n        /* \"#utility.yul\":279:284   */\n      dup3\n        /* \"#utility.yul\":275:309   */\n      and\n        /* \"#utility.yul\":264:309   */\n      swap1\n      pop\n        /* \"#utility.yul\":210:315   */\n      swap2\n      swap1\n      pop\n      jump\t// out\n        /* \"#utility.yul\":321:436   */\n    tag_19:\n        /* \"#utility.yul\":406:429   */\n      tag_40\n        /* \"#utility.yul\":423:428   */\n      dup2\n        /* \"#utility.yul\":406:429   */\n      tag_18\n      jump\t// in\n    tag_40:\n        /* \"#utility.yul\":401:404   */\n      dup3\n        /* \"#utility.yul\":394:430   */\n      mstore\n        /* \"#utility.yul\":321:436   */\n      pop\n      pop\n      jump\t// out\n        /* \"#utility.yul\":442:519   */\n    tag_20:\n        /* \"#utility.yul\":479:486   */\n      0x00\n        /* \"#utility.yul\":508:513   */\n      dup2\n        /* \"#utility.yul\":497:513   */\n      swap1\n      pop\n        /* \"#utility.yul\":442:519   */\n      swap2\n      swap1\n      pop\n      jump\t// out\n        /* \"#utility.yul\":525:643   */\n    tag_21:\n        /* \"#utility.yul\":612:636   */\n      tag_43\n        /* \"#utility.yul\":630:635   */\n      dup2\n        /* \"#utility.yul\":612:636   */\n      tag_20\n      jump\t// in\n    tag_43:\n        /* \"#utility.yul\":607:610   */\n      dup3\n        /* \"#utility.yul\":600:637   */\n      mstore\n        /* \"#utility.yul\":525:643   */\n      pop\n      pop\n      jump\t// out\n        /* \"#utility.yul\":649:1190   */\n    tag_7:\n        /* \"#utility.yul\":820:824   */\n      0x00\n        /* \"#utility.yul\":858:861   */\n      0x80\n        /* \"#utility.yul\":847:856   */\n      dup3\n        /* \"#utility.yul\":843:862   */\n      add\n        /* \"#utility.yul\":835:862   */\n      swap1\n      pop\n        /* \"#utility.yul\":872:941   */\n      tag_45\n        /* \"#utility.yul\":938:939   */\n      0x00\n        /* \"#utility.yul\":927:936   */\n      dup4\n        /* \"#utility.yul\":923:940   */\n      add\n        /* \"#utility.yul\":914:920   */\n      dup8\n        /* \"#utility.yul\":872:941   */\n      tag_17\n      jump\t// in\n    tag_45:\n        /* \"#utility.yul\":951:1021   */\n      tag_46\n        /* \"#utility.yul\":1017:1019   */\n      0x20\n        /* \"#utility.yul\":1006:1015   */\n      dup4\n        /* \"#utility.yul\":1002:1020   */\n      add\n        /* \"#utility.yul\":993:999   */\n      dup7\n        /* \"#utility.yul\":951:1021   */\n      tag_19\n      jump\t// in\n    tag_46:\n        /* \"#utility.yul\":1031:1103   */\n      tag_47\n        /* \"#utility.yul\":1099:1101   */\n      0x40\n        /* \"#utility.yul\":1088:1097   */\n      dup4\n        /* \"#utility.yul\":1084:1102   */\n      add\n        /* \"#utility.yul\":1075:1081   */\n      dup6\n        /* \"#utility.yul\":1031:1103   */\n      tag_21\n      jump\t// in\n    tag_47:\n        /* \"#utility.yul\":1113:1183   */\n      tag_48\n        /* \"#utility.yul\":1179:1181   */\n      0x60\n        /* \"#utility.yul\":1168:1177   */\n      dup4\n        /* \"#utility.yul\":1164:1182   */\n      add\n        /* \"#utility.yul\":1155:1161   */\n      dup5\n        /* \"#utility.yul\":1113:1183   */\n      tag_19\n      jump\t// in\n    tag_48:\n        /* \"#utility.yul\":649:1190   */\n      swap6\n      swap5\n      pop\n      pop\n      pop\n      pop\n      pop\n      jump\t// out\n        /* \"#utility.yul\":1277:1394   */\n    tag_23:\n        /* \"#utility.yul\":1386:1387   */\n      0x00\n        /* \"#utility.yul\":1383:1384   */\n      dup1\n        /* \"#utility.yul\":1376:1388   */\n      revert\n        /* \"#utility.yul\":1523:1643   */\n    tag_25:\n        /* \"#utility.yul\":1595:1618   */\n      tag_53\n        /* \"#utility.yul\":1612:1617   */\n      dup2\n        /* \"#utility.yul\":1595:1618   */\n      tag_18\n      jump\t// in\n    tag_53:\n        /* \"#utility.yul\":1588:1593   */\n      dup2\n        /* \"#utility.yul\":1585:1619   */\n      eq\n        /* \"#utility.yul\":1575:1637   */\n      tag_54\n      jumpi\n        /* \"#utility.yul\":1633:1634   */\n      0x00\n        /* \"#utility.yul\":1630:1631   */\n      dup1\n        /* \"#utility.yul\":1623:1635   */\n      revert\n        /* \"#utility.yul\":1575:1637   */\n    tag_54:\n        /* \"#utility.yul\":1523:1643   */\n      pop\n      jump\t// out\n        /* \"#utility.yul\":1649:1790   */\n    tag_26:\n        /* \"#utility.yul\":1705:1710   */\n      0x00\n        /* \"#utility.yul\":1736:1742   */\n      dup2\n        /* \"#utility.yul\":1730:1743   */\n      mload\n        /* \"#utility.yul\":1721:1743   */\n      swap1\n      pop\n        /* \"#utility.yul\":1752:1784   */\n      tag_56\n        /* \"#utility.yul\":1778:1783   */\n      dup2\n        /* \"#utility.yul\":1752:1784   */\n      tag_25\n      jump\t// in\n    tag_56:\n        /* \"#utility.yul\":1649:1790   */\n      swap3\n      swap2\n      pop\n      pop\n      jump\t// out\n        /* \"#utility.yul\":1796:1916   */\n    tag_27:\n        /* \"#utility.yul\":1868:1891   */\n      tag_58\n        /* \"#utility.yul\":1885:1890   */\n      dup2\n        /* \"#utility.yul\":1868:1891   */\n      tag_16\n      jump\t// in\n    tag_58:\n        /* \"#utility.yul\":1861:1866   */\n      dup2\n        /* \"#utility.yul\":1858:1892   */\n      eq\n        /* \"#utility.yul\":1848:1910   */\n      tag_59\n      jumpi\n        /* \"#utility.yul\":1906:1907   */\n      0x00\n        /* \"#utility.yul\":1903:1904   */\n      dup1\n        /* \"#utility.yul\":1896:1908   */\n      revert\n        /* \"#utility.yul\":1848:1910   */\n    tag_59:\n        /* \"#utility.yul\":1796:1916   */\n      pop\n      jump\t// out\n        /* \"#utility.yul\":1922:2063   */\n    tag_28:\n        /* \"#utility.yul\":1978:1983   */\n      0x00\n        /* \"#utility.yul\":2009:2015   */\n      dup2\n        /* \"#utility.yul\":2003:2016   */\n      mload\n        /* \"#utility.yul\":1994:2016   */\n      swap1\n      pop\n        /* \"#utility.yul\":2025:2057   */\n      tag_61\n        /* \"#utility.yul\":2051:2056   */\n      dup2\n        /* \"#utility.yul\":2025:2057   */\n      tag_27\n      jump\t// in\n    tag_61:\n        /* \"#utility.yul\":1922:2063   */\n      swap3\n      swap2\n      pop\n      pop\n      jump\t// out\n        /* \"#utility.yul\":2069:2191   */\n    tag_29:\n        /* \"#utility.yul\":2142:2166   */\n      tag_63\n        /* \"#utility.yul\":2160:2165   */\n      dup2\n        /* \"#utility.yul\":2142:2166   */\n      tag_20\n      jump\t// in\n    tag_63:\n        /* \"#utility.yul\":2135:2140   */\n      dup2\n        /* \"#utility.yul\":2132:2167   */\n      eq\n        /* \"#utility.yul\":2122:2185   */\n      tag_64\n      jumpi\n        /* \"#utility.yul\":2181:2182   */\n      0x00\n        /* \"#utility.yul\":2178:2179   */\n      dup1\n        /* \"#utility.yul\":2171:2183   */\n      revert\n        /* \"#utility.yul\":2122:2185   */\n    tag_64:\n        /* \"#utility.yul\":2069:2191   */\n      pop\n      jump\t// out\n        /* \"#utility.yul\":2197:2340   */\n    tag_30:\n        /* \"#utility.yul\":2254:2259   */\n      0x00\n        /* \"#utility.yul\":2285:2291   */\n      dup2\n        /* \"#utility.yul\":2279:2292   */\n      mload\n        /* \"#utility.yul\":2270:2292   */\n      swap1\n      pop\n        /* \"#utility.yul\":2301:2334   */\n      tag_66\n        /* \"#utility.yul\":2328:2333   */\n      dup2\n        /* \"#utility.yul\":2301:2334   */\n      tag_29\n      jump\t// in\n    tag_66:\n        /* \"#utility.yul\":2197:2340   */\n      swap3\n      swap2\n      pop\n      pop\n      jump\t// out\n        /* \"#utility.yul\":2346:3317   */\n    tag_12:\n        /* \"#utility.yul\":2449:2455   */\n      0x00\n        /* \"#utility.yul\":2457:2463   */\n      dup1\n        /* \"#utility.yul\":2465:2471   */\n      0x00\n        /* \"#utility.yul\":2473:2479   */\n      dup1\n        /* \"#utility.yul\":2481:2487   */\n      0x00\n        /* \"#utility.yul\":2530:2533   */\n      0xa0\n        /* \"#utility.yul\":2518:2527   */\n      dup7\n        /* \"#utility.yul\":2509:2516   */\n      dup9\n        /* \"#utility.yul\":2505:2528   */\n      sub\n        /* \"#utility.yul\":2501:2534   */\n      slt\n        /* \"#utility.yul\":2498:2618   */\n      iszero\n      tag_68\n      jumpi\n        /* \"#utility.yul\":2537:2616   */\n      tag_69\n      tag_23\n      jump\t// in\n    tag_69:\n        /* \"#utility.yul\":2498:2618   */\n    tag_68:\n        /* \"#utility.yul\":2657:2658   */\n      0x00\n        /* \"#utility.yul\":2682:2745   */\n      tag_70\n        /* \"#utility.yul\":2737:2744   */\n      dup9\n        /* \"#utility.yul\":2728:2734   */\n      dup3\n        /* \"#utility.yul\":2717:2726   */\n      dup10\n        /* \"#utility.yul\":2713:2735   */\n      add\n        /* \"#utility.yul\":2682:2745   */\n      tag_26\n      jump\t// in\n    tag_70:\n        /* \"#utility.yul\":2672:2745   */\n      swap6\n      pop\n        /* \"#utility.yul\":2628:2755   */\n      pop\n        /* \"#utility.yul\":2794:2796   */\n      0x20\n        /* \"#utility.yul\":2820:2883   */\n      tag_71\n        /* \"#utility.yul\":2875:2882   */\n      dup9\n        /* \"#utility.yul\":2866:2872   */\n      dup3\n        /* \"#utility.yul\":2855:2864   */\n      dup10\n        /* \"#utility.yul\":2851:2873   */\n      add\n        /* \"#utility.yul\":2820:2883   */\n      tag_28\n      jump\t// in\n    tag_71:\n        /* \"#utility.yul\":2810:2883   */\n      swap5\n      pop\n        /* \"#utility.yul\":2765:2893   */\n      pop\n        /* \"#utility.yul\":2932:2934   */\n      0x40\n        /* \"#utility.yul\":2958:3022   */\n      tag_72\n        /* \"#utility.yul\":3014:3021   */\n      dup9\n        /* \"#utility.yul\":3005:3011   */\n      dup3\n        /* \"#utility.yul\":2994:3003   */\n      dup10\n        /* \"#utility.yul\":2990:3012   */\n      add\n        /* \"#utility.yul\":2958:3022   */\n      tag_30\n      jump\t// in\n    tag_72:\n        /* \"#utility.yul\":2948:3022   */\n      swap4\n      pop\n        /* \"#utility.yul\":2903:3032   */\n      pop\n        /* \"#utility.yul\":3071:3073   */\n      0x60\n        /* \"#utility.yul\":3097:3161   */\n      tag_73\n        /* \"#utility.yul\":3153:3160   */\n      dup9\n        /* \"#utility.yul\":3144:3150   */\n      dup3\n        /* \"#utility.yul\":3133:3142   */\n      dup10\n        /* \"#utility.yul\":3129:3151   */\n      add\n        /* \"#utility.yul\":3097:3161   */\n      tag_30\n      jump\t// in\n    tag_73:\n        /* \"#utility.yul\":3087:3161   */\n      swap3\n      pop\n        /* \"#utility.yul\":3042:3171   */\n      pop\n        /* \"#utility.yul\":3210:3213   */\n      0x80\n        /* \"#utility.yul\":3237:3300   */\n      tag_74\n        /* \"#utility.yul\":3292:3299   */\n      dup9\n        /* \"#utility.yul\":3283:3289   */\n      dup3\n        /* \"#utility.yul\":3272:3281   */\n      dup10\n        /* \"#utility.yul\":3268:3290   */\n      add\n        /* \"#utility.yul\":3237:3300   */\n      tag_26\n      jump\t// in\n    tag_74:\n        /* \"#utility.yul\":3227:3300   */\n      swap2\n      pop\n        /* \"#utility.yul\":3181:3310   */\n      pop\n        /* \"#utility.yul\":2346:3317   */\n      swap3\n      swap6\n      pop\n      swap3\n      swap6\n      swap1\n      swap4\n      pop\n      jump\t// out\n        /* \"#utility.yul\":3323:3492   */\n    tag_31:\n        /* \"#utility.yul\":3407:3418   */\n      0x00\n        /* \"#utility.yul\":3441:3447   */\n      dup3\n        /* \"#utility.yul\":3436:3439   */\n      dup3\n        /* \"#utility.yul\":3429:3448   */\n      mstore\n        /* \"#utility.yul\":3481:3485   */\n      0x20\n        /* \"#utility.yul\":3476:3479   */\n      dup3\n        /* \"#utility.yul\":3472:3486   */\n      add\n        /* \"#utility.yul\":3457:3486   */\n      swap1\n      pop\n        /* \"#utility.yul\":3323:3492   */\n      swap3\n      swap2\n      pop\n      pop\n      jump\t// out\n        /* \"#utility.yul\":3498:3718   */\n    tag_32:\n        /* \"#utility.yul\":3638:3672   */\n      0x496e76616c696420707269636520646174612066726f6d20436861696e6c696e\n        /* \"#utility.yul\":3634:3635   */\n      0x00\n        /* \"#utility.yul\":3626:3632   */\n      dup3\n        /* \"#utility.yul\":3622:3636   */\n      add\n        /* \"#utility.yul\":3615:3673   */\n      mstore\n        /* \"#utility.yul\":3707:3710   */\n      0x6b00000000000000000000000000000000000000000000000000000000000000\n        /* \"#utility.yul\":3702:3704   */\n      0x20\n        /* \"#utility.yul\":3694:3700   */\n      dup3\n        /* \"#utility.yul\":3690:3705   */\n      add\n        /* \"#utility.yul\":3683:3711   */\n      mstore\n        /* \"#utility.yul\":3498:3718   */\n      pop\n      jump\t// out\n        /* \"#utility.yul\":3724:4090   */\n    tag_33:\n        /* \"#utility.yul\":3866:3869   */\n      0x00\n        /* \"#utility.yul\":3887:3954   */\n      tag_78\n        /* \"#utility.yul\":3951:3953   */\n      0x21\n        /* \"#utility.yul\":3946:3949   */\n      dup4\n        /* \"#utility.yul\":3887:3954   */\n      tag_31\n      jump\t// in\n    tag_78:\n        /* \"#utility.yul\":3880:3954   */\n      swap2\n      pop\n        /* \"#utility.yul\":3963:4056   */\n      tag_79\n        /* \"#utility.yul\":4052:4055   */\n      dup3\n        /* \"#utility.yul\":3963:4056   */\n      tag_32\n      jump\t// in\n    tag_79:\n        /* \"#utility.yul\":4081:4083   */\n      0x40\n        /* \"#utility.yul\":4076:4079   */\n      dup3\n        /* \"#utility.yul\":4072:4084   */\n      add\n        /* \"#utility.yul\":4065:4084   */\n      swap1\n      pop\n        /* \"#utility.yul\":3724:4090   */\n      swap2\n      swap1\n      pop\n      jump\t// out\n        /* \"#utility.yul\":4096:4515   */\n    tag_15:\n        /* \"#utility.yul\":4262:4266   */\n      0x00\n        /* \"#utility.yul\":4300:4302   */\n      0x20\n        /* \"#utility.yul\":4289:4298   */\n      dup3\n        /* \"#utility.yul\":4285:4303   */\n      add\n        /* \"#utility.yul\":4277:4303   */\n      swap1\n      pop\n        /* \"#utility.yul\":4349:4358   */\n      dup2\n        /* \"#utility.yul\":4343:4347   */\n      dup2\n        /* \"#utility.yul\":4339:4359   */\n      sub\n        /* \"#utility.yul\":4335:4336   */\n      0x00\n        /* \"#utility.yul\":4324:4333   */\n      dup4\n        /* \"#utility.yul\":4320:4337   */\n      add\n        /* \"#utility.yul\":4313:4360   */\n      mstore\n        /* \"#utility.yul\":4377:4508   */\n      tag_81\n        /* \"#utility.yul\":4503:4507   */\n      dup2\n        /* \"#utility.yul\":4377:4508   */\n      tag_33\n      jump\t// in\n    tag_81:\n        /* \"#utility.yul\":4369:4508   */\n      swap1\n      pop\n        /* \"#utility.yul\":4096:4515   */\n      swap2\n      swap1\n      pop\n      jump\t// out\n\n    auxdata: 0xa264697066735822122008747a36bd4600c4ebd4dcaaae5857770cfa6733a0d72b78763089cda3c3ddd864736f6c634300081a0033\n}\n",
				"bytecode": {
					"linkReferences": {},
					"object": "6080604052348015600e575f80fd5b506103a18061001c5f395ff3fe608060405234801561000f575f80fd5b5060043610610029575f3560e01c806398d5fdca1461002d575b5f80fd5b61003561004e565b6040516100459493929190610191565b60405180910390f35b5f805f805f73694aa1769357215de4fac081bf1f309adc32530690505f805f808473ffffffffffffffffffffffffffffffffffffffff1663feaf968c6040518163ffffffff1660e01b815260040160a060405180830381865afa1580156100b7573d5f803e3d5ffd5b505050506040513d601f19601f820116820180604052508101906100db9190610256565b9450945050935093505f8313610126576040517f08c379a000000000000000000000000000000000000000000000000000000000815260040161011d9061034d565b60405180910390fd5b828483839850985098509850505050505090919293565b5f819050919050565b61014f8161013d565b82525050565b5f69ffffffffffffffffffff82169050919050565b61017381610155565b82525050565b5f819050919050565b61018b81610179565b82525050565b5f6080820190506101a45f830187610146565b6101b1602083018661016a565b6101be6040830185610182565b6101cb606083018461016a565b95945050505050565b5f80fd5b6101e181610155565b81146101eb575f80fd5b50565b5f815190506101fc816101d8565b92915050565b61020b8161013d565b8114610215575f80fd5b50565b5f8151905061022681610202565b92915050565b61023581610179565b811461023f575f80fd5b50565b5f815190506102508161022c565b92915050565b5f805f805f60a0868803121561026f5761026e6101d4565b5b5f61027c888289016101ee565b955050602061028d88828901610218565b945050604061029e88828901610242565b93505060606102af88828901610242565b92505060806102c0888289016101ee565b9150509295509295909350565b5f82825260208201905092915050565b7f496e76616c696420707269636520646174612066726f6d20436861696e6c696e5f8201527f6b00000000000000000000000000000000000000000000000000000000000000602082015250565b5f6103376021836102cd565b9150610342826102dd565b604082019050919050565b5f6020820190508181035f8301526103648161032b565b905091905056fea264697066735822122008747a36bd4600c4ebd4dcaaae5857770cfa6733a0d72b78763089cda3c3ddd864736f6c634300081a0033",
					"opcodes": "PUSH1 0x80 PUSH1 0x40 MSTORE CALLVALUE DUP1 ISZERO PUSH1 0xE JUMPI PUSH0 DUP1 REVERT JUMPDEST POP PUSH2 0x3A1 DUP1 PUSH2 0x1C PUSH0 CODECOPY PUSH0 RETURN INVALID PUSH1 0x80 PUSH1 0x40 MSTORE CALLVALUE DUP1 ISZERO PUSH2 0xF JUMPI PUSH0 DUP1 REVERT JUMPDEST POP PUSH1 0x4 CALLDATASIZE LT PUSH2 0x29 JUMPI PUSH0 CALLDATALOAD PUSH1 0xE0 SHR DUP1 PUSH4 0x98D5FDCA EQ PUSH2 0x2D JUMPI JUMPDEST PUSH0 DUP1 REVERT JUMPDEST PUSH2 0x35 PUSH2 0x4E JUMP JUMPDEST PUSH1 0x40 MLOAD PUSH2 0x45 SWAP5 SWAP4 SWAP3 SWAP2 SWAP1 PUSH2 0x191 JUMP JUMPDEST PUSH1 0x40 MLOAD DUP1 SWAP2 SUB SWAP1 RETURN JUMPDEST PUSH0 DUP1 PUSH0 DUP1 PUSH0 PUSH20 0x694AA1769357215DE4FAC081BF1F309ADC325306 SWAP1 POP PUSH0 DUP1 PUSH0 DUP1 DUP5 PUSH20 0xFFFFFFFFFFFFFFFFFFFFFFFFFFFFFFFFFFFFFFFF AND PUSH4 0xFEAF968C PUSH1 0x40 MLOAD DUP2 PUSH4 0xFFFFFFFF AND PUSH1 0xE0 SHL DUP2 MSTORE PUSH1 0x4 ADD PUSH1 0xA0 PUSH1 0x40 MLOAD DUP1 DUP4 SUB DUP2 DUP7 GAS STATICCALL ISZERO DUP1 ISZERO PUSH2 0xB7 JUMPI RETURNDATASIZE PUSH0 DUP1 RETURNDATACOPY RETURNDATASIZE PUSH0 REVERT JUMPDEST POP POP POP POP PUSH1 0x40 MLOAD RETURNDATASIZE PUSH1 0x1F NOT PUSH1 0x1F DUP3 ADD AND DUP3 ADD DUP1 PUSH1 0x40 MSTORE POP DUP2 ADD SWAP1 PUSH2 0xDB SWAP2 SWAP1 PUSH2 0x256 JUMP JUMPDEST SWAP5 POP SWAP5 POP POP SWAP4 POP SWAP4 POP PUSH0 DUP4 SGT PUSH2 0x126 JUMPI PUSH1 0x40 MLOAD PUSH32 0x8C379A000000000000000000000000000000000000000000000000000000000 DUP2 MSTORE PUSH1 0x4 ADD PUSH2 0x11D SWAP1 PUSH2 0x34D JUMP JUMPDEST PUSH1 0x40 MLOAD DUP1 SWAP2 SUB SWAP1 REVERT JUMPDEST DUP3 DUP5 DUP4 DUP4 SWAP9 POP SWAP9 POP SWAP9 POP SWAP9 POP POP POP POP POP POP SWAP1 SWAP2 SWAP3 SWAP4 JUMP JUMPDEST PUSH0 DUP2 SWAP1 POP SWAP2 SWAP1 POP JUMP JUMPDEST PUSH2 0x14F DUP2 PUSH2 0x13D JUMP JUMPDEST DUP3 MSTORE POP POP JUMP JUMPDEST PUSH0 PUSH10 0xFFFFFFFFFFFFFFFFFFFF DUP3 AND SWAP1 POP SWAP2 SWAP1 POP JUMP JUMPDEST PUSH2 0x173 DUP2 PUSH2 0x155 JUMP JUMPDEST DUP3 MSTORE POP POP JUMP JUMPDEST PUSH0 DUP2 SWAP1 POP SWAP2 SWAP1 POP JUMP JUMPDEST PUSH2 0x18B DUP2 PUSH2 0x179 JUMP JUMPDEST DUP3 MSTORE POP POP JUMP JUMPDEST PUSH0 PUSH1 0x80 DUP3 ADD SWAP1 POP PUSH2 0x1A4 PUSH0 DUP4 ADD DUP8 PUSH2 0x146 JUMP JUMPDEST PUSH2 0x1B1 PUSH1 0x20 DUP4 ADD DUP7 PUSH2 0x16A JUMP JUMPDEST PUSH2 0x1BE PUSH1 0x40 DUP4 ADD DUP6 PUSH2 0x182 JUMP JUMPDEST PUSH2 0x1CB PUSH1 0x60 DUP4 ADD DUP5 PUSH2 0x16A JUMP JUMPDEST SWAP6 SWAP5 POP POP POP POP POP JUMP JUMPDEST PUSH0 DUP1 REVERT JUMPDEST PUSH2 0x1E1 DUP2 PUSH2 0x155 JUMP JUMPDEST DUP2 EQ PUSH2 0x1EB JUMPI PUSH0 DUP1 REVERT JUMPDEST POP JUMP JUMPDEST PUSH0 DUP2 MLOAD SWAP1 POP PUSH2 0x1FC DUP2 PUSH2 0x1D8 JUMP JUMPDEST SWAP3 SWAP2 POP POP JUMP JUMPDEST PUSH2 0x20B DUP2 PUSH2 0x13D JUMP JUMPDEST DUP2 EQ PUSH2 0x215 JUMPI PUSH0 DUP1 REVERT JUMPDEST POP JUMP JUMPDEST PUSH0 DUP2 MLOAD SWAP1 POP PUSH2 0x226 DUP2 PUSH2 0x202 JUMP JUMPDEST SWAP3 SWAP2 POP POP JUMP JUMPDEST PUSH2 0x235 DUP2 PUSH2 0x179 JUMP JUMPDEST DUP2 EQ PUSH2 0x23F JUMPI PUSH0 DUP1 REVERT JUMPDEST POP JUMP JUMPDEST PUSH0 DUP2 MLOAD SWAP1 POP PUSH2 0x250 DUP2 PUSH2 0x22C JUMP JUMPDEST SWAP3 SWAP2 POP POP JUMP JUMPDEST PUSH0 DUP1 PUSH0 DUP1 PUSH0 PUSH1 0xA0 DUP7 DUP9 SUB SLT ISZERO PUSH2 0x26F JUMPI PUSH2 0x26E PUSH2 0x1D4 JUMP JUMPDEST JUMPDEST PUSH0 PUSH2 0x27C DUP9 DUP3 DUP10 ADD PUSH2 0x1EE JUMP JUMPDEST SWAP6 POP POP PUSH1 0x20 PUSH2 0x28D DUP9 DUP3 DUP10 ADD PUSH2 0x218 JUMP JUMPDEST SWAP5 POP POP PUSH1 0x40 PUSH2 0x29E DUP9 DUP3 DUP10 ADD PUSH2 0x242 JUMP JUMPDEST SWAP4 POP POP PUSH1 0x60 PUSH2 0x2AF DUP9 DUP3 DUP10 ADD PUSH2 0x242 JUMP JUMPDEST SWAP3 POP POP PUSH1 0x80 PUSH2 0x2C0 DUP9 DUP3 DUP10 ADD PUSH2 0x1EE JUMP JUMPDEST SWAP2 POP POP SWAP3 SWAP6 POP SWAP3 SWAP6 SWAP1 SWAP4 POP JUMP JUMPDEST PUSH0 DUP3 DUP3 MSTORE PUSH1 0x20 DUP3 ADD SWAP1 POP SWAP3 SWAP2 POP POP JUMP JUMPDEST PUSH32 0x496E76616C696420707269636520646174612066726F6D20436861696E6C696E PUSH0 DUP3 ADD MSTORE PUSH32 0x6B00000000000000000000000000000000000000000000000000000000000000 PUSH1 0x20 DUP3 ADD MSTORE POP JUMP JUMPDEST PUSH0 PUSH2 0x337 PUSH1 0x21 DUP4 PUSH2 0x2CD JUMP JUMPDEST SWAP2 POP PUSH2 0x342 DUP3 PUSH2 0x2DD JUMP JUMPDEST PUSH1 0x40 DUP3 ADD SWAP1 POP SWAP2 SWAP1 POP JUMP JUMPDEST PUSH0 PUSH1 0x20 DUP3 ADD SWAP1 POP DUP2 DUP2 SUB PUSH0 DUP4 ADD MSTORE PUSH2 0x364 DUP2 PUSH2 0x32B JUMP JUMPDEST SWAP1 POP SWAP2 SWAP1 POP JUMP INVALID LOG2 PUSH5 0x6970667358 0x22 SLT KECCAK256 ADDMOD PUSH21 0x7A36BD4600C4EBD4DCAAAE5857770CFA6733A0D72B PUSH25 0x763089CDA3C3DDD864736F6C634300081A0033000000000000 "
				},
				"gasEstimates": {
					"creation": {
						"codeDepositCost": "185800",
						"executionCost": "230",
						"totalCost": "186030"
					},
					"external": {
						"getPrice()": "infinite"
					}
				},
				"methodIdentifiers": {
					"getPrice()": "98d5fdca"
				}
			},
			"storageLayout": {
				"storage": [
					{
						"astId": 51,
						"contract": "PriceConverter.sol:PriceConverter",
						"label": "price",
						"offset": 0,
						"slot": "0",
						"type": "t_uint256"
					}
				],
				"types": {
					"t_uint256": {
						"encoding": "inplace",
						"label": "uint256",
						"numberOfBytes": "32"
					}
				}
			},
			"userdoc": {
				"kind": "user",
				"methods": {},
				"version": 1
			}
		}
	}
}