{
	"bai04/Crowdfunding.sol": {
		"Crowdfunding": {
			"abi": [
				{
					"inputs": [],
					"stateMutability": "nonpayable",
					"type": "constructor"
				},
				{
					"inputs": [],
					"name": "NoAvailableAmout",
					"type": "error"
				},
				{
					"stateMutability": "payable",
					"type": "fallback"
				},
				{
					"inputs": [],
					"name": "MINIMUM_USD",
					"outputs": [
						{
							"internalType": "uint256",
							"name": "",
							"type": "uint256"
						}
					],
					"stateMutability": "view",
					"type": "function"
				},
				{
					"inputs": [],
					"name": "fund",
					"outputs": [],
					"stateMutability": "payable",
					"type": "function"
				},
				{
					"inputs": [],
					"name": "getBalance",
					"outputs": [
						{
							"internalType": "uint256",
							"name": "",
							"type": "uint256"
						}
					],
					"stateMutability": "view",
					"type": "function"
				},
				{
					"inputs": [],
					"name": "getThisContract",
					"outputs": [
						{
							"internalType": "address",
							"name": "",
							"type": "address"
						}
					],
					"stateMutability": "view",
					"type": "function"
				},
				{
					"inputs": [],
					"name": "i_owner",
					"outputs": [
						{
							"internalType": "address",
							"name": "",
							"type": "address"
						}
					],
					"stateMutability": "view",
					"type": "function"
				},
				{
					"inputs": [],
					"name": "priceWei",
					"outputs": [
						{
							"internalType": "uint256",
							"name": "",
							"type": "uint256"
						}
					],
					"stateMutability": "view",
					"type": "function"
				},
				{
					"inputs": [],
					"name": "withdraw",
					"outputs": [],
					"stateMutability": "nonpayable",
					"type": "function"
				},
				{
					"stateMutability": "payable",
					"type": "receive"
				}
			],
			"devdoc": {
				"kind": "dev",
				"methods": {},
				"version": 1
			},
			"evm": {
				"assembly": "    /* \"bai04/Crowdfunding.sol\":118:1640  contract Crowdfunding {... */\n  mstore(0x40, 0xa0)\n    /* \"bai04/Crowdfunding.sol\":385:427  0x1ddfE2c36478E61cE3acBE4B96e57143E1964FFd */\n  0x1ddfe2c36478e61ce3acbe4b96e57143e1964ffd\n    /* \"bai04/Crowdfunding.sol\":350:427  address public immutable i_owner = 0x1ddfE2c36478E61cE3acBE4B96e57143E1964FFd */\n  0xffffffffffffffffffffffffffffffffffffffff\n  and\n  0x80\n  swap1\n  0xffffffffffffffffffffffffffffffffffffffff\n  and\n  dup2\n  mstore\n  pop\n    /* \"bai04/Crowdfunding.sol\":631:682  constructor() {... */\n  callvalue\n  dup1\n  iszero\n  tag_1\n  jumpi\n  0x00\n  dup1\n  revert\ntag_1:\n  pop\n    /* \"bai04/Crowdfunding.sol\":665:675  msg.sender */\n  caller\n    /* \"bai04/Crowdfunding.sol\":655:675  i_owner = msg.sender */\n  0xffffffffffffffffffffffffffffffffffffffff\n  and\n  0x80\n  dup2\n  0xffffffffffffffffffffffffffffffffffffffff\n  and\n  dup2\n  mstore\n  pop\n  pop\n    /* \"bai04/Crowdfunding.sol\":118:1640  contract Crowdfunding {... */\n  mload(0x80)\n  codecopy(0x00, dataOffset(sub_0), dataSize(sub_0))\n  0x00\n  assignImmutable(\"0x606503ebd6bdca7290248af82fd5a09ca0489398da9f242244210336ae6ece9f\")\n  return(0x00, dataSize(sub_0))\nstop\n\nsub_0: assembly {\n        /* \"bai04/Crowdfunding.sol\":118:1640  contract Crowdfunding {... */\n      mstore(0x40, 0x80)\n      jumpi(tag_1, lt(calldatasize, 0x04))\n      shr(0xe0, calldataload(0x00))\n      dup1\n      0x6b69a592\n      gt\n      tag_10\n      jumpi\n      dup1\n      0x6b69a592\n      eq\n      tag_6\n      jumpi\n      dup1\n      0xb60d4288\n      eq\n      tag_7\n      jumpi\n      dup1\n      0xb7ec2086\n      eq\n      tag_8\n      jumpi\n      dup1\n      0xdba6335f\n      eq\n      tag_9\n      jumpi\n      jump(tag_2)\n    tag_10:\n      dup1\n      0x12065fe0\n      eq\n      tag_3\n      jumpi\n      dup1\n      0x3ccfd60b\n      eq\n      tag_4\n      jumpi\n      dup1\n      0x469e2cec\n      eq\n      tag_5\n      jumpi\n      jump(tag_2)\n    tag_1:\n      jumpi(tag_2, calldatasize)\n        /* \"bai04/Crowdfunding.sol\":555:561  fund() */\n      tag_13\n        /* \"bai04/Crowdfunding.sol\":555:559  fund */\n      tag_14\n        /* \"bai04/Crowdfunding.sol\":555:561  fund() */\n      jump\t// in\n    tag_13:\n        /* \"bai04/Crowdfunding.sol\":118:1640  contract Crowdfunding {... */\n      stop\n    tag_2:\n        /* \"bai04/Crowdfunding.sol\":612:618  fund() */\n      tag_17\n        /* \"bai04/Crowdfunding.sol\":612:616  fund */\n      tag_14\n        /* \"bai04/Crowdfunding.sol\":612:618  fund() */\n      jump\t// in\n    tag_17:\n        /* \"bai04/Crowdfunding.sol\":118:1640  contract Crowdfunding {... */\n      stop\n        /* \"bai04/Crowdfunding.sol\":1378:1506  function getBalance() public view returns (uint256) {... */\n    tag_3:\n      callvalue\n      dup1\n      iszero\n      tag_18\n      jumpi\n      0x00\n      dup1\n      revert\n    tag_18:\n      pop\n      tag_19\n      tag_20\n      jump\t// in\n    tag_19:\n      mload(0x40)\n      tag_21\n      swap2\n      swap1\n      tag_22\n      jump\t// in\n    tag_21:\n      mload(0x40)\n      dup1\n      swap2\n      sub\n      swap1\n      return\n        /* \"bai04/Crowdfunding.sol\":1170:1372  function withdraw() public onlyOwner {... */\n    tag_4:\n      callvalue\n      dup1\n      iszero\n      tag_23\n      jumpi\n      0x00\n      dup1\n      revert\n    tag_23:\n      pop\n      tag_24\n      tag_25\n      jump\t// in\n    tag_24:\n      stop\n        /* \"bai04/Crowdfunding.sol\":1512:1638  function getThisContract() public view returns (address) {... */\n    tag_5:\n      callvalue\n      dup1\n      iszero\n      tag_26\n      jumpi\n      0x00\n      dup1\n      revert\n    tag_26:\n      pop\n      tag_27\n      tag_28\n      jump\t// in\n    tag_27:\n      mload(0x40)\n      tag_29\n      swap2\n      swap1\n      tag_30\n      jump\t// in\n    tag_29:\n      mload(0x40)\n      dup1\n      swap2\n      sub\n      swap1\n      return\n        /* \"bai04/Crowdfunding.sol\":287:329  uint256 public constant MINIMUM_USD = 5e18 */\n    tag_6:\n      callvalue\n      dup1\n      iszero\n      tag_31\n      jumpi\n      0x00\n      dup1\n      revert\n    tag_31:\n      pop\n      tag_32\n      tag_33\n      jump\t// in\n    tag_32:\n      mload(0x40)\n      tag_34\n      swap2\n      swap1\n      tag_22\n      jump\t// in\n    tag_34:\n      mload(0x40)\n      dup1\n      swap2\n      sub\n      swap1\n      return\n        /* \"bai04/Crowdfunding.sol\":847:1164  function fund() public payable {... */\n    tag_7:\n      tag_35\n      tag_14\n      jump\t// in\n    tag_35:\n      stop\n        /* \"bai04/Crowdfunding.sol\":818:841  uint256 public priceWei */\n    tag_8:\n      callvalue\n      dup1\n      iszero\n      tag_36\n      jumpi\n      0x00\n      dup1\n      revert\n    tag_36:\n      pop\n      tag_37\n      tag_38\n      jump\t// in\n    tag_37:\n      mload(0x40)\n      tag_39\n      swap2\n      swap1\n      tag_22\n      jump\t// in\n    tag_39:\n      mload(0x40)\n      dup1\n      swap2\n      sub\n      swap1\n      return\n        /* \"bai04/Crowdfunding.sol\":350:427  address public immutable i_owner = 0x1ddfE2c36478E61cE3acBE4B96e57143E1964FFd */\n    tag_9:\n      callvalue\n      dup1\n      iszero\n      tag_40\n      jumpi\n      0x00\n      dup1\n      revert\n    tag_40:\n      pop\n      tag_41\n      tag_42\n      jump\t// in\n    tag_41:\n      mload(0x40)\n      tag_43\n      swap2\n      swap1\n      tag_30\n      jump\t// in\n    tag_43:\n      mload(0x40)\n      dup1\n      swap2\n      sub\n      swap1\n      return\n        /* \"bai04/Crowdfunding.sol\":847:1164  function fund() public payable {... */\n    tag_14:\n        /* \"bai04/Crowdfunding.sol\":953:954  6 */\n      0x06\n        /* \"bai04/Crowdfunding.sol\":942:950  priceWei */\n      0x00\n        /* \"bai04/Crowdfunding.sol\":942:954  priceWei = 6 */\n      dup2\n      swap1\n      sstore\n      pop\n        /* \"bai04/Crowdfunding.sol\":975:1004  msg.value.getConversionRate() */\n      tag_45\n        /* \"bai04/Crowdfunding.sol\":975:984  msg.value */\n      callvalue\n        /* \"bai04/Crowdfunding.sol\":975:1002  msg.value.getConversionRate */\n      tag_46\n        /* \"bai04/Crowdfunding.sol\":975:1004  msg.value.getConversionRate() */\n      jump\t// in\n    tag_45:\n        /* \"bai04/Crowdfunding.sol\":964:972  priceWei */\n      0x00\n        /* \"bai04/Crowdfunding.sol\":964:1004  priceWei = msg.value.getConversionRate() */\n      dup2\n      swap1\n      sstore\n      pop\n        /* \"bai04/Crowdfunding.sol\":1025:1026  5 */\n      0x05\n        /* \"bai04/Crowdfunding.sol\":1014:1022  priceWei */\n      0x00\n        /* \"bai04/Crowdfunding.sol\":1014:1026  priceWei = 5 */\n      dup2\n      swap1\n      sstore\n      pop\n        /* \"bai04/Crowdfunding.sol\":847:1164  function fund() public payable {... */\n      jump\t// out\n        /* \"bai04/Crowdfunding.sol\":1378:1506  function getBalance() public view returns (uint256) {... */\n    tag_20:\n        /* \"bai04/Crowdfunding.sol\":1421:1428  uint256 */\n      0x00\n        /* \"bai04/Crowdfunding.sol\":1447:1468  address(this).balance */\n      selfbalance\n        /* \"bai04/Crowdfunding.sol\":1440:1468  return address(this).balance */\n      swap1\n      pop\n        /* \"bai04/Crowdfunding.sol\":1378:1506  function getBalance() public view returns (uint256) {... */\n      swap1\n      jump\t// out\n        /* \"bai04/Crowdfunding.sol\":1170:1372  function withdraw() public onlyOwner {... */\n    tag_25:\n        /* \"bai04/Crowdfunding.sol\":734:744  msg.sender */\n      caller\n        /* \"bai04/Crowdfunding.sol\":723:744  i_owner != msg.sender */\n      0xffffffffffffffffffffffffffffffffffffffff\n      and\n        /* \"bai04/Crowdfunding.sol\":723:730  i_owner */\n      immutable(\"0x606503ebd6bdca7290248af82fd5a09ca0489398da9f242244210336ae6ece9f\")\n        /* \"bai04/Crowdfunding.sol\":723:744  i_owner != msg.sender */\n      0xffffffffffffffffffffffffffffffffffffffff\n      and\n      eq\n        /* \"bai04/Crowdfunding.sol\":719:796  if (i_owner != msg.sender) {... */\n      tag_49\n      jumpi\n        /* \"bai04/Crowdfunding.sol\":767:785  NoAvailableAmout() */\n      mload(0x40)\n      0xeb0c840800000000000000000000000000000000000000000000000000000000\n      dup2\n      mstore\n      0x04\n      add\n      mload(0x40)\n      dup1\n      swap2\n      sub\n      swap1\n      revert\n        /* \"bai04/Crowdfunding.sol\":719:796  if (i_owner != msg.sender) {... */\n    tag_49:\n        /* \"bai04/Crowdfunding.sol\":1218:1227  bool sent */\n      0x00\n        /* \"bai04/Crowdfunding.sol\":1241:1248  i_owner */\n      immutable(\"0x606503ebd6bdca7290248af82fd5a09ca0489398da9f242244210336ae6ece9f\")\n        /* \"bai04/Crowdfunding.sol\":1233:1254  payable(i_owner).call */\n      0xffffffffffffffffffffffffffffffffffffffff\n      and\n        /* \"bai04/Crowdfunding.sol\":1262:1283  address(this).balance */\n      selfbalance\n        /* \"bai04/Crowdfunding.sol\":1233:1288  payable(i_owner).call{value: address(this).balance}(\"\") */\n      mload(0x40)\n      tag_51\n      swap1\n      tag_52\n      jump\t// in\n    tag_51:\n      0x00\n      mload(0x40)\n      dup1\n      dup4\n      sub\n      dup2\n      dup6\n      dup8\n      gas\n      call\n      swap3\n      pop\n      pop\n      pop\n      returndatasize\n      dup1\n      0x00\n      dup2\n      eq\n      tag_55\n      jumpi\n      mload(0x40)\n      swap2\n      pop\n      and(add(returndatasize, 0x3f), not(0x1f))\n      dup3\n      add\n      0x40\n      mstore\n      returndatasize\n      dup3\n      mstore\n      returndatasize\n      0x00\n      0x20\n      dup5\n      add\n      returndatacopy\n      jump(tag_54)\n    tag_55:\n      0x60\n      swap2\n      pop\n    tag_54:\n      pop\n        /* \"bai04/Crowdfunding.sol\":1217:1288  (bool sent, ) = payable(i_owner).call{value: address(this).balance}(\"\") */\n      pop\n      swap1\n      pop\n        /* \"bai04/Crowdfunding.sol\":1336:1340  sent */\n      dup1\n        /* \"bai04/Crowdfunding.sol\":1328:1365  require(sent, \"Failed to send Ether\") */\n      tag_56\n      jumpi\n      mload(0x40)\n      0x08c379a000000000000000000000000000000000000000000000000000000000\n      dup2\n      mstore\n      0x04\n      add\n      tag_57\n      swap1\n      tag_58\n      jump\t// in\n    tag_57:\n      mload(0x40)\n      dup1\n      swap2\n      sub\n      swap1\n      revert\n    tag_56:\n        /* \"bai04/Crowdfunding.sol\":1207:1372  {... */\n      pop\n        /* \"bai04/Crowdfunding.sol\":1170:1372  function withdraw() public onlyOwner {... */\n      jump\t// out\n        /* \"bai04/Crowdfunding.sol\":1512:1638  function getThisContract() public view returns (address) {... */\n    tag_28:\n        /* \"bai04/Crowdfunding.sol\":1560:1567  address */\n      0x00\n        /* \"bai04/Crowdfunding.sol\":1594:1598  this */\n      address\n        /* \"bai04/Crowdfunding.sol\":1579:1599  return address(this) */\n      swap1\n      pop\n        /* \"bai04/Crowdfunding.sol\":1512:1638  function getThisContract() public view returns (address) {... */\n      swap1\n      jump\t// out\n        /* \"bai04/Crowdfunding.sol\":287:329  uint256 public constant MINIMUM_USD = 5e18 */\n    tag_33:\n        /* \"bai04/Crowdfunding.sol\":325:329  5e18 */\n      0x4563918244f40000\n        /* \"bai04/Crowdfunding.sol\":287:329  uint256 public constant MINIMUM_USD = 5e18 */\n      dup2\n      jump\t// out\n        /* \"bai04/Crowdfunding.sol\":818:841  uint256 public priceWei */\n    tag_38:\n      sload(0x00)\n      dup2\n      jump\t// out\n        /* \"bai04/Crowdfunding.sol\":350:427  address public immutable i_owner = 0x1ddfE2c36478E61cE3acBE4B96e57143E1964FFd */\n    tag_42:\n      immutable(\"0x606503ebd6bdca7290248af82fd5a09ca0489398da9f242244210336ae6ece9f\")\n      dup2\n      jump\t// out\n        /* \"bai04/PriceConverter.sol\":519:782  function getConversionRate(uint256 ethAmount) internal view returns (uint256) {... */\n    tag_46:\n        /* \"bai04/PriceConverter.sol\":588:595  uint256 */\n      0x00\n        /* \"bai04/PriceConverter.sol\":608:624  uint256 ethPrice */\n      dup1\n        /* \"bai04/PriceConverter.sol\":627:637  getPrice() */\n      tag_61\n        /* \"bai04/PriceConverter.sol\":627:635  getPrice */\n      tag_62\n        /* \"bai04/PriceConverter.sol\":627:637  getPrice() */\n      jump\t// in\n    tag_61:\n        /* \"bai04/PriceConverter.sol\":608:637  uint256 ethPrice = getPrice() */\n      swap1\n      pop\n        /* \"bai04/PriceConverter.sol\":659:681  uint256 ethAmountInUsd */\n      0x00\n        /* \"bai04/PriceConverter.sol\":707:711  1e18 */\n      0x0de0b6b3a7640000\n        /* \"bai04/PriceConverter.sol\":696:705  ethAmount */\n      dup5\n        /* \"bai04/PriceConverter.sol\":685:693  ethPrice */\n      dup4\n        /* \"bai04/PriceConverter.sol\":685:705  ethPrice * ethAmount */\n      tag_63\n      swap2\n      swap1\n      tag_64\n      jump\t// in\n    tag_63:\n        /* \"bai04/PriceConverter.sol\":684:711  (ethPrice * ethAmount)/1e18 */\n      tag_65\n      swap2\n      swap1\n      tag_66\n      jump\t// in\n    tag_65:\n        /* \"bai04/PriceConverter.sol\":659:711  uint256 ethAmountInUsd = (ethPrice * ethAmount)/1e18 */\n      swap1\n      pop\n        /* \"bai04/PriceConverter.sol\":753:767  ethAmountInUsd */\n      dup1\n        /* \"bai04/PriceConverter.sol\":746:767  return ethAmountInUsd */\n      swap3\n      pop\n      pop\n      pop\n        /* \"bai04/PriceConverter.sol\":519:782  function getConversionRate(uint256 ethAmount) internal view returns (uint256) {... */\n      swap2\n      swap1\n      pop\n      jump\t// out\n        /* \"bai04/PriceConverter.sol\":213:513  function getPrice() internal view returns (uint256) {... */\n    tag_62:\n        /* \"bai04/PriceConverter.sol\":256:263  uint256 */\n      0x00\n        /* \"bai04/PriceConverter.sol\":276:307  AggregatorV3Interface priceFeed */\n      dup1\n        /* \"bai04/PriceConverter.sol\":332:374  0x694AA1769357215DE4FAC081bf1f309aDC325306 */\n      0x694aa1769357215de4fac081bf1f309adc325306\n        /* \"bai04/PriceConverter.sol\":276:375  AggregatorV3Interface priceFeed = AggregatorV3Interface(0x694AA1769357215DE4FAC081bf1f309aDC325306) */\n      swap1\n      pop\n        /* \"bai04/PriceConverter.sol\":388:401  int256 answer */\n      0x00\n        /* \"bai04/PriceConverter.sol\":408:417  priceFeed */\n      dup2\n        /* \"bai04/PriceConverter.sol\":408:433  priceFeed.latestRoundData */\n      0xffffffffffffffffffffffffffffffffffffffff\n      and\n      0xfeaf968c\n        /* \"bai04/PriceConverter.sol\":408:435  priceFeed.latestRoundData() */\n      mload(0x40)\n      dup2\n      0xffffffff\n      and\n      0xe0\n      shl\n      dup2\n      mstore\n      0x04\n      add\n      0xa0\n      mload(0x40)\n      dup1\n      dup4\n      sub\n      dup2\n      dup7\n      gas\n      staticcall\n      iszero\n      dup1\n      iszero\n      tag_69\n      jumpi\n      returndatasize\n      0x00\n      dup1\n      returndatacopy\n      revert(0x00, returndatasize)\n    tag_69:\n      pop\n      pop\n      pop\n      pop\n      mload(0x40)\n      returndatasize\n      not(0x1f)\n      0x1f\n      dup3\n      add\n      and\n      dup3\n      add\n      dup1\n      0x40\n      mstore\n      pop\n      dup2\n      add\n      swap1\n      tag_70\n      swap2\n      swap1\n      tag_71\n      jump\t// in\n    tag_70:\n        /* \"bai04/PriceConverter.sol\":386:435  (,int256 answer,,,) = priceFeed.latestRoundData() */\n      pop\n      pop\n      pop\n      swap2\n      pop\n      pop\n        /* \"bai04/PriceConverter.sol\":463:464  0 */\n      0x00\n        /* \"bai04/PriceConverter.sol\":454:460  answer */\n      dup2\n        /* \"bai04/PriceConverter.sol\":454:464  answer > 0 */\n      sgt\n        /* \"bai04/PriceConverter.sol\":446:465  require(answer > 0) */\n      tag_72\n      jumpi\n      0x00\n      dup1\n      revert\n    tag_72:\n        /* \"bai04/PriceConverter.sol\":501:505  1e10 */\n      0x02540be400\n        /* \"bai04/PriceConverter.sol\":491:497  answer */\n      dup2\n        /* \"bai04/PriceConverter.sol\":483:505  uint256(answer) * 1e10 */\n      tag_73\n      swap2\n      swap1\n      tag_64\n      jump\t// in\n    tag_73:\n        /* \"bai04/PriceConverter.sol\":476:505  return uint256(answer) * 1e10 */\n      swap3\n      pop\n      pop\n      pop\n        /* \"bai04/PriceConverter.sol\":213:513  function getPrice() internal view returns (uint256) {... */\n      swap1\n      jump\t// out\n        /* \"#utility.yul\":7:84   */\n    tag_74:\n        /* \"#utility.yul\":44:51   */\n      0x00\n        /* \"#utility.yul\":73:78   */\n      dup2\n        /* \"#utility.yul\":62:78   */\n      swap1\n      pop\n        /* \"#utility.yul\":7:84   */\n      swap2\n      swap1\n      pop\n      jump\t// out\n        /* \"#utility.yul\":90:208   */\n    tag_75:\n        /* \"#utility.yul\":177:201   */\n      tag_101\n        /* \"#utility.yul\":195:200   */\n      dup2\n        /* \"#utility.yul\":177:201   */\n      tag_74\n      jump\t// in\n    tag_101:\n        /* \"#utility.yul\":172:175   */\n      dup3\n        /* \"#utility.yul\":165:202   */\n      mstore\n        /* \"#utility.yul\":90:208   */\n      pop\n      pop\n      jump\t// out\n        /* \"#utility.yul\":214:436   */\n    tag_22:\n        /* \"#utility.yul\":307:311   */\n      0x00\n        /* \"#utility.yul\":345:347   */\n      0x20\n        /* \"#utility.yul\":334:343   */\n      dup3\n        /* \"#utility.yul\":330:348   */\n      add\n        /* \"#utility.yul\":322:348   */\n      swap1\n      pop\n        /* \"#utility.yul\":358:429   */\n      tag_103\n        /* \"#utility.yul\":426:427   */\n      0x00\n        /* \"#utility.yul\":415:424   */\n      dup4\n        /* \"#utility.yul\":411:428   */\n      add\n        /* \"#utility.yul\":402:408   */\n      dup5\n        /* \"#utility.yul\":358:429   */\n      tag_75\n      jump\t// in\n    tag_103:\n        /* \"#utility.yul\":214:436   */\n      swap3\n      swap2\n      pop\n      pop\n      jump\t// out\n        /* \"#utility.yul\":442:568   */\n    tag_76:\n        /* \"#utility.yul\":479:486   */\n      0x00\n        /* \"#utility.yul\":519:561   */\n      0xffffffffffffffffffffffffffffffffffffffff\n        /* \"#utility.yul\":512:517   */\n      dup3\n        /* \"#utility.yul\":508:562   */\n      and\n        /* \"#utility.yul\":497:562   */\n      swap1\n      pop\n        /* \"#utility.yul\":442:568   */\n      swap2\n      swap1\n      pop\n      jump\t// out\n        /* \"#utility.yul\":574:670   */\n    tag_77:\n        /* \"#utility.yul\":611:618   */\n      0x00\n        /* \"#utility.yul\":640:664   */\n      tag_106\n        /* \"#utility.yul\":658:663   */\n      dup3\n        /* \"#utility.yul\":640:664   */\n      tag_76\n      jump\t// in\n    tag_106:\n        /* \"#utility.yul\":629:664   */\n      swap1\n      pop\n        /* \"#utility.yul\":574:670   */\n      swap2\n      swap1\n      pop\n      jump\t// out\n        /* \"#utility.yul\":676:794   */\n    tag_78:\n        /* \"#utility.yul\":763:787   */\n      tag_108\n        /* \"#utility.yul\":781:786   */\n      dup2\n        /* \"#utility.yul\":763:787   */\n      tag_77\n      jump\t// in\n    tag_108:\n        /* \"#utility.yul\":758:761   */\n      dup3\n        /* \"#utility.yul\":751:788   */\n      mstore\n        /* \"#utility.yul\":676:794   */\n      pop\n      pop\n      jump\t// out\n        /* \"#utility.yul\":800:1022   */\n    tag_30:\n        /* \"#utility.yul\":893:897   */\n      0x00\n        /* \"#utility.yul\":931:933   */\n      0x20\n        /* \"#utility.yul\":920:929   */\n      dup3\n        /* \"#utility.yul\":916:934   */\n      add\n        /* \"#utility.yul\":908:934   */\n      swap1\n      pop\n        /* \"#utility.yul\":944:1015   */\n      tag_110\n        /* \"#utility.yul\":1012:1013   */\n      0x00\n        /* \"#utility.yul\":1001:1010   */\n      dup4\n        /* \"#utility.yul\":997:1014   */\n      add\n        /* \"#utility.yul\":988:994   */\n      dup5\n        /* \"#utility.yul\":944:1015   */\n      tag_78\n      jump\t// in\n    tag_110:\n        /* \"#utility.yul\":800:1022   */\n      swap3\n      swap2\n      pop\n      pop\n      jump\t// out\n        /* \"#utility.yul\":1028:1175   */\n    tag_79:\n        /* \"#utility.yul\":1129:1140   */\n      0x00\n        /* \"#utility.yul\":1166:1169   */\n      dup2\n        /* \"#utility.yul\":1151:1169   */\n      swap1\n      pop\n        /* \"#utility.yul\":1028:1175   */\n      swap3\n      swap2\n      pop\n      pop\n      jump\t// out\n        /* \"#utility.yul\":1181:1295   */\n    tag_80:\n      pop\n      jump\t// out\n        /* \"#utility.yul\":1301:1699   */\n    tag_81:\n        /* \"#utility.yul\":1460:1463   */\n      0x00\n        /* \"#utility.yul\":1481:1564   */\n      tag_114\n        /* \"#utility.yul\":1562:1563   */\n      0x00\n        /* \"#utility.yul\":1557:1560   */\n      dup4\n        /* \"#utility.yul\":1481:1564   */\n      tag_79\n      jump\t// in\n    tag_114:\n        /* \"#utility.yul\":1474:1564   */\n      swap2\n      pop\n        /* \"#utility.yul\":1573:1666   */\n      tag_115\n        /* \"#utility.yul\":1662:1665   */\n      dup3\n        /* \"#utility.yul\":1573:1666   */\n      tag_80\n      jump\t// in\n    tag_115:\n        /* \"#utility.yul\":1691:1692   */\n      0x00\n        /* \"#utility.yul\":1686:1689   */\n      dup3\n        /* \"#utility.yul\":1682:1693   */\n      add\n        /* \"#utility.yul\":1675:1693   */\n      swap1\n      pop\n        /* \"#utility.yul\":1301:1699   */\n      swap2\n      swap1\n      pop\n      jump\t// out\n        /* \"#utility.yul\":1705:2084   */\n    tag_52:\n        /* \"#utility.yul\":1889:1892   */\n      0x00\n        /* \"#utility.yul\":1911:2058   */\n      tag_117\n        /* \"#utility.yul\":2054:2057   */\n      dup3\n        /* \"#utility.yul\":1911:2058   */\n      tag_81\n      jump\t// in\n    tag_117:\n        /* \"#utility.yul\":1904:2058   */\n      swap2\n      pop\n        /* \"#utility.yul\":2075:2078   */\n      dup2\n        /* \"#utility.yul\":2068:2078   */\n      swap1\n      pop\n        /* \"#utility.yul\":1705:2084   */\n      swap2\n      swap1\n      pop\n      jump\t// out\n        /* \"#utility.yul\":2090:2259   */\n    tag_82:\n        /* \"#utility.yul\":2174:2185   */\n      0x00\n        /* \"#utility.yul\":2208:2214   */\n      dup3\n        /* \"#utility.yul\":2203:2206   */\n      dup3\n        /* \"#utility.yul\":2196:2215   */\n      mstore\n        /* \"#utility.yul\":2248:2252   */\n      0x20\n        /* \"#utility.yul\":2243:2246   */\n      dup3\n        /* \"#utility.yul\":2239:2253   */\n      add\n        /* \"#utility.yul\":2224:2253   */\n      swap1\n      pop\n        /* \"#utility.yul\":2090:2259   */\n      swap3\n      swap2\n      pop\n      pop\n      jump\t// out\n        /* \"#utility.yul\":2265:2435   */\n    tag_83:\n        /* \"#utility.yul\":2405:2427   */\n      0x4661696c656420746f2073656e64204574686572000000000000000000000000\n        /* \"#utility.yul\":2401:2402   */\n      0x00\n        /* \"#utility.yul\":2393:2399   */\n      dup3\n        /* \"#utility.yul\":2389:2403   */\n      add\n        /* \"#utility.yul\":2382:2428   */\n      mstore\n        /* \"#utility.yul\":2265:2435   */\n      pop\n      jump\t// out\n        /* \"#utility.yul\":2441:2807   */\n    tag_84:\n        /* \"#utility.yul\":2583:2586   */\n      0x00\n        /* \"#utility.yul\":2604:2671   */\n      tag_121\n        /* \"#utility.yul\":2668:2670   */\n      0x14\n        /* \"#utility.yul\":2663:2666   */\n      dup4\n        /* \"#utility.yul\":2604:2671   */\n      tag_82\n      jump\t// in\n    tag_121:\n        /* \"#utility.yul\":2597:2671   */\n      swap2\n      pop\n        /* \"#utility.yul\":2680:2773   */\n      tag_122\n        /* \"#utility.yul\":2769:2772   */\n      dup3\n        /* \"#utility.yul\":2680:2773   */\n      tag_83\n      jump\t// in\n    tag_122:\n        /* \"#utility.yul\":2798:2800   */\n      0x20\n        /* \"#utility.yul\":2793:2796   */\n      dup3\n        /* \"#utility.yul\":2789:2801   */\n      add\n        /* \"#utility.yul\":2782:2801   */\n      swap1\n      pop\n        /* \"#utility.yul\":2441:2807   */\n      swap2\n      swap1\n      pop\n      jump\t// out\n        /* \"#utility.yul\":2813:3232   */\n    tag_58:\n        /* \"#utility.yul\":2979:2983   */\n      0x00\n        /* \"#utility.yul\":3017:3019   */\n      0x20\n        /* \"#utility.yul\":3006:3015   */\n      dup3\n        /* \"#utility.yul\":3002:3020   */\n      add\n        /* \"#utility.yul\":2994:3020   */\n      swap1\n      pop\n        /* \"#utility.yul\":3066:3075   */\n      dup2\n        /* \"#utility.yul\":3060:3064   */\n      dup2\n        /* \"#utility.yul\":3056:3076   */\n      sub\n        /* \"#utility.yul\":3052:3053   */\n      0x00\n        /* \"#utility.yul\":3041:3050   */\n      dup4\n        /* \"#utility.yul\":3037:3054   */\n      add\n        /* \"#utility.yul\":3030:3077   */\n      mstore\n        /* \"#utility.yul\":3094:3225   */\n      tag_124\n        /* \"#utility.yul\":3220:3224   */\n      dup2\n        /* \"#utility.yul\":3094:3225   */\n      tag_84\n      jump\t// in\n    tag_124:\n        /* \"#utility.yul\":3086:3225   */\n      swap1\n      pop\n        /* \"#utility.yul\":2813:3232   */\n      swap2\n      swap1\n      pop\n      jump\t// out\n        /* \"#utility.yul\":3238:3418   */\n    tag_85:\n        /* \"#utility.yul\":3286:3363   */\n      0x4e487b7100000000000000000000000000000000000000000000000000000000\n        /* \"#utility.yul\":3283:3284   */\n      0x00\n        /* \"#utility.yul\":3276:3364   */\n      mstore\n        /* \"#utility.yul\":3383:3387   */\n      0x11\n        /* \"#utility.yul\":3380:3381   */\n      0x04\n        /* \"#utility.yul\":3373:3388   */\n      mstore\n        /* \"#utility.yul\":3407:3411   */\n      0x24\n        /* \"#utility.yul\":3404:3405   */\n      0x00\n        /* \"#utility.yul\":3397:3412   */\n      revert\n        /* \"#utility.yul\":3424:3834   */\n    tag_64:\n        /* \"#utility.yul\":3464:3471   */\n      0x00\n        /* \"#utility.yul\":3487:3507   */\n      tag_127\n        /* \"#utility.yul\":3505:3506   */\n      dup3\n        /* \"#utility.yul\":3487:3507   */\n      tag_74\n      jump\t// in\n    tag_127:\n        /* \"#utility.yul\":3482:3507   */\n      swap2\n      pop\n        /* \"#utility.yul\":3521:3541   */\n      tag_128\n        /* \"#utility.yul\":3539:3540   */\n      dup4\n        /* \"#utility.yul\":3521:3541   */\n      tag_74\n      jump\t// in\n    tag_128:\n        /* \"#utility.yul\":3516:3541   */\n      swap3\n      pop\n        /* \"#utility.yul\":3576:3577   */\n      dup3\n        /* \"#utility.yul\":3573:3574   */\n      dup3\n        /* \"#utility.yul\":3569:3578   */\n      mul\n        /* \"#utility.yul\":3598:3628   */\n      tag_129\n        /* \"#utility.yul\":3616:3627   */\n      dup2\n        /* \"#utility.yul\":3598:3628   */\n      tag_74\n      jump\t// in\n    tag_129:\n        /* \"#utility.yul\":3587:3628   */\n      swap2\n      pop\n        /* \"#utility.yul\":3777:3778   */\n      dup3\n        /* \"#utility.yul\":3768:3775   */\n      dup3\n        /* \"#utility.yul\":3764:3779   */\n      div\n        /* \"#utility.yul\":3761:3762   */\n      dup5\n        /* \"#utility.yul\":3758:3780   */\n      eq\n        /* \"#utility.yul\":3738:3739   */\n      dup4\n        /* \"#utility.yul\":3731:3740   */\n      iszero\n        /* \"#utility.yul\":3711:3794   */\n      or\n        /* \"#utility.yul\":3688:3827   */\n      tag_130\n      jumpi\n        /* \"#utility.yul\":3807:3825   */\n      tag_131\n      tag_85\n      jump\t// in\n    tag_131:\n        /* \"#utility.yul\":3688:3827   */\n    tag_130:\n        /* \"#utility.yul\":3472:3834   */\n      pop\n        /* \"#utility.yul\":3424:3834   */\n      swap3\n      swap2\n      pop\n      pop\n      jump\t// out\n        /* \"#utility.yul\":3840:4020   */\n    tag_86:\n        /* \"#utility.yul\":3888:3965   */\n      0x4e487b7100000000000000000000000000000000000000000000000000000000\n        /* \"#utility.yul\":3885:3886   */\n      0x00\n        /* \"#utility.yul\":3878:3966   */\n      mstore\n        /* \"#utility.yul\":3985:3989   */\n      0x12\n        /* \"#utility.yul\":3982:3983   */\n      0x04\n        /* \"#utility.yul\":3975:3990   */\n      mstore\n        /* \"#utility.yul\":4009:4013   */\n      0x24\n        /* \"#utility.yul\":4006:4007   */\n      0x00\n        /* \"#utility.yul\":3999:4014   */\n      revert\n        /* \"#utility.yul\":4026:4211   */\n    tag_66:\n        /* \"#utility.yul\":4066:4067   */\n      0x00\n        /* \"#utility.yul\":4083:4103   */\n      tag_134\n        /* \"#utility.yul\":4101:4102   */\n      dup3\n        /* \"#utility.yul\":4083:4103   */\n      tag_74\n      jump\t// in\n    tag_134:\n        /* \"#utility.yul\":4078:4103   */\n      swap2\n      pop\n        /* \"#utility.yul\":4117:4137   */\n      tag_135\n        /* \"#utility.yul\":4135:4136   */\n      dup4\n        /* \"#utility.yul\":4117:4137   */\n      tag_74\n      jump\t// in\n    tag_135:\n        /* \"#utility.yul\":4112:4137   */\n      swap3\n      pop\n        /* \"#utility.yul\":4156:4157   */\n      dup3\n        /* \"#utility.yul\":4146:4181   */\n      tag_136\n      jumpi\n        /* \"#utility.yul\":4161:4179   */\n      tag_137\n      tag_86\n      jump\t// in\n    tag_137:\n        /* \"#utility.yul\":4146:4181   */\n    tag_136:\n        /* \"#utility.yul\":4203:4204   */\n      dup3\n        /* \"#utility.yul\":4200:4201   */\n      dup3\n        /* \"#utility.yul\":4196:4205   */\n      div\n        /* \"#utility.yul\":4191:4205   */\n      swap1\n      pop\n        /* \"#utility.yul\":4026:4211   */\n      swap3\n      swap2\n      pop\n      pop\n      jump\t// out\n        /* \"#utility.yul\":4298:4415   */\n    tag_88:\n        /* \"#utility.yul\":4407:4408   */\n      0x00\n        /* \"#utility.yul\":4404:4405   */\n      dup1\n        /* \"#utility.yul\":4397:4409   */\n      revert\n        /* \"#utility.yul\":4544:4649   */\n    tag_90:\n        /* \"#utility.yul\":4580:4587   */\n      0x00\n        /* \"#utility.yul\":4620:4642   */\n      0xffffffffffffffffffff\n        /* \"#utility.yul\":4613:4618   */\n      dup3\n        /* \"#utility.yul\":4609:4643   */\n      and\n        /* \"#utility.yul\":4598:4643   */\n      swap1\n      pop\n        /* \"#utility.yul\":4544:4649   */\n      swap2\n      swap1\n      pop\n      jump\t// out\n        /* \"#utility.yul\":4655:4775   */\n    tag_91:\n        /* \"#utility.yul\":4727:4750   */\n      tag_143\n        /* \"#utility.yul\":4744:4749   */\n      dup2\n        /* \"#utility.yul\":4727:4750   */\n      tag_90\n      jump\t// in\n    tag_143:\n        /* \"#utility.yul\":4720:4725   */\n      dup2\n        /* \"#utility.yul\":4717:4751   */\n      eq\n        /* \"#utility.yul\":4707:4769   */\n      tag_144\n      jumpi\n        /* \"#utility.yul\":4765:4766   */\n      0x00\n        /* \"#utility.yul\":4762:4763   */\n      dup1\n        /* \"#utility.yul\":4755:4767   */\n      revert\n        /* \"#utility.yul\":4707:4769   */\n    tag_144:\n        /* \"#utility.yul\":4655:4775   */\n      pop\n      jump\t// out\n        /* \"#utility.yul\":4781:4922   */\n    tag_92:\n        /* \"#utility.yul\":4837:4842   */\n      0x00\n        /* \"#utility.yul\":4868:4874   */\n      dup2\n        /* \"#utility.yul\":4862:4875   */\n      mload\n        /* \"#utility.yul\":4853:4875   */\n      swap1\n      pop\n        /* \"#utility.yul\":4884:4916   */\n      tag_146\n        /* \"#utility.yul\":4910:4915   */\n      dup2\n        /* \"#utility.yul\":4884:4916   */\n      tag_91\n      jump\t// in\n    tag_146:\n        /* \"#utility.yul\":4781:4922   */\n      swap3\n      swap2\n      pop\n      pop\n      jump\t// out\n        /* \"#utility.yul\":4928:5004   */\n    tag_93:\n        /* \"#utility.yul\":4964:4971   */\n      0x00\n        /* \"#utility.yul\":4993:4998   */\n      dup2\n        /* \"#utility.yul\":4982:4998   */\n      swap1\n      pop\n        /* \"#utility.yul\":4928:5004   */\n      swap2\n      swap1\n      pop\n      jump\t// out\n        /* \"#utility.yul\":5010:5130   */\n    tag_94:\n        /* \"#utility.yul\":5082:5105   */\n      tag_149\n        /* \"#utility.yul\":5099:5104   */\n      dup2\n        /* \"#utility.yul\":5082:5105   */\n      tag_93\n      jump\t// in\n    tag_149:\n        /* \"#utility.yul\":5075:5080   */\n      dup2\n        /* \"#utility.yul\":5072:5106   */\n      eq\n        /* \"#utility.yul\":5062:5124   */\n      tag_150\n      jumpi\n        /* \"#utility.yul\":5120:5121   */\n      0x00\n        /* \"#utility.yul\":5117:5118   */\n      dup1\n        /* \"#utility.yul\":5110:5122   */\n      revert\n        /* \"#utility.yul\":5062:5124   */\n    tag_150:\n        /* \"#utility.yul\":5010:5130   */\n      pop\n      jump\t// out\n        /* \"#utility.yul\":5136:5277   */\n    tag_95:\n        /* \"#utility.yul\":5192:5197   */\n      0x00\n        /* \"#utility.yul\":5223:5229   */\n      dup2\n        /* \"#utility.yul\":5217:5230   */\n      mload\n        /* \"#utility.yul\":5208:5230   */\n      swap1\n      pop\n        /* \"#utility.yul\":5239:5271   */\n      tag_152\n        /* \"#utility.yul\":5265:5270   */\n      dup2\n        /* \"#utility.yul\":5239:5271   */\n      tag_94\n      jump\t// in\n    tag_152:\n        /* \"#utility.yul\":5136:5277   */\n      swap3\n      swap2\n      pop\n      pop\n      jump\t// out\n        /* \"#utility.yul\":5283:5405   */\n    tag_96:\n        /* \"#utility.yul\":5356:5380   */\n      tag_154\n        /* \"#utility.yul\":5374:5379   */\n      dup2\n        /* \"#utility.yul\":5356:5380   */\n      tag_74\n      jump\t// in\n    tag_154:\n        /* \"#utility.yul\":5349:5354   */\n      dup2\n        /* \"#utility.yul\":5346:5381   */\n      eq\n        /* \"#utility.yul\":5336:5399   */\n      tag_155\n      jumpi\n        /* \"#utility.yul\":5395:5396   */\n      0x00\n        /* \"#utility.yul\":5392:5393   */\n      dup1\n        /* \"#utility.yul\":5385:5397   */\n      revert\n        /* \"#utility.yul\":5336:5399   */\n    tag_155:\n        /* \"#utility.yul\":5283:5405   */\n      pop\n      jump\t// out\n        /* \"#utility.yul\":5411:5554   */\n    tag_97:\n        /* \"#utility.yul\":5468:5473   */\n      0x00\n        /* \"#utility.yul\":5499:5505   */\n      dup2\n        /* \"#utility.yul\":5493:5506   */\n      mload\n        /* \"#utility.yul\":5484:5506   */\n      swap1\n      pop\n        /* \"#utility.yul\":5515:5548   */\n      tag_157\n        /* \"#utility.yul\":5542:5547   */\n      dup2\n        /* \"#utility.yul\":5515:5548   */\n      tag_96\n      jump\t// in\n    tag_157:\n        /* \"#utility.yul\":5411:5554   */\n      swap3\n      swap2\n      pop\n      pop\n      jump\t// out\n        /* \"#utility.yul\":5560:6531   */\n    tag_71:\n        /* \"#utility.yul\":5663:5669   */\n      0x00\n        /* \"#utility.yul\":5671:5677   */\n      dup1\n        /* \"#utility.yul\":5679:5685   */\n      0x00\n        /* \"#utility.yul\":5687:5693   */\n      dup1\n        /* \"#utility.yul\":5695:5701   */\n      0x00\n        /* \"#utility.yul\":5744:5747   */\n      0xa0\n        /* \"#utility.yul\":5732:5741   */\n      dup7\n        /* \"#utility.yul\":5723:5730   */\n      dup9\n        /* \"#utility.yul\":5719:5742   */\n      sub\n        /* \"#utility.yul\":5715:5748   */\n      slt\n        /* \"#utility.yul\":5712:5832   */\n      iszero\n      tag_159\n      jumpi\n        /* \"#utility.yul\":5751:5830   */\n      tag_160\n      tag_88\n      jump\t// in\n    tag_160:\n        /* \"#utility.yul\":5712:5832   */\n    tag_159:\n        /* \"#utility.yul\":5871:5872   */\n      0x00\n        /* \"#utility.yul\":5896:5959   */\n      tag_161\n        /* \"#utility.yul\":5951:5958   */\n      dup9\n        /* \"#utility.yul\":5942:5948   */\n      dup3\n        /* \"#utility.yul\":5931:5940   */\n      dup10\n        /* \"#utility.yul\":5927:5949   */\n      add\n        /* \"#utility.yul\":5896:5959   */\n      tag_92\n      jump\t// in\n    tag_161:\n        /* \"#utility.yul\":5886:5959   */\n      swap6\n      pop\n        /* \"#utility.yul\":5842:5969   */\n      pop\n        /* \"#utility.yul\":6008:6010   */\n      0x20\n        /* \"#utility.yul\":6034:6097   */\n      tag_162\n        /* \"#utility.yul\":6089:6096   */\n      dup9\n        /* \"#utility.yul\":6080:6086   */\n      dup3\n        /* \"#utility.yul\":6069:6078   */\n      dup10\n        /* \"#utility.yul\":6065:6087   */\n      add\n        /* \"#utility.yul\":6034:6097   */\n      tag_95\n      jump\t// in\n    tag_162:\n        /* \"#utility.yul\":6024:6097   */\n      swap5\n      pop\n        /* \"#utility.yul\":5979:6107   */\n      pop\n        /* \"#utility.yul\":6146:6148   */\n      0x40\n        /* \"#utility.yul\":6172:6236   */\n      tag_163\n        /* \"#utility.yul\":6228:6235   */\n      dup9\n        /* \"#utility.yul\":6219:6225   */\n      dup3\n        /* \"#utility.yul\":6208:6217   */\n      dup10\n        /* \"#utility.yul\":6204:6226   */\n      add\n        /* \"#utility.yul\":6172:6236   */\n      tag_97\n      jump\t// in\n    tag_163:\n        /* \"#utility.yul\":6162:6236   */\n      swap4\n      pop\n        /* \"#utility.yul\":6117:6246   */\n      pop\n        /* \"#utility.yul\":6285:6287   */\n      0x60\n        /* \"#utility.yul\":6311:6375   */\n      tag_164\n        /* \"#utility.yul\":6367:6374   */\n      dup9\n        /* \"#utility.yul\":6358:6364   */\n      dup3\n        /* \"#utility.yul\":6347:6356   */\n      dup10\n        /* \"#utility.yul\":6343:6365   */\n      add\n        /* \"#utility.yul\":6311:6375   */\n      tag_97\n      jump\t// in\n    tag_164:\n        /* \"#utility.yul\":6301:6375   */\n      swap3\n      pop\n        /* \"#utility.yul\":6256:6385   */\n      pop\n        /* \"#utility.yul\":6424:6427   */\n      0x80\n        /* \"#utility.yul\":6451:6514   */\n      tag_165\n        /* \"#utility.yul\":6506:6513   */\n      dup9\n        /* \"#utility.yul\":6497:6503   */\n      dup3\n        /* \"#utility.yul\":6486:6495   */\n      dup10\n        /* \"#utility.yul\":6482:6504   */\n      add\n        /* \"#utility.yul\":6451:6514   */\n      tag_92\n      jump\t// in\n    tag_165:\n        /* \"#utility.yul\":6441:6514   */\n      swap2\n      pop\n        /* \"#utility.yul\":6395:6524   */\n      pop\n        /* \"#utility.yul\":5560:6531   */\n      swap3\n      swap6\n      pop\n      swap3\n      swap6\n      swap1\n      swap4\n      pop\n      jump\t// out\n\n    auxdata: 0xa26469706673582212202f3818347e2c2052e0d99a02f867c7521a09bcfe1d21b1822ddd516a1b141cc364736f6c634300081a0033\n}\n",
				"bytecode": {
					"linkReferences": {},
					"object": "60a0604052731ddfe2c36478e61ce3acbe4b96e57143e1964ffd73ffffffffffffffffffffffffffffffffffffffff1660809073ffffffffffffffffffffffffffffffffffffffff168152503480156055575f80fd5b503373ffffffffffffffffffffffffffffffffffffffff1660808173ffffffffffffffffffffffffffffffffffffffff16815250506080516107716100b05f395f81816101bc0152818161022b015261030d01526107715ff3fe608060405260043610610073575f3560e01c80636b69a5921161004d5780636b69a592146100f6578063b60d428814610120578063b7ec20861461012a578063dba6335f1461015457610082565b806312065fe01461008c5780633ccfd60b146100b6578063469e2cec146100cc57610082565b366100825761008061017e565b005b61008a61017e565b005b348015610097575f80fd5b506100a061019c565b6040516100ad919061042f565b60405180910390f35b3480156100c1575f80fd5b506100ca6101a3565b005b3480156100d7575f80fd5b506100e06102f3565b6040516100ed9190610487565b60405180910390f35b348015610101575f80fd5b5061010a6102fa565b604051610117919061042f565b60405180910390f35b61012861017e565b005b348015610135575f80fd5b5061013e610306565b60405161014b919061042f565b60405180910390f35b34801561015f575f80fd5b5061016861030b565b6040516101759190610487565b60405180910390f35b60065f8190555061018e3461032f565b5f8190555060055f81905550565b5f47905090565b3373ffffffffffffffffffffffffffffffffffffffff167f000000000000000000000000000000000000000000000000000000000000000073ffffffffffffffffffffffffffffffffffffffff1614610228576040517feb0c840800000000000000000000000000000000000000000000000000000000815260040160405180910390fd5b5f7f000000000000000000000000000000000000000000000000000000000000000073ffffffffffffffffffffffffffffffffffffffff164760405161026d906104cd565b5f6040518083038185875af1925050503d805f81146102a7576040519150601f19603f3d011682016040523d82523d5f602084013e6102ac565b606091505b50509050806102f0576040517f08c379a00000000000000000000000000000000000000000000000000000000081526004016102e79061053b565b60405180910390fd5b50565b5f30905090565b674563918244f4000081565b5f5481565b7f000000000000000000000000000000000000000000000000000000000000000081565b5f80610339610367565b90505f670de0b6b3a764000084836103519190610586565b61035b91906105f4565b90508092505050919050565b5f8073694aa1769357215de4fac081bf1f309adc32530690505f8173ffffffffffffffffffffffffffffffffffffffff1663feaf968c6040518163ffffffff1660e01b815260040160a060405180830381865afa1580156103ca573d5f803e3d5ffd5b505050506040513d601f19601f820116820180604052508101906103ee91906106c4565b5050509150505f81136103ff575f80fd5b6402540be400816104109190610586565b9250505090565b5f819050919050565b61042981610417565b82525050565b5f6020820190506104425f830184610420565b92915050565b5f73ffffffffffffffffffffffffffffffffffffffff82169050919050565b5f61047182610448565b9050919050565b61048181610467565b82525050565b5f60208201905061049a5f830184610478565b92915050565b5f81905092915050565b50565b5f6104b85f836104a0565b91506104c3826104aa565b5f82019050919050565b5f6104d7826104ad565b9150819050919050565b5f82825260208201905092915050565b7f4661696c656420746f2073656e642045746865720000000000000000000000005f82015250565b5f6105256014836104e1565b9150610530826104f1565b602082019050919050565b5f6020820190508181035f83015261055281610519565b9050919050565b7f4e487b71000000000000000000000000000000000000000000000000000000005f52601160045260245ffd5b5f61059082610417565b915061059b83610417565b92508282026105a981610417565b915082820484148315176105c0576105bf610559565b5b5092915050565b7f4e487b71000000000000000000000000000000000000000000000000000000005f52601260045260245ffd5b5f6105fe82610417565b915061060983610417565b925082610619576106186105c7565b5b828204905092915050565b5f80fd5b5f69ffffffffffffffffffff82169050919050565b61064681610628565b8114610650575f80fd5b50565b5f815190506106618161063d565b92915050565b5f819050919050565b61067981610667565b8114610683575f80fd5b50565b5f8151905061069481610670565b92915050565b6106a381610417565b81146106ad575f80fd5b50565b5f815190506106be8161069a565b92915050565b5f805f805f60a086880312156106dd576106dc610624565b5b5f6106ea88828901610653565b95505060206106fb88828901610686565b945050604061070c888289016106b0565b935050606061071d888289016106b0565b925050608061072e88828901610653565b915050929550929590935056fea26469706673582212202f3818347e2c2052e0d99a02f867c7521a09bcfe1d21b1822ddd516a1b141cc364736f6c634300081a0033",
					"opcodes": "PUSH1 0xA0 PUSH1 0x40 MSTORE PUSH20 0x1DDFE2C36478E61CE3ACBE4B96E57143E1964FFD PUSH20 0xFFFFFFFFFFFFFFFFFFFFFFFFFFFFFFFFFFFFFFFF AND PUSH1 0x80 SWAP1 PUSH20 0xFFFFFFFFFFFFFFFFFFFFFFFFFFFFFFFFFFFFFFFF AND DUP2 MSTORE POP CALLVALUE DUP1 ISZERO PUSH1 0x55 JUMPI PUSH0 DUP1 REVERT JUMPDEST POP CALLER PUSH20 0xFFFFFFFFFFFFFFFFFFFFFFFFFFFFFFFFFFFFFFFF AND PUSH1 0x80 DUP2 PUSH20 0xFFFFFFFFFFFFFFFFFFFFFFFFFFFFFFFFFFFFFFFF AND DUP2 MSTORE POP POP PUSH1 0x80 MLOAD PUSH2 0x771 PUSH2 0xB0 PUSH0 CODECOPY PUSH0 DUP2 DUP2 PUSH2 0x1BC ADD MSTORE DUP2 DUP2 PUSH2 0x22B ADD MSTORE PUSH2 0x30D ADD MSTORE PUSH2 0x771 PUSH0 RETURN INVALID PUSH1 0x80 PUSH1 0x40 MSTORE PUSH1 0x4 CALLDATASIZE LT PUSH2 0x73 JUMPI PUSH0 CALLDATALOAD PUSH1 0xE0 SHR DUP1 PUSH4 0x6B69A592 GT PUSH2 0x4D JUMPI DUP1 PUSH4 0x6B69A592 EQ PUSH2 0xF6 JUMPI DUP1 PUSH4 0xB60D4288 EQ PUSH2 0x120 JUMPI DUP1 PUSH4 0xB7EC2086 EQ PUSH2 0x12A JUMPI DUP1 PUSH4 0xDBA6335F EQ PUSH2 0x154 JUMPI PUSH2 0x82 JUMP JUMPDEST DUP1 PUSH4 0x12065FE0 EQ PUSH2 0x8C JUMPI DUP1 PUSH4 0x3CCFD60B EQ PUSH2 0xB6 JUMPI DUP1 PUSH4 0x469E2CEC EQ PUSH2 0xCC JUMPI PUSH2 0x82 JUMP JUMPDEST CALLDATASIZE PUSH2 0x82 JUMPI PUSH2 0x80 PUSH2 0x17E JUMP JUMPDEST STOP JUMPDEST PUSH2 0x8A PUSH2 0x17E JUMP JUMPDEST STOP JUMPDEST CALLVALUE DUP1 ISZERO PUSH2 0x97 JUMPI PUSH0 DUP1 REVERT JUMPDEST POP PUSH2 0xA0 PUSH2 0x19C JUMP JUMPDEST PUSH1 0x40 MLOAD PUSH2 0xAD SWAP2 SWAP1 PUSH2 0x42F JUMP JUMPDEST PUSH1 0x40 MLOAD DUP1 SWAP2 SUB SWAP1 RETURN JUMPDEST CALLVALUE DUP1 ISZERO PUSH2 0xC1 JUMPI PUSH0 DUP1 REVERT JUMPDEST POP PUSH2 0xCA PUSH2 0x1A3 JUMP JUMPDEST STOP JUMPDEST CALLVALUE DUP1 ISZERO PUSH2 0xD7 JUMPI PUSH0 DUP1 REVERT JUMPDEST POP PUSH2 0xE0 PUSH2 0x2F3 JUMP JUMPDEST PUSH1 0x40 MLOAD PUSH2 0xED SWAP2 SWAP1 PUSH2 0x487 JUMP JUMPDEST PUSH1 0x40 MLOAD DUP1 SWAP2 SUB SWAP1 RETURN JUMPDEST CALLVALUE DUP1 ISZERO PUSH2 0x101 JUMPI PUSH0 DUP1 REVERT JUMPDEST POP PUSH2 0x10A PUSH2 0x2FA JUMP JUMPDEST PUSH1 0x40 MLOAD PUSH2 0x117 SWAP2 SWAP1 PUSH2 0x42F JUMP JUMPDEST PUSH1 0x40 MLOAD DUP1 SWAP2 SUB SWAP1 RETURN JUMPDEST PUSH2 0x128 PUSH2 0x17E JUMP JUMPDEST STOP JUMPDEST CALLVALUE DUP1 ISZERO PUSH2 0x135 JUMPI PUSH0 DUP1 REVERT JUMPDEST POP PUSH2 0x13E PUSH2 0x306 JUMP JUMPDEST PUSH1 0x40 MLOAD PUSH2 0x14B SWAP2 SWAP1 PUSH2 0x42F JUMP JUMPDEST PUSH1 0x40 MLOAD DUP1 SWAP2 SUB SWAP1 RETURN JUMPDEST CALLVALUE DUP1 ISZERO PUSH2 0x15F JUMPI PUSH0 DUP1 REVERT JUMPDEST POP PUSH2 0x168 PUSH2 0x30B JUMP JUMPDEST PUSH1 0x40 MLOAD PUSH2 0x175 SWAP2 SWAP1 PUSH2 0x487 JUMP JUMPDEST PUSH1 0x40 MLOAD DUP1 SWAP2 SUB SWAP1 RETURN JUMPDEST PUSH1 0x6 PUSH0 DUP2 SWAP1 SSTORE POP PUSH2 0x18E CALLVALUE PUSH2 0x32F JUMP JUMPDEST PUSH0 DUP2 SWAP1 SSTORE POP PUSH1 0x5 PUSH0 DUP2 SWAP1 SSTORE POP JUMP JUMPDEST PUSH0 SELFBALANCE SWAP1 POP SWAP1 JUMP JUMPDEST CALLER PUSH20 0xFFFFFFFFFFFFFFFFFFFFFFFFFFFFFFFFFFFFFFFF AND PUSH32 0x0 PUSH20 0xFFFFFFFFFFFFFFFFFFFFFFFFFFFFFFFFFFFFFFFF AND EQ PUSH2 0x228 JUMPI PUSH1 0x40 MLOAD PUSH32 0xEB0C840800000000000000000000000000000000000000000000000000000000 DUP2 MSTORE PUSH1 0x4 ADD PUSH1 0x40 MLOAD DUP1 SWAP2 SUB SWAP1 REVERT JUMPDEST PUSH0 PUSH32 0x0 PUSH20 0xFFFFFFFFFFFFFFFFFFFFFFFFFFFFFFFFFFFFFFFF AND SELFBALANCE PUSH1 0x40 MLOAD PUSH2 0x26D SWAP1 PUSH2 0x4CD JUMP JUMPDEST PUSH0 PUSH1 0x40 MLOAD DUP1 DUP4 SUB DUP2 DUP6 DUP8 GAS CALL SWAP3 POP POP POP RETURNDATASIZE DUP1 PUSH0 DUP2 EQ PUSH2 0x2A7 JUMPI PUSH1 0x40 MLOAD SWAP2 POP PUSH1 0x1F NOT PUSH1 0x3F RETURNDATASIZE ADD AND DUP3 ADD PUSH1 0x40 MSTORE RETURNDATASIZE DUP3 MSTORE RETURNDATASIZE PUSH0 PUSH1 0x20 DUP5 ADD RETURNDATACOPY PUSH2 0x2AC JUMP JUMPDEST PUSH1 0x60 SWAP2 POP JUMPDEST POP POP SWAP1 POP DUP1 PUSH2 0x2F0 JUMPI PUSH1 0x40 MLOAD PUSH32 0x8C379A000000000000000000000000000000000000000000000000000000000 DUP2 MSTORE PUSH1 0x4 ADD PUSH2 0x2E7 SWAP1 PUSH2 0x53B JUMP JUMPDEST PUSH1 0x40 MLOAD DUP1 SWAP2 SUB SWAP1 REVERT JUMPDEST POP JUMP JUMPDEST PUSH0 ADDRESS SWAP1 POP SWAP1 JUMP JUMPDEST PUSH8 0x4563918244F40000 DUP2 JUMP JUMPDEST PUSH0 SLOAD DUP2 JUMP JUMPDEST PUSH32 0x0 DUP2 JUMP JUMPDEST PUSH0 DUP1 PUSH2 0x339 PUSH2 0x367 JUMP JUMPDEST SWAP1 POP PUSH0 PUSH8 0xDE0B6B3A7640000 DUP5 DUP4 PUSH2 0x351 SWAP2 SWAP1 PUSH2 0x586 JUMP JUMPDEST PUSH2 0x35B SWAP2 SWAP1 PUSH2 0x5F4 JUMP JUMPDEST SWAP1 POP DUP1 SWAP3 POP POP POP SWAP2 SWAP1 POP JUMP JUMPDEST PUSH0 DUP1 PUSH20 0x694AA1769357215DE4FAC081BF1F309ADC325306 SWAP1 POP PUSH0 DUP2 PUSH20 0xFFFFFFFFFFFFFFFFFFFFFFFFFFFFFFFFFFFFFFFF AND PUSH4 0xFEAF968C PUSH1 0x40 MLOAD DUP2 PUSH4 0xFFFFFFFF AND PUSH1 0xE0 SHL DUP2 MSTORE PUSH1 0x4 ADD PUSH1 0xA0 PUSH1 0x40 MLOAD DUP1 DUP4 SUB DUP2 DUP7 GAS STATICCALL ISZERO DUP1 ISZERO PUSH2 0x3CA JUMPI RETURNDATASIZE PUSH0 DUP1 RETURNDATACOPY RETURNDATASIZE PUSH0 REVERT JUMPDEST POP POP POP POP PUSH1 0x40 MLOAD RETURNDATASIZE PUSH1 0x1F NOT PUSH1 0x1F DUP3 ADD AND DUP3 ADD DUP1 PUSH1 0x40 MSTORE POP DUP2 ADD SWAP1 PUSH2 0x3EE SWAP2 SWAP1 PUSH2 0x6C4 JUMP JUMPDEST POP POP POP SWAP2 POP POP PUSH0 DUP2 SGT PUSH2 0x3FF JUMPI PUSH0 DUP1 REVERT JUMPDEST PUSH5 0x2540BE400 DUP2 PUSH2 0x410 SWAP2 SWAP1 PUSH2 0x586 JUMP JUMPDEST SWAP3 POP POP POP SWAP1 JUMP JUMPDEST PUSH0 DUP2 SWAP1 POP SWAP2 SWAP1 POP JUMP JUMPDEST PUSH2 0x429 DUP2 PUSH2 0x417 JUMP JUMPDEST DUP3 MSTORE POP POP JUMP JUMPDEST PUSH0 PUSH1 0x20 DUP3 ADD SWAP1 POP PUSH2 0x442 PUSH0 DUP4 ADD DUP5 PUSH2 0x420 JUMP JUMPDEST SWAP3 SWAP2 POP POP JUMP JUMPDEST PUSH0 PUSH20 0xFFFFFFFFFFFFFFFFFFFFFFFFFFFFFFFFFFFFFFFF DUP3 AND SWAP1 POP SWAP2 SWAP1 POP JUMP JUMPDEST PUSH0 PUSH2 0x471 DUP3 PUSH2 0x448 JUMP JUMPDEST SWAP1 POP SWAP2 SWAP1 POP JUMP JUMPDEST PUSH2 0x481 DUP2 PUSH2 0x467 JUMP JUMPDEST DUP3 MSTORE POP POP JUMP JUMPDEST PUSH0 PUSH1 0x20 DUP3 ADD SWAP1 POP PUSH2 0x49A PUSH0 DUP4 ADD DUP5 PUSH2 0x478 JUMP JUMPDEST SWAP3 SWAP2 POP POP JUMP JUMPDEST PUSH0 DUP2 SWAP1 POP SWAP3 SWAP2 POP POP JUMP JUMPDEST POP JUMP JUMPDEST PUSH0 PUSH2 0x4B8 PUSH0 DUP4 PUSH2 0x4A0 JUMP JUMPDEST SWAP2 POP PUSH2 0x4C3 DUP3 PUSH2 0x4AA JUMP JUMPDEST PUSH0 DUP3 ADD SWAP1 POP SWAP2 SWAP1 POP JUMP JUMPDEST PUSH0 PUSH2 0x4D7 DUP3 PUSH2 0x4AD JUMP JUMPDEST SWAP2 POP DUP2 SWAP1 POP SWAP2 SWAP1 POP JUMP JUMPDEST PUSH0 DUP3 DUP3 MSTORE PUSH1 0x20 DUP3 ADD SWAP1 POP SWAP3 SWAP2 POP POP JUMP JUMPDEST PUSH32 0x4661696C656420746F2073656E64204574686572000000000000000000000000 PUSH0 DUP3 ADD MSTORE POP JUMP JUMPDEST PUSH0 PUSH2 0x525 PUSH1 0x14 DUP4 PUSH2 0x4E1 JUMP JUMPDEST SWAP2 POP PUSH2 0x530 DUP3 PUSH2 0x4F1 JUMP JUMPDEST PUSH1 0x20 DUP3 ADD SWAP1 POP SWAP2 SWAP1 POP JUMP JUMPDEST PUSH0 PUSH1 0x20 DUP3 ADD SWAP1 POP DUP2 DUP2 SUB PUSH0 DUP4 ADD MSTORE PUSH2 0x552 DUP2 PUSH2 0x519 JUMP JUMPDEST SWAP1 POP SWAP2 SWAP1 POP JUMP JUMPDEST PUSH32 0x4E487B7100000000000000000000000000000000000000000000000000000000 PUSH0 MSTORE PUSH1 0x11 PUSH1 0x4 MSTORE PUSH1 0x24 PUSH0 REVERT JUMPDEST PUSH0 PUSH2 0x590 DUP3 PUSH2 0x417 JUMP JUMPDEST SWAP2 POP PUSH2 0x59B DUP4 PUSH2 0x417 JUMP JUMPDEST SWAP3 POP DUP3 DUP3 MUL PUSH2 0x5A9 DUP2 PUSH2 0x417 JUMP JUMPDEST SWAP2 POP DUP3 DUP3 DIV DUP5 EQ DUP4 ISZERO OR PUSH2 0x5C0 JUMPI PUSH2 0x5BF PUSH2 0x559 JUMP JUMPDEST JUMPDEST POP SWAP3 SWAP2 POP POP JUMP JUMPDEST PUSH32 0x4E487B7100000000000000000000000000000000000000000000000000000000 PUSH0 MSTORE PUSH1 0x12 PUSH1 0x4 MSTORE PUSH1 0x24 PUSH0 REVERT JUMPDEST PUSH0 PUSH2 0x5FE DUP3 PUSH2 0x417 JUMP JUMPDEST SWAP2 POP PUSH2 0x609 DUP4 PUSH2 0x417 JUMP JUMPDEST SWAP3 POP DUP3 PUSH2 0x619 JUMPI PUSH2 0x618 PUSH2 0x5C7 JUMP JUMPDEST JUMPDEST DUP3 DUP3 DIV SWAP1 POP SWAP3 SWAP2 POP POP JUMP JUMPDEST PUSH0 DUP1 REVERT JUMPDEST PUSH0 PUSH10 0xFFFFFFFFFFFFFFFFFFFF DUP3 AND SWAP1 POP SWAP2 SWAP1 POP JUMP JUMPDEST PUSH2 0x646 DUP2 PUSH2 0x628 JUMP JUMPDEST DUP2 EQ PUSH2 0x650 JUMPI PUSH0 DUP1 REVERT JUMPDEST POP JUMP JUMPDEST PUSH0 DUP2 MLOAD SWAP1 POP PUSH2 0x661 DUP2 PUSH2 0x63D JUMP JUMPDEST SWAP3 SWAP2 POP POP JUMP JUMPDEST PUSH0 DUP2 SWAP1 POP SWAP2 SWAP1 POP JUMP JUMPDEST PUSH2 0x679 DUP2 PUSH2 0x667 JUMP JUMPDEST DUP2 EQ PUSH2 0x683 JUMPI PUSH0 DUP1 REVERT JUMPDEST POP JUMP JUMPDEST PUSH0 DUP2 MLOAD SWAP1 POP PUSH2 0x694 DUP2 PUSH2 0x670 JUMP JUMPDEST SWAP3 SWAP2 POP POP JUMP JUMPDEST PUSH2 0x6A3 DUP2 PUSH2 0x417 JUMP JUMPDEST DUP2 EQ PUSH2 0x6AD JUMPI PUSH0 DUP1 REVERT JUMPDEST POP JUMP JUMPDEST PUSH0 DUP2 MLOAD SWAP1 POP PUSH2 0x6BE DUP2 PUSH2 0x69A JUMP JUMPDEST SWAP3 SWAP2 POP POP JUMP JUMPDEST PUSH0 DUP1 PUSH0 DUP1 PUSH0 PUSH1 0xA0 DUP7 DUP9 SUB SLT ISZERO PUSH2 0x6DD JUMPI PUSH2 0x6DC PUSH2 0x624 JUMP JUMPDEST JUMPDEST PUSH0 PUSH2 0x6EA DUP9 DUP3 DUP10 ADD PUSH2 0x653 JUMP JUMPDEST SWAP6 POP POP PUSH1 0x20 PUSH2 0x6FB DUP9 DUP3 DUP10 ADD PUSH2 0x686 JUMP JUMPDEST SWAP5 POP POP PUSH1 0x40 PUSH2 0x70C DUP9 DUP3 DUP10 ADD PUSH2 0x6B0 JUMP JUMPDEST SWAP4 POP POP PUSH1 0x60 PUSH2 0x71D DUP9 DUP3 DUP10 ADD PUSH2 0x6B0 JUMP JUMPDEST SWAP3 POP POP PUSH1 0x80 PUSH2 0x72E DUP9 DUP3 DUP10 ADD PUSH2 0x653 JUMP JUMPDEST SWAP2 POP POP SWAP3 SWAP6 POP SWAP3 SWAP6 SWAP1 SWAP4 POP JUMP INVALID LOG2 PUSH5 0x6970667358 0x22 SLT KECCAK256 0x2F CODESIZE XOR CALLVALUE PUSH31 0x2C2052E0D99A02F867C7521A09BCFE1D21B1822DDD516A1B141CC364736F6C PUSH4 0x4300081A STOP CALLER "
				},
				"gasEstimates": {
					"creation": {
						"codeDepositCost": "381000",
						"executionCost": "infinite",
						"totalCost": "infinite"
					},
					"external": {
						"": "infinite",
						"MINIMUM_USD()": "325",
						"fund()": "infinite",
						"getBalance()": "335",
						"getThisContract()": "424",
						"i_owner()": "infinite",
						"priceWei()": "2468",
						"withdraw()": "infinite"
					}
				},
				"methodIdentifiers": {
					"MINIMUM_USD()": "6b69a592",
					"fund()": "b60d4288",
					"getBalance()": "12065fe0",
					"getThisContract()": "469e2cec",
					"i_owner()": "dba6335f",
					"priceWei()": "b7ec2086",
					"withdraw()": "3ccfd60b"
				}
			},
			"storageLayout": {
				"storage": [
					{
						"astId": 103,
						"contract": "bai04/Crowdfunding.sol:Crowdfunding",
						"label": "priceWei",
						"offset": 0,
						"slot": "0",
						"type": "t_uint256"
					}
				],
				"types": {
					"t_uint256": {
						"encoding": "inplace",
						"label": "uint256",
						"numberOfBytes": "32"
					}
				}
			},
			"userdoc": {
				"kind": "user",
				"methods": {},
				"version": 1
			}
		}
	}
}