{
	"solidity/bai05/Crowdfunding.sol": {
		"Crowdfunding": {
			"abi": [
				{
					"inputs": [],
					"stateMutability": "nonpayable",
					"type": "constructor"
				},
				{
					"inputs": [],
					"name": "NoAvailabelAmount",
					"type": "error"
				},
				{
					"stateMutability": "payable",
					"type": "fallback"
				},
				{
					"inputs": [],
					"name": "fund",
					"outputs": [],
					"stateMutability": "payable",
					"type": "function"
				},
				{
					"inputs": [],
					"name": "getBalance",
					"outputs": [
						{
							"internalType": "uint256",
							"name": "",
							"type": "uint256"
						}
					],
					"stateMutability": "view",
					"type": "function"
				},
				{
					"inputs": [],
					"name": "getETHData",
					"outputs": [
						{
							"internalType": "int256",
							"name": "",
							"type": "int256"
						}
					],
					"stateMutability": "view",
					"type": "function"
				},
				{
					"inputs": [],
					"name": "i_owner",
					"outputs": [
						{
							"internalType": "address",
							"name": "",
							"type": "address"
						}
					],
					"stateMutability": "view",
					"type": "function"
				},
				{
					"inputs": [],
					"name": "withdraw",
					"outputs": [],
					"stateMutability": "nonpayable",
					"type": "function"
				},
				{
					"stateMutability": "payable",
					"type": "receive"
				}
			],
			"devdoc": {
				"kind": "dev",
				"methods": {},
				"version": 1
			},
			"evm": {
				"assembly": "    /* \"solidity/bai05/Crowdfunding.sol\":178:1572  contract Crowdfunding {... */\n  mstore(0x40, 0xa0)\n    /* \"solidity/bai05/Crowdfunding.sol\":341:383  0x1ddfE2c36478E61cE3acBE4B96e57143E1964FFd */\n  0x1ddfe2c36478e61ce3acbe4b96e57143e1964ffd\n    /* \"solidity/bai05/Crowdfunding.sol\":306:383  address public immutable i_owner = 0x1ddfE2c36478E61cE3acBE4B96e57143E1964FFd */\n  0xffffffffffffffffffffffffffffffffffffffff\n  and\n  0x80\n  swap1\n  0xffffffffffffffffffffffffffffffffffffffff\n  and\n  dup2\n  mstore\n  pop\n    /* \"solidity/bai05/Crowdfunding.sol\":453:495  0x694AA1769357215DE4FAC081bf1f309aDC325306 */\n  0x694aa1769357215de4fac081bf1f309adc325306\n    /* \"solidity/bai05/Crowdfunding.sol\":389:496  AggregatorV3Interface internal dataFeed = AggregatorV3Interface(0x694AA1769357215DE4FAC081bf1f309aDC325306) */\n  0x00\n  dup1\n  0x0100\n  exp\n  dup2\n  sload\n  dup2\n  0xffffffffffffffffffffffffffffffffffffffff\n  mul\n  not\n  and\n  swap1\n  dup4\n  0xffffffffffffffffffffffffffffffffffffffff\n  and\n  mul\n  or\n  swap1\n  sstore\n  pop\n    /* \"solidity/bai05/Crowdfunding.sol\":617:669  constructor () {... */\n  callvalue\n  dup1\n  iszero\n  tag_1\n  jumpi\n  0x00\n  dup1\n  revert\ntag_1:\n  pop\n    /* \"solidity/bai05/Crowdfunding.sol\":652:662  msg.sender */\n  caller\n    /* \"solidity/bai05/Crowdfunding.sol\":642:662  i_owner = msg.sender */\n  0xffffffffffffffffffffffffffffffffffffffff\n  and\n  0x80\n  dup2\n  0xffffffffffffffffffffffffffffffffffffffff\n  and\n  dup2\n  mstore\n  pop\n  pop\n    /* \"solidity/bai05/Crowdfunding.sol\":178:1572  contract Crowdfunding {... */\n  mload(0x80)\n  codecopy(0x00, dataOffset(sub_0), dataSize(sub_0))\n  0x00\n  assignImmutable(\"0xd9670a00d025e59e1bd58d53874bea4ab34fea782716e2c168e89a3c8452d3bb\")\n  return(0x00, dataSize(sub_0))\nstop\n\nsub_0: assembly {\n        /* \"solidity/bai05/Crowdfunding.sol\":178:1572  contract Crowdfunding {... */\n      mstore(0x40, 0x80)\n      jumpi(tag_1, lt(calldatasize, 0x04))\n      shr(0xe0, calldataload(0x00))\n      dup1\n      0x12065fe0\n      eq\n      tag_3\n      jumpi\n      dup1\n      0x3ccfd60b\n      eq\n      tag_4\n      jumpi\n      dup1\n      0x9b45a686\n      eq\n      tag_5\n      jumpi\n      dup1\n      0xb60d4288\n      eq\n      tag_6\n      jumpi\n      dup1\n      0xdba6335f\n      eq\n      tag_7\n      jumpi\n      jump(tag_2)\n    tag_1:\n      jumpi(tag_2, calldatasize)\n        /* \"solidity/bai05/Crowdfunding.sol\":541:547  fund() */\n      tag_10\n        /* \"solidity/bai05/Crowdfunding.sol\":541:545  fund */\n      tag_11\n        /* \"solidity/bai05/Crowdfunding.sol\":541:547  fund() */\n      jump\t// in\n    tag_10:\n        /* \"solidity/bai05/Crowdfunding.sol\":178:1572  contract Crowdfunding {... */\n      stop\n    tag_2:\n        /* \"solidity/bai05/Crowdfunding.sol\":598:604  fund() */\n      tag_14\n        /* \"solidity/bai05/Crowdfunding.sol\":598:602  fund */\n      tag_11\n        /* \"solidity/bai05/Crowdfunding.sol\":598:604  fund() */\n      jump\t// in\n    tag_14:\n        /* \"solidity/bai05/Crowdfunding.sol\":178:1572  contract Crowdfunding {... */\n      stop\n        /* \"solidity/bai05/Crowdfunding.sol\":1321:1418  function getBalance() public view returns (uint256) {... */\n    tag_3:\n      callvalue\n      dup1\n      iszero\n      tag_15\n      jumpi\n      0x00\n      dup1\n      revert\n    tag_15:\n      pop\n      tag_16\n      tag_17\n      jump\t// in\n    tag_16:\n      mload(0x40)\n      tag_18\n      swap2\n      swap1\n      tag_19\n      jump\t// in\n    tag_18:\n      mload(0x40)\n      dup1\n      swap2\n      sub\n      swap1\n      return\n        /* \"solidity/bai05/Crowdfunding.sol\":1136:1315  function withdraw() public onlyOwner {... */\n    tag_4:\n      callvalue\n      dup1\n      iszero\n      tag_20\n      jumpi\n      0x00\n      dup1\n      revert\n    tag_20:\n      pop\n      tag_21\n      tag_22\n      jump\t// in\n    tag_21:\n      stop\n        /* \"solidity/bai05/Crowdfunding.sol\":1424:1562  function getETHData() public view returns (int) {... */\n    tag_5:\n      callvalue\n      dup1\n      iszero\n      tag_23\n      jumpi\n      0x00\n      dup1\n      revert\n    tag_23:\n      pop\n      tag_24\n      tag_25\n      jump\t// in\n    tag_24:\n      mload(0x40)\n      tag_26\n      swap2\n      swap1\n      tag_27\n      jump\t// in\n    tag_26:\n      mload(0x40)\n      dup1\n      swap2\n      sub\n      swap1\n      return\n        /* \"solidity/bai05/Crowdfunding.sol\":912:1131  function fund() public payable  {... */\n    tag_6:\n      tag_28\n      tag_11\n      jump\t// in\n    tag_28:\n      stop\n        /* \"solidity/bai05/Crowdfunding.sol\":306:383  address public immutable i_owner = 0x1ddfE2c36478E61cE3acBE4B96e57143E1964FFd */\n    tag_7:\n      callvalue\n      dup1\n      iszero\n      tag_29\n      jumpi\n      0x00\n      dup1\n      revert\n    tag_29:\n      pop\n      tag_30\n      tag_31\n      jump\t// in\n    tag_30:\n      mload(0x40)\n      tag_32\n      swap2\n      swap1\n      tag_33\n      jump\t// in\n    tag_32:\n      mload(0x40)\n      dup1\n      swap2\n      sub\n      swap1\n      return\n        /* \"solidity/bai05/Crowdfunding.sol\":912:1131  function fund() public payable  {... */\n    tag_11:\n        /* \"solidity/bai05/Crowdfunding.sol\":954:973  uint256 ethPriceUsd */\n      0x00\n        /* \"solidity/bai05/Crowdfunding.sol\":984:996  getETHData() */\n      tag_35\n        /* \"solidity/bai05/Crowdfunding.sol\":984:994  getETHData */\n      tag_25\n        /* \"solidity/bai05/Crowdfunding.sol\":984:996  getETHData() */\n      jump\t// in\n    tag_35:\n        /* \"solidity/bai05/Crowdfunding.sol\":954:997  uint256 ethPriceUsd = uint256(getETHData()) */\n      swap1\n      pop\n        /* \"solidity/bai05/Crowdfunding.sol\":1007:1025  uint256 valueInUsd */\n      0x00\n        /* \"solidity/bai05/Crowdfunding.sol\":1054:1058  1e18 */\n      0x0de0b6b3a7640000\n        /* \"solidity/bai05/Crowdfunding.sol\":1040:1051  ethPriceUsd */\n      dup3\n        /* \"solidity/bai05/Crowdfunding.sol\":1028:1037  msg.value */\n      callvalue\n        /* \"solidity/bai05/Crowdfunding.sol\":1028:1051  msg.value * ethPriceUsd */\n      tag_36\n      swap2\n      swap1\n      tag_37\n      jump\t// in\n    tag_36:\n        /* \"solidity/bai05/Crowdfunding.sol\":1028:1058  msg.value * ethPriceUsd / 1e18 */\n      tag_38\n      swap2\n      swap1\n      tag_39\n      jump\t// in\n    tag_38:\n        /* \"solidity/bai05/Crowdfunding.sol\":1007:1058  uint256 valueInUsd = msg.value * ethPriceUsd / 1e18 */\n      swap1\n      pop\n        /* \"solidity/bai05/Crowdfunding.sol\":283:291  5 * 1e18 */\n      0x4563918244f40000\n        /* \"solidity/bai05/Crowdfunding.sol\":1076:1086  valueInUsd */\n      dup2\n        /* \"solidity/bai05/Crowdfunding.sol\":1076:1100  valueInUsd >= WeiMinimum */\n      lt\n      iszero\n        /* \"solidity/bai05/Crowdfunding.sol\":1068:1124  require(valueInUsd >= WeiMinimum, \"no availabel amount\") */\n      tag_40\n      jumpi\n      mload(0x40)\n      0x08c379a000000000000000000000000000000000000000000000000000000000\n      dup2\n      mstore\n      0x04\n      add\n      tag_41\n      swap1\n      tag_42\n      jump\t// in\n    tag_41:\n      mload(0x40)\n      dup1\n      swap2\n      sub\n      swap1\n      revert\n    tag_40:\n        /* \"solidity/bai05/Crowdfunding.sol\":944:1131  {... */\n      pop\n      pop\n        /* \"solidity/bai05/Crowdfunding.sol\":912:1131  function fund() public payable  {... */\n      jump\t// out\n        /* \"solidity/bai05/Crowdfunding.sol\":1321:1418  function getBalance() public view returns (uint256) {... */\n    tag_17:\n        /* \"solidity/bai05/Crowdfunding.sol\":1364:1371  uint256 */\n      0x00\n        /* \"solidity/bai05/Crowdfunding.sol\":1390:1411  address(this).balance */\n      selfbalance\n        /* \"solidity/bai05/Crowdfunding.sol\":1383:1411  return address(this).balance */\n      swap1\n      pop\n        /* \"solidity/bai05/Crowdfunding.sol\":1321:1418  function getBalance() public view returns (uint256) {... */\n      swap1\n      jump\t// out\n        /* \"solidity/bai05/Crowdfunding.sol\":1136:1315  function withdraw() public onlyOwner {... */\n    tag_22:\n        /* \"solidity/bai05/Crowdfunding.sol\":779:789  msg.sender */\n      caller\n        /* \"solidity/bai05/Crowdfunding.sol\":768:789  i_owner != msg.sender */\n      0xffffffffffffffffffffffffffffffffffffffff\n      and\n        /* \"solidity/bai05/Crowdfunding.sol\":768:775  i_owner */\n      immutable(\"0xd9670a00d025e59e1bd58d53874bea4ab34fea782716e2c168e89a3c8452d3bb\")\n        /* \"solidity/bai05/Crowdfunding.sol\":768:789  i_owner != msg.sender */\n      0xffffffffffffffffffffffffffffffffffffffff\n      and\n      eq\n        /* \"solidity/bai05/Crowdfunding.sol\":764:841  if (i_owner != msg.sender){... */\n      tag_45\n      jumpi\n        /* \"solidity/bai05/Crowdfunding.sol\":811:830  NoAvailabelAmount() */\n      mload(0x40)\n      0x84bffbf400000000000000000000000000000000000000000000000000000000\n      dup2\n      mstore\n      0x04\n      add\n      mload(0x40)\n      dup1\n      swap2\n      sub\n      swap1\n      revert\n        /* \"solidity/bai05/Crowdfunding.sol\":764:841  if (i_owner != msg.sender){... */\n    tag_45:\n        /* \"solidity/bai05/Crowdfunding.sol\":1193:1202  bool sent */\n      0x00\n        /* \"solidity/bai05/Crowdfunding.sol\":1216:1223  i_owner */\n      immutable(\"0xd9670a00d025e59e1bd58d53874bea4ab34fea782716e2c168e89a3c8452d3bb\")\n        /* \"solidity/bai05/Crowdfunding.sol\":1208:1229  payable(i_owner).call */\n      0xffffffffffffffffffffffffffffffffffffffff\n      and\n        /* \"solidity/bai05/Crowdfunding.sol\":1237:1258  address(this).balance */\n      selfbalance\n        /* \"solidity/bai05/Crowdfunding.sol\":1208:1263  payable(i_owner).call{value: address(this).balance}(\"\") */\n      mload(0x40)\n      tag_47\n      swap1\n      tag_48\n      jump\t// in\n    tag_47:\n      0x00\n      mload(0x40)\n      dup1\n      dup4\n      sub\n      dup2\n      dup6\n      dup8\n      gas\n      call\n      swap3\n      pop\n      pop\n      pop\n      returndatasize\n      dup1\n      0x00\n      dup2\n      eq\n      tag_51\n      jumpi\n      mload(0x40)\n      swap2\n      pop\n      and(add(returndatasize, 0x3f), not(0x1f))\n      dup3\n      add\n      0x40\n      mstore\n      returndatasize\n      dup3\n      mstore\n      returndatasize\n      0x00\n      0x20\n      dup5\n      add\n      returndatacopy\n      jump(tag_50)\n    tag_51:\n      0x60\n      swap2\n      pop\n    tag_50:\n      pop\n        /* \"solidity/bai05/Crowdfunding.sol\":1192:1263  (bool sent, ) = payable(i_owner).call{value: address(this).balance}(\"\") */\n      pop\n      swap1\n      pop\n        /* \"solidity/bai05/Crowdfunding.sol\":1281:1285  sent */\n      dup1\n        /* \"solidity/bai05/Crowdfunding.sol\":1273:1308  require(sent, \"Failed to send Eth\") */\n      tag_52\n      jumpi\n      mload(0x40)\n      0x08c379a000000000000000000000000000000000000000000000000000000000\n      dup2\n      mstore\n      0x04\n      add\n      tag_53\n      swap1\n      tag_54\n      jump\t// in\n    tag_53:\n      mload(0x40)\n      dup1\n      swap2\n      sub\n      swap1\n      revert\n    tag_52:\n        /* \"solidity/bai05/Crowdfunding.sol\":1173:1315  {... */\n      pop\n        /* \"solidity/bai05/Crowdfunding.sol\":1136:1315  function withdraw() public onlyOwner {... */\n      jump\t// out\n        /* \"solidity/bai05/Crowdfunding.sol\":1424:1562  function getETHData() public view returns (int) {... */\n    tag_25:\n        /* \"solidity/bai05/Crowdfunding.sol\":1467:1470  int */\n      0x00\n        /* \"solidity/bai05/Crowdfunding.sol\":1484:1494  int answer */\n      dup1\n        /* \"solidity/bai05/Crowdfunding.sol\":1501:1509  dataFeed */\n      0x00\n      dup1\n      sload\n      swap1\n      0x0100\n      exp\n      swap1\n      div\n      0xffffffffffffffffffffffffffffffffffffffff\n      and\n        /* \"solidity/bai05/Crowdfunding.sol\":1501:1525  dataFeed.latestRoundData */\n      0xffffffffffffffffffffffffffffffffffffffff\n      and\n      0xfeaf968c\n        /* \"solidity/bai05/Crowdfunding.sol\":1501:1527  dataFeed.latestRoundData() */\n      mload(0x40)\n      dup2\n      0xffffffff\n      and\n      0xe0\n      shl\n      dup2\n      mstore\n      0x04\n      add\n      0xa0\n      mload(0x40)\n      dup1\n      dup4\n      sub\n      dup2\n      dup7\n      gas\n      staticcall\n      iszero\n      dup1\n      iszero\n      tag_57\n      jumpi\n      returndatasize\n      0x00\n      dup1\n      returndatacopy\n      revert(0x00, returndatasize)\n    tag_57:\n      pop\n      pop\n      pop\n      pop\n      mload(0x40)\n      returndatasize\n      not(0x1f)\n      0x1f\n      dup3\n      add\n      and\n      dup3\n      add\n      dup1\n      0x40\n      mstore\n      pop\n      dup2\n      add\n      swap1\n      tag_58\n      swap2\n      swap1\n      tag_59\n      jump\t// in\n    tag_58:\n        /* \"solidity/bai05/Crowdfunding.sol\":1482:1527  (,int answer,,,) = dataFeed.latestRoundData() */\n      pop\n      pop\n      pop\n      swap2\n      pop\n      pop\n        /* \"solidity/bai05/Crowdfunding.sol\":1551:1555  1e10 */\n      0x02540be400\n        /* \"solidity/bai05/Crowdfunding.sol\":1544:1550  answer */\n      dup2\n        /* \"solidity/bai05/Crowdfunding.sol\":1544:1555  answer*1e10 */\n      tag_60\n      swap2\n      swap1\n      tag_61\n      jump\t// in\n    tag_60:\n        /* \"solidity/bai05/Crowdfunding.sol\":1537:1555  return answer*1e10 */\n      swap2\n      pop\n      pop\n        /* \"solidity/bai05/Crowdfunding.sol\":1424:1562  function getETHData() public view returns (int) {... */\n      swap1\n      jump\t// out\n        /* \"solidity/bai05/Crowdfunding.sol\":306:383  address public immutable i_owner = 0x1ddfE2c36478E61cE3acBE4B96e57143E1964FFd */\n    tag_31:\n      immutable(\"0xd9670a00d025e59e1bd58d53874bea4ab34fea782716e2c168e89a3c8452d3bb\")\n      dup2\n      jump\t// out\n        /* \"#utility.yul\":7:84   */\n    tag_62:\n        /* \"#utility.yul\":44:51   */\n      0x00\n        /* \"#utility.yul\":73:78   */\n      dup2\n        /* \"#utility.yul\":62:78   */\n      swap1\n      pop\n        /* \"#utility.yul\":7:84   */\n      swap2\n      swap1\n      pop\n      jump\t// out\n        /* \"#utility.yul\":90:208   */\n    tag_63:\n        /* \"#utility.yul\":177:201   */\n      tag_92\n        /* \"#utility.yul\":195:200   */\n      dup2\n        /* \"#utility.yul\":177:201   */\n      tag_62\n      jump\t// in\n    tag_92:\n        /* \"#utility.yul\":172:175   */\n      dup3\n        /* \"#utility.yul\":165:202   */\n      mstore\n        /* \"#utility.yul\":90:208   */\n      pop\n      pop\n      jump\t// out\n        /* \"#utility.yul\":214:436   */\n    tag_19:\n        /* \"#utility.yul\":307:311   */\n      0x00\n        /* \"#utility.yul\":345:347   */\n      0x20\n        /* \"#utility.yul\":334:343   */\n      dup3\n        /* \"#utility.yul\":330:348   */\n      add\n        /* \"#utility.yul\":322:348   */\n      swap1\n      pop\n        /* \"#utility.yul\":358:429   */\n      tag_94\n        /* \"#utility.yul\":426:427   */\n      0x00\n        /* \"#utility.yul\":415:424   */\n      dup4\n        /* \"#utility.yul\":411:428   */\n      add\n        /* \"#utility.yul\":402:408   */\n      dup5\n        /* \"#utility.yul\":358:429   */\n      tag_63\n      jump\t// in\n    tag_94:\n        /* \"#utility.yul\":214:436   */\n      swap3\n      swap2\n      pop\n      pop\n      jump\t// out\n        /* \"#utility.yul\":442:518   */\n    tag_64:\n        /* \"#utility.yul\":478:485   */\n      0x00\n        /* \"#utility.yul\":507:512   */\n      dup2\n        /* \"#utility.yul\":496:512   */\n      swap1\n      pop\n        /* \"#utility.yul\":442:518   */\n      swap2\n      swap1\n      pop\n      jump\t// out\n        /* \"#utility.yul\":524:639   */\n    tag_65:\n        /* \"#utility.yul\":609:632   */\n      tag_97\n        /* \"#utility.yul\":626:631   */\n      dup2\n        /* \"#utility.yul\":609:632   */\n      tag_64\n      jump\t// in\n    tag_97:\n        /* \"#utility.yul\":604:607   */\n      dup3\n        /* \"#utility.yul\":597:633   */\n      mstore\n        /* \"#utility.yul\":524:639   */\n      pop\n      pop\n      jump\t// out\n        /* \"#utility.yul\":645:863   */\n    tag_27:\n        /* \"#utility.yul\":736:740   */\n      0x00\n        /* \"#utility.yul\":774:776   */\n      0x20\n        /* \"#utility.yul\":763:772   */\n      dup3\n        /* \"#utility.yul\":759:777   */\n      add\n        /* \"#utility.yul\":751:777   */\n      swap1\n      pop\n        /* \"#utility.yul\":787:856   */\n      tag_99\n        /* \"#utility.yul\":853:854   */\n      0x00\n        /* \"#utility.yul\":842:851   */\n      dup4\n        /* \"#utility.yul\":838:855   */\n      add\n        /* \"#utility.yul\":829:835   */\n      dup5\n        /* \"#utility.yul\":787:856   */\n      tag_65\n      jump\t// in\n    tag_99:\n        /* \"#utility.yul\":645:863   */\n      swap3\n      swap2\n      pop\n      pop\n      jump\t// out\n        /* \"#utility.yul\":869:995   */\n    tag_66:\n        /* \"#utility.yul\":906:913   */\n      0x00\n        /* \"#utility.yul\":946:988   */\n      0xffffffffffffffffffffffffffffffffffffffff\n        /* \"#utility.yul\":939:944   */\n      dup3\n        /* \"#utility.yul\":935:989   */\n      and\n        /* \"#utility.yul\":924:989   */\n      swap1\n      pop\n        /* \"#utility.yul\":869:995   */\n      swap2\n      swap1\n      pop\n      jump\t// out\n        /* \"#utility.yul\":1001:1097   */\n    tag_67:\n        /* \"#utility.yul\":1038:1045   */\n      0x00\n        /* \"#utility.yul\":1067:1091   */\n      tag_102\n        /* \"#utility.yul\":1085:1090   */\n      dup3\n        /* \"#utility.yul\":1067:1091   */\n      tag_66\n      jump\t// in\n    tag_102:\n        /* \"#utility.yul\":1056:1091   */\n      swap1\n      pop\n        /* \"#utility.yul\":1001:1097   */\n      swap2\n      swap1\n      pop\n      jump\t// out\n        /* \"#utility.yul\":1103:1221   */\n    tag_68:\n        /* \"#utility.yul\":1190:1214   */\n      tag_104\n        /* \"#utility.yul\":1208:1213   */\n      dup2\n        /* \"#utility.yul\":1190:1214   */\n      tag_67\n      jump\t// in\n    tag_104:\n        /* \"#utility.yul\":1185:1188   */\n      dup3\n        /* \"#utility.yul\":1178:1215   */\n      mstore\n        /* \"#utility.yul\":1103:1221   */\n      pop\n      pop\n      jump\t// out\n        /* \"#utility.yul\":1227:1449   */\n    tag_33:\n        /* \"#utility.yul\":1320:1324   */\n      0x00\n        /* \"#utility.yul\":1358:1360   */\n      0x20\n        /* \"#utility.yul\":1347:1356   */\n      dup3\n        /* \"#utility.yul\":1343:1361   */\n      add\n        /* \"#utility.yul\":1335:1361   */\n      swap1\n      pop\n        /* \"#utility.yul\":1371:1442   */\n      tag_106\n        /* \"#utility.yul\":1439:1440   */\n      0x00\n        /* \"#utility.yul\":1428:1437   */\n      dup4\n        /* \"#utility.yul\":1424:1441   */\n      add\n        /* \"#utility.yul\":1415:1421   */\n      dup5\n        /* \"#utility.yul\":1371:1442   */\n      tag_68\n      jump\t// in\n    tag_106:\n        /* \"#utility.yul\":1227:1449   */\n      swap3\n      swap2\n      pop\n      pop\n      jump\t// out\n        /* \"#utility.yul\":1455:1635   */\n    tag_69:\n        /* \"#utility.yul\":1503:1580   */\n      0x4e487b7100000000000000000000000000000000000000000000000000000000\n        /* \"#utility.yul\":1500:1501   */\n      0x00\n        /* \"#utility.yul\":1493:1581   */\n      mstore\n        /* \"#utility.yul\":1600:1604   */\n      0x11\n        /* \"#utility.yul\":1597:1598   */\n      0x04\n        /* \"#utility.yul\":1590:1605   */\n      mstore\n        /* \"#utility.yul\":1624:1628   */\n      0x24\n        /* \"#utility.yul\":1621:1622   */\n      0x00\n        /* \"#utility.yul\":1614:1629   */\n      revert\n        /* \"#utility.yul\":1641:2051   */\n    tag_37:\n        /* \"#utility.yul\":1681:1688   */\n      0x00\n        /* \"#utility.yul\":1704:1724   */\n      tag_109\n        /* \"#utility.yul\":1722:1723   */\n      dup3\n        /* \"#utility.yul\":1704:1724   */\n      tag_62\n      jump\t// in\n    tag_109:\n        /* \"#utility.yul\":1699:1724   */\n      swap2\n      pop\n        /* \"#utility.yul\":1738:1758   */\n      tag_110\n        /* \"#utility.yul\":1756:1757   */\n      dup4\n        /* \"#utility.yul\":1738:1758   */\n      tag_62\n      jump\t// in\n    tag_110:\n        /* \"#utility.yul\":1733:1758   */\n      swap3\n      pop\n        /* \"#utility.yul\":1793:1794   */\n      dup3\n        /* \"#utility.yul\":1790:1791   */\n      dup3\n        /* \"#utility.yul\":1786:1795   */\n      mul\n        /* \"#utility.yul\":1815:1845   */\n      tag_111\n        /* \"#utility.yul\":1833:1844   */\n      dup2\n        /* \"#utility.yul\":1815:1845   */\n      tag_62\n      jump\t// in\n    tag_111:\n        /* \"#utility.yul\":1804:1845   */\n      swap2\n      pop\n        /* \"#utility.yul\":1994:1995   */\n      dup3\n        /* \"#utility.yul\":1985:1992   */\n      dup3\n        /* \"#utility.yul\":1981:1996   */\n      div\n        /* \"#utility.yul\":1978:1979   */\n      dup5\n        /* \"#utility.yul\":1975:1997   */\n      eq\n        /* \"#utility.yul\":1955:1956   */\n      dup4\n        /* \"#utility.yul\":1948:1957   */\n      iszero\n        /* \"#utility.yul\":1928:2011   */\n      or\n        /* \"#utility.yul\":1905:2044   */\n      tag_112\n      jumpi\n        /* \"#utility.yul\":2024:2042   */\n      tag_113\n      tag_69\n      jump\t// in\n    tag_113:\n        /* \"#utility.yul\":1905:2044   */\n    tag_112:\n        /* \"#utility.yul\":1689:2051   */\n      pop\n        /* \"#utility.yul\":1641:2051   */\n      swap3\n      swap2\n      pop\n      pop\n      jump\t// out\n        /* \"#utility.yul\":2057:2237   */\n    tag_70:\n        /* \"#utility.yul\":2105:2182   */\n      0x4e487b7100000000000000000000000000000000000000000000000000000000\n        /* \"#utility.yul\":2102:2103   */\n      0x00\n        /* \"#utility.yul\":2095:2183   */\n      mstore\n        /* \"#utility.yul\":2202:2206   */\n      0x12\n        /* \"#utility.yul\":2199:2200   */\n      0x04\n        /* \"#utility.yul\":2192:2207   */\n      mstore\n        /* \"#utility.yul\":2226:2230   */\n      0x24\n        /* \"#utility.yul\":2223:2224   */\n      0x00\n        /* \"#utility.yul\":2216:2231   */\n      revert\n        /* \"#utility.yul\":2243:2428   */\n    tag_39:\n        /* \"#utility.yul\":2283:2284   */\n      0x00\n        /* \"#utility.yul\":2300:2320   */\n      tag_116\n        /* \"#utility.yul\":2318:2319   */\n      dup3\n        /* \"#utility.yul\":2300:2320   */\n      tag_62\n      jump\t// in\n    tag_116:\n        /* \"#utility.yul\":2295:2320   */\n      swap2\n      pop\n        /* \"#utility.yul\":2334:2354   */\n      tag_117\n        /* \"#utility.yul\":2352:2353   */\n      dup4\n        /* \"#utility.yul\":2334:2354   */\n      tag_62\n      jump\t// in\n    tag_117:\n        /* \"#utility.yul\":2329:2354   */\n      swap3\n      pop\n        /* \"#utility.yul\":2373:2374   */\n      dup3\n        /* \"#utility.yul\":2363:2398   */\n      tag_118\n      jumpi\n        /* \"#utility.yul\":2378:2396   */\n      tag_119\n      tag_70\n      jump\t// in\n    tag_119:\n        /* \"#utility.yul\":2363:2398   */\n    tag_118:\n        /* \"#utility.yul\":2420:2421   */\n      dup3\n        /* \"#utility.yul\":2417:2418   */\n      dup3\n        /* \"#utility.yul\":2413:2422   */\n      div\n        /* \"#utility.yul\":2408:2422   */\n      swap1\n      pop\n        /* \"#utility.yul\":2243:2428   */\n      swap3\n      swap2\n      pop\n      pop\n      jump\t// out\n        /* \"#utility.yul\":2434:2603   */\n    tag_71:\n        /* \"#utility.yul\":2518:2529   */\n      0x00\n        /* \"#utility.yul\":2552:2558   */\n      dup3\n        /* \"#utility.yul\":2547:2550   */\n      dup3\n        /* \"#utility.yul\":2540:2559   */\n      mstore\n        /* \"#utility.yul\":2592:2596   */\n      0x20\n        /* \"#utility.yul\":2587:2590   */\n      dup3\n        /* \"#utility.yul\":2583:2597   */\n      add\n        /* \"#utility.yul\":2568:2597   */\n      swap1\n      pop\n        /* \"#utility.yul\":2434:2603   */\n      swap3\n      swap2\n      pop\n      pop\n      jump\t// out\n        /* \"#utility.yul\":2609:2778   */\n    tag_72:\n        /* \"#utility.yul\":2749:2770   */\n      0x6e6f20617661696c6162656c20616d6f756e7400000000000000000000000000\n        /* \"#utility.yul\":2745:2746   */\n      0x00\n        /* \"#utility.yul\":2737:2743   */\n      dup3\n        /* \"#utility.yul\":2733:2747   */\n      add\n        /* \"#utility.yul\":2726:2771   */\n      mstore\n        /* \"#utility.yul\":2609:2778   */\n      pop\n      jump\t// out\n        /* \"#utility.yul\":2784:3150   */\n    tag_73:\n        /* \"#utility.yul\":2926:2929   */\n      0x00\n        /* \"#utility.yul\":2947:3014   */\n      tag_123\n        /* \"#utility.yul\":3011:3013   */\n      0x13\n        /* \"#utility.yul\":3006:3009   */\n      dup4\n        /* \"#utility.yul\":2947:3014   */\n      tag_71\n      jump\t// in\n    tag_123:\n        /* \"#utility.yul\":2940:3014   */\n      swap2\n      pop\n        /* \"#utility.yul\":3023:3116   */\n      tag_124\n        /* \"#utility.yul\":3112:3115   */\n      dup3\n        /* \"#utility.yul\":3023:3116   */\n      tag_72\n      jump\t// in\n    tag_124:\n        /* \"#utility.yul\":3141:3143   */\n      0x20\n        /* \"#utility.yul\":3136:3139   */\n      dup3\n        /* \"#utility.yul\":3132:3144   */\n      add\n        /* \"#utility.yul\":3125:3144   */\n      swap1\n      pop\n        /* \"#utility.yul\":2784:3150   */\n      swap2\n      swap1\n      pop\n      jump\t// out\n        /* \"#utility.yul\":3156:3575   */\n    tag_42:\n        /* \"#utility.yul\":3322:3326   */\n      0x00\n        /* \"#utility.yul\":3360:3362   */\n      0x20\n        /* \"#utility.yul\":3349:3358   */\n      dup3\n        /* \"#utility.yul\":3345:3363   */\n      add\n        /* \"#utility.yul\":3337:3363   */\n      swap1\n      pop\n        /* \"#utility.yul\":3409:3418   */\n      dup2\n        /* \"#utility.yul\":3403:3407   */\n      dup2\n        /* \"#utility.yul\":3399:3419   */\n      sub\n        /* \"#utility.yul\":3395:3396   */\n      0x00\n        /* \"#utility.yul\":3384:3393   */\n      dup4\n        /* \"#utility.yul\":3380:3397   */\n      add\n        /* \"#utility.yul\":3373:3420   */\n      mstore\n        /* \"#utility.yul\":3437:3568   */\n      tag_126\n        /* \"#utility.yul\":3563:3567   */\n      dup2\n        /* \"#utility.yul\":3437:3568   */\n      tag_73\n      jump\t// in\n    tag_126:\n        /* \"#utility.yul\":3429:3568   */\n      swap1\n      pop\n        /* \"#utility.yul\":3156:3575   */\n      swap2\n      swap1\n      pop\n      jump\t// out\n        /* \"#utility.yul\":3581:3728   */\n    tag_74:\n        /* \"#utility.yul\":3682:3693   */\n      0x00\n        /* \"#utility.yul\":3719:3722   */\n      dup2\n        /* \"#utility.yul\":3704:3722   */\n      swap1\n      pop\n        /* \"#utility.yul\":3581:3728   */\n      swap3\n      swap2\n      pop\n      pop\n      jump\t// out\n        /* \"#utility.yul\":3734:3848   */\n    tag_75:\n      pop\n      jump\t// out\n        /* \"#utility.yul\":3854:4252   */\n    tag_76:\n        /* \"#utility.yul\":4013:4016   */\n      0x00\n        /* \"#utility.yul\":4034:4117   */\n      tag_130\n        /* \"#utility.yul\":4115:4116   */\n      0x00\n        /* \"#utility.yul\":4110:4113   */\n      dup4\n        /* \"#utility.yul\":4034:4117   */\n      tag_74\n      jump\t// in\n    tag_130:\n        /* \"#utility.yul\":4027:4117   */\n      swap2\n      pop\n        /* \"#utility.yul\":4126:4219   */\n      tag_131\n        /* \"#utility.yul\":4215:4218   */\n      dup3\n        /* \"#utility.yul\":4126:4219   */\n      tag_75\n      jump\t// in\n    tag_131:\n        /* \"#utility.yul\":4244:4245   */\n      0x00\n        /* \"#utility.yul\":4239:4242   */\n      dup3\n        /* \"#utility.yul\":4235:4246   */\n      add\n        /* \"#utility.yul\":4228:4246   */\n      swap1\n      pop\n        /* \"#utility.yul\":3854:4252   */\n      swap2\n      swap1\n      pop\n      jump\t// out\n        /* \"#utility.yul\":4258:4637   */\n    tag_48:\n        /* \"#utility.yul\":4442:4445   */\n      0x00\n        /* \"#utility.yul\":4464:4611   */\n      tag_133\n        /* \"#utility.yul\":4607:4610   */\n      dup3\n        /* \"#utility.yul\":4464:4611   */\n      tag_76\n      jump\t// in\n    tag_133:\n        /* \"#utility.yul\":4457:4611   */\n      swap2\n      pop\n        /* \"#utility.yul\":4628:4631   */\n      dup2\n        /* \"#utility.yul\":4621:4631   */\n      swap1\n      pop\n        /* \"#utility.yul\":4258:4637   */\n      swap2\n      swap1\n      pop\n      jump\t// out\n        /* \"#utility.yul\":4643:4811   */\n    tag_77:\n        /* \"#utility.yul\":4783:4803   */\n      0x4661696c656420746f2073656e64204574680000000000000000000000000000\n        /* \"#utility.yul\":4779:4780   */\n      0x00\n        /* \"#utility.yul\":4771:4777   */\n      dup3\n        /* \"#utility.yul\":4767:4781   */\n      add\n        /* \"#utility.yul\":4760:4804   */\n      mstore\n        /* \"#utility.yul\":4643:4811   */\n      pop\n      jump\t// out\n        /* \"#utility.yul\":4817:5183   */\n    tag_78:\n        /* \"#utility.yul\":4959:4962   */\n      0x00\n        /* \"#utility.yul\":4980:5047   */\n      tag_136\n        /* \"#utility.yul\":5044:5046   */\n      0x12\n        /* \"#utility.yul\":5039:5042   */\n      dup4\n        /* \"#utility.yul\":4980:5047   */\n      tag_71\n      jump\t// in\n    tag_136:\n        /* \"#utility.yul\":4973:5047   */\n      swap2\n      pop\n        /* \"#utility.yul\":5056:5149   */\n      tag_137\n        /* \"#utility.yul\":5145:5148   */\n      dup3\n        /* \"#utility.yul\":5056:5149   */\n      tag_77\n      jump\t// in\n    tag_137:\n        /* \"#utility.yul\":5174:5176   */\n      0x20\n        /* \"#utility.yul\":5169:5172   */\n      dup3\n        /* \"#utility.yul\":5165:5177   */\n      add\n        /* \"#utility.yul\":5158:5177   */\n      swap1\n      pop\n        /* \"#utility.yul\":4817:5183   */\n      swap2\n      swap1\n      pop\n      jump\t// out\n        /* \"#utility.yul\":5189:5608   */\n    tag_54:\n        /* \"#utility.yul\":5355:5359   */\n      0x00\n        /* \"#utility.yul\":5393:5395   */\n      0x20\n        /* \"#utility.yul\":5382:5391   */\n      dup3\n        /* \"#utility.yul\":5378:5396   */\n      add\n        /* \"#utility.yul\":5370:5396   */\n      swap1\n      pop\n        /* \"#utility.yul\":5442:5451   */\n      dup2\n        /* \"#utility.yul\":5436:5440   */\n      dup2\n        /* \"#utility.yul\":5432:5452   */\n      sub\n        /* \"#utility.yul\":5428:5429   */\n      0x00\n        /* \"#utility.yul\":5417:5426   */\n      dup4\n        /* \"#utility.yul\":5413:5430   */\n      add\n        /* \"#utility.yul\":5406:5453   */\n      mstore\n        /* \"#utility.yul\":5470:5601   */\n      tag_139\n        /* \"#utility.yul\":5596:5600   */\n      dup2\n        /* \"#utility.yul\":5470:5601   */\n      tag_78\n      jump\t// in\n    tag_139:\n        /* \"#utility.yul\":5462:5601   */\n      swap1\n      pop\n        /* \"#utility.yul\":5189:5608   */\n      swap2\n      swap1\n      pop\n      jump\t// out\n        /* \"#utility.yul\":5695:5812   */\n    tag_80:\n        /* \"#utility.yul\":5804:5805   */\n      0x00\n        /* \"#utility.yul\":5801:5802   */\n      dup1\n        /* \"#utility.yul\":5794:5806   */\n      revert\n        /* \"#utility.yul\":5941:6046   */\n    tag_82:\n        /* \"#utility.yul\":5977:5984   */\n      0x00\n        /* \"#utility.yul\":6017:6039   */\n      0xffffffffffffffffffff\n        /* \"#utility.yul\":6010:6015   */\n      dup3\n        /* \"#utility.yul\":6006:6040   */\n      and\n        /* \"#utility.yul\":5995:6040   */\n      swap1\n      pop\n        /* \"#utility.yul\":5941:6046   */\n      swap2\n      swap1\n      pop\n      jump\t// out\n        /* \"#utility.yul\":6052:6172   */\n    tag_83:\n        /* \"#utility.yul\":6124:6147   */\n      tag_145\n        /* \"#utility.yul\":6141:6146   */\n      dup2\n        /* \"#utility.yul\":6124:6147   */\n      tag_82\n      jump\t// in\n    tag_145:\n        /* \"#utility.yul\":6117:6122   */\n      dup2\n        /* \"#utility.yul\":6114:6148   */\n      eq\n        /* \"#utility.yul\":6104:6166   */\n      tag_146\n      jumpi\n        /* \"#utility.yul\":6162:6163   */\n      0x00\n        /* \"#utility.yul\":6159:6160   */\n      dup1\n        /* \"#utility.yul\":6152:6164   */\n      revert\n        /* \"#utility.yul\":6104:6166   */\n    tag_146:\n        /* \"#utility.yul\":6052:6172   */\n      pop\n      jump\t// out\n        /* \"#utility.yul\":6178:6319   */\n    tag_84:\n        /* \"#utility.yul\":6234:6239   */\n      0x00\n        /* \"#utility.yul\":6265:6271   */\n      dup2\n        /* \"#utility.yul\":6259:6272   */\n      mload\n        /* \"#utility.yul\":6250:6272   */\n      swap1\n      pop\n        /* \"#utility.yul\":6281:6313   */\n      tag_148\n        /* \"#utility.yul\":6307:6312   */\n      dup2\n        /* \"#utility.yul\":6281:6313   */\n      tag_83\n      jump\t// in\n    tag_148:\n        /* \"#utility.yul\":6178:6319   */\n      swap3\n      swap2\n      pop\n      pop\n      jump\t// out\n        /* \"#utility.yul\":6325:6445   */\n    tag_85:\n        /* \"#utility.yul\":6397:6420   */\n      tag_150\n        /* \"#utility.yul\":6414:6419   */\n      dup2\n        /* \"#utility.yul\":6397:6420   */\n      tag_64\n      jump\t// in\n    tag_150:\n        /* \"#utility.yul\":6390:6395   */\n      dup2\n        /* \"#utility.yul\":6387:6421   */\n      eq\n        /* \"#utility.yul\":6377:6439   */\n      tag_151\n      jumpi\n        /* \"#utility.yul\":6435:6436   */\n      0x00\n        /* \"#utility.yul\":6432:6433   */\n      dup1\n        /* \"#utility.yul\":6425:6437   */\n      revert\n        /* \"#utility.yul\":6377:6439   */\n    tag_151:\n        /* \"#utility.yul\":6325:6445   */\n      pop\n      jump\t// out\n        /* \"#utility.yul\":6451:6592   */\n    tag_86:\n        /* \"#utility.yul\":6507:6512   */\n      0x00\n        /* \"#utility.yul\":6538:6544   */\n      dup2\n        /* \"#utility.yul\":6532:6545   */\n      mload\n        /* \"#utility.yul\":6523:6545   */\n      swap1\n      pop\n        /* \"#utility.yul\":6554:6586   */\n      tag_153\n        /* \"#utility.yul\":6580:6585   */\n      dup2\n        /* \"#utility.yul\":6554:6586   */\n      tag_85\n      jump\t// in\n    tag_153:\n        /* \"#utility.yul\":6451:6592   */\n      swap3\n      swap2\n      pop\n      pop\n      jump\t// out\n        /* \"#utility.yul\":6598:6720   */\n    tag_87:\n        /* \"#utility.yul\":6671:6695   */\n      tag_155\n        /* \"#utility.yul\":6689:6694   */\n      dup2\n        /* \"#utility.yul\":6671:6695   */\n      tag_62\n      jump\t// in\n    tag_155:\n        /* \"#utility.yul\":6664:6669   */\n      dup2\n        /* \"#utility.yul\":6661:6696   */\n      eq\n        /* \"#utility.yul\":6651:6714   */\n      tag_156\n      jumpi\n        /* \"#utility.yul\":6710:6711   */\n      0x00\n        /* \"#utility.yul\":6707:6708   */\n      dup1\n        /* \"#utility.yul\":6700:6712   */\n      revert\n        /* \"#utility.yul\":6651:6714   */\n    tag_156:\n        /* \"#utility.yul\":6598:6720   */\n      pop\n      jump\t// out\n        /* \"#utility.yul\":6726:6869   */\n    tag_88:\n        /* \"#utility.yul\":6783:6788   */\n      0x00\n        /* \"#utility.yul\":6814:6820   */\n      dup2\n        /* \"#utility.yul\":6808:6821   */\n      mload\n        /* \"#utility.yul\":6799:6821   */\n      swap1\n      pop\n        /* \"#utility.yul\":6830:6863   */\n      tag_158\n        /* \"#utility.yul\":6857:6862   */\n      dup2\n        /* \"#utility.yul\":6830:6863   */\n      tag_87\n      jump\t// in\n    tag_158:\n        /* \"#utility.yul\":6726:6869   */\n      swap3\n      swap2\n      pop\n      pop\n      jump\t// out\n        /* \"#utility.yul\":6875:7846   */\n    tag_59:\n        /* \"#utility.yul\":6978:6984   */\n      0x00\n        /* \"#utility.yul\":6986:6992   */\n      dup1\n        /* \"#utility.yul\":6994:7000   */\n      0x00\n        /* \"#utility.yul\":7002:7008   */\n      dup1\n        /* \"#utility.yul\":7010:7016   */\n      0x00\n        /* \"#utility.yul\":7059:7062   */\n      0xa0\n        /* \"#utility.yul\":7047:7056   */\n      dup7\n        /* \"#utility.yul\":7038:7045   */\n      dup9\n        /* \"#utility.yul\":7034:7057   */\n      sub\n        /* \"#utility.yul\":7030:7063   */\n      slt\n        /* \"#utility.yul\":7027:7147   */\n      iszero\n      tag_160\n      jumpi\n        /* \"#utility.yul\":7066:7145   */\n      tag_161\n      tag_80\n      jump\t// in\n    tag_161:\n        /* \"#utility.yul\":7027:7147   */\n    tag_160:\n        /* \"#utility.yul\":7186:7187   */\n      0x00\n        /* \"#utility.yul\":7211:7274   */\n      tag_162\n        /* \"#utility.yul\":7266:7273   */\n      dup9\n        /* \"#utility.yul\":7257:7263   */\n      dup3\n        /* \"#utility.yul\":7246:7255   */\n      dup10\n        /* \"#utility.yul\":7242:7264   */\n      add\n        /* \"#utility.yul\":7211:7274   */\n      tag_84\n      jump\t// in\n    tag_162:\n        /* \"#utility.yul\":7201:7274   */\n      swap6\n      pop\n        /* \"#utility.yul\":7157:7284   */\n      pop\n        /* \"#utility.yul\":7323:7325   */\n      0x20\n        /* \"#utility.yul\":7349:7412   */\n      tag_163\n        /* \"#utility.yul\":7404:7411   */\n      dup9\n        /* \"#utility.yul\":7395:7401   */\n      dup3\n        /* \"#utility.yul\":7384:7393   */\n      dup10\n        /* \"#utility.yul\":7380:7402   */\n      add\n        /* \"#utility.yul\":7349:7412   */\n      tag_86\n      jump\t// in\n    tag_163:\n        /* \"#utility.yul\":7339:7412   */\n      swap5\n      pop\n        /* \"#utility.yul\":7294:7422   */\n      pop\n        /* \"#utility.yul\":7461:7463   */\n      0x40\n        /* \"#utility.yul\":7487:7551   */\n      tag_164\n        /* \"#utility.yul\":7543:7550   */\n      dup9\n        /* \"#utility.yul\":7534:7540   */\n      dup3\n        /* \"#utility.yul\":7523:7532   */\n      dup10\n        /* \"#utility.yul\":7519:7541   */\n      add\n        /* \"#utility.yul\":7487:7551   */\n      tag_88\n      jump\t// in\n    tag_164:\n        /* \"#utility.yul\":7477:7551   */\n      swap4\n      pop\n        /* \"#utility.yul\":7432:7561   */\n      pop\n        /* \"#utility.yul\":7600:7602   */\n      0x60\n        /* \"#utility.yul\":7626:7690   */\n      tag_165\n        /* \"#utility.yul\":7682:7689   */\n      dup9\n        /* \"#utility.yul\":7673:7679   */\n      dup3\n        /* \"#utility.yul\":7662:7671   */\n      dup10\n        /* \"#utility.yul\":7658:7680   */\n      add\n        /* \"#utility.yul\":7626:7690   */\n      tag_88\n      jump\t// in\n    tag_165:\n        /* \"#utility.yul\":7616:7690   */\n      swap3\n      pop\n        /* \"#utility.yul\":7571:7700   */\n      pop\n        /* \"#utility.yul\":7739:7742   */\n      0x80\n        /* \"#utility.yul\":7766:7829   */\n      tag_166\n        /* \"#utility.yul\":7821:7828   */\n      dup9\n        /* \"#utility.yul\":7812:7818   */\n      dup3\n        /* \"#utility.yul\":7801:7810   */\n      dup10\n        /* \"#utility.yul\":7797:7819   */\n      add\n        /* \"#utility.yul\":7766:7829   */\n      tag_84\n      jump\t// in\n    tag_166:\n        /* \"#utility.yul\":7756:7829   */\n      swap2\n      pop\n        /* \"#utility.yul\":7710:7839   */\n      pop\n        /* \"#utility.yul\":6875:7846   */\n      swap3\n      swap6\n      pop\n      swap3\n      swap6\n      swap1\n      swap4\n      pop\n      jump\t// out\n        /* \"#utility.yul\":7852:8408   */\n    tag_61:\n        /* \"#utility.yul\":7891:7898   */\n      0x00\n        /* \"#utility.yul\":7914:7933   */\n      tag_168\n        /* \"#utility.yul\":7931:7932   */\n      dup3\n        /* \"#utility.yul\":7914:7933   */\n      tag_64\n      jump\t// in\n    tag_168:\n        /* \"#utility.yul\":7909:7933   */\n      swap2\n      pop\n        /* \"#utility.yul\":7947:7966   */\n      tag_169\n        /* \"#utility.yul\":7964:7965   */\n      dup4\n        /* \"#utility.yul\":7947:7966   */\n      tag_64\n      jump\t// in\n    tag_169:\n        /* \"#utility.yul\":7942:7966   */\n      swap3\n      pop\n        /* \"#utility.yul\":8001:8002   */\n      dup3\n        /* \"#utility.yul\":7998:7999   */\n      dup3\n        /* \"#utility.yul\":7994:8003   */\n      mul\n        /* \"#utility.yul\":8023:8052   */\n      tag_170\n        /* \"#utility.yul\":8040:8051   */\n      dup2\n        /* \"#utility.yul\":8023:8052   */\n      tag_64\n      jump\t// in\n    tag_170:\n        /* \"#utility.yul\":8012:8052   */\n      swap2\n      pop\n        /* \"#utility.yul\":8110:8176   */\n      0x8000000000000000000000000000000000000000000000000000000000000000\n        /* \"#utility.yul\":8107:8108   */\n      dup5\n        /* \"#utility.yul\":8104:8177   */\n      eq\n        /* \"#utility.yul\":8100:8101   */\n      0x00\n        /* \"#utility.yul\":8097:8098   */\n      dup5\n        /* \"#utility.yul\":8093:8102   */\n      slt\n        /* \"#utility.yul\":8089:8178   */\n      and\n        /* \"#utility.yul\":8086:8201   */\n      iszero\n      tag_171\n      jumpi\n        /* \"#utility.yul\":8181:8199   */\n      tag_172\n      tag_69\n      jump\t// in\n    tag_172:\n        /* \"#utility.yul\":8086:8201   */\n    tag_171:\n        /* \"#utility.yul\":8351:8352   */\n      dup3\n        /* \"#utility.yul\":8342:8349   */\n      dup3\n        /* \"#utility.yul\":8337:8353   */\n      sdiv\n        /* \"#utility.yul\":8334:8335   */\n      dup5\n        /* \"#utility.yul\":8331:8354   */\n      eq\n        /* \"#utility.yul\":8311:8312   */\n      dup4\n        /* \"#utility.yul\":8304:8313   */\n      iszero\n        /* \"#utility.yul\":8284:8368   */\n      or\n        /* \"#utility.yul\":8261:8401   */\n      tag_173\n      jumpi\n        /* \"#utility.yul\":8381:8399   */\n      tag_174\n      tag_69\n      jump\t// in\n    tag_174:\n        /* \"#utility.yul\":8261:8401   */\n    tag_173:\n        /* \"#utility.yul\":7899:8408   */\n      pop\n        /* \"#utility.yul\":7852:8408   */\n      swap3\n      swap2\n      pop\n      pop\n      jump\t// out\n\n    auxdata: 0xa264697066735822122030d24d537cdd101964c37a728ec56a2151056a6c963c499d8cc5f1772bb89ef864736f6c634300081a0033\n}\n",
				"bytecode": {
					"linkReferences": {},
					"object": "60a0604052731ddfe2c36478e61ce3acbe4b96e57143e1964ffd73ffffffffffffffffffffffffffffffffffffffff1660809073ffffffffffffffffffffffffffffffffffffffff1681525073694aa1769357215de4fac081bf1f309adc3253065f806101000a81548173ffffffffffffffffffffffffffffffffffffffff021916908373ffffffffffffffffffffffffffffffffffffffff1602179055503480156100a9575f80fd5b503373ffffffffffffffffffffffffffffffffffffffff1660808173ffffffffffffffffffffffffffffffffffffffff16815250506080516108066101045f395f81816101a00152818161020f015261038401526108065ff3fe60806040526004361061004d575f3560e01c806312065fe0146100665780633ccfd60b146100905780639b45a686146100a6578063b60d4288146100d0578063dba6335f146100da5761005c565b3661005c5761005a610104565b005b610064610104565b005b348015610071575f80fd5b5061007a610180565b60405161008791906103be565b60405180910390f35b34801561009b575f80fd5b506100a4610187565b005b3480156100b1575f80fd5b506100ba6102d7565b6040516100c791906103ef565b60405180910390f35b6100d8610104565b005b3480156100e5575f80fd5b506100ee610382565b6040516100fb9190610447565b60405180910390f35b5f61010d6102d7565b90505f670de0b6b3a76400008234610125919061048d565b61012f91906104fb565b9050674563918244f4000081101561017c576040517f08c379a000000000000000000000000000000000000000000000000000000000815260040161017390610585565b60405180910390fd5b5050565b5f47905090565b3373ffffffffffffffffffffffffffffffffffffffff167f000000000000000000000000000000000000000000000000000000000000000073ffffffffffffffffffffffffffffffffffffffff161461020c576040517f84bffbf400000000000000000000000000000000000000000000000000000000815260040160405180910390fd5b5f7f000000000000000000000000000000000000000000000000000000000000000073ffffffffffffffffffffffffffffffffffffffff1647604051610251906105d0565b5f6040518083038185875af1925050503d805f811461028b576040519150601f19603f3d011682016040523d82523d5f602084013e610290565b606091505b50509050806102d4576040517f08c379a00000000000000000000000000000000000000000000000000000000081526004016102cb9061062e565b60405180910390fd5b50565b5f805f8054906101000a900473ffffffffffffffffffffffffffffffffffffffff1673ffffffffffffffffffffffffffffffffffffffff1663feaf968c6040518163ffffffff1660e01b815260040160a060405180830381865afa158015610341573d5f803e3d5ffd5b505050506040513d601f19601f8201168201806040525081019061036591906106e3565b5050509150506402540be4008161037c919061075a565b91505090565b7f000000000000000000000000000000000000000000000000000000000000000081565b5f819050919050565b6103b8816103a6565b82525050565b5f6020820190506103d15f8301846103af565b92915050565b5f819050919050565b6103e9816103d7565b82525050565b5f6020820190506104025f8301846103e0565b92915050565b5f73ffffffffffffffffffffffffffffffffffffffff82169050919050565b5f61043182610408565b9050919050565b61044181610427565b82525050565b5f60208201905061045a5f830184610438565b92915050565b7f4e487b71000000000000000000000000000000000000000000000000000000005f52601160045260245ffd5b5f610497826103a6565b91506104a2836103a6565b92508282026104b0816103a6565b915082820484148315176104c7576104c6610460565b5b5092915050565b7f4e487b71000000000000000000000000000000000000000000000000000000005f52601260045260245ffd5b5f610505826103a6565b9150610510836103a6565b9250826105205761051f6104ce565b5b828204905092915050565b5f82825260208201905092915050565b7f6e6f20617661696c6162656c20616d6f756e74000000000000000000000000005f82015250565b5f61056f60138361052b565b915061057a8261053b565b602082019050919050565b5f6020820190508181035f83015261059c81610563565b9050919050565b5f81905092915050565b50565b5f6105bb5f836105a3565b91506105c6826105ad565b5f82019050919050565b5f6105da826105b0565b9150819050919050565b7f4661696c656420746f2073656e642045746800000000000000000000000000005f82015250565b5f61061860128361052b565b9150610623826105e4565b602082019050919050565b5f6020820190508181035f8301526106458161060c565b9050919050565b5f80fd5b5f69ffffffffffffffffffff82169050919050565b61066e81610650565b8114610678575f80fd5b50565b5f8151905061068981610665565b92915050565b610698816103d7565b81146106a2575f80fd5b50565b5f815190506106b38161068f565b92915050565b6106c2816103a6565b81146106cc575f80fd5b50565b5f815190506106dd816106b9565b92915050565b5f805f805f60a086880312156106fc576106fb61064c565b5b5f6107098882890161067b565b955050602061071a888289016106a5565b945050604061072b888289016106cf565b935050606061073c888289016106cf565b925050608061074d8882890161067b565b9150509295509295909350565b5f610764826103d7565b915061076f836103d7565b925082820261077d816103d7565b91507f800000000000000000000000000000000000000000000000000000000000000084145f841216156107b4576107b3610460565b5b82820584148315176107c9576107c8610460565b5b509291505056fea264697066735822122030d24d537cdd101964c37a728ec56a2151056a6c963c499d8cc5f1772bb89ef864736f6c634300081a0033",
					"opcodes": "PUSH1 0xA0 PUSH1 0x40 MSTORE PUSH20 0x1DDFE2C36478E61CE3ACBE4B96E57143E1964FFD PUSH20 0xFFFFFFFFFFFFFFFFFFFFFFFFFFFFFFFFFFFFFFFF AND PUSH1 0x80 SWAP1 PUSH20 0xFFFFFFFFFFFFFFFFFFFFFFFFFFFFFFFFFFFFFFFF AND DUP2 MSTORE POP PUSH20 0x694AA1769357215DE4FAC081BF1F309ADC325306 PUSH0 DUP1 PUSH2 0x100 EXP DUP2 SLOAD DUP2 PUSH20 0xFFFFFFFFFFFFFFFFFFFFFFFFFFFFFFFFFFFFFFFF MUL NOT AND SWAP1 DUP4 PUSH20 0xFFFFFFFFFFFFFFFFFFFFFFFFFFFFFFFFFFFFFFFF AND MUL OR SWAP1 SSTORE POP CALLVALUE DUP1 ISZERO PUSH2 0xA9 JUMPI PUSH0 DUP1 REVERT JUMPDEST POP CALLER PUSH20 0xFFFFFFFFFFFFFFFFFFFFFFFFFFFFFFFFFFFFFFFF AND PUSH1 0x80 DUP2 PUSH20 0xFFFFFFFFFFFFFFFFFFFFFFFFFFFFFFFFFFFFFFFF AND DUP2 MSTORE POP POP PUSH1 0x80 MLOAD PUSH2 0x806 PUSH2 0x104 PUSH0 CODECOPY PUSH0 DUP2 DUP2 PUSH2 0x1A0 ADD MSTORE DUP2 DUP2 PUSH2 0x20F ADD MSTORE PUSH2 0x384 ADD MSTORE PUSH2 0x806 PUSH0 RETURN INVALID PUSH1 0x80 PUSH1 0x40 MSTORE PUSH1 0x4 CALLDATASIZE LT PUSH2 0x4D JUMPI PUSH0 CALLDATALOAD PUSH1 0xE0 SHR DUP1 PUSH4 0x12065FE0 EQ PUSH2 0x66 JUMPI DUP1 PUSH4 0x3CCFD60B EQ PUSH2 0x90 JUMPI DUP1 PUSH4 0x9B45A686 EQ PUSH2 0xA6 JUMPI DUP1 PUSH4 0xB60D4288 EQ PUSH2 0xD0 JUMPI DUP1 PUSH4 0xDBA6335F EQ PUSH2 0xDA JUMPI PUSH2 0x5C JUMP JUMPDEST CALLDATASIZE PUSH2 0x5C JUMPI PUSH2 0x5A PUSH2 0x104 JUMP JUMPDEST STOP JUMPDEST PUSH2 0x64 PUSH2 0x104 JUMP JUMPDEST STOP JUMPDEST CALLVALUE DUP1 ISZERO PUSH2 0x71 JUMPI PUSH0 DUP1 REVERT JUMPDEST POP PUSH2 0x7A PUSH2 0x180 JUMP JUMPDEST PUSH1 0x40 MLOAD PUSH2 0x87 SWAP2 SWAP1 PUSH2 0x3BE JUMP JUMPDEST PUSH1 0x40 MLOAD DUP1 SWAP2 SUB SWAP1 RETURN JUMPDEST CALLVALUE DUP1 ISZERO PUSH2 0x9B JUMPI PUSH0 DUP1 REVERT JUMPDEST POP PUSH2 0xA4 PUSH2 0x187 JUMP JUMPDEST STOP JUMPDEST CALLVALUE DUP1 ISZERO PUSH2 0xB1 JUMPI PUSH0 DUP1 REVERT JUMPDEST POP PUSH2 0xBA PUSH2 0x2D7 JUMP JUMPDEST PUSH1 0x40 MLOAD PUSH2 0xC7 SWAP2 SWAP1 PUSH2 0x3EF JUMP JUMPDEST PUSH1 0x40 MLOAD DUP1 SWAP2 SUB SWAP1 RETURN JUMPDEST PUSH2 0xD8 PUSH2 0x104 JUMP JUMPDEST STOP JUMPDEST CALLVALUE DUP1 ISZERO PUSH2 0xE5 JUMPI PUSH0 DUP1 REVERT JUMPDEST POP PUSH2 0xEE PUSH2 0x382 JUMP JUMPDEST PUSH1 0x40 MLOAD PUSH2 0xFB SWAP2 SWAP1 PUSH2 0x447 JUMP JUMPDEST PUSH1 0x40 MLOAD DUP1 SWAP2 SUB SWAP1 RETURN JUMPDEST PUSH0 PUSH2 0x10D PUSH2 0x2D7 JUMP JUMPDEST SWAP1 POP PUSH0 PUSH8 0xDE0B6B3A7640000 DUP3 CALLVALUE PUSH2 0x125 SWAP2 SWAP1 PUSH2 0x48D JUMP JUMPDEST PUSH2 0x12F SWAP2 SWAP1 PUSH2 0x4FB JUMP JUMPDEST SWAP1 POP PUSH8 0x4563918244F40000 DUP2 LT ISZERO PUSH2 0x17C JUMPI PUSH1 0x40 MLOAD PUSH32 0x8C379A000000000000000000000000000000000000000000000000000000000 DUP2 MSTORE PUSH1 0x4 ADD PUSH2 0x173 SWAP1 PUSH2 0x585 JUMP JUMPDEST PUSH1 0x40 MLOAD DUP1 SWAP2 SUB SWAP1 REVERT JUMPDEST POP POP JUMP JUMPDEST PUSH0 SELFBALANCE SWAP1 POP SWAP1 JUMP JUMPDEST CALLER PUSH20 0xFFFFFFFFFFFFFFFFFFFFFFFFFFFFFFFFFFFFFFFF AND PUSH32 0x0 PUSH20 0xFFFFFFFFFFFFFFFFFFFFFFFFFFFFFFFFFFFFFFFF AND EQ PUSH2 0x20C JUMPI PUSH1 0x40 MLOAD PUSH32 0x84BFFBF400000000000000000000000000000000000000000000000000000000 DUP2 MSTORE PUSH1 0x4 ADD PUSH1 0x40 MLOAD DUP1 SWAP2 SUB SWAP1 REVERT JUMPDEST PUSH0 PUSH32 0x0 PUSH20 0xFFFFFFFFFFFFFFFFFFFFFFFFFFFFFFFFFFFFFFFF AND SELFBALANCE PUSH1 0x40 MLOAD PUSH2 0x251 SWAP1 PUSH2 0x5D0 JUMP JUMPDEST PUSH0 PUSH1 0x40 MLOAD DUP1 DUP4 SUB DUP2 DUP6 DUP8 GAS CALL SWAP3 POP POP POP RETURNDATASIZE DUP1 PUSH0 DUP2 EQ PUSH2 0x28B JUMPI PUSH1 0x40 MLOAD SWAP2 POP PUSH1 0x1F NOT PUSH1 0x3F RETURNDATASIZE ADD AND DUP3 ADD PUSH1 0x40 MSTORE RETURNDATASIZE DUP3 MSTORE RETURNDATASIZE PUSH0 PUSH1 0x20 DUP5 ADD RETURNDATACOPY PUSH2 0x290 JUMP JUMPDEST PUSH1 0x60 SWAP2 POP JUMPDEST POP POP SWAP1 POP DUP1 PUSH2 0x2D4 JUMPI PUSH1 0x40 MLOAD PUSH32 0x8C379A000000000000000000000000000000000000000000000000000000000 DUP2 MSTORE PUSH1 0x4 ADD PUSH2 0x2CB SWAP1 PUSH2 0x62E JUMP JUMPDEST PUSH1 0x40 MLOAD DUP1 SWAP2 SUB SWAP1 REVERT JUMPDEST POP JUMP JUMPDEST PUSH0 DUP1 PUSH0 DUP1 SLOAD SWAP1 PUSH2 0x100 EXP SWAP1 DIV PUSH20 0xFFFFFFFFFFFFFFFFFFFFFFFFFFFFFFFFFFFFFFFF AND PUSH20 0xFFFFFFFFFFFFFFFFFFFFFFFFFFFFFFFFFFFFFFFF AND PUSH4 0xFEAF968C PUSH1 0x40 MLOAD DUP2 PUSH4 0xFFFFFFFF AND PUSH1 0xE0 SHL DUP2 MSTORE PUSH1 0x4 ADD PUSH1 0xA0 PUSH1 0x40 MLOAD DUP1 DUP4 SUB DUP2 DUP7 GAS STATICCALL ISZERO DUP1 ISZERO PUSH2 0x341 JUMPI RETURNDATASIZE PUSH0 DUP1 RETURNDATACOPY RETURNDATASIZE PUSH0 REVERT JUMPDEST POP POP POP POP PUSH1 0x40 MLOAD RETURNDATASIZE PUSH1 0x1F NOT PUSH1 0x1F DUP3 ADD AND DUP3 ADD DUP1 PUSH1 0x40 MSTORE POP DUP2 ADD SWAP1 PUSH2 0x365 SWAP2 SWAP1 PUSH2 0x6E3 JUMP JUMPDEST POP POP POP SWAP2 POP POP PUSH5 0x2540BE400 DUP2 PUSH2 0x37C SWAP2 SWAP1 PUSH2 0x75A JUMP JUMPDEST SWAP2 POP POP SWAP1 JUMP JUMPDEST PUSH32 0x0 DUP2 JUMP JUMPDEST PUSH0 DUP2 SWAP1 POP SWAP2 SWAP1 POP JUMP JUMPDEST PUSH2 0x3B8 DUP2 PUSH2 0x3A6 JUMP JUMPDEST DUP3 MSTORE POP POP JUMP JUMPDEST PUSH0 PUSH1 0x20 DUP3 ADD SWAP1 POP PUSH2 0x3D1 PUSH0 DUP4 ADD DUP5 PUSH2 0x3AF JUMP JUMPDEST SWAP3 SWAP2 POP POP JUMP JUMPDEST PUSH0 DUP2 SWAP1 POP SWAP2 SWAP1 POP JUMP JUMPDEST PUSH2 0x3E9 DUP2 PUSH2 0x3D7 JUMP JUMPDEST DUP3 MSTORE POP POP JUMP JUMPDEST PUSH0 PUSH1 0x20 DUP3 ADD SWAP1 POP PUSH2 0x402 PUSH0 DUP4 ADD DUP5 PUSH2 0x3E0 JUMP JUMPDEST SWAP3 SWAP2 POP POP JUMP JUMPDEST PUSH0 PUSH20 0xFFFFFFFFFFFFFFFFFFFFFFFFFFFFFFFFFFFFFFFF DUP3 AND SWAP1 POP SWAP2 SWAP1 POP JUMP JUMPDEST PUSH0 PUSH2 0x431 DUP3 PUSH2 0x408 JUMP JUMPDEST SWAP1 POP SWAP2 SWAP1 POP JUMP JUMPDEST PUSH2 0x441 DUP2 PUSH2 0x427 JUMP JUMPDEST DUP3 MSTORE POP POP JUMP JUMPDEST PUSH0 PUSH1 0x20 DUP3 ADD SWAP1 POP PUSH2 0x45A PUSH0 DUP4 ADD DUP5 PUSH2 0x438 JUMP JUMPDEST SWAP3 SWAP2 POP POP JUMP JUMPDEST PUSH32 0x4E487B7100000000000000000000000000000000000000000000000000000000 PUSH0 MSTORE PUSH1 0x11 PUSH1 0x4 MSTORE PUSH1 0x24 PUSH0 REVERT JUMPDEST PUSH0 PUSH2 0x497 DUP3 PUSH2 0x3A6 JUMP JUMPDEST SWAP2 POP PUSH2 0x4A2 DUP4 PUSH2 0x3A6 JUMP JUMPDEST SWAP3 POP DUP3 DUP3 MUL PUSH2 0x4B0 DUP2 PUSH2 0x3A6 JUMP JUMPDEST SWAP2 POP DUP3 DUP3 DIV DUP5 EQ DUP4 ISZERO OR PUSH2 0x4C7 JUMPI PUSH2 0x4C6 PUSH2 0x460 JUMP JUMPDEST JUMPDEST POP SWAP3 SWAP2 POP POP JUMP JUMPDEST PUSH32 0x4E487B7100000000000000000000000000000000000000000000000000000000 PUSH0 MSTORE PUSH1 0x12 PUSH1 0x4 MSTORE PUSH1 0x24 PUSH0 REVERT JUMPDEST PUSH0 PUSH2 0x505 DUP3 PUSH2 0x3A6 JUMP JUMPDEST SWAP2 POP PUSH2 0x510 DUP4 PUSH2 0x3A6 JUMP JUMPDEST SWAP3 POP DUP3 PUSH2 0x520 JUMPI PUSH2 0x51F PUSH2 0x4CE JUMP JUMPDEST JUMPDEST DUP3 DUP3 DIV SWAP1 POP SWAP3 SWAP2 POP POP JUMP JUMPDEST PUSH0 DUP3 DUP3 MSTORE PUSH1 0x20 DUP3 ADD SWAP1 POP SWAP3 SWAP2 POP POP JUMP JUMPDEST PUSH32 0x6E6F20617661696C6162656C20616D6F756E7400000000000000000000000000 PUSH0 DUP3 ADD MSTORE POP JUMP JUMPDEST PUSH0 PUSH2 0x56F PUSH1 0x13 DUP4 PUSH2 0x52B JUMP JUMPDEST SWAP2 POP PUSH2 0x57A DUP3 PUSH2 0x53B JUMP JUMPDEST PUSH1 0x20 DUP3 ADD SWAP1 POP SWAP2 SWAP1 POP JUMP JUMPDEST PUSH0 PUSH1 0x20 DUP3 ADD SWAP1 POP DUP2 DUP2 SUB PUSH0 DUP4 ADD MSTORE PUSH2 0x59C DUP2 PUSH2 0x563 JUMP JUMPDEST SWAP1 POP SWAP2 SWAP1 POP JUMP JUMPDEST PUSH0 DUP2 SWAP1 POP SWAP3 SWAP2 POP POP JUMP JUMPDEST POP JUMP JUMPDEST PUSH0 PUSH2 0x5BB PUSH0 DUP4 PUSH2 0x5A3 JUMP JUMPDEST SWAP2 POP PUSH2 0x5C6 DUP3 PUSH2 0x5AD JUMP JUMPDEST PUSH0 DUP3 ADD SWAP1 POP SWAP2 SWAP1 POP JUMP JUMPDEST PUSH0 PUSH2 0x5DA DUP3 PUSH2 0x5B0 JUMP JUMPDEST SWAP2 POP DUP2 SWAP1 POP SWAP2 SWAP1 POP JUMP JUMPDEST PUSH32 0x4661696C656420746F2073656E64204574680000000000000000000000000000 PUSH0 DUP3 ADD MSTORE POP JUMP JUMPDEST PUSH0 PUSH2 0x618 PUSH1 0x12 DUP4 PUSH2 0x52B JUMP JUMPDEST SWAP2 POP PUSH2 0x623 DUP3 PUSH2 0x5E4 JUMP JUMPDEST PUSH1 0x20 DUP3 ADD SWAP1 POP SWAP2 SWAP1 POP JUMP JUMPDEST PUSH0 PUSH1 0x20 DUP3 ADD SWAP1 POP DUP2 DUP2 SUB PUSH0 DUP4 ADD MSTORE PUSH2 0x645 DUP2 PUSH2 0x60C JUMP JUMPDEST SWAP1 POP SWAP2 SWAP1 POP JUMP JUMPDEST PUSH0 DUP1 REVERT JUMPDEST PUSH0 PUSH10 0xFFFFFFFFFFFFFFFFFFFF DUP3 AND SWAP1 POP SWAP2 SWAP1 POP JUMP JUMPDEST PUSH2 0x66E DUP2 PUSH2 0x650 JUMP JUMPDEST DUP2 EQ PUSH2 0x678 JUMPI PUSH0 DUP1 REVERT JUMPDEST POP JUMP JUMPDEST PUSH0 DUP2 MLOAD SWAP1 POP PUSH2 0x689 DUP2 PUSH2 0x665 JUMP JUMPDEST SWAP3 SWAP2 POP POP JUMP JUMPDEST PUSH2 0x698 DUP2 PUSH2 0x3D7 JUMP JUMPDEST DUP2 EQ PUSH2 0x6A2 JUMPI PUSH0 DUP1 REVERT JUMPDEST POP JUMP JUMPDEST PUSH0 DUP2 MLOAD SWAP1 POP PUSH2 0x6B3 DUP2 PUSH2 0x68F JUMP JUMPDEST SWAP3 SWAP2 POP POP JUMP JUMPDEST PUSH2 0x6C2 DUP2 PUSH2 0x3A6 JUMP JUMPDEST DUP2 EQ PUSH2 0x6CC JUMPI PUSH0 DUP1 REVERT JUMPDEST POP JUMP JUMPDEST PUSH0 DUP2 MLOAD SWAP1 POP PUSH2 0x6DD DUP2 PUSH2 0x6B9 JUMP JUMPDEST SWAP3 SWAP2 POP POP JUMP JUMPDEST PUSH0 DUP1 PUSH0 DUP1 PUSH0 PUSH1 0xA0 DUP7 DUP9 SUB SLT ISZERO PUSH2 0x6FC JUMPI PUSH2 0x6FB PUSH2 0x64C JUMP JUMPDEST JUMPDEST PUSH0 PUSH2 0x709 DUP9 DUP3 DUP10 ADD PUSH2 0x67B JUMP JUMPDEST SWAP6 POP POP PUSH1 0x20 PUSH2 0x71A DUP9 DUP3 DUP10 ADD PUSH2 0x6A5 JUMP JUMPDEST SWAP5 POP POP PUSH1 0x40 PUSH2 0x72B DUP9 DUP3 DUP10 ADD PUSH2 0x6CF JUMP JUMPDEST SWAP4 POP POP PUSH1 0x60 PUSH2 0x73C DUP9 DUP3 DUP10 ADD PUSH2 0x6CF JUMP JUMPDEST SWAP3 POP POP PUSH1 0x80 PUSH2 0x74D DUP9 DUP3 DUP10 ADD PUSH2 0x67B JUMP JUMPDEST SWAP2 POP POP SWAP3 SWAP6 POP SWAP3 SWAP6 SWAP1 SWAP4 POP JUMP JUMPDEST PUSH0 PUSH2 0x764 DUP3 PUSH2 0x3D7 JUMP JUMPDEST SWAP2 POP PUSH2 0x76F DUP4 PUSH2 0x3D7 JUMP JUMPDEST SWAP3 POP DUP3 DUP3 MUL PUSH2 0x77D DUP2 PUSH2 0x3D7 JUMP JUMPDEST SWAP2 POP PUSH32 0x8000000000000000000000000000000000000000000000000000000000000000 DUP5 EQ PUSH0 DUP5 SLT AND ISZERO PUSH2 0x7B4 JUMPI PUSH2 0x7B3 PUSH2 0x460 JUMP JUMPDEST JUMPDEST DUP3 DUP3 SDIV DUP5 EQ DUP4 ISZERO OR PUSH2 0x7C9 JUMPI PUSH2 0x7C8 PUSH2 0x460 JUMP JUMPDEST JUMPDEST POP SWAP3 SWAP2 POP POP JUMP INVALID LOG2 PUSH5 0x6970667358 0x22 SLT KECCAK256 ADDRESS 0xD2 0x4D MSTORE8 PUSH29 0xDD101964C37A728EC56A2151056A6C963C499D8CC5F1772BB89EF86473 PUSH16 0x6C634300081A00330000000000000000 "
				},
				"gasEstimates": {
					"creation": {
						"codeDepositCost": "410800",
						"executionCost": "infinite",
						"totalCost": "infinite"
					},
					"external": {
						"": "infinite",
						"fund()": "infinite",
						"getBalance()": "312",
						"getETHData()": "infinite",
						"i_owner()": "infinite",
						"withdraw()": "infinite"
					}
				},
				"methodIdentifiers": {
					"fund()": "b60d4288",
					"getBalance()": "12065fe0",
					"getETHData()": "9b45a686",
					"i_owner()": "dba6335f",
					"withdraw()": "3ccfd60b"
				}
			},
			"storageLayout": {
				"storage": [
					{
						"astId": 68,
						"contract": "solidity/bai05/Crowdfunding.sol:Crowdfunding",
						"label": "dataFeed",
						"offset": 0,
						"slot": "0",
						"type": "t_contract(AggregatorV3Interface)45"
					}
				],
				"types": {
					"t_contract(AggregatorV3Interface)45": {
						"encoding": "inplace",
						"label": "contract AggregatorV3Interface",
						"numberOfBytes": "20"
					}
				}
			},
			"userdoc": {
				"kind": "user",
				"methods": {},
				"version": 1
			}
		}
	}
}