{
	"data": {
		"bytecode": {
			"linkReferences": {},
			"object": "6080604052348015600e575f80fd5b50610abf8061001c5f395ff3fe608060405234801561000f575f80fd5b506004361061009c575f3560e01c80638381f58a116100645780638381f58a1461015457806384bc5abe146101725780639b66e0ef146101a2578063d94ca9d7146101d3578063e2e4521a146101ef5761009c565b80630b9e24c4146100a0578063246a960a146100d05780632fae4ffd146100ec5780633fb5c1cb1461011c57806361d1e7d514610138575b5f80fd5b6100ba60048036038101906100b59190610447565b61020b565b6040516100c79190610481565b60405180910390f35b6100ea60048036038101906100e591906105d6565b610224565b005b61010660048036038101906101019190610630565b61024b565b6040516101139190610481565b60405180910390f35b61013660048036038101906101319190610447565b610278565b005b610152600480360381019061014d91906105d6565b610281565b005b61015c6102e2565b6040516101699190610481565b60405180910390f35b61018c60048036038101906101879190610447565b6102e7565b6040516101999190610481565b60405180910390f35b6101bc60048036038101906101b79190610447565b610307565b6040516101ca9291906106d7565b60405180910390f35b6101ed60048036038101906101e89190610705565b6103bc565b005b61020960048036038101906102049190610447565b6103da565b005b6002816005811061021a575f80fd5b015f915090505481565b80600883604051610235919061077d565b9081526020016040518091039020819055505050565b6008818051602081018201805184825260208301602085012081835280955050505050505f915090505481565b805f8190555050565b6007604051806040016040528084815260200183815250908060018154018082558091505060019003905f5260205f2090600202015f909190919091505f820151815f0190816102d1919061098d565b506020820151816001015550505050565b5f5481565b600181815481106102f6575f80fd5b905f5260205f20015f915090505481565b60078181548110610316575f80fd5b905f5260205f2090600202015f91509050805f018054610335906107c0565b80601f0160208091040260200160405190810160405280929190818152602001828054610361906107c0565b80156103ac5780601f10610383576101008083540402835291602001916103ac565b820191905f5260205f20905b81548152906001019060200180831161038f57829003601f168201915b5050505050908060010154905082565b80600283600581106103d1576103d0610a5c565b5b01819055505050565b600181908060018154018082558091505060019003905f5260205f20015f909190919091505550565b5f604051905090565b5f80fd5b5f80fd5b5f819050919050565b61042681610414565b8114610430575f80fd5b50565b5f813590506104418161041d565b92915050565b5f6020828403121561045c5761045b61040c565b5b5f61046984828501610433565b91505092915050565b61047b81610414565b82525050565b5f6020820190506104945f830184610472565b92915050565b5f80fd5b5f80fd5b5f601f19601f8301169050919050565b7f4e487b71000000000000000000000000000000000000000000000000000000005f52604160045260245ffd5b6104e8826104a2565b810181811067ffffffffffffffff82111715610507576105066104b2565b5b80604052505050565b5f610519610403565b905061052582826104df565b919050565b5f67ffffffffffffffff821115610544576105436104b2565b5b61054d826104a2565b9050602081019050919050565b828183375f83830152505050565b5f61057a6105758461052a565b610510565b9050828152602081018484840111156105965761059561049e565b5b6105a184828561055a565b509392505050565b5f82601f8301126105bd576105bc61049a565b5b81356105cd848260208601610568565b91505092915050565b5f80604083850312156105ec576105eb61040c565b5b5f83013567ffffffffffffffff81111561060957610608610410565b5b610615858286016105a9565b925050602061062685828601610433565b9150509250929050565b5f602082840312156106455761064461040c565b5b5f82013567ffffffffffffffff81111561066257610661610410565b5b61066e848285016105a9565b91505092915050565b5f81519050919050565b5f82825260208201905092915050565b8281835e5f83830152505050565b5f6106a982610677565b6106b38185610681565b93506106c3818560208601610691565b6106cc816104a2565b840191505092915050565b5f6040820190508181035f8301526106ef818561069f565b90506106fe6020830184610472565b9392505050565b5f806040838503121561071b5761071a61040c565b5b5f61072885828601610433565b925050602061073985828601610433565b9150509250929050565b5f81905092915050565b5f61075782610677565b6107618185610743565b9350610771818560208601610691565b80840191505092915050565b5f610788828461074d565b915081905092915050565b7f4e487b71000000000000000000000000000000000000000000000000000000005f52602260045260245ffd5b5f60028204905060018216806107d757607f821691505b6020821081036107ea576107e9610793565b5b50919050565b5f819050815f5260205f209050919050565b5f6020601f8301049050919050565b5f82821b905092915050565b5f6008830261084c7fffffffffffffffffffffffffffffffffffffffffffffffffffffffffffffffff82610811565b6108568683610811565b95508019841693508086168417925050509392505050565b5f819050919050565b5f61089161088c61088784610414565b61086e565b610414565b9050919050565b5f819050919050565b6108aa83610877565b6108be6108b682610898565b84845461081d565b825550505050565b5f90565b6108d26108c6565b6108dd8184846108a1565b505050565b5b81811015610900576108f55f826108ca565b6001810190506108e3565b5050565b601f82111561094557610916816107f0565b61091f84610802565b8101602085101561092e578190505b61094261093a85610802565b8301826108e2565b50505b505050565b5f82821c905092915050565b5f6109655f198460080261094a565b1980831691505092915050565b5f61097d8383610956565b9150826002028217905092915050565b61099682610677565b67ffffffffffffffff8111156109af576109ae6104b2565b5b6109b982546107c0565b6109c4828285610904565b5f60209050601f8311600181146109f5575f84156109e3578287015190505b6109ed8582610972565b865550610a54565b601f198416610a03866107f0565b5f5b82811015610a2a57848901518255600182019150602085019450602081019050610a05565b86831015610a475784890151610a43601f891682610956565b8355505b6001600288020188555050505b505050505050565b7f4e487b71000000000000000000000000000000000000000000000000000000005f52603260045260245ffdfea26469706673582212203b1e11f07ba513b3abce11a9222602d874bea25afcd5223c9a9f2e40705fc26f64736f6c634300081a0033",
			"opcodes": "PUSH1 0x80 PUSH1 0x40 MSTORE CALLVALUE DUP1 ISZERO PUSH1 0xE JUMPI PUSH0 DUP1 REVERT JUMPDEST POP PUSH2 0xABF DUP1 PUSH2 0x1C PUSH0 CODECOPY PUSH0 RETURN INVALID PUSH1 0x80 PUSH1 0x40 MSTORE CALLVALUE DUP1 ISZERO PUSH2 0xF JUMPI PUSH0 DUP1 REVERT JUMPDEST POP PUSH1 0x4 CALLDATASIZE LT PUSH2 0x9C JUMPI PUSH0 CALLDATALOAD PUSH1 0xE0 SHR DUP1 PUSH4 0x8381F58A GT PUSH2 0x64 JUMPI DUP1 PUSH4 0x8381F58A EQ PUSH2 0x154 JUMPI DUP1 PUSH4 0x84BC5ABE EQ PUSH2 0x172 JUMPI DUP1 PUSH4 0x9B66E0EF EQ PUSH2 0x1A2 JUMPI DUP1 PUSH4 0xD94CA9D7 EQ PUSH2 0x1D3 JUMPI DUP1 PUSH4 0xE2E4521A EQ PUSH2 0x1EF JUMPI PUSH2 0x9C JUMP JUMPDEST DUP1 PUSH4 0xB9E24C4 EQ PUSH2 0xA0 JUMPI DUP1 PUSH4 0x246A960A EQ PUSH2 0xD0 JUMPI DUP1 PUSH4 0x2FAE4FFD EQ PUSH2 0xEC JUMPI DUP1 PUSH4 0x3FB5C1CB EQ PUSH2 0x11C JUMPI DUP1 PUSH4 0x61D1E7D5 EQ PUSH2 0x138 JUMPI JUMPDEST PUSH0 DUP1 REVERT JUMPDEST PUSH2 0xBA PUSH1 0x4 DUP1 CALLDATASIZE SUB DUP2 ADD SWAP1 PUSH2 0xB5 SWAP2 SWAP1 PUSH2 0x447 JUMP JUMPDEST PUSH2 0x20B JUMP JUMPDEST PUSH1 0x40 MLOAD PUSH2 0xC7 SWAP2 SWAP1 PUSH2 0x481 JUMP JUMPDEST PUSH1 0x40 MLOAD DUP1 SWAP2 SUB SWAP1 RETURN JUMPDEST PUSH2 0xEA PUSH1 0x4 DUP1 CALLDATASIZE SUB DUP2 ADD SWAP1 PUSH2 0xE5 SWAP2 SWAP1 PUSH2 0x5D6 JUMP JUMPDEST PUSH2 0x224 JUMP JUMPDEST STOP JUMPDEST PUSH2 0x106 PUSH1 0x4 DUP1 CALLDATASIZE SUB DUP2 ADD SWAP1 PUSH2 0x101 SWAP2 SWAP1 PUSH2 0x630 JUMP JUMPDEST PUSH2 0x24B JUMP JUMPDEST PUSH1 0x40 MLOAD PUSH2 0x113 SWAP2 SWAP1 PUSH2 0x481 JUMP JUMPDEST PUSH1 0x40 MLOAD DUP1 SWAP2 SUB SWAP1 RETURN JUMPDEST PUSH2 0x136 PUSH1 0x4 DUP1 CALLDATASIZE SUB DUP2 ADD SWAP1 PUSH2 0x131 SWAP2 SWAP1 PUSH2 0x447 JUMP JUMPDEST PUSH2 0x278 JUMP JUMPDEST STOP JUMPDEST PUSH2 0x152 PUSH1 0x4 DUP1 CALLDATASIZE SUB DUP2 ADD SWAP1 PUSH2 0x14D SWAP2 SWAP1 PUSH2 0x5D6 JUMP JUMPDEST PUSH2 0x281 JUMP JUMPDEST STOP JUMPDEST PUSH2 0x15C PUSH2 0x2E2 JUMP JUMPDEST PUSH1 0x40 MLOAD PUSH2 0x169 SWAP2 SWAP1 PUSH2 0x481 JUMP JUMPDEST PUSH1 0x40 MLOAD DUP1 SWAP2 SUB SWAP1 RETURN JUMPDEST PUSH2 0x18C PUSH1 0x4 DUP1 CALLDATASIZE SUB DUP2 ADD SWAP1 PUSH2 0x187 SWAP2 SWAP1 PUSH2 0x447 JUMP JUMPDEST PUSH2 0x2E7 JUMP JUMPDEST PUSH1 0x40 MLOAD PUSH2 0x199 SWAP2 SWAP1 PUSH2 0x481 JUMP JUMPDEST PUSH1 0x40 MLOAD DUP1 SWAP2 SUB SWAP1 RETURN JUMPDEST PUSH2 0x1BC PUSH1 0x4 DUP1 CALLDATASIZE SUB DUP2 ADD SWAP1 PUSH2 0x1B7 SWAP2 SWAP1 PUSH2 0x447 JUMP JUMPDEST PUSH2 0x307 JUMP JUMPDEST PUSH1 0x40 MLOAD PUSH2 0x1CA SWAP3 SWAP2 SWAP1 PUSH2 0x6D7 JUMP JUMPDEST PUSH1 0x40 MLOAD DUP1 SWAP2 SUB SWAP1 RETURN JUMPDEST PUSH2 0x1ED PUSH1 0x4 DUP1 CALLDATASIZE SUB DUP2 ADD SWAP1 PUSH2 0x1E8 SWAP2 SWAP1 PUSH2 0x705 JUMP JUMPDEST PUSH2 0x3BC JUMP JUMPDEST STOP JUMPDEST PUSH2 0x209 PUSH1 0x4 DUP1 CALLDATASIZE SUB DUP2 ADD SWAP1 PUSH2 0x204 SWAP2 SWAP1 PUSH2 0x447 JUMP JUMPDEST PUSH2 0x3DA JUMP JUMPDEST STOP JUMPDEST PUSH1 0x2 DUP2 PUSH1 0x5 DUP2 LT PUSH2 0x21A JUMPI PUSH0 DUP1 REVERT JUMPDEST ADD PUSH0 SWAP2 POP SWAP1 POP SLOAD DUP2 JUMP JUMPDEST DUP1 PUSH1 0x8 DUP4 PUSH1 0x40 MLOAD PUSH2 0x235 SWAP2 SWAP1 PUSH2 0x77D JUMP JUMPDEST SWAP1 DUP2 MSTORE PUSH1 0x20 ADD PUSH1 0x40 MLOAD DUP1 SWAP2 SUB SWAP1 KECCAK256 DUP2 SWAP1 SSTORE POP POP POP JUMP JUMPDEST PUSH1 0x8 DUP2 DUP1 MLOAD PUSH1 0x20 DUP2 ADD DUP3 ADD DUP1 MLOAD DUP5 DUP3 MSTORE PUSH1 0x20 DUP4 ADD PUSH1 0x20 DUP6 ADD KECCAK256 DUP2 DUP4 MSTORE DUP1 SWAP6 POP POP POP POP POP POP PUSH0 SWAP2 POP SWAP1 POP SLOAD DUP2 JUMP JUMPDEST DUP1 PUSH0 DUP2 SWAP1 SSTORE POP POP JUMP JUMPDEST PUSH1 0x7 PUSH1 0x40 MLOAD DUP1 PUSH1 0x40 ADD PUSH1 0x40 MSTORE DUP1 DUP5 DUP2 MSTORE PUSH1 0x20 ADD DUP4 DUP2 MSTORE POP SWAP1 DUP1 PUSH1 0x1 DUP2 SLOAD ADD DUP1 DUP3 SSTORE DUP1 SWAP2 POP POP PUSH1 0x1 SWAP1 SUB SWAP1 PUSH0 MSTORE PUSH1 0x20 PUSH0 KECCAK256 SWAP1 PUSH1 0x2 MUL ADD PUSH0 SWAP1 SWAP2 SWAP1 SWAP2 SWAP1 SWAP2 POP PUSH0 DUP3 ADD MLOAD DUP2 PUSH0 ADD SWAP1 DUP2 PUSH2 0x2D1 SWAP2 SWAP1 PUSH2 0x98D JUMP JUMPDEST POP PUSH1 0x20 DUP3 ADD MLOAD DUP2 PUSH1 0x1 ADD SSTORE POP POP POP POP JUMP JUMPDEST PUSH0 SLOAD DUP2 JUMP JUMPDEST PUSH1 0x1 DUP2 DUP2 SLOAD DUP2 LT PUSH2 0x2F6 JUMPI PUSH0 DUP1 REVERT JUMPDEST SWAP1 PUSH0 MSTORE PUSH1 0x20 PUSH0 KECCAK256 ADD PUSH0 SWAP2 POP SWAP1 POP SLOAD DUP2 JUMP JUMPDEST PUSH1 0x7 DUP2 DUP2 SLOAD DUP2 LT PUSH2 0x316 JUMPI PUSH0 DUP1 REVERT JUMPDEST SWAP1 PUSH0 MSTORE PUSH1 0x20 PUSH0 KECCAK256 SWAP1 PUSH1 0x2 MUL ADD PUSH0 SWAP2 POP SWAP1 POP DUP1 PUSH0 ADD DUP1 SLOAD PUSH2 0x335 SWAP1 PUSH2 0x7C0 JUMP JUMPDEST DUP1 PUSH1 0x1F ADD PUSH1 0x20 DUP1 SWAP2 DIV MUL PUSH1 0x20 ADD PUSH1 0x40 MLOAD SWAP1 DUP2 ADD PUSH1 0x40 MSTORE DUP1 SWAP3 SWAP2 SWAP1 DUP2 DUP2 MSTORE PUSH1 0x20 ADD DUP3 DUP1 SLOAD PUSH2 0x361 SWAP1 PUSH2 0x7C0 JUMP JUMPDEST DUP1 ISZERO PUSH2 0x3AC JUMPI DUP1 PUSH1 0x1F LT PUSH2 0x383 JUMPI PUSH2 0x100 DUP1 DUP4 SLOAD DIV MUL DUP4 MSTORE SWAP2 PUSH1 0x20 ADD SWAP2 PUSH2 0x3AC JUMP JUMPDEST DUP3 ADD SWAP2 SWAP1 PUSH0 MSTORE PUSH1 0x20 PUSH0 KECCAK256 SWAP1 JUMPDEST DUP2 SLOAD DUP2 MSTORE SWAP1 PUSH1 0x1 ADD SWAP1 PUSH1 0x20 ADD DUP1 DUP4 GT PUSH2 0x38F JUMPI DUP3 SWAP1 SUB PUSH1 0x1F AND DUP3 ADD SWAP2 JUMPDEST POP POP POP POP POP SWAP1 DUP1 PUSH1 0x1 ADD SLOAD SWAP1 POP DUP3 JUMP JUMPDEST DUP1 PUSH1 0x2 DUP4 PUSH1 0x5 DUP2 LT PUSH2 0x3D1 JUMPI PUSH2 0x3D0 PUSH2 0xA5C JUMP JUMPDEST JUMPDEST ADD DUP2 SWAP1 SSTORE POP POP POP JUMP JUMPDEST PUSH1 0x1 DUP2 SWAP1 DUP1 PUSH1 0x1 DUP2 SLOAD ADD DUP1 DUP3 SSTORE DUP1 SWAP2 POP POP PUSH1 0x1 SWAP1 SUB SWAP1 PUSH0 MSTORE PUSH1 0x20 PUSH0 KECCAK256 ADD PUSH0 SWAP1 SWAP2 SWAP1 SWAP2 SWAP1 SWAP2 POP SSTORE POP JUMP JUMPDEST PUSH0 PUSH1 0x40 MLOAD SWAP1 POP SWAP1 JUMP JUMPDEST PUSH0 DUP1 REVERT JUMPDEST PUSH0 DUP1 REVERT JUMPDEST PUSH0 DUP2 SWAP1 POP SWAP2 SWAP1 POP JUMP JUMPDEST PUSH2 0x426 DUP2 PUSH2 0x414 JUMP JUMPDEST DUP2 EQ PUSH2 0x430 JUMPI PUSH0 DUP1 REVERT JUMPDEST POP JUMP JUMPDEST PUSH0 DUP2 CALLDATALOAD SWAP1 POP PUSH2 0x441 DUP2 PUSH2 0x41D JUMP JUMPDEST SWAP3 SWAP2 POP POP JUMP JUMPDEST PUSH0 PUSH1 0x20 DUP3 DUP5 SUB SLT ISZERO PUSH2 0x45C JUMPI PUSH2 0x45B PUSH2 0x40C JUMP JUMPDEST JUMPDEST PUSH0 PUSH2 0x469 DUP5 DUP3 DUP6 ADD PUSH2 0x433 JUMP JUMPDEST SWAP2 POP POP SWAP3 SWAP2 POP POP JUMP JUMPDEST PUSH2 0x47B DUP2 PUSH2 0x414 JUMP JUMPDEST DUP3 MSTORE POP POP JUMP JUMPDEST PUSH0 PUSH1 0x20 DUP3 ADD SWAP1 POP PUSH2 0x494 PUSH0 DUP4 ADD DUP5 PUSH2 0x472 JUMP JUMPDEST SWAP3 SWAP2 POP POP JUMP JUMPDEST PUSH0 DUP1 REVERT JUMPDEST PUSH0 DUP1 REVERT JUMPDEST PUSH0 PUSH1 0x1F NOT PUSH1 0x1F DUP4 ADD AND SWAP1 POP SWAP2 SWAP1 POP JUMP JUMPDEST PUSH32 0x4E487B7100000000000000000000000000000000000000000000000000000000 PUSH0 MSTORE PUSH1 0x41 PUSH1 0x4 MSTORE PUSH1 0x24 PUSH0 REVERT JUMPDEST PUSH2 0x4E8 DUP3 PUSH2 0x4A2 JUMP JUMPDEST DUP2 ADD DUP2 DUP2 LT PUSH8 0xFFFFFFFFFFFFFFFF DUP3 GT OR ISZERO PUSH2 0x507 JUMPI PUSH2 0x506 PUSH2 0x4B2 JUMP JUMPDEST JUMPDEST DUP1 PUSH1 0x40 MSTORE POP POP POP JUMP JUMPDEST PUSH0 PUSH2 0x519 PUSH2 0x403 JUMP JUMPDEST SWAP1 POP PUSH2 0x525 DUP3 DUP3 PUSH2 0x4DF JUMP JUMPDEST SWAP2 SWAP1 POP JUMP JUMPDEST PUSH0 PUSH8 0xFFFFFFFFFFFFFFFF DUP3 GT ISZERO PUSH2 0x544 JUMPI PUSH2 0x543 PUSH2 0x4B2 JUMP JUMPDEST JUMPDEST PUSH2 0x54D DUP3 PUSH2 0x4A2 JUMP JUMPDEST SWAP1 POP PUSH1 0x20 DUP2 ADD SWAP1 POP SWAP2 SWAP1 POP JUMP JUMPDEST DUP3 DUP2 DUP4 CALLDATACOPY PUSH0 DUP4 DUP4 ADD MSTORE POP POP POP JUMP JUMPDEST PUSH0 PUSH2 0x57A PUSH2 0x575 DUP5 PUSH2 0x52A JUMP JUMPDEST PUSH2 0x510 JUMP JUMPDEST SWAP1 POP DUP3 DUP2 MSTORE PUSH1 0x20 DUP2 ADD DUP5 DUP5 DUP5 ADD GT ISZERO PUSH2 0x596 JUMPI PUSH2 0x595 PUSH2 0x49E JUMP JUMPDEST JUMPDEST PUSH2 0x5A1 DUP5 DUP3 DUP6 PUSH2 0x55A JUMP JUMPDEST POP SWAP4 SWAP3 POP POP POP JUMP JUMPDEST PUSH0 DUP3 PUSH1 0x1F DUP4 ADD SLT PUSH2 0x5BD JUMPI PUSH2 0x5BC PUSH2 0x49A JUMP JUMPDEST JUMPDEST DUP2 CALLDATALOAD PUSH2 0x5CD DUP5 DUP3 PUSH1 0x20 DUP7 ADD PUSH2 0x568 JUMP JUMPDEST SWAP2 POP POP SWAP3 SWAP2 POP POP JUMP JUMPDEST PUSH0 DUP1 PUSH1 0x40 DUP4 DUP6 SUB SLT ISZERO PUSH2 0x5EC JUMPI PUSH2 0x5EB PUSH2 0x40C JUMP JUMPDEST JUMPDEST PUSH0 DUP4 ADD CALLDATALOAD PUSH8 0xFFFFFFFFFFFFFFFF DUP2 GT ISZERO PUSH2 0x609 JUMPI PUSH2 0x608 PUSH2 0x410 JUMP JUMPDEST JUMPDEST PUSH2 0x615 DUP6 DUP3 DUP7 ADD PUSH2 0x5A9 JUMP JUMPDEST SWAP3 POP POP PUSH1 0x20 PUSH2 0x626 DUP6 DUP3 DUP7 ADD PUSH2 0x433 JUMP JUMPDEST SWAP2 POP POP SWAP3 POP SWAP3 SWAP1 POP JUMP JUMPDEST PUSH0 PUSH1 0x20 DUP3 DUP5 SUB SLT ISZERO PUSH2 0x645 JUMPI PUSH2 0x644 PUSH2 0x40C JUMP JUMPDEST JUMPDEST PUSH0 DUP3 ADD CALLDATALOAD PUSH8 0xFFFFFFFFFFFFFFFF DUP2 GT ISZERO PUSH2 0x662 JUMPI PUSH2 0x661 PUSH2 0x410 JUMP JUMPDEST JUMPDEST PUSH2 0x66E DUP5 DUP3 DUP6 ADD PUSH2 0x5A9 JUMP JUMPDEST SWAP2 POP POP SWAP3 SWAP2 POP POP JUMP JUMPDEST PUSH0 DUP2 MLOAD SWAP1 POP SWAP2 SWAP1 POP JUMP JUMPDEST PUSH0 DUP3 DUP3 MSTORE PUSH1 0x20 DUP3 ADD SWAP1 POP SWAP3 SWAP2 POP POP JUMP JUMPDEST DUP3 DUP2 DUP4 MCOPY PUSH0 DUP4 DUP4 ADD MSTORE POP POP POP JUMP JUMPDEST PUSH0 PUSH2 0x6A9 DUP3 PUSH2 0x677 JUMP JUMPDEST PUSH2 0x6B3 DUP2 DUP6 PUSH2 0x681 JUMP JUMPDEST SWAP4 POP PUSH2 0x6C3 DUP2 DUP6 PUSH1 0x20 DUP7 ADD PUSH2 0x691 JUMP JUMPDEST PUSH2 0x6CC DUP2 PUSH2 0x4A2 JUMP JUMPDEST DUP5 ADD SWAP2 POP POP SWAP3 SWAP2 POP POP JUMP JUMPDEST PUSH0 PUSH1 0x40 DUP3 ADD SWAP1 POP DUP2 DUP2 SUB PUSH0 DUP4 ADD MSTORE PUSH2 0x6EF DUP2 DUP6 PUSH2 0x69F JUMP JUMPDEST SWAP1 POP PUSH2 0x6FE PUSH1 0x20 DUP4 ADD DUP5 PUSH2 0x472 JUMP JUMPDEST SWAP4 SWAP3 POP POP POP JUMP JUMPDEST PUSH0 DUP1 PUSH1 0x40 DUP4 DUP6 SUB SLT ISZERO PUSH2 0x71B JUMPI PUSH2 0x71A PUSH2 0x40C JUMP JUMPDEST JUMPDEST PUSH0 PUSH2 0x728 DUP6 DUP3 DUP7 ADD PUSH2 0x433 JUMP JUMPDEST SWAP3 POP POP PUSH1 0x20 PUSH2 0x739 DUP6 DUP3 DUP7 ADD PUSH2 0x433 JUMP JUMPDEST SWAP2 POP POP SWAP3 POP SWAP3 SWAP1 POP JUMP JUMPDEST PUSH0 DUP2 SWAP1 POP SWAP3 SWAP2 POP POP JUMP JUMPDEST PUSH0 PUSH2 0x757 DUP3 PUSH2 0x677 JUMP JUMPDEST PUSH2 0x761 DUP2 DUP6 PUSH2 0x743 JUMP JUMPDEST SWAP4 POP PUSH2 0x771 DUP2 DUP6 PUSH1 0x20 DUP7 ADD PUSH2 0x691 JUMP JUMPDEST DUP1 DUP5 ADD SWAP2 POP POP SWAP3 SWAP2 POP POP JUMP JUMPDEST PUSH0 PUSH2 0x788 DUP3 DUP5 PUSH2 0x74D JUMP JUMPDEST SWAP2 POP DUP2 SWAP1 POP SWAP3 SWAP2 POP POP JUMP JUMPDEST PUSH32 0x4E487B7100000000000000000000000000000000000000000000000000000000 PUSH0 MSTORE PUSH1 0x22 PUSH1 0x4 MSTORE PUSH1 0x24 PUSH0 REVERT JUMPDEST PUSH0 PUSH1 0x2 DUP3 DIV SWAP1 POP PUSH1 0x1 DUP3 AND DUP1 PUSH2 0x7D7 JUMPI PUSH1 0x7F DUP3 AND SWAP2 POP JUMPDEST PUSH1 0x20 DUP3 LT DUP2 SUB PUSH2 0x7EA JUMPI PUSH2 0x7E9 PUSH2 0x793 JUMP JUMPDEST JUMPDEST POP SWAP2 SWAP1 POP JUMP JUMPDEST PUSH0 DUP2 SWAP1 POP DUP2 PUSH0 MSTORE PUSH1 0x20 PUSH0 KECCAK256 SWAP1 POP SWAP2 SWAP1 POP JUMP JUMPDEST PUSH0 PUSH1 0x20 PUSH1 0x1F DUP4 ADD DIV SWAP1 POP SWAP2 SWAP1 POP JUMP JUMPDEST PUSH0 DUP3 DUP3 SHL SWAP1 POP SWAP3 SWAP2 POP POP JUMP JUMPDEST PUSH0 PUSH1 0x8 DUP4 MUL PUSH2 0x84C PUSH32 0xFFFFFFFFFFFFFFFFFFFFFFFFFFFFFFFFFFFFFFFFFFFFFFFFFFFFFFFFFFFFFFFF DUP3 PUSH2 0x811 JUMP JUMPDEST PUSH2 0x856 DUP7 DUP4 PUSH2 0x811 JUMP JUMPDEST SWAP6 POP DUP1 NOT DUP5 AND SWAP4 POP DUP1 DUP7 AND DUP5 OR SWAP3 POP POP POP SWAP4 SWAP3 POP POP POP JUMP JUMPDEST PUSH0 DUP2 SWAP1 POP SWAP2 SWAP1 POP JUMP JUMPDEST PUSH0 PUSH2 0x891 PUSH2 0x88C PUSH2 0x887 DUP5 PUSH2 0x414 JUMP JUMPDEST PUSH2 0x86E JUMP JUMPDEST PUSH2 0x414 JUMP JUMPDEST SWAP1 POP SWAP2 SWAP1 POP JUMP JUMPDEST PUSH0 DUP2 SWAP1 POP SWAP2 SWAP1 POP JUMP JUMPDEST PUSH2 0x8AA DUP4 PUSH2 0x877 JUMP JUMPDEST PUSH2 0x8BE PUSH2 0x8B6 DUP3 PUSH2 0x898 JUMP JUMPDEST DUP5 DUP5 SLOAD PUSH2 0x81D JUMP JUMPDEST DUP3 SSTORE POP POP POP POP JUMP JUMPDEST PUSH0 SWAP1 JUMP JUMPDEST PUSH2 0x8D2 PUSH2 0x8C6 JUMP JUMPDEST PUSH2 0x8DD DUP2 DUP5 DUP5 PUSH2 0x8A1 JUMP JUMPDEST POP POP POP JUMP JUMPDEST JUMPDEST DUP2 DUP2 LT ISZERO PUSH2 0x900 JUMPI PUSH2 0x8F5 PUSH0 DUP3 PUSH2 0x8CA JUMP JUMPDEST PUSH1 0x1 DUP2 ADD SWAP1 POP PUSH2 0x8E3 JUMP JUMPDEST POP POP JUMP JUMPDEST PUSH1 0x1F DUP3 GT ISZERO PUSH2 0x945 JUMPI PUSH2 0x916 DUP2 PUSH2 0x7F0 JUMP JUMPDEST PUSH2 0x91F DUP5 PUSH2 0x802 JUMP JUMPDEST DUP2 ADD PUSH1 0x20 DUP6 LT ISZERO PUSH2 0x92E JUMPI DUP2 SWAP1 POP JUMPDEST PUSH2 0x942 PUSH2 0x93A DUP6 PUSH2 0x802 JUMP JUMPDEST DUP4 ADD DUP3 PUSH2 0x8E2 JUMP JUMPDEST POP POP JUMPDEST POP POP POP JUMP JUMPDEST PUSH0 DUP3 DUP3 SHR SWAP1 POP SWAP3 SWAP2 POP POP JUMP JUMPDEST PUSH0 PUSH2 0x965 PUSH0 NOT DUP5 PUSH1 0x8 MUL PUSH2 0x94A JUMP JUMPDEST NOT DUP1 DUP4 AND SWAP2 POP POP SWAP3 SWAP2 POP POP JUMP JUMPDEST PUSH0 PUSH2 0x97D DUP4 DUP4 PUSH2 0x956 JUMP JUMPDEST SWAP2 POP DUP3 PUSH1 0x2 MUL DUP3 OR SWAP1 POP SWAP3 SWAP2 POP POP JUMP JUMPDEST PUSH2 0x996 DUP3 PUSH2 0x677 JUMP JUMPDEST PUSH8 0xFFFFFFFFFFFFFFFF DUP2 GT ISZERO PUSH2 0x9AF JUMPI PUSH2 0x9AE PUSH2 0x4B2 JUMP JUMPDEST JUMPDEST PUSH2 0x9B9 DUP3 SLOAD PUSH2 0x7C0 JUMP JUMPDEST PUSH2 0x9C4 DUP3 DUP3 DUP6 PUSH2 0x904 JUMP JUMPDEST PUSH0 PUSH1 0x20 SWAP1 POP PUSH1 0x1F DUP4 GT PUSH1 0x1 DUP2 EQ PUSH2 0x9F5 JUMPI PUSH0 DUP5 ISZERO PUSH2 0x9E3 JUMPI DUP3 DUP8 ADD MLOAD SWAP1 POP JUMPDEST PUSH2 0x9ED DUP6 DUP3 PUSH2 0x972 JUMP JUMPDEST DUP7 SSTORE POP PUSH2 0xA54 JUMP JUMPDEST PUSH1 0x1F NOT DUP5 AND PUSH2 0xA03 DUP7 PUSH2 0x7F0 JUMP JUMPDEST PUSH0 JUMPDEST DUP3 DUP2 LT ISZERO PUSH2 0xA2A JUMPI DUP5 DUP10 ADD MLOAD DUP3 SSTORE PUSH1 0x1 DUP3 ADD SWAP2 POP PUSH1 0x20 DUP6 ADD SWAP5 POP PUSH1 0x20 DUP2 ADD SWAP1 POP PUSH2 0xA05 JUMP JUMPDEST DUP7 DUP4 LT ISZERO PUSH2 0xA47 JUMPI DUP5 DUP10 ADD MLOAD PUSH2 0xA43 PUSH1 0x1F DUP10 AND DUP3 PUSH2 0x956 JUMP JUMPDEST DUP4 SSTORE POP JUMPDEST PUSH1 0x1 PUSH1 0x2 DUP9 MUL ADD DUP9 SSTORE POP POP POP JUMPDEST POP POP POP POP POP POP JUMP JUMPDEST PUSH32 0x4E487B7100000000000000000000000000000000000000000000000000000000 PUSH0 MSTORE PUSH1 0x32 PUSH1 0x4 MSTORE PUSH1 0x24 PUSH0 REVERT INVALID LOG2 PUSH5 0x6970667358 0x22 SLT KECCAK256 EXTCODESIZE 0x1E GT CREATE PUSH28 0xA513B3ABCE11A9222602D874BEA25AFCD5223C9A9F2E40705FC26F64 PUSH20 0x6F6C634300081A00330000000000000000000000 "
		},
		"gasEstimates": {
			"creation": {
				"codeDepositCost": "550200",
				"executionCost": "579",
				"totalCost": "550779"
			},
			"external": {
				"addNumberForName(string,uint256)": "infinite",
				"arrOfNumber(uint256)": "infinite",
				"dynamicArrayOfPerson(uint256)": "infinite",
				"fixedArrayOfNumber(uint256)": "infinite",
				"nameToNumber(string)": "infinite",
				"number()": "2424",
				"pushToArrayOfNumber(uint256)": "46909",
				"pushToDynamicArrayOfPerson(string,uint256)": "infinite",
				"pushToFixedArrayOfNumber(uint256,uint256)": "infinite",
				"setNumber(uint256)": "22581"
			}
		},
		"methodIdentifiers": {
			"addNumberForName(string,uint256)": "246a960a",
			"arrOfNumber(uint256)": "84bc5abe",
			"dynamicArrayOfPerson(uint256)": "9b66e0ef",
			"fixedArrayOfNumber(uint256)": "0b9e24c4",
			"nameToNumber(string)": "2fae4ffd",
			"number()": "8381f58a",
			"pushToArrayOfNumber(uint256)": "e2e4521a",
			"pushToDynamicArrayOfPerson(string,uint256)": "61d1e7d5",
			"pushToFixedArrayOfNumber(uint256,uint256)": "d94ca9d7",
			"setNumber(uint256)": "3fb5c1cb"
		}
	},
	"abi": [
		{
			"inputs": [
				{
					"internalType": "string",
					"name": "name",
					"type": "string"
				},
				{
					"internalType": "uint256",
					"name": "newNumber",
					"type": "uint256"
				}
			],
			"name": "addNumberForName",
			"outputs": [],
			"stateMutability": "nonpayable",
			"type": "function"
		},
		{
			"inputs": [
				{
					"internalType": "uint256",
					"name": "",
					"type": "uint256"
				}
			],
			"name": "arrOfNumber",
			"outputs": [
				{
					"internalType": "uint256",
					"name": "",
					"type": "uint256"
				}
			],
			"stateMutability": "view",
			"type": "function"
		},
		{
			"inputs": [
				{
					"internalType": "uint256",
					"name": "",
					"type": "uint256"
				}
			],
			"name": "dynamicArrayOfPerson",
			"outputs": [
				{
					"internalType": "string",
					"name": "name",
					"type": "string"
				},
				{
					"internalType": "uint256",
					"name": "number",
					"type": "uint256"
				}
			],
			"stateMutability": "view",
			"type": "function"
		},
		{
			"inputs": [
				{
					"internalType": "uint256",
					"name": "",
					"type": "uint256"
				}
			],
			"name": "fixedArrayOfNumber",
			"outputs": [
				{
					"internalType": "uint256",
					"name": "",
					"type": "uint256"
				}
			],
			"stateMutability": "view",
			"type": "function"
		},
		{
			"inputs": [
				{
					"internalType": "string",
					"name": "name",
					"type": "string"
				}
			],
			"name": "nameToNumber",
			"outputs": [
				{
					"internalType": "uint256",
					"name": "number",
					"type": "uint256"
				}
			],
			"stateMutability": "view",
			"type": "function"
		},
		{
			"inputs": [],
			"name": "number",
			"outputs": [
				{
					"internalType": "uint256",
					"name": "",
					"type": "uint256"
				}
			],
			"stateMutability": "view",
			"type": "function"
		},
		{
			"inputs": [
				{
					"internalType": "uint256",
					"name": "newNumber",
					"type": "uint256"
				}
			],
			"name": "pushToArrayOfNumber",
			"outputs": [],
			"stateMutability": "nonpayable",
			"type": "function"
		},
		{
			"inputs": [
				{
					"internalType": "string",
					"name": "name",
					"type": "string"
				},
				{
					"internalType": "uint256",
					"name": "newNumber",
					"type": "uint256"
				}
			],
			"name": "pushToDynamicArrayOfPerson",
			"outputs": [],
			"stateMutability": "nonpayable",
			"type": "function"
		},
		{
			"inputs": [
				{
					"internalType": "uint256",
					"name": "index",
					"type": "uint256"
				},
				{
					"internalType": "uint256",
					"name": "newNumber",
					"type": "uint256"
				}
			],
			"name": "pushToFixedArrayOfNumber",
			"outputs": [],
			"stateMutability": "nonpayable",
			"type": "function"
		},
		{
			"inputs": [
				{
					"internalType": "uint256",
					"name": "newNumber",
					"type": "uint256"
				}
			],
			"name": "setNumber",
			"outputs": [],
			"stateMutability": "nonpayable",
			"type": "function"
		}
	]
}